:020000040000FA
:0600000002011D021F4B6E
:03002B00021ADDD9
:03003B00021B287D
:03004300021AB4EA
:03005300021FBECB
:03006B00021AF97D
:10008300021DFFE5C754F84401F5C77901220000BA
:100093000080FB120086B90003020107E47921788E
:1000A30008B800028004F709D8FCE479297802B87B
:1000B30000028004F709D8FCE490028178D3790C1C
:1000C3008002F0A3D8FCD9FA781A90014D7A01BACC
:1000D30000028007E493A3F608DAF9900E53AA828C
:1000E300AB8390014E788179038015E493A3AC82AE
:1000F300AD838A828B83F0A3AA82AB838C828D83A8
:10010300D8E9D9E77582967583FF740212012F75BA
:100113008291758300740012012F75D00075813FA1
:10012300751881751902759F00020096C09FF59F8F
:10013300E473D09F22D083D082C09FE493C0E07445
:100143000193C0E0740293F59F2201FFFF1101990F
:10015300010F126404010297840100006984029371
:10016300840100005A0E0275840100005B0E028FA9
:1001730084030000A7020281840100005C0E01E8F1
:1001830003053F101A446F2053796E63000000008B
:1001930000000000000008415050205365742043C4
:1001A3006C6F636B000000001201004461746120F6
:1001B30048656164657200000000000012446174C8
:1001C3006120426F64790000000000000000029784
:1001D300840100006C840293840100008C0E027D74
:1001E300840300004405028F840300004C05029140
:1001F300840100008D0E0293840100009E0E027B99
:100203008402000052050291840100009F0E0293B4
:1002130084010000B00E027984030000B10E028F46
:10022300840300005605029184010000B30E02937B
:1002330084010000C40E0277840300005C05028F72
:10024300840300006405029184010000C50E0000D0
:10025300000000000000FF000130750302010600EA
:10026300000000000000000000000000000000008B
:100273000000000000000000000000FFFF060080F7
:100283000CE80305000A002C0101000100110941DB
:100293006464696E672041312D3030303030300571
:1002A300125000A000020A00020106050200230FFB
:1002B30018416464696E672041312D30303030302D
:1002C3003000000000004E0800005A08FF0000B490
:1002D300000028002800283075A000A000A000A07E
:1002E3000000080008E001F00010001000100010EA
:1002F300001000100050005000500010001000D0FB
:10030300070000000000000F000100050030750722
:10031300001000010081FF0000FF820AA00A880A82
:10032300FF02020208025000A0000000E803029747
:100333008401000063840293840100002910028D6C
:1003430084010000AA090293840100002A10028B91
:1003530084010000C0090293840100002B1002896C
:1003630084010000C2090293840100002C1002875B
:1003730084080000C3090293840100002D10028544
:10038300840100002E10FF0100FF2002978401006A
:1003930000608402938401000092100283840000B1
:1003A300000000028F84030000100A5810581058F0
:1003B30010581058105810581058105810581058FA
:1003C3001058105810E612FE12E0121201381DC622
:1003D3000212013827C60212013868C60212013818
:1003E300B1C602120138EBC60212013841C702122C
:1003F300013862C70212013811CA021201381ACA3F
:10040300021201386ECA0212013897CA0212013869
:10041300A1CA021201380FCB021201389FCB02127C
:100423000138FACB0212013828CC02120138B0CCC1
:1004330002120138EFCC0212013824CD0212013826
:1004430036CD0212013855CD021201385ECD0212AB
:10045300013825CE02120138008003120138F780DB
:10046300031201381181031201382281031201386A
:100473003483031201385383031201384DAA031244
:10048300013883AA03120138B7AA0312013804AC56
:1004930003120138A6B903120138BCB9031201389B
:1004A300C6B90312013810BA0312013884FF0112CE
:1004B3000138D1F702120138E4F702120138A5F826
:1004C30002120138E4F80212013801F9021201386C
:1004D3003AF90212013887F902120138B9F9021206
:1004E3000138F0F902120138F9FB0212013865FCF8
:1004F3000212013842B10312013865B10312013807
:1005030094B1031201382CB2031201386EB20312F4
:10051300013872FC02120138A2FC02120138B5FC48
:1005230002120138E4FC02120138FBFC021201380A
:10053300A7FD0212013840FE02120138C9FE021261
:1005430001380AB40312013818B4031201381BB47A
:100553000312013896B403120138E6B403120138CA
:1005630044BC0312013842BB031201389D840112BB
:1005730001387B86011201381A8801120138C588B7
:1005830001120138458901120138CA890112013863
:10059300F38901120138CE8D01120138458E011203
:1005A30001385C8F01120138968F01120138D78F01
:1005B300011201381E9101120138749101120138A0
:1005C300BD91011201382C92011201389892011247
:1005D3000138C99201120138E19201120138FA93EC
:1005E300011201380A9401120138C0950112013831
:1005F300D79501120138099601120138AB97011200
:1006030001383F9801120138EAB803120138FBB8E8
:10061300031201389BB90312013898BB0312013846
:10062300D7BB03120138E3FF0112013821B80312CB
:10063300013831B80312013849B803120138DDB863
:100643000312013848B603120138CDB6031201383C
:1006530031B703120138B7B203120138EBB20312F8
:1006630001380EB30312013882B303120138F6FFC7
:100673000112013857910312013884910312013892
:10068300F691031201380B92031201382C930312D3
:100693000138AF93031201382894031201384794A9
:1006A300031201386A9403120138A7940312013824
:1006B300BF94031201381595031201383B8D0312C1
:1006C3000138528D03120138CC8D03120138B08EDC
:1006D30003120138879003120138EC90031201389A
:1006E300439103120138F87F0012013819A803124D
:1006F3000138A3A90312013804AA031201384AAA34
:1007030003120138369903120138D19903120138C3
:100713006F9A03120138679B03120138199C031265
:100723000138419C031201384F9C03120138C49CC9
:1007330003120138D89C03120138E29C03120138DA
:100743002AF30212013864F30212013881F3021210
:10075300013824F40212013886F40212013882F5BA
:1007630002120138B4F602120138D9F60212013826
:1007730022F7021201388CF702120138AAAF0312D2
:100783000138FCAF031201386FB003120138DCB03B
:1007930003120138D2A503120138FCA50312013854
:1007A300CBA603120138A7A70312013853CE0212B6
:1007B30001381FCF0212013860CF021201389ACFDD
:1007C30002120138F8CF021201384CD0021201385C
:1007D300AAD00212013840D10212013848D20212C3
:1007E3000138D2D30212013870D402120138D7D49F
:1007F30002120138EAD402120138DED5021201389E
:1008030027D6021201388F8D02120138C1900212CD
:100813000138529202120138A99202120138C6928B
:1008230002120138469302120138C29402120138AF
:10083300919502120138FE9802120138E8990212CA
:1008430001382EAC011201388EAF0112013857B0B6
:100853000112013872B101120138A9B10112013834
:10086300D1B20112013853B30112013883B401121A
:1008730001380FB701120138DCB70112013813BA7E
:1008830001120138F7AD031201380EAE031201381D
:100893003DAE0312013876AE031201389EAE031249
:1008A3000138CCAE03120138E3AE03120138FAAEBD
:1008B3000312013810AF0312013837AF03120138A6
:1008C3004AAF0312013860AF0312013873AF03124A
:1008D300013898AF0312013871B30212013870B4B2
:1008E30002120138A5B402120138C6B4021201384B
:1008F300D6B402120138F7B40212013803B6021259
:100903000138D0B60212013843B702120138C9B711
:10091300021201380CB80212013843B8021201382E
:10092300C9B8021201389BB902120138F9B902128F
:10093300013811BA021201388BBA021201388EBA89
:100943000212013891BA0212013838BB021201387F
:1009530050BB0212013880BB02120138A0BB021245
:1009630001388EBC0212013844BD0212013882EEF6
:1009730002120138AAEE02120138D8EE021201382F
:100983000FEF0212013877EF02120138C0EF0212A3
:1009930001380BF00212013849F00212013886F0D7
:1009A30002120138B4F0021201385BF1021201386D
:1009B30065F10212013872F102120138A5F1021237
:1009C300013867F20212013873F2021201388BF216
:1009D3000212013895F2021201384AB703120138A4
:1009E30058B70312013870B70312013888B70312DE
:1009F30001383FBB01120138DDBB0112013855BC80
:100A0300011201386ABD01120138A4BD0112013877
:100A13004DBE0112013822BF0112013886C00112F6
:100A23000138DDC00112013864C1011201384BC223
:100A33000112013898C20112013826C3011201388C
:100A43004AC3011201381FC50112013860C50112E2
:100A5300013882C50112013803C601120138EDC6FF
:100A630001120138B3C701120138A6DD02120138A1
:100A730078DE0212013821DF0212013864DF02122C
:100A83000138F1DF021201387DE0021201385EE124
:100A9300021201388DE10212013889E20212013893
:100AA300D1E202120138D3E30212013817E4021231
:100AB30001383DE4021201383CBA03120138277CA5
:100AC300001201383D7C00120138637C00120138AA
:100AD3008B7D00120138957D00120138EE7E0012E5
:100AE3000138EE7F00120138B2E402120138E7E563
:100AF300021201381AE60212013864E602120138C2
:100B030022E802120138CA6C001201382D6D00125E
:100B13000138726E00120138826E00120138A56E20
:100B230000120138F06E00120138956F001201387F
:100B33008B7000120138557100120138CD7200120A
:100B430001380F7300120138AD7300120138FA73C4
:100B5300001201382074001201380E760012013899
:100B6300137600120138F477001201384878001226
:100B73000138AA7800120138D27800120138767948
:100B830000120138387A00120138697A00120138EC
:100B93006C7A00120138B47A00120138F67A001226
:100BA30001385D7B001201387CA3031201388FA347
:100BB30003120138A8A303120138F3A30312013867
:100BC300CEA4031201385DA503120138A8A50312B0
:100BD30001385026001201385C2600120138952690
:100BE30000120138DA260012013891270012013869
:100BF3001728001201384328001201387C280012FC
:100C03000138902A001201386C2C00120138572E3B
:100C1300001201388E2F00120138EE310012013814
:100C2300DA32001201382034001201382D35001257
:100C330001384A35001201388235001201389C35DB
:100C4300001201380436001201389E3A00120138AE
:100C53003F3B00120138903B00120138B73B0012B2
:100C63000138053C00120138233C00120138773C5F
:100C7300001201387F3D00120138073E001201388F
:100C8300D8E902120138E2E902120138ADEA021290
:100C93000138C8EA02120138EEEA0212013832EBD7
:100CA300021201386AEB0212013893EB0212013887
:100CB3000CEC0212013821EC0212013836EC02125C
:100CC30001386DEC0212013881EC02120138B2ECEA
:100CD30002120138ECEC0212013818ED021201384D
:100CE3006EED02120138C2ED021201380BEE021250
:100CF300013835EE021201385AEE021201384A95D4
:100D030003120138149603120138F79603120138BF
:100D13006D9703120138AF9703120138DC98031261
:100D230001387E9A02120138A79A02120138C09A3A
:100D330002120138059C02120138E39C02120138A9
:100D4300029D021201388F9D02120138D29D0212B8
:100D530001381F9F02120138BE9F021201383DA2C3
:100D630002120138D4A202120138A8A302120138D8
:100D73008AA402120138F6A50212013889A60212CA
:100D8300013833B5031201389CB503120138F0B5AD
:100D93000312013817B6031201389A84031201387B
:100DA300078503120138528503120138478603125F
:100DB30001384387031201382D8803120138AFBD70
:100DC30002120138F1BD02120138CBBE0212013802
:100DD300A4BF021201389FC0021201387EC1021261
:100DE3000138EAC102120138B1C2021201381CC330
:100DF3000212013883C302120138AEC30212013852
:100E03001FC402120138B2C4021201381BC50212F8
:100E1300013830C50212013878C50212013891C574
:100E230002120138F6C502120138F9C5021201385F
:100E330082A003120138AAA003120138E8A003120A
:100E43000138A6A10312013811A2031201382DA201
:100E53000312013855A20312013885A20312013887
:100E630094A2031201380EA30312013834A3031210
:100E7300013866D80112013843DA011201383EDC29
:100E83000112013811DD011201385CDD0112013854
:100E9300A7DD01120138B9DD01120138F9DD0112B4
:100EA30001382EDE011201387ADE01120138A9DE83
:100EB30001120138CCDE0112013819DF01120138A9
:100EC300A2DF01120138AFE1011201389AE30112E6
:100ED3000138DDE30112013842E50112013883E5EF
:100EE30001120138F6E50112013842E60112013818
:100EF3006DE60112013800A7021201382BA7021276
:100F0300013812AE0212013836B002120138F1B1C3
:100F1300021201384EB3021201386E3E001201383C
:100F2300053F00120138323F00120138783F0012AA
:100F33000138B740001201384E4200120138C8424E
:100F430000120138E34200120138584300120138FD
:100F5300874400120138E24500120138E4460012CA
:100F630001384148001201385A4800120138B74885
:100F730000120138994900120138CC490012013896
:100F83003C4A00120138B64A00120138054B0012E0
:100F93000138D14B00120138D64C00120138B54D3F
:100FA30000120138404E00120138AE4E00120138D3
:100FB300224F001201384B4F001201380A50001221
:100FC3000138845100120138A15100120138C05177
:100FD30000120138515200120138765200120138C2
:100FE3009E52001201381953001201387353001234
:100FF3000138C7540012013884550012013857567E
:101003000012013897E601120138E7E601120138B0
:10101300F3E601120138D0E70112013800E80112AA
:10102300013838E801120138B7E801120138EFE856
:101033000112013841E9011201387EE90112013838
:10104300A3EB01120138CFED01120138CAEF0112EF
:101053000138A5F101120138F9FF011201387D9819
:1010630001120138C79801120138A69E01120138F6
:1010730027A00112013886A60112013881A70112A7
:101083000138BEA701120138E1A70112013823A8D4
:10109300011201382CA80112013836A801120138B7
:1010A30022A90112013816AA01120138855600122D
:1010B3000138FD60001201380361001201380F6826
:1010C30000120138E59C031201387B9D031201389D
:1010D300919D031201380B9E03120138619E031286
:1010E30001389F9E03120138FC9E03120138799F39
:1010F30003120138829F031201388E9F03120138B5
:10110300A19F03120138DD9F03120138F39F0312DD
:10111300013852A003120138EF8803120138FC880A
:101123000312013816890312013855890312013855
:10113300938903120138F889031201380D8A0312C7
:101143000138188A03120138258A031201383C8AB0
:10115300031201384A8A03120138558A03120138EF
:10116300618A03120138708A031201387B8A0312E1
:1011730001389E8A03120138478B03120138578BBB
:1011830003120138718B031201388E8B031201385D
:10119300AA8B03120138CF8B03120138D98B0312A8
:1011A3000138ED8B031201380C8C031201386D8C5E
:1011B30003120138738C03120138798C031201383E
:1011C3007F8C031201388B8C03120138BE8C0312FF
:1011D30001380580021201388780021201383081FC
:1011E3000212013878820212013886840212013811
:1011F3006C8502120138A18502120138C3850212DF
:1012030001386C86021201383C8802120138658865
:1012130002120138DD88021201380F8902120138E7
:101223001C89021201386789021201388B89021264
:101233000138DC8B02120138E68C02120138428D30
:1012430002120138E8C901120138F9CA0112013842
:10125300DDCB01120138E7CB0112013809CC0112B1
:10126300013815CC01120138B9CD01120138E6CD90
:1012730001120138FCCE0112013851CF011201389D
:10128300A0D00112013875D101120138D1D1011258
:1012930001383CD20112013871D201120138B4D2A3
:1012A300011201387ED50112013896D50112013899
:1012B30027D60112013835D60112013882D6011220
:1012C300013890D601120138FCD60112013877D7C4
:1012D30001120138CED70112013866F40112013828
:1012E30088F40112013899F60112013858F90112F4
:1012F300013882FA0112013840FB011201382CFC3B
:10130300011201383EAC0312013863AC03120138F9
:10131300D9AC0312013889D60212013892D60212CF
:1013230001389BD60212013873D70212013824D92F
:101333000212013854D9021201387FD9021201383E
:10134300AFD902120138DAD9021201380EDA0212C9
:1013530001383ADA021201387DDA02120138A8DACA
:1013630002120138EFDA0212013844DB02120138AB
:1013730086DB02120138E0DB021201380BDC0212B9
:1013830001385ADC021201388ADC02120138B5DC5A
:1013930002120138E3DC0212013806DD02120138C1
:1013A300C5BA03120138F1BA031201381EBB031286
:1013B300013828BB0312013838BB0312013817BCAC
:1013C30003120138E1BB031201386EBC031201386A
:1013D30096BC03E066701008A3E066700A08A3E0F9
:1013E30066700408A3E06622C3E7960809E7960837
:1013F30009E7960809E79622C3E09608A3E0960852
:10140300A3E09608A3E09622C008C3E096F5080877
:10141300A3E096420808A3E096420808A3E0964595
:10142300087001D3D00822080808EAC0E0EBC0E046
:1014330086F0E7A4FA180986F0E7A42AFA180986C1
:10144300F0E7A42AFA180986F0E7A42AFA1986F025
:10145300E7A4FBE5F02AFA190886F0E7A42BFBE5DD
:10146300F03AFA190886F0E7A42BFBE5F03AFA18EC
:10147300180986F0E7A4C5F02BFBE43AFA1908E74C
:10148300C5F0C6A426F6E5F03BFBE43AFA1886F06D
:10149300E7A4F6E5F00826F6E43B08F6E43A08F696
:1014A300D0E0FBD0E0FA22E4CFC0E0E4CEC0E0E439
:1014B300CDC0E0E4CCC0E075F020C3E633F608E627
:1014C30033F608E633F608E633F6181818EC33FC5F
:1014D300ED33FDEE33FEEF33FFC3EC9709ED9709D0
:1014E300EE9709EF97191919400FFFEC97FC09EDD7
:1014F30097FD09EE97FE191906D5F0BEECF709ED35
:10150300F709EEF709EFF7191919D0E0FCD0E0FD60
:10151300D0E0FED0E0FF226016080808C6C313C659
:1015230018C613C618C613C618C613C6D5E0EA22D2
:101533007009080808226016181818C6C333C608AD
:10154300C633C608C633C608C633C6D5E0EA22E6A4
:1015530027F60809E637F60809E637F60809E637F5
:10156300F622E026F608A3E036F608A3E036F608EE
:10157300A3E036F622E026F008A3E036F008A3E065
:1015830036F008A3E036F022C3E697F60809E6979B
:10159300F60809E697F60809E697F622C3E096F0FF
:1015A30008A3E096F008A3E096F008A3E096F022E3
:1015B300E056F608A3E056F608A3E056F608A3E0C3
:1015C30056F622E056F008A3E056F008A3E056F0E2
:1015D30008A3E056F022E0F608A3E0F608A3E0F63D
:1015E30008A3E0F622E6F008A3E6F008A3E6F00875
:1015F300A3E6F022E0FAA3E0FBA3E0FCA3E0FD22D4
:10160300EAF0A3EBF0A3ECF0A3EDF022CAC0E0E60E
:10161300F0A308DAFAD0E0FA22CAC0E0E0A3C58258
:10162300CCC582C583CDC583F0A3C582CCC582C595
:1016330083CDC583DAE6D0E0CA22C3E498F8E499FF
:10164300F912167E8026C3E49AFAE49BFBE920E7AD
:10165300E912167EE498F8E499F922C3E498F8E4D1
:1016630099F912167EE498F8E499F9C3E49AFAE436
:101673009BFB22EB20E7CFE920E7E0B90010BB009A
:1016830008E88AF084F8AAF022E4FBC8FA22EB7097
:10169300227B10C833C8C933C9335007C39AC3DB8D
:1016A300F280069A50012ADBEAC833F4C8C933F43E
:1016B300C9FA2275F008E4C833C8C933C933C99AD3
:1016C300C99B5004C92AC93BD5F0ECFBC833F4C805
:1016D300E4C9FA22600D08C6A2E713C618C613C6EA
:1016E300D5E0F322600C08C6C313C618C613C6D5CB
:1016F300E0F422700422600D18C6C333C608C63353
:10170300C6D5E0F41822251810AF08F518400215C5
:10171300198008F51840021519D2AF22C0D0251838
:1017230010AF08F518500205198008F51850020586
:1017330019D2AFD0D0222518F58210AF08F5184082
:101743000215198008F51840021519D2AF851983BF
:10175300222518F582E43519F58322E4732518C58B
:1017630082C0E0E51934FFC583C0E0E518C3958264
:1017730024F810AF0885831985821880088583199A
:10178300858218D2AFCEF0A3E520F0A37808E6084F
:10179300F0A3DEFAEFF0A3E58124FAF8E608F0A35C
:1017A300E608F0A3E608F0A30808E608F0A3E608B5
:1017B300F0A315811581D0E0FED0E0F815811581E5
:1017C3001581E8C0E0EEC0E0222518C582C0E0E53F
:1017D3001934FFC583C0E0E518C3958224F910AF1F
:1017E300088583198582188008858319858218D214
:1017F300AFCEF0A3E520F0A37808E608F0A3DEFA65
:10180300EFF0A3E58124FBF8E608F0A3E608F0A3D4
:101813000808E608F0A3E608F0A315811581D0E0D7
:10182300FED0E0F815811581E8C0E0EEC0E0228526
:101833001983851882E0A3FEE0A3F5207808E0A3CE
:10184300F608DFFAE0A3FFE0A3C0E0E0A3C0E0E016
:10185300A3C0E0E0A3C0E0E0A3C0E010AF0885822E
:10186300188583198008858218858319D2AFD083A0
:10187300D082020135851983851882E0A3FEE0A397
:10188300F5207808E0A3F608DFFAE0A3FFE0A3C0A1
:10189300E0E0A3C0E0E0A3C0E0E0A3C0E010AF0835
:1018A3008582188583198008858218858319D2AFAC
:1018B300D083D08222C0D02518C582C0E0E5193478
:1018C300FFC583C0E0E518C3958224F310AF0885F4
:1018D30083198582188008858319858218D2AFC839
:1018E300F0A3E9F0A3EAF0A3EBF0A37908E709F08A
:1018F300A3D8FAECF0A3EDF0A3EEF0A3EFF0A3D09E
:10190300E0F0A3D0E0F0A3D0E0F0A3E520F0A3E55E
:10191300F0F0A322851983851882E0C0E0A3E0F9E3
:10192300A3E0FAA3E0FBA37808E0F608A3DFFAE05C
:10193300FCA3E0FDA3E0FEA3E0FFA3E0C0E0A3E07F
:10194300C0E0A3E0F5D0A3E0F520A3E0A3F5F010F9
:10195300AF088583198582188008858319858218C5
:10196300D2AFD082D083D0E0F8D0E03274048006C6
:10197300740280027401C0E0F404121739D0E0123B
:10198300160F227404800474028000CCC0E0EDC002
:10199300E0E518C39CCCAD1950011D10AF068C189F
:1019A3008D1980068C188D19D2AF12161CD0E0FD4C
:1019B300D0E0FC22D083D082E9C0E0E493A3C386C5
:1019C300F0C5F095F0F908E493A386F0C5F095F01F
:1019D300700BE493A3C3994005E9048002A3E47563
:1019E300F002A42582F582E5F03583F583D0E0F992
:1019F300E493A3C0E0E493C0E022D083D082ECC0A0
:101A0300E0EDC0E0E493A3FCE493A3FDED4C600D93
:101A1300121A49EC24FFFCED34FFFD80EFE493A39D
:101A2300FCE493A3FDED4C600D121A88EC24FFFC3B
:101A3300ED34FFFD80EFD0E0FDD0E0FCE493A3C0E4
:101A4300E0E493C0E022C0E0C3E4939608740193FA
:101A53009618400FE4936670080874019366187033
:101A6300007019A3A3C3E49396087401939618A373
:101A7300A3400DD0E0D0E0D0E0021A39A3A3A3A382
:101A8300A3A3D0E022C0E0C0F088F0E4936670081E
:101A93000874019366187000A8F0A3A3700BD0F02C
:101AA300D0E0D0E0D0E0021A39A3A3D0F0D0E022F6
:101AB400C0E074F21218B8A2AFE433FED2AFC2C0D1
:101AC400E5D1A2E4500653D1EF12073A751A00EE9D
:101AD400A2E092AF7F01021917C0E0C0D0E8C0E0D5
:101AE400E5A8D2AFC2C7751A00A2E792AFD0E0F85A
:101AF400D0D0D0E032C0E0C0D0E8C0E0C082C08323
:101B0400E5A8F8D2AF758900C2C59003B87401F096
:101B1400751A00E8A2E792AFD083D082D0E0F8D063
:101B2400D0D0E032C0E0C0D0E8C0E0E9C0E0C008F6
:101B3400C009C082C083A2AFE433F9D2AF90053CA0
:101B4400E0F8A3E0687008539AFBA374018026C2EE
:101B5400E990053CE0F50874012508F074BC2508FB
:101B6400F58274043400F583E0F5C190053CE0C3CC
:101B740094804002E4F0E9A2E092AFD083D082D016
:101B840009D008D0E0F9809474F51217CCEAFEEB82
:101B9400FFEE2434F8EF3400F988088909EE24357F
:101BA400F582EF3400F583E0F8EE2437F582EF3464
:101BB40000F583E0F50AEC850AF0A4FCAAF0850A96
:101BC400F0EDA42AFDE82CF8E43DF97A257B001217
:101BD400167EEA850882850983F05407F87401B8F3
:101BE40000028004C333D8FCC0E0E0131313541F75
:101BF400F8EE28F8EF3400F9E8245DF582E93400C2
:101C0400F583D0E0F8E0586008EE2434F582EF80E4
:101C14001EEE2436F582EF3400F583E0F5F0EA8415
:101C2400A8F0EE28F8EF3400F9E82438F582E93416
:101C340000F583E0F97F0402187874F51217CCEAF2
:101C4400FEEBFFEE2434F582EF3400F583E0C0E0D0
:101C5400EE2435F582EF3400F583D0E0F08E828FE8
:101C640083A3A3A3A3A3A3A3C082C0838E828F83D1
:101C7400A3A3A3A3A3E0F8A3E0F9D083D082E0C395
:101C840098F508A3E099F509EE2480F582EF340075
:101C9400F583E064017069EE2481F582EF3400F588
:101CA40083E0F8A3E0F98E828F83A3A3A3A3A3A365
:101CB400A3E0FCA3E0FD8E828F83A3A3A3A3A3E0F0
:101CC400FAA3E0FBC3EA9CEB9D5027C3EC98ED9983
:101CD400402EC3EA98EB9950277CF57D0BEEFAEF82
:101CE400FB120FB6EE2480F582EF3400F583E4F0A6
:101CF400800EC3EA98EB9940E0C3EC98ED9950D973
:101D0400EE2434F8EF3400F9E8FCE9FDEE2435F56F
:101D140082EF3400F583E0F8EE2437F582EF3400E7
:101D2400F583E0F50AE508850AF0A4F508AAF0852C
:101D34000AF0E509A42AF509E82508F8E43509F9C3
:101D44007A257B0012167EEA8C828D83F05407F884
:101D54007401B800028004C333D8FCC0E0E013135C
:101D640013541FF8EE28F8EF3400F9E8245DF582E7
:101D7400E93400F583D0E0F8E0586008EE2434F547
:101D840082EF801EEE2436F582EF3400F583E0F511
:101D9400F0EA84A8F0EE28F8EF3400F9E82438F5E6
:101DA40082E93400F583E0F9122639021C39C08235
:101DB400C083851882851983E0F8A3E0F9C3EA9CFF
:101DC400EB9D5012C3EC98ED994019C3EA98EB9936
:101DD400501279018010C3EA98EB9940F5C3EC984E
:101DE400ED9950EE7900D083D08222EAC39CFAEBBD
:101DF4009DFB22008521878522C622C0E0C0D0E851
:101E0400C0E0E9C0E0EAC0E0EBC0E0ECC0E0EDC057
:101E1400E0C008C009C00AC00BC082C083C0F0750E
:101E24009B00906182E0A2E64003021EDDE591A2E0
:101E3400E64003021EDD7591BF900ABAE0640570A6
:101E4400081210EE1210FA80031210F47521001219
:101E54001154E9900ABBF07900121148120F2C7A40
:101E6400017B00900AB9E0F912042E907803E06433
:101E7400426003021F26900C57E014F06003021F17
:101E840026C2AF121E8A00782AD0E0F618D0E0F6F7
:101E9400E59F5407F970059083C480039083C0784C
:101EA400081215D9E9C4C0E07829E65508F50808F0
:101EB400E65509F509740B78081216E7D0E02508F1
:101EC400F8906270E0A2E740F8E8C333906272F0E1
:101ED400906270E0D2E0F08049E0A2E55024E59100
:101EE400A2E5501E7591DF900ABAE0640D7013905C
:101EF4000ADCE004F064287002E4F07A00E0F912ED
:101F040011C6906181E0A2E35009E5E9A2E3500320
:101F140075E9F7A3E0A2E75009E591A2E75003753C
:101F2400917FD0F0D083D082D00BD00AD009D008D2
:101F3400D0E0FDD0E0FCD0E0FBD0E0FAD0E0F9D076
:101F4400E0F8D0D0D0E032C0E0C0D0C082C08390EE
:101F54006183E0A2E05009E5BFA2E0500375BFFE33
:101F6400E0A2E15009E5BFA2E1500375BFFDE0A284
:101F7400E25009E5BFA2E2500375BFFBE0A2E350C3
:101F840009E5BFA2E3500375BFF7E0A2E45009E5F9
:101F9400BFA2E4500375BFEFE0A2E55009E5BFA27C
:101FA400E5500375BFDFE0A2E65009E5BFA2E650A5
:101FB4000375BFBFD083D0828088C0E0C0D0E8C0A2
:101FC400E0E9C0E0EAC0E0EBC0E0ECC0E0EDC0E076
:101FD400C0F0E5A7A2E6500FE5A1A2E6500953A779
:101FE400BF75A1BF122023E5A7A2E5500CE5A1A26D
:101FF400E5500653A7DF75A1DFE5A7A2E15009E587
:10200400A1A2E1500375A1FDE5A7A2E2500CE5A150
:10201400A2E2500653A7FB75A1FBD0F0021F347453
:10202400F81217CC752101900ABAE06406701512F3
:1020340010828A828B83A3A3A3A3A3A3E0FAA3E0C1
:10204400FB1210DCA2AFE433FED2AF900AC0E0640E
:102054000170187A207B00900AB9E0F91204D67A4C
:10206400207B00900AB9E0F9120434906182E0D236
:10207400E6F0900C56E0602185C6228016900ABFD7
:10208400E064017008E5C654F84405F5C653BEFC87
:10209400121DF87401652160E4EEA2E092AF7F01A5
:1020A400021878008E238F2485822885832785183B
:1020B40082851983E0CEA3E0CF852882852783EB30
:1020C400C9EAC8EDCBECCA75F010C3E833C8E933EC
:1020D400C9EA33CAEB33CBC3EA9EF526EB9FF52559
:1020E400B35004AB25AA26EC33CCED33CDD5F0DACE
:1020F400AE23AF242274EB1217CC74FA1217098A98
:10210400088B098C148D15900ABAE024F7C3940542
:10211400500690844002225B1210828A0A8B0BAE16
:102124000AAF0BEE4F7003022258AC08AD098518B4
:1021340082851983AA82AB8312110C8E828F83A3AA
:10214400A378081215D990840478081215B3851859
:1021540082851983780C1215D9908404780C121591
:10216400B37808790C1213EB501F7808790C121508
:102174008B908408780812140B4047850810850951
:1021840011850A12850B138041850C10850D11856C
:102194000E12850F137810790812158B9084087825
:1021A4001012140B501C7510007511007512007577
:1021B40013017810790C12158B78107908121552C6
:1021C400800890844078101215D97409781012157B
:1021D4003390840C78081215D9781079081214AA4F
:1021E4008E828F83A3A3A3A3A3A3E0F8A3E0F97A29
:1021F400D07B0312167E88088909E4F50AF50B786A
:102204001079081215527404121754E0F8A3E0F977
:102214007AD07B0312167EE8FA8A08E4F50978106E
:1022240079081213EB50077810790812158B900A6D
:10223400BAE06408600AE064066005E06405701CA6
:10224400908410781012140B501290841C78101281
:10225400156580089083FC78101215D98514828541
:10226400158378101215E8740612171F7F0E0218D2
:102274007874F71217CC12111E900C54E06401709C
:1022840010906245E4F0A3F053F4F343FE0C539032
:10229400F31210CAE5C654804449F5C6E59E547F3E
:1022A400644970F8906185740FF0900C52E0F470FA
:1022B40002A3E0604E900C53E0600814601B1460AD
:1022C4002E8040750801750900900C52E0780812C0
:1022D40016F6E508F45280802A7508017509009005
:1022E4000C52E078081216F6E508F4529080147542
:1022F4000801750900900C52E078081216F6E508FA
:10230400F452A079007F0202187874F71217CCE90E
:10231400FEEAFF74016E700C7A807B00900AB9E0CB
:10232400F912042E902648E493F46008E493F91219
:102334000F20800953C680E59E547F70FA1210D096
:10234400900C54E064017003120F38900C52E0F4C6
:102354007002A3E0604B900C53E0600814601A1400
:10236400602C803D750801750900900C52E07808D6
:102374001216F6E508428080287508017509009058
:102384000C52E078081216F6E5084290801375089E
:1023940001750900900C52E078081216F6E508421F
:1023A400A012111E1210828A088B09A808A909E834
:1023B400496015E5E170FCE82414F582E93400F580
:1023C40083E0F46003E0F5E174016F700A7A019030
:1023D4000AB9E0F91204A002230974F11217CC8A95
:1023E400088B098C0A8D0B740F121754780C121574
:1023F400D990840478081215B3908404780C1215CB
:10240400B37808790C1213EB50157808790C12156F
:102414008B908408780812140B4015790180137886
:102424000C790812158B908408780C12140B40EB6D
:1024340079007F0802187874ED1217CC8A088B098A
:102444008C0A8D0B7413121754780C1215D99084BE
:102454000478081215B3908404780C1215B3780C20
:1024640079081213EB40117808790C12158BAA081D
:10247400AB09AC0AAD0B8022751000751100751202
:10248400007513017810790C12158B7810790812E5
:102494001552AA10AB11AC12AD137F0C0218789030
:1024A400840478081215D98A828B8378081215C699
:1024B4007F0402187874F51217CC8C828D83780807
:1024C4001215D98A828B83780812159FEA2404F89E
:1024D400EB3400F98C828D83A3A3A3A3E0FCA3E0D7
:1024E400FD88828983C3E09CF0A3E09DF088828903
:1024F40083C3E09420A3E0944E40229083D87808CC
:102504001215D98A828B8378081215788A828B8374
:10251400A3A3A3A3E02420F0A3E0344EF0808074AE
:10252400F51217CCE9FE900C0CE0FAA3E0FBEEC325
:1025340033F8E433F9748F28F582748239F583E033
:102544002AF508A3E03BF50978081219739083D49F
:102554001215F71220A8740212171F8A088B098C0F
:102564000A8D0B7410780812151AAA08AB097F0497
:1025740002187874F11217CC8A0C8B0D8C0E8D0F07
:10258400740F121754E0FAA3E0FB7411121754E00D
:10259400F508A3E0F5097413121754E0FEA3E0FF55
:1025A4007808121973EA2401F508EB3400F509E4FC
:1025B400F50AF50B780C790812142A908428780807
:1025C4001215D9780C790812142AAA0CAB0DAC0E8A
:1025D400AD0F1220A8740212171F8B09EA45096077
:1025E400047A0180027A00EC2AFCED3400FDECF858
:1025F400EDF97A717B0212167E88088909E4F50ADE
:10260400F50B8E828F8378081215E8ECF8EDF97AD1
:10261400717B0212167E8A088B09740578081216DB
:10262400F68E828F83A3A3A3A3E508F0A3E509F0A4
:102634007F08021878C082C083E9906000F0D083DC
:03264400D082221F
:10264800FFFFFFFFFFFFFFFFC082C083E9901091EB
:10265800F002286F74F7121760E99009D8F07C101F
:102668007D0A7AFF7BFF120C5C9009D974FFF0A3F6
:10267800F0A3E4F0A3F07905120BEA9009D8E0F989
:10268800120B127A747B0C120E3602357D74F4121A
:1026980017608A088B09EB548060309009D8E0F9FC
:1026A8001204168A0A8B0BAE0AAF0BEE4F60138E1C
:1026B800828F83E064B07003120BFCEEFAEFFB121A
:1026C8000404AA08E5096480FB80047A007B000200
:1026D800283E74F212176074FC121709EAFEEBFF29
:1026E8007412121754123A64EE4F700302277D7465
:1026F80002121754EEF0A3EF122A79ECF0A3ED12B0
:102708002A79AA82AB83120B0CE9F50A706AE508EC
:10271800450960648E828F83123A4AEE4F60567A7A
:10272800067B001204888A0C8B0DA80CA90DE849B9
:102738007005750A13804188828983E412278AEE1E
:10274800F0A3EF123A75E508F0A3E509F09009DE69
:102758001228119009DE7005123527801B123515D5
:102768008003EAFCEBFD8C828D8312281170F38CB8
:10277800828D8380E3750A02A90A740412171F0266
:102788003C64F0A3123A1BA32274F2121760890A60
:10279800E975F017A4FEAFF09009DDE4F09009DBCD
:1027A800122811600A12048E9009DBE4F0A3F0EEFF
:1027B800FAEFFB1204888A088B09EA4509602FEEB4
:1027C800FCEFFD79001203EC9009DBE508F0A3E5C6
:1027D80009F07B0080081227FBE4F0A3F00BEBC3A1
:1027E800950A40F2E50A9009DDF079008002791334
:1027F800023C64EB75F017A4F8A9F09009DBE02817
:10280800FAA3E0398A82F583221231B9EA4B22749D
:10281800F41217607900EAA2E0501B75088975095F
:102828008378081219737C047D007A937B10120B4D
:10283800E4740212171F7F04021832C082C083900A
:1028480009DE122876601C88828983A3A3E06A7057
:1028580003A3E06B8882898370E8A3A3A3A3123142
:10286800B580047A007B00D083D082020135123D06
:102878004AE8492274EE12176074FC121709EAFE3E
:10288800EBFF851882851983E4F0A3F0EE24021289
:102898003507EE2405123A22EE2404F50EEF122E27
:1028A8002EE024FE603924FC604624FE605224FE9B
:1028B800605E24FE700302298F24FE70030229F350
:1028C80024FE7003022A0224FE7003022A1124FC4B
:1028D8007003022A2024FE7003022A2F022A6C9019
:1028E80009F77417F0A3E4122A8112088A022A6CE5
:1028F800851882851983AC82AD83120C02022A3CAA
:10290800851882851983AC82AD83120C08022A3C93
:10291800850C08850D097402121754AC82AD8385A5
:1029280008828509831231B5120B308A0C8B0DACE5
:102938000CAD0DEC4D603BE4F50CF50D780C12195F
:1029480073750CF7750D09780C121973750CF875F9
:102958000D09780C121973740812175412198A1277
:102968003D6E12171FE9F50C700B1231AB1208A25D
:10297800800F750C01850882850983122A6F12352C
:1029880027850C08022A3F7402121754AC82AD83C3
:10299800850C82850D83122F80603C850C82850D05
:1029A80083A3A312198A7510F775110978101219E3
:1029B800737510F8751109781012197374081217C5
:1029C8005412198A123D6E12171FE9F509700B127D
:1029D80031AB1208A8800F750901850C82850D831B
:1029E800122A6F123527850908804C8518828519A7
:1029F80083AC82AD83120C0E803A851882851983C8
:102A0800AC82AD83120C14802B851882851983AC97
:102A180082AD83120C1A801C851882851983AC82BA
:102A2800AD83120C20800D851882851983AC82AD88
:102A380083120C26E9F508E50860298E828F83A3A6
:102A4800E06414601F850E82850F83E09009F712F9
:102A58002A79123D469009F8123527E508A3122A6B
:102A680081120884023416123D4A8518828519831A
:102A780022F085188285198322F07CF77D09850A62
:102A880082850B831231B92274EE12176074FC121E
:102A980017098A0A8B0B8C0E8D0FEA2405F508EBB3
:102AA8003400F5097C157D0079007AF77B0912035B
:102AB800ECE5082402F50CE509123A25851882850B
:102AC80019838582108583117810121973850882FD
:102AD800850983A3A3A3A3122F77121973E50824EA
:102AE80005F510E5093400F5117810121973850CF5
:102AF80082850D831232CC120B2A740612171F8A94
:102B0800108B11AE10AF11E50A2402F50AE50B127D
:102B1800350AEE4F7003022C4E80177402121754B8
:102B28001231B588828983EAF0A3EBF09009F7E0C7
:102B380004F09009F7E0C394054003022C4EE4F535
:102B480010F51178101219737510E07511097810C5
:102B58001219737510E1751109781012197374063A
:102B680012175412198A7910EEFCEFFD123D7012FB
:102B7800171FE9705E850882850983A3A3A3A3A311
:102B8800A3A3E0F89009E0E0687048122F771219C3
:102B9800737CE17D09E5082408FAE5093400FB1295
:102BA80003E6740212171FE960298E828F83A3A39C
:102BB800A3A31231B59009F7E0F51074027810124A
:102BC80016F674F82510F58274093511F583EAF0C4
:102BD800A3EBF074021217548582108583117810C4
:102BE800121973740212175412198A850C82850DF2
:102BF800831231DB12171F8A108B11AE10AF1190A0
:102C080009F7E0F510751100740278101216F674C1
:102C1800F72510F874093511F988828983A31228D9
:102C2800117003022B1AE82403080808E93400F994
:102C3800EE4F6003022B238882898374FFF0A3F090
:102C48009009F7E004F09009F7E0600A1231AB123E
:102C580008967900800B85088285098312351E79CC
:102C68000A02341674EA12176074FE1217098C12DD
:102C78008D13EA2405F50CEB123D58123A4E7508EF
:102C880000750900EA2402F510EB3400F5118518E7
:102C98008285198385820A85830B780A12197385C0
:102CA8000C82850D83A3A3A3A3122E44121973E5E6
:102CB8000C2405F50AE50D12350A780A12197385F0
:102CC8000C82850D83122E48120B2A740612171FC8
:102CD8008A0A8B0BEA450B7003022DE9EA2404F5F6
:102CE8000EEB122E2E123A4E8A828B83A3A3A3E0F8
:102CF800F98510828511831231BF6003022DE9E442
:102D0800F514F51578141219737514E0751509780A
:102D1800141219737514E17515097814121973745E
:102D28000612175412198A7913AC0AAD0B85108252
:102D3800851183123D7612171FE9F5096003022DEC
:102D4800E99009E0E0F8E5087009E024029009F844
:102D5800F080149009F8E0FCE82402FAE43400FB5F
:102D6800EA6C7001EB707E850882AA82122F6E943D
:102D780014122F66506B850E82850F83E0C0E074B5
:102D8800F92A122E25D0E0F00508850E82850F83DA
:102D9800A3E0C0E085080A74F9250A122E25D0E0C0
:102DA800F005089009E0122E441219737CE17D09A0
:102DB80085080A74F9250A122E3812171F9009E09F
:102DC800E02508F50874FF6E700374FF6F6012EE5B
:102DD80024010EEF3400FFE508C394145003022CBD
:102DE80096E50860131231C9851082851183123166
:102DF800B512089C79008014E509700375090A85E5
:102E08001282851383EEF0A3EFF0A909740212175A
:102E18001F7F0E02183285080C74F9250CF5827490
:102E2800093400F583223400F50F850E82F58322DC
:102E3800FA74093400FB1203D4740222123A842271
:102E4800A3A3122E4E22123515FDEEFAEFFB2274C3
:102E5800EE12176074FE1217098C0E8D0FEA240506
:102E6800F50CEB123A25750B009009F7E4F0F50A1A
:102E7800EA2402F508EB3400F50980449009F7E0EC
:102E8800FA9009E0E0F8122F6E9417122F66400DA1
:102E98009009F7E0F87416C3989009E0F0122F77BC
:102EA8001219737CE17D0974F82AFA7409122E3B11
:102EB80012171F9009E0E0F89009F7E028F0050ADA
:102EC800E50C2416F582E50D122E29E0F8E50AC373
:102ED8009850749009F7E0C39416506BE50AC33311
:102EE800F8E433F9E50C28FEE50D39FF85188285ED
:102EF8001983AC82AD838E828F83122F8070087500
:102F08000B0112351A8050E4F510F51178101219DA
:102F1800737510E075110978101219737510E17541
:102F280011097810121973740612175412198A7934
:102F380016850882850983123D7612171FE9F50B5D
:102F48007003022E8480BB7CF77D09850882850981
:102F5800831231B51208AEA90B7402023418E99431
:102F680000C365D03322EA28F8E43400F9E822E007
:102F7800F51075110078102212340D8A108B11ACDF
:102F880010AD11EC4D2274EA12176074FC12170987
:102F98008A0C8B0D8C128D13EA2405F50AEB123579
:102FA8000A750800750900E50A2402F510E50B34D6
:102FB80000F511740212175485820E85830F780E5E
:102FC800121973850A82850B83A3A3A3A3123A2A35
:102FD800121973E50A2405F50EE50B3400F50F7890
:102FE8000E1219738510828511831235101231AFB4
:102FF800120B2A740612171F8A0E8B0FAE0EAF0F14
:10300800E50C2402F50EE50D3400F50F80388882B2
:10301800898374FFF00508122E1E74FFF0050890CE
:1030280009E0E0F50C750D00780C1219737CE17D50
:103038000985080C74F9250C122E3812171F9009EF
:10304800E0E02508F508EE4F60278E828F83A3A362
:10305800A3E0F9850E82850F831231BFEE24041296
:103068003A22E96027850C82850D831231A1123539
:1030780027E50870030231871231C9850E82850F52
:10308800831231B51208B4790002319CE4F514F5C5
:103098001578141219737514E07515097814121936
:1030A800737514E1751509781412197374081217D9
:1030B8005412198A7911EEFCEFFD850E82850F8373
:1030C800123D7612171FE9F509709A850882AA82BF
:1030D800EA9009E07009E024049009F8F08025E0FE
:1030E800F89009F8E0F514E82404FCE43400FDEC59
:1030F80065147001ED7081122F6E9412122F6640C4
:1031080003023080850C82850D83E0C0E074F92AC3
:10311800122E25D0E0F00508850C82850D83A3E0EA
:10312800C0E0122E1ED0E01231E485820C85830D9A
:10313800780C121973740412175412198A851082A4
:103148008511831231DB12171F8A0C8B0DAE0CAF61
:103158000D85080C74F9250CF874093400F9EE4F44
:103168007003023016851882851983E08882898366
:103178001231E4A3E0C0E0122E1ED0E0023024E5B4
:1031880009700375090A850A82850B831231A11219
:103198003527A9097404022E16123D4A8512828524
:1031A8001383227CF77D09850A82850B831231B946
:1031B80022E0FAA3E0FB221231B9120B18E9F50953
:1031C800229009F8E0F5F0E508849009F7F07CF71B
:1031D8007D0922122E4E120B36740422F005088542
:1031E80018828519832274EC12176074FE1217096D
:1031F8008A088B098C0E8D0FEA2405FEEB3400FF3C
:103208001233F7EE2418123A22EA450B7003023201
:103218009A1233E050291232BF8A108B11EA4511F5
:10322800606B7912AC0AAD0B85088285098312316F
:10323800B585108285118312175EE9F50A7058E486
:10324800F50AF50B780A1219738E828F83A3A3E00F
:10325800F50A780A121973EE2403123507780A1250
:1032680019738E828F831232CC120C4A740612178D
:103278001FE9F50A7021850C82850D83E0701F8592
:1032880008828509831231B51208BA8011750A0EB1
:103298008009750A018004E50A600312351A850C55
:1032A80082850D83E0600479008002A90A74021205
:1032B800171F7F0C0218328518828519831231B9BD
:1032C800120C3822123515FD8508828509831231C2
:1032D800B92274EE12176074FE1217098A088B0956
:1032E8008C0C8D0DEA2405FEEB3400FF750E0012E0
:1032F80033F7EA450B70030233BE1233E0502C1249
:1033080032BF8A0E8B0FEA450F604A7912AC0AADBC
:103318000B8508828509831231B5850E82850F8356
:1033280012175EE9F50E60030233C185088285092C
:10333800831235FCAA0AFB1233D270147AFF7BFF82
:103348001233D2606C88828983E50AF0A3E50BF01A
:10335800750A008007750E0E805F050A9009DDE08A
:10336800FAE50AC39A504AE50A75F017A4FAABF0D1
:1033780088828983A3A3E02AFAA3E03BFB8A828B95
:1033880083123510EC4D70D2750A17750B00780A48
:10339800121973EEFCEFFD1203D4740212171FEE1C
:1033A800FCEFFD8508828509831231B51208C080BB
:1033B80014750E098003750E01123D42850C828535
:1033C8000D83123527A90E022F61120C2C8A108B3F
:1033D80011A810A911E84922E5082402F508E50911
:1033E8003400F5098A828B83A3A3A3E0A2E5228592
:1033F8001882851983AC82AD838E828F8312340D37
:103408008A0A8B0B22E0FAA3E0FB120B3022740429
:1034180012171F7F0A02183274EC1217608C108D75
:1034280011EA2405F50CEB123A25750F00EA24027F
:10343800F50AEB12350A850A82F5831231B5123D79
:10344800FC70030234FC750E008071850C82850DBA
:1034580083E06401704F8E828F83A3A312198A8E32
:10346800828F83A3A3A3A3E0F51275130078121229
:103478001973EE2405F512EF3400F51378121219BA
:10348800731231AF120C4A740612171FE9F50F6058
:1034980014850C82850D83E4F0123D4285108285E7
:1034A80011831235277C177D007900EEFAEFFB12A5
:1034B80003EC8E828F83E4F0A3F0050E9009DDE023
:1034C800F8E50EC398501EE50E75F017A4F8A9F09C
:1034D800850882850983A3A3123D62123510EC4D3D
:1034E800600302345385088285098374FFF0A3F0D2
:1034F800E50F70061231AF1208C6A90F0232BAF5ED
:103508000AEF3400F50B22A3123515FD22E0FCA3C7
:10351800E0228E828F83123D4A850E82850F83E8D2
:10352800F0A3E9F022C082C0839009D9E06A700351
:10353800A3E06B70067AD97B0980047A007B0002CD
:10354800286F74F71217607F00EF75F003A4F8A9CD
:10355800F0EC28F8ED39F988828983E06A7003A3D2
:10356800E06B7006E8FAE9FB800B0FEFC3940240AA
:10357800D87A007B007F0102183274F612176012A5
:103588003B3370067A007B008007A3A3A3A3123104
:10359800B5023BF474F2121760E9FE740E12175468
:1035A8001235FC7410121754123A648C828D83E021
:1035B8006402703BA3123D4688828983E0F50CA320
:1035C800E0F9A80C74026870037429697021750CFD
:1035D80002750D00780C1219737808121973780A9D
:1035E800121973EEF9120C6E740612171F80027905
:1035F80001023C64E0F50AA3E0F50B2274E8121717
:103608006074FB121709E9851882851983F08A16F8
:103618008B178C0E8D0F741F121754123A64742175
:103628001217541235FC7423121754123A4E75109F
:10363800008C828D83A3A3A3E0A2E4502A741D12F8
:1036480017541232C58A828B83E582458370030240
:103658003710790AAC0EAD0FAA16AB1712175EE930
:10366800F5106003023713850E82850F83E064022C
:1036780060030239C9A3123D46850882850983A3E0
:10368800858212858313E50E2406F50CE50F123AA0
:103698002588828983E0FAA3E0F9EA2400F514E496
:1036A80039F51578141219FD010000280128D836BB
:1036B80007000228AF3703281F370029D938012906
:1036C80001390229A8380329D93804296A39C9399E
:1036D800EE4F703E850C82850D83123A3FFAE9FB66
:1036E8008A828B83E0850A82850B83123A7B1219C2
:1036F800738A828B83A3123515FDAA08AB091203BE
:10370800D4740212171F800375100EA910740502D5
:103718003D5075100B80F4EE4F70F7850A82850BCB
:10372800837401F0123A54850882850983F07C007D
:103738007D00850E82850F83A3A3A3A3E02401FA4D
:10374800A3E03400FB120B30EA4B60418A828B8382
:10375800E02402F8850A82850B83E028F0EA240435
:10376800F8EB3400F988828983E085128285138317
:10377800123A8D123A7B1219738A828B8312350F93
:10378800E5082403FAE5093400FB023706850A82B6
:10379800850B83E02404F07C047D007900AA12AB39
:1037A800131203EC023713EE4F600302371A123A72
:1037B80054FEA3E0FF850A82850B837404F0EE852E
:1037C8000882850983F0EF851282851383F07403DC
:1037D800121754AC82AD83EEFAEFFB123B21700353
:1037E8000238858A828B83A3A3123A4A740112177E
:1037F8005485820E85830F780E121973740512177B
:103808005412198A7CFF7DFF120B36740412171F9D
:103818008B0FEA450F7033850C82850D83123A2A87
:10382800121973850C82850D83A312198A7C027D77
:10383800007A957B84120962740412171FE9700AD2
:10384800740112175474FFF0A3F08E828F83E06422
:10385800027034750C02750D00780C1219738E8283
:103868008F8312350FE5082404FAE509122E3B125E
:10387800171F850A82850B83E024028009740112D0
:103888001754EEF0A3EFF07401121754123A3BF0FC
:103898007401121754A3123A33A3A3A3F0023713E7
:1038A800EE4F600302371A850C82850D831235109E
:1038B800AA16AB17120C62850A82850B837402F074
:1038C800EA850882850983F0851282851383EB8057
:1038D800CBEE4F600302371A123A54F8A3E0F98589
:1038E8000A82850B837402F0E8850882850983F0D3
:1038F800E985128285138380A3850C82850D831246
:1039080031B51203CEEAFC8C82A882C39EE49F40A4
:103918004BE86E7001EF70047C00801F851882856B
:103928001983E0FAEE2AFAEF3400FBC3EA98EB9425
:10393800005003E08004EECCC39CFCEC850A828531
:103948000B83F08C0A750B00780A121973850C82A8
:10395800850D83E02EFCA3E03F02370175100702B6
:103968003713EE4F600302371A850C82850D8312D8
:103978003D46850A82850B837407F0888289831205
:103988003A33123A1BE0851282851383F0E8240249
:10399800FAE93400FB8A828B83123A33123A6C12AA
:1039A8003A3BA3123A75123A44F0E82405F8E93490
:1039B80000F988828983123A44A3123A8DA3023807
:1039C800A1741D121754123B2C7003023710123DBC
:1039D80046880C890DE8450D70030237108E108F4C
:1039E800117810121973780A12197378081219735A
:1039F8007406121754E0F9AC0EAD0FAA16AB178572
:103A08000C82850D8312175E740612171FE9F510D4
:103A1800023713F088828983A322F50CEF3400F56E
:103A28000D22E0F50E750F00780E22E085088285DC
:103A3800098322123A9422123D4AE822123A94A3A8
:103A4800A322A3A3A3A3E0FEA3E0FF22850C828503
:103A58000D83E0F8A3E0F5838882E022E0F508A36F
:103A6800E0F50922A3A3F08A828B83A32212278C74
:103A7800A3A322F08A828B83123A8422E0F50A7586
:103A88000B00780A22123A1B123A9422E085088227
:103A9800850983A3A32274EE12176074FE12170916
:103AA8008A0A8B0BECFAEDFB7414121754E0F5102C
:103AB800A3E0F5117416121754E0FE741812175487
:103AC800E0F50EA3E0F50F851882851983AC82AD69
:103AD80083123B21603E851882851983123B2C6036
:103AE8002FA3A3123A64E50845096024780E121939
:103AF800737810121973EEF9AC0CAD0DAA0AAB0B62
:103B080085088285098312175E740412171F8006C0
:103B1800790E80027901022F61120B308A0C8B0D0D
:103B2800EA450D221231B9123B3322120BF68A8272
:103B38008B83E58245832274F612176074FE121790
:103B480009740C121754123A3F851882851983F0AC
:103B58007401121754E9F0E4F508F5097808121908
:103B68007375080278081219737404121754858241
:103B7800088583097808121973120C4A74061217FB
:103B88001F740212171F806474F7121760EAFEEBA5
:103B9800FF89087C107D0A120C62EA5402600BA9A6
:103BA80008EEFAEFFB120B248002790102357D74CE
:103BB800F612176074FF6A700374FF6B701C7B0049
:103BC800EB75F003A4F8A9F0EC28F8ED39F9123BED
:103BD800F90BEBC39402501480E6120C328A088B5E
:103BE80009A808A909E8496003123BF97F020218ED
:103BF800328882898374FF12278AE4F02274F612CD
:103C08001760120C328A828B83E58245836006A393
:103C1800A3E0FA80027A007B0080D174F212176068
:103C28008A088B09ECFEEDFF740E121754E0F50AB2
:103C3800123C69701CEEFCEFFD7AFF7BFF123C69B9
:103C480070047911801688828983E508F0A3E50954
:103C5800F088828983A3A3E50AF079007F06021819
:103C680032120C328A0C8B0DA80CA90DE84922746B
:103C7800EE121760EAFEEBFF8C088D09890C7412AE
:103C8800121754123D467414121754123510741634
:103C98001217541231B5750D00EC4D6003023D3A10
:103CA8007402650C6003023D3588828983123515DC
:103CB800F9EC2400F50EE439F50FEAF4F8EBF4F921
:103CC800EC58F8E50F59F9E849705DE5082406F85D
:103CD800E5093400F9880A890B8882F583122E4A8F
:103CE800120C628A108B11E50E65107004E50F65E1
:103CF800116042780E121973850A82850B83122E81
:103D08004A120C68740212171FE9F50D7027780E15
:103D1800121973850882850983A3A3122E48120CF1
:103D28007A740212171F800D750D808008750D0DAD
:103D38008003750D0BA90D02341B8E828F83123DF3
:103D48004A22E0F8A3E0F92212171F7F1002183266
:103D58003400F50D850C82F58322E028FEA3E039B6
:103D6800FF8E828F83227916850A82850B83123112
:103D7800B9120C4474082274F2121760EAFEEBFFC1
:103D8800890B7401650B600E7402650B7063790111
:103D9800120E54E9705BEEFAEFFB123DFC604775BA
:103DA8000A00800B7C177D0079001203EC050A904D
:103DB80009DDE0F8E50AC3985021E50A75F017A473
:103DC800F8A9F0850882850983A3A3E028FAA3E06F
:103DD80039FB8A828B8312287670C9850882850907
:103DE8008374FFF0A3F07C107D0AEEFAEFFB120C4F
:103DF8005C023C64120C2C8A088B09EA450922747F
:103E0800F21217608A088B09ECFEEDFF740E121788
:103E1800541235FC901091E0F4603D7A097B001251
:103E280003FEEA4B60328A828B8374B1F0A3E412FA
:103E38003A6EA3123A6CA3E508F0A3E509123E63B3
:103E4800EEF0A3EF123E63A3A3E50AF0A3E50BF09F
:103E5800901091E0F912040A023C64F08A828B8384
:103E6800A3A3A3A3A322C082C0839061907404F08B
:103E7800A37448F0A37402F09061807440F09061DC
:103E8800BC7403F09061877419F0906265741BF03C
:103E980090619C740DF090619A7433F0A37455F09E
:103EA8009061A0743AF0900C54E064017009C291DA
:103EB800900ABE74678005900ABE7461F090264E21
:103EC800E493906186F0902648E493F46027E493A5
:103ED800540FF8906185E0686012E5C65480444943
:103EE800F5C6E59E547F644970F8E8F053C680E54E
:103EF8009E547F70FA79051211A80240B0C082C0A2
:103F080083E9540FF9906185E0696012E5C6548031
:103F18004449F5C6E59E547F644970F8E9F053C6F4
:103F280080E59E547F70FA0240B0C082C083E5A845
:103F3800F853A87E906181E4F0A3F0A3F0C2BA53CD
:103F48009AFEC289759B00C2C275E9007591007519
:103F5800BF0075A91175B905906181F0A374C0F00F
:103F6800A3E4F0D2BA439A0174805842A80240B040
:103F7800C082C08374F8121709900ABCE0F8A3E065
:103F8800F9E84970030240A6900ABCE05440602357
:103F98007908851882851983AA82AB831210108547
:103FA8001882851983AA82AB83120CE6900ABCE0BA
:103FB80054BFF0E054806010790C7A787B0C1210B2
:103FC80010900ABCE0547FF0E0A2E0503190619A72
:103FD8007433F0A37455F09061A0743AF0900C54C7
:103FE800E064017009C291900ABE74678005900A66
:103FF800BE7461F0120CEC900ABCE054FEF0E05480
:1040080002603190619A743FF0A3745AF09061A0F5
:10401800747FF0900C54E064017009D291900ABE4C
:1040280074718005900ABE746AF0120CEC900ABC98
:10403800E054FDF0E05404601390264CE493906142
:1040480086F0120CF2900ABCE054FBF0E0540860D1
:104058001390264DE493906186F0120CF2900ABCFE
:10406800E054F7F0E05410601390264EE49390610A
:1040780086F0120CF2900ABCE054EFF0E054206095
:104088000A120CF2900ABCE054DFF0A3E05401607D
:104098000D120F38120CF8900ABDE054FEF07408A7
:1040A80012171F8003F0A3F0D083D0820201357469
:1040B800EC12176074F4121709851882851983ACFD
:1040C80082AD837583837582F0740412161C902662
:1040D8004C93F46003024244907808E0C394025081
:1040E800030242247404121754AC82AD837583838F
:1040F800758256740812161C851882851983858264
:10410800128583137404121754AC82AD83750EFFA5
:10411800750FFF7FFF7E00750C48750D788015744C
:10412800086E70030241B774096E70030241B774D8
:104138000A6E607B850C82850D8378081215D98CF0
:10414800828D83A909E50AC9F888107418780812BD
:10415800151AE5104508F8C3E098A3E099850C8284
:10416800850D8378081215D940188C828D837418B0
:10417800780812151AE5104508F8E0C398F8A3E086
:10418800801C7418780812151AE5104508FAE9FB1E
:104198008C828D83E0F8A3E0F9EAC398F8EB99F9EB
:1041A800C3E8950EE9950F5006880E890FEEFF0EAD
:1041B800E50C2404F50CE50D3400F50DEEC394135D
:1041C800500302412774FF650E700474FF650F6089
:1041D800238F08740278081216F674482508F582A9
:1041E80074783509F58378081215D98512828513F4
:1041F80083E508F0EC24020C0CED3400FD851282F6
:10420800851383A3858212858313740C121754E5D2
:10421800826C7003E5836D600302411575080175B2
:10422800090078081219737402121754AC82AD830E
:104238007A937B0912064A740212171F740C12171C
:104248001F7F0C021832C082C0839061AE7468F080
:10425800A3746AF090624574FBF0A304F053F4FD74
:1042680043FE02900C547401F09061A0E0643A900F
:10427800619A70237433F0A37455F09061A0743A76
:10428800F0740164017009C291900ABE74678028B5
:10429800900ABE74618021743FF0A3745AF0906153
:1042A800A0747FF0740164017009D291900ABE7401
:1042B800718005900ABE746A0240AF7F040218320A
:1042C800C082C083900C06E06401700A900C0BE079
:1042D8006004790C800279000240B0C082C0837506
:1042E800E1F1900C09E060551460081460591460FD
:1042F800518059120F4A900BFFE0F97A007B0C129B
:10430800112A9083E41215F712116090844C12154B
:10431800F7121136900C0AE0F912114279011211C4
:104328009C900BFDE02416F8A3E03400F9888289FC
:10433800837462F0A3740FF079000240B0120F503A
:1043480080B4120F5680AF120F5C80AA791280EAEF
:1043580074F412176075D90D900BEEE0A2E0E43307
:104368001313F8900BFFE0C4333354C0484401F5ED
:10437800D978FD790B88828983A3A3A3E0F5D9882E
:10438800828983A3A882A983E864037003E9640C83
:1043980070E378EE790B88828983A3E0F5D9888267
:1043A8008983A3A882A983E864F47003E9640B7085
:1043B800E575E195900BEEE0F97AEF7B0B12113081
:1043C8009010B374F6F0A3740EF0A37458F0A374AD
:1043D80010F0A37458F0A37410F0A37458F0A374E9
:1043E80010F0A374FCF0A3740EF0A37458F0A37437
:1043F80010F0A37414F0A3740FF09010C17458F067
:10440800A37410F0A37458F0A37410F0A37458F0B8
:10441800A37410F0A37458F0A37410F0A37458F0A8
:10442800A37410F0A37458F0A37410F0900BFDE07F
:10443800F8A3E0F5838882A3A378081215D990839E
:10444800D0780812156590840478081215B3900B7B
:10445800FDE0240EF8A3E03400F988828983780807
:104468001215E8900BFDE02414F8A3E03400F98855
:104478008289837413F0900ABA7402F00242C3C0AE
:1044880082C083900C0FE02407F5D9900BFFE0C49D
:10449800333354C0F5D978FD790B88828983A3A377
:1044A800A3E0F5D988828983A3A882A983E8640355
:1044B8007003E9640C70E3900C0FE0601F78FD79DD
:1044C8000BFAE82413F582E93400F583E0F5D9887E
:1044D800828983A3A882A9831AEA70E6900C2FE048
:1044E8002407F5D9900BFFE0C4333354C04404F5D6
:1044F800D978FD790B88828983A3A3A3E0F5D988AD
:10450800828983A3A882A983E864037003E9640C01
:1045180070E3900C2FE0601F78FD790BFAE82433E4
:10452800F582E93400F583E0F5D988828983A3A868
:1045380082A9831AEA70E675E1959010B37402F0C7
:10454800A3740FF0A37458F0A37410F0A37458F078
:10455800A37410F0A37458F0A37410F0A374FCF0C3
:10456800A3740EF0A37458F0A37410F0A37414F09D
:10457800A3740FF09010C17458F0A37410F0A374D2
:1045880058F0A37410F0A37458F0A37410F0A37437
:1045980058F0A37410F0A37458F0A37410F0A37427
:1045A80058F0A37410F09083D81215F7900BFDE023
:1045B800240EF8A3E03400F9888289831216039048
:1045C8000BFDE02414F8A3E03400F9888289837491
:1045D80012F0900ABA74010240AFC082C083900CF6
:1045E8000FE02407F5D9900BFFE0C4333354C044DF
:1045F80002F5D978FD790B88828983A3A3A3E0F516
:10460800D988828983A3A882A983E864037003E90F
:10461800640C70E3900C0FE0601F78FD790BFAE8EA
:104628002413F582E93400F583E0F5D9888289837B
:10463800A3A882A9831AEA70E675E1959010B3746D
:104648000EF0A3740FF0A3740EF0A3740FF0A3740C
:104658000EF0A3740FF0A3740EF0A3740FF0A374FC
:104668000EF0A3740FF0A3740EF0A3740FF0A374EC
:1046780014F0A3740FF09010C17458F0A37410F0E4
:10468800A37458F0A37410F0A37458F0A37410F036
:10469800A37458F0A37410F0A37458F0A37410F026
:1046A800A37458F0A37410F09083D81215F7900BE8
:1046B800FDE0240EF8A3E03400F9888289831216FD
:1046C80003900BFDE02414F8A3E03400F9888289F4
:1046D800837414F0900ABA74040240AFC082C08395
:1046E800900C0FE02407F5D9900BFFE0C433335446
:1046F800C04406F5D978FD790B88828983A3A3A3E2
:10470800E0F5D988828983A3A882A983E864037025
:1047180003E9640C70E3900C0FE0601F78FD790BDF
:10472800FAE82413F582E93400F583E0F5D98882A4
:104738008983A3A882A9831AEA70E6900C2FE02443
:1047480007F5D9900BFFE0C4333354C04404F5D9BE
:1047580078FD790B88828983A3A3A3E0F5D98882A1
:104768008983A3A882A983E864037003E9640C70B1
:10477800E3900C2FE0601F78FD790BFAE82433F5FD
:1047880082E93400F583E0F5D988828983A3A88279
:10479800A9831AEA70E675E1959010B37408F0A33E
:1047A800740FF0A37458F0A37410F0A37458F0A316
:1047B8007410F0A37458F0A37410F0A37458F0A305
:1047C8007410F0A37458F0A37410F0A37414F0A339
:1047D800740FF09010C17458F0A37410F0A37458BB
:1047E800F0A37410F0A37458F0A37410F0A37458D5
:1047F800F0A37410F0A37458F0A37410F0A37458C5
:10480800F0A37410F09083D81215F7900BFDE024F4
:104818000EF8A3E03400F988828983121603900BFE
:10482800FDE02414F8A3E03400F988828983741524
:10483800F0900ABA74030240AFC082C083900BFDA7
:10484800E0F8A3E0F5838882A3A3A3A3A3A3E402CB
:1048580040AD74F7121760900AE8E0F875F004A408
:10486800C8AAF02AF974EA28F8740A39F9E824057C
:10487800FAE93400FB8A828B83E0FCA3E0FD88829E
:104888008983A3A3A3A3A3A3A3A3A3ECF0A3EDF0FD
:1048980088828983A3A3A3A3A3A3A3E024FFF8A3E7
:1048A800E034FFF98A828B83E8F0A3E9024AFF74B7
:1048B800F7121760EAFEEBFF9061D0E0600302494F
:1048C8009475D90E75D90375D904EE248CF582EF49
:1048D8003400F583E5822408F8E5833400F9E0F52F
:1048E800D9A3E865827003E9658370F2EE2484F544
:1048F80082EF3400F583E5822404F8E5833400F977
:10490800E0F5D9A3E865827003E9658370F275E183
:10491800957908EE248CFAEF3400FB121004790420
:10492800EE2484FAEF3400FB1210047C00EEF8EF5A
:10493800F9ECFAC3E49AFA95E0FBEE2AFAEF3BFBAE
:10494800EA248BF582EB3400F583E0C0E0E824AB81
:10495800F582E93400F583D0E0F00C88828983A3DE
:10496800A882A983ECC3940840C7EE2470F582EFAF
:104978003400F583E0F8A3E0F9EE2472F582EF3411
:1049880000F583E8F0A3E9F0790180027900024B91
:1049980000C082C08375D90275D90375D90575E140
:1049A80095EA2470F582EB3400F583E0F8A3E0F98A
:1049B800EA2472F582EB3400F583E8F0A3E9F07994
:1049C800010240B074F6121760EAFEEBFF900C5833
:1049D8007406F075085875090C78081219737C016B
:1049E800790312104C740212171F75D90675D90372
:1049F80075825875830CE0F5D9A3E582645D70046F
:104A0800E583640C70F075E195900ABAE06408706B
:104A18001EEE2470F582EF3400F583E0F8A3E0F988
:104A2800EE2472F582EF3400F583E8F0A3E9F0791B
:104A380001024BCC74F6121760EAFEEBFF9061D0CE
:104A4800E070667801900C58740BF0900ABAE06434
:104A580007701975085875090C78081219737C01C4
:104A6800790312104C740212171F7805740128F587
:104A7800D975D90375825875830CE8FAE0F5D9A37E
:104A88001AEA70F875E195EE2470F582EF3400F5B6
:104A980083E0F8A3E0F9EE2472F582EF3400F583A1
:104AA800E8F0A3E9F0790180027900024BCC74F7B1
:104AB800121760EAFEEBFF75D90375D90375D90D96
:104AC800EE24DEF582EF3400F583E0F5D975E19543
:104AD8007904121166EE2470F582EF3400F583E054
:104AE800F8A3E0F9EE2472F582EF3400F583E8F0DC
:104AF800A3E9F079018001F07F0102183274F612FF
:104B08001760EAFEEBFF9061D0E0F87480C398FA72
:104B1800EE2483F582EF3400F583E06004780480A6
:104B2800027800E8240BF8EAC3985003024BCA7DC8
:104B380009900C58EDF0EE24E3F8EF3400F97A59B7
:104B48007B0C7C0888828983E08A828B83F0888248
:104B58008983A3A882A9838A828B83A3AA82AB8331
:104B68001CEC70E0EE2483F582EF3400F583E060FE
:104B78001D75085875090C78081219737C09790392
:104B8800EEFAEFFB12104C740212171F7D0D740120
:104B98002DF5D975D90375825875830C8D08E0F504
:104BA800D9A31508E50870F675E195790412116620
:104BB800EE241DF582EF3400F583E4F0A3F07901CB
:104BC800800279007F0202183274F6121760EAFE3A
:104BD800EBFF9061D0E0F87480C398FAEE2483F577
:104BE80082EF3400F583E06004780480027800E8FE
:104BF8002408F8EAC3985003024CD17D06900C585B
:104C0800740CF0900AD7E0900C59F07AD87B0A78A7
:104C18005A790C7C028A828B83E088828983F08AA5
:104C2800828B83A3AA82AB8388828983A3A882A963
:104C3800831CEC70E07ADA7B0A7C028A828B83E040
:104C480088828983F08A828B83A3AA82AB83888235
:104C58008983A3A882A9831CEC70E0EE2483F582E3
:104C6800EF3400F583E0601D75085875090C780865
:104C78001219737C067903EEFAEFFB12104C7402DA
:104C880012171F7D0A74012DF5D975D9037582583D
:104C980075830C8D08E0F5D9A31508E50870F6753D
:104CA800E1957904121166EE2470F582EF3400F56F
:104CB80083E0F8A3E0F9EE2472F582EF3400F5837F
:104CC800E8F0A3E9F0790180027900024BCC74F690
:104CD800121760EAFEEBFF9061D0E0F87480C39889
:104CE800FAEE2483F582EF3400F583E0600478045B
:104CF80080027800E82404F8EAC3985003024DB013
:104D08007802900C58E8F0EE24F5F582EF3400F5BF
:104D180083E0900C59F0EE2483F582EF3400F5839C
:104D2800E0601B75085875090C78081219737C0225
:104D38007903EEFA12104C740212171F78067401E8
:104D480028F5D975D90375825875830C8808E0F55C
:104D5800D9A31508E50870F675E195EE2474F58277
:104D6800EF3400F583E4F0EE2480F582EF3400F5AB
:104D780083E4F0EE241DF582EF3400F583E4F0A31C
:104D8800F07904121166EE240DF582EF3400F583F4
:104D9800E0F8A3E0F9EE2472F582EF3400F583E839
:104DA800F0A3E9F0790180027900024BCC74F61285
:104DB80017609061D0E0F87480C398FCEA2483F50A
:104DC80082EB3400F583E06004780480027800E820
:104DD8002404F8ECC398405B7902900C587407F0EF
:104DE800EA24F6F582EB3400F583E0900C59F0EAFA
:104DF8002483F582EB3400F583E060187508587554
:104E0800090C78081219737C020912104C740212EA
:104E1800171F7906740129F5D975D9037582587554
:104E2800830CE9F8E0F5D9A318E870F875E19579ED
:104E38000180027900024BCC74F5121760E9FCA2DC
:104E4800AFE433F50AC2AF7D0080010DEA246FF5A7
:104E580082EB3400F583E0F8EDC398501A8D08EA28
:104E68002508F8EB3400F9E8246BF582E93400F5FD
:104E780083E06C70D68024EA246FF8EB3400F9E004
:104E8800FEEA2EFAEB3400FBEA246BF582EB3400E1
:104E9800F583ECF088828983E004F0E50AA2E092C9
:104EA800AF7F0302183274F6121760A2AFE433FD25
:104EB800C2AFEA246FF582EB3400F583E014F07C8E
:104EC8000060368C08EA2508F8EB3400F9E8246C11
:104ED800F582E93400F583E0C0E0E8246BF582E967
:104EE8003400F583D0E0F00CEA246FF582EB34004F
:104EF800F583E0F8ECC39840CAEA246EF582EB34F7
:104F080000F58374FFF0EA246AF582EB3400F58338
:104F1800E4F0EDA2E092AF024BCCC082C083E5A8DA
:104F2800F8C2AFEA246BF582EB3400F583E9F0EAC6
:104F3800246AF582EB3400F583E4F0E8A2E792AF47
:104F48000240B074F3121760EAFEEBFFECFAEDFBD7
:104F58008A828B83A3A3A3A3E0541FF0EE2436F523
:104F680082EF3400F583E4F0F50AEEFCEFFD8A8267
:104F78008B83E0C0E0EC245DF582ED3400F583D04E
:104F8800E0F0750B00E50A33333354F8F50C8A82E8
:104F98008B83E0F508750900E50B78081216D7E54C
:104FA80008A2E0502FEE2436F8EF3400F988828901
:104FB80083E0F508EE2508F508EF3400F509E50863
:104FC8002438F582E5093400F583E50CF0888289F8
:104FD80083E004F0050B050CE50BC3940840AF050E
:104FE8000A8A828B83A3AA82AB838C828D83A3AC2B
:104FF80082AD83E50AC394055003024F767F05020C
:10500800183274F7121760900AE6E0640170077AA4
:10501800007B000251817E00900AECE070F174017F
:10502800F0A3E4F0A3F0900B4C04F0900B4FE4F0E5
:10503800A3F0900B5204F0900AEFE4F0A3F0A3F071
:10504800A3F0900AF904F0900B1FE4F09083FC128F
:1050580015F7900B02121603900B06E4F0A3F0A3C9
:10506800F0900B6AF0900B5EF0900B537480F0A3F5
:10507800E4F0900B59F0900B51F0900BD5F0A3F0A1
:10508800A3F0A3F0A3F0A3F0A3F0A3F0900BDEF03D
:10509800900B6DF0900BBDF0A3F09083FC1215F708
:1050A800900BBF1216039083FC1215F7900BC312D6
:1050B8001603900BC9E4F0900BCBF0900BC7F0905F
:1050C8000BE1F0A3F0A3F0A3F0A3F0A3F0A3F0A3E7
:1050D800F078E6790AE8246FF582E93400F58374FC
:1050E800FFF00E88828983A3A882A983EEC3940463
:1050F80040E37AE67B0A78F5790B88828983E0C0F9
:10510800E0EA2461F582EB3400F583D0E0F0888290
:105118008983A3A882A9838A828B83A3AA82AB836B
:10512800E864FA7003E9640B70D07AE67B0A78CDFC
:10513800790A88828983A3E0C0E0EA24E7F582EB54
:105148003400F583D0E0F088828983A3A882A983FC
:105158008A828B83A3AA82AB83E864D57003E9644F
:105168000A70CF900AE6E004F064017008900AEE35
:10517800E0900AE8F07AEA7B0A024B00C082C0831A
:10518800900AEDE4F0900AECF0900AE6F0A3F0A3A0
:1051980074FFF075E1F10240B0C082C083780079F5
:1051A80000900AEDE0600478EA790A88828983A38E
:1051B800A3A3A3E0F90240B074F6121760EAFEEB6D
:1051C800FF8E828F83A3A3A3E0600F8E828F83A3B9
:1051D800A3A3E4F0900AE7E014F0900AE6E014F0E4
:1051E8007006900AE874FFF08E828F83A3A3E4F020
:1051F800900BFAE0700D900AE7E064017005790001
:10520800121148EE2465F582EF3400F583E0F8A327
:10521800E0F9E8496029EE2465F8EF3400F98808D8
:1052280089098882F583E0FCA3E0FD900AE8E0FAAA
:105238007B00120D1C850882850983E4F0A3F0EE3B
:10524800FAEFFB12107C024BCC74F7121760EAFEDF
:10525800EBFF8E828F83A3A3A3A3E0FA7B00120D3A
:105268005EEEFAEFFB120FCE121064024B00C08202
:10527800C08378CD790A88828983A3E4F0888289FB
:1052880083A3A882A983E864D57003E9640A70E659
:10529800900ACE0245DD74F6121760EAFEEBFFECC9
:1052A8002403F8ED3400F988088909EC2407F8ED9F
:1052B8003400F9E8FCE9FD8C828D83E0F8A3E0F97D
:1052C800850882850983E0FAA3E0FB12167EEE24A6
:1052D8000DF582EF3400F583E8F0A3E9F08C828DB8
:1052E80083E0F8A3E0F9850882850983E0FAA3E062
:1052F800FB12167E8B09EA45096013EE240DF58230
:10530800EF3400F583E02401F0A3E03400F0024B11
:10531800CC74F6121760EAFEEBFFEE242EF582EF4E
:105328003400F583E0FCA3E0FD780079FAECFAEDAF
:10533800FB12167EEE2470F582EF3400F583E8F058
:10534800A3E9F0780079FAECFAEDFB12167E8B09E6
:10535800EA45096013EE2470F582EF3400F583E026
:105368002401F0A3E03400F0024BCC74F012176073
:10537800EAFEEBFF741012175478081215D91211AF
:10538800068A0C8B0D8C0E8D0F9083CC780C121521
:1053980065908404780C1215B3780C12196F8E82FC
:1053A8008F83E0F8A3E0F5838882A3A31215F71290
:1053B80023DE740412171FE960030254C08E828F23
:1053C80083E02402F8A3E03400F9E8FAE9FB8A82D2
:1053D8008B83780812157890840478081215D98A76
:1053E800828B8378081215C6EE240BF582EF340001
:1053F800F583C082C0838E828F83A3A3A3A3A3E077
:105408002401F8A3E03400F9D083D082E068700367
:10541800A3E069700579010254C28E828F83A3A329
:10542800A3A3A3A3A3E02401F0A3E03400F0EE2497
:1054380074F582EF3400F583E064017036EE24756C
:10544800F582EF3400F583E0F8A3E0F98E828F83CC
:10545800A3A3A3A3A3A3A3E0687003A3E0697013A5
:10546800EE2475F582EF3400F583E02401F0A3E023
:105478003400F0EE2480F582EF3400F583E0640117
:105488007036EE2481F582EF3400F583E0F8A3E06E
:10549800F98E828F83A3A3A3A3A3A3A3E0687003B9
:1054A800A3E0697013EE2481F582EF3400F583E000
:1054B8002401F0A3E03400F079007F080218327468
:1054C800F7121760900AE8E0F875F004A4C8AAF08B
:1054D8002AF974EA28FE740A39FF8028EE2465F850
:1054E800EF3400F988828983E0FCA3E0FD88828993
:1054F80083E4F0A3F08E828F83A3A3A3A3E0FA7BB7
:1055080000120D1CEE2465F582EF3400F583E0F8F7
:10551800A3E0F9E849604FEE2464F582EF3400F522
:1055280083E0F5087808121977EE2463F582EF34E2
:1055380000F583E0F9EE2465F582EF3400F583E0A9
:10554800FCA3E0FDEEFAEFFB120FF8740112171F2F
:10555800E96089EE2465F582EF3400F583E0F8A36D
:10556800E0F9E84970137C007D008E828F83A3A345
:10557800A3A3E0FA7B00120D1C024B0074F2121771
:1055880060EAFEEBFF890A740E121754E0FAEE2463
:1055980062F582EF3400F583E0640160030256503F
:1055A8009061D0E0F87480C398F50CEE2483F582FE
:1055B800EF3400F583E060047804800278008908FD
:1055C800E928F8E43400F9E824020808E93400F985
:1055D800E50C98E499A2D265D0334068EA70057565
:1055E8000B028003750B01E0603975090078081219
:1055F80019737A587B0C12102E740212171F750833
:105608005875090C7808121973AC0AA90BEEFAEF51
:10561800FB12104C740212171F7404250AF50A7C39
:10562800587D0C7401250AF5D9850BD9E50A600D5A
:105638008C828D83F8E0F5D9A318E870F875E195A8
:10564800790080067907800279FF7F06021832C048
:1056580082C083E960208C828D83E08A828B83F00C
:105668008C828D83A3AC82AD838A828B83A3AA822A
:10567800AB8319E970E0ECFAEDFB0240B074EA1272
:105688001760907803E06442705E900C57E014F065
:105698007056C2AF12569F00782AD0E0F618D0E0B4
:1056A800F6E59F5407F970059083C480039083C082
:1056B80078081215D9E9C4C0E07829E65508F50834
:1056C80008E65509F509740B78081216E7D0E025A5
:1056D80008F8906270E0A2E740F8E8C3339062727D
:1056E800F0906270E0D2E0F0900AE8E0F470030213
:1056F8005AA8E0F875F004A4C8AAF02AF974EA28B0
:10570800FE740A39FFEE2402F582EF3401F583E0D6
:10571800F8A3E0F9E849601EEE2402F582EF3401AF
:10572800F583E0FAA3E0FBEE2401F582EF3401F5FE
:1057380083E0F912042E8E828F83A3A3A3A3A3A3CD
:10574800A3E0F8A3E0F98E828F83A3A3A3A3A3E821
:10575800F0A3E9F0906054E0900AC1F0906055E041
:10576800900AC2F0906056E0900AC3F0906057E04B
:10577800900AC4F0906058E0900AC5F0906059E033
:10578800900AC6F090605AE0900AC7F090605BE01B
:10579800900AC8F090605CE0FC900AC9F090605DE7
:1057A800E0FB900ACAF090605EE0FD900ACBF090B2
:1057B800605FE0FA900ACCF0900AC7E08C082508F0
:1057C800F8E43400F98D08E82508F8E93400F98B85
:1057D80008E82508F8E93400F98A08E82508FAE90C
:1057E8003400FBEE24F7F582EF3400F583E02AF06D
:1057F800A3E03BF08C08EE24F9F582EF3400F58342
:10580800E02508F0A3E03400F0EE24FBF582EF3445
:1058180000F583E02401F0A3E03400F0EE24FFF566
:1058280082EF3400F583E0F8A3E0F9E8496042909C
:105838006000E0C333FCE433FDE82CF582E93DF574
:1058480083E02AF0A3E03BF0906000E0FA900AC9F8
:10585800E0FCEAC333FAE433FBE82AF8E93BF9E869
:10586800244AF582E93400F583E02CF0A3E0340003
:10587800F0900AC7E07011900ACAE0700BA3E070BC
:1058880007A3E070030259888E828F83A3A3A3A382
:10589800A3E0F8A3E0F9EE240DF582EF3400F583D8
:1058A800E028F8A3E039F9EE240BF582EF3400F58F
:1058B80083E8F0A3E9F0EE240FF582EF3400F583D6
:1058C800E4F0EE241CF582EF3400F583E064017007
:1058D8001EEE2420F582EF3400F583E0F8A3E0F90A
:1058E800EE241DF582EF3400F583E8F0A3E9F0908B
:1058F8000AC2E06052EE241CF582EF3400F583748E
:1059080001F0EE246AF582EF3400F583E07038EE9A
:105918002474F582EF3400F583E0702BEE2480F5D3
:1059280082EF3400F583E0701EEE2420F582EF3418
:1059380000F583E0F8A3E0F9EE241DF582EF3400CA
:10594800F583E8F0A3E9F0906062E07003025A3B47
:105958008E828F83E0F8A3E0F9E82406FCE934009E
:10596800FDE82402FAE93400FB1211008E828F83CD
:10597800E02412F8A3E03400F988828983025A45AA
:10598800900AC9E0603AEE240FF582EF3400F583FF
:10599800E4F0EE241CF582EF3400F583E064017036
:1059A80040EE2420F582EF3400F583E0F8A3E0F917
:1059B800EE241DF582EF3400F583E8F0A3E980209A
:1059C800EE24FDF582EF3400F583E02401F0A3E036
:1059D8003400F0EE241DF582EF3400F583E4F0A3E3
:1059E800F0EE240BF582EF3400F583E0F8A3E0F93C
:1059F8008E828F83A3A3A3A3A3E0687003A3E069A7
:105A080060030258F7EE240FF582EF3400F583E0C7
:105A180060128E828F83A3A3A3A3A3E06405700200
:105A2800A3E0600B7908EEFAEFFB120FD4807179CE
:105A38003E80F3EE241DF582EF3400F583E4F0A3F5
:105A4800F0906060E0C0E0EE2469F582EF3400F584
:105A580083D0E0F0900AC7E0F8EE2467F582EF34CF
:105A680000F583E028025BA8900C55E064017035CE
:105A78001211B4EE2467F582EF3400F583E0700666
:105A88009060607480F0EEFAEFFB1210BEE96401DA
:105A9800600E120FF21210B8E9640160031210646C
:105AA8007F0E021832EE2483F582EF3400F583E08E
:105AB8006004780480027800E50CC398F9120D1090
:105AC8008A0A8B0BEA450B60A7EE2483F582EF3434
:105AD80000F583E070048A088B09E50C60128508DC
:105AE80082850983F512E5D9F0A31512E51270F63F
:105AF800EE2483F582EF3400F583E0603774FC25EB
:105B08000CF50C7808121973AC0CA90DEEFAEFFB22
:105B1800121052740212171FE970197403650D7080
:105B280003025BE8E50A24FBFAE50B34FFFB1204E9
