:020000040000FA
:0600000002011D021ED7E3
:03002B00021A694D
:03003B00021AB4F2
:03004300021A405E
:03005300021F4A3F
:03006B00021A85F1
:10008300021D8BE5C754F84401F5C779012200002E
:100093000080FB120086B90003020107E47921788E
:1000A30008B800028004F709D8FCE479297802B87B
:1000B30000028004F709D8FCE4900281786E790984
:1000C3008002F0A3D8FCD9FA781A90014D7A01BACC
:1000D30000028007E493A3F608DAF9900AEEAA82F5
:1000E300AB8390014E787379038015E493A3AC82BC
:1000F300AD838A828B83F0A3AA82AB838C828D83A8
:10010300D8E9D9E77582B97583AF740312012F75E6
:100113008291758300740012012F75D00075813FA1
:10012300751881751902759F00020096C09FF59F8F
:10013300E473D09F22D083D082C09FE493C0E07445
:100143000193C0E0740293F59F2201FFFF1101990F
:10015300010F1264040102878401000059840283A1
:1001630084010000F50A026584010000F60A027F9B
:1001730084030000A602027184010000F70A01E86B
:1001830003053F100A446F2053796E63000000009B
:1001930000000000000008415050205365742043C4
:1001A3006C6F636B0000000002446174612048655A
:1001B3006164657200000000000002446174612004
:1001C300426F647900000000000000000287840190
:1001D30000005C84028384010000270B026D84030A
:1001E30000004205028184010000280B0283840180
:1001F3000000390B026B8402000043050281840175
:1002030000003A0B0283840100004B0B0269840156
:10021300000047050281840100004C0B0283840126
:1002230000005D0B0267840100004905027F84031F
:1002330000004A050281840100005E0B00000000FB
:1002430000000000000000000000000000000000AB
:1002530000000000FF0001307503020106000000EA
:10026300000000000000000000000000000000008B
:10027300000000000000000000FFFF0600800CE803
:10028300031109416464696E672041312D303030B8
:1002930030303005125000A000020A0002010603AC
:1002A300020023416464696E672041312D30303090
:1002B3003030300000000000F2070000F807FF00B4
:1002C30000B4000028002800283075A000A000A07A
:1002D30000A00000080008E001F00010001000106A
:1002E30000100010001000500050005000100010CB
:1002F30000D0070000000000000F000100050030DF
:100303007507001000010081FF0000FF020A200AA8
:10031300080AFF02020208025000A0000000E803DE
:100323000287840100005384028384010000B60C19
:10033300027D840100004506028384010000B70C9E
:10034300027B840100005B06028384010000B80C79
:100353000279840100005D06028384010000B90C68
:100363000277840800005E06028384010000BA0C51
:10037300027584010000BB0CFF0100FF200287848B
:1003830001000050840283840100001F0D02738466
:100393000000000000027F84030000AB06E40FE4CA
:1003A3000FE40FE40FE40FE40FE40FE40FE40FE4B2
:1003B3000FE40FE40FE40F72128A126C1212013869
:1003C300BDB602120138C7B60212013808B70212CD
:1003D300013851B7021201388BB702120138E1B765
:1003E3000212013802B802120138B1BA02120138FE
:1003F300BABA021201380EBB0212013837BB02121D
:10040300013841BB02120138AFBB021201383FBCB5
:10041300021201389ABC02120138C8BC0212013818
:1004230050BD021201388FBD02120138C4BD021241
:100433000138D6BD02120138F5BD02120138FEBDE6
:1004430002120138C5BE02120138EB9203120138C1
:10045300E29303120138FC93031201380D94031243
:1004630001381F960312013802A00312013838A085
:10047300031201386CA003120138B9A10312013829
:10048300BEAD03120138D4AD03120138DEAD031241
:10049300013828AE031201385AAF03120138C8EAF3
:1004A30002120138DBEA021201389CEB0212013816
:1004B300DBEB02120138F8EB0212013831EC0212C5
:1004C30001387EEC02120138B0EC02120138E7EC7D
:1004D30002120138F0EE021201385CEF0212013809
:1004E300F7A6031201381AA70312013849A703120A
:1004F3000138E1A70312013823A803120138389900
:1005030003120138689903120138149A031201384F
:10051300BA9A0312013883AA0312013891AA03126B
:10052300013894AA0312013805AB03120138B0B0A5
:100533000312013811B0031201388D8401120138FE
:100543006B86011201380A8801120138B58801123D
:100553000138358901120138BA8901120138E3895A
:1005630001120138BE8D01120138358E0112013896
:100573004C8F01120138868F01120138C78F011287
:1005830001380E9101120138649101120138AD91C5
:10059300011201381C9201120138889201120138AC
:1005A300B99201120138D19201120138EA93011272
:1005B3000138FA9301120138B09501120138C79539
:1005C30001120138F995011201389B970112013884
:1005D3002F980112013802AD0312013813AD031233
:1005E3000138B3AD0312013867B003120138A6B066
:1005F3000312013820B10312013839AC0312013858
:1006030049AC0312013861AC03120138F5AC031293
:10061300013881A90312013806AA031201386AAA14
:1006230003120138F37F00120138008003120138EE
:100633002D80031201389F8003120138B480031206
:100643000138D58103120138588203120138D1824F
:1006530003120138F08203120138138303120138A5
:10066300508303120138688303120138BE830312D7
:1006730001380AF80212013821F8021201389BF8F6
:10068300021201387FF90212013856FB02120138B7
:10069300BBFB0212013812FC02120138F87F001270
:1006A3000138CE9D03120138589F03120138B99FB8
:1006B30003120138FF9F031201389F8B0312013885
:1006C3003A8C03120138D88C03120138D08D0312EF
:1006D3000138828E03120138AA8E03120138B88EB4
:1006E300031201382D8F03120138418F0312013891
:1006F3004B8F03120138DF8703120138248803125A
:100703000138418803120138E58803120138398919
:10071300031201383C8A03120138668B0312013835
:100723005FA503120138B1A50312013824A60312F1
:10073300013891A603120138879B03120138B19B3C
:1007430003120138809C031201385C9D03120138A7
:10075300F3BE02120138BFBF0212013800C00212F9
:1007630001383AC00212013898C002120138ECC0B5
:10077300021201384AC102120138E0C102120138E3
:10078300E8C20212013872C40212013810C5021203
:10079300013877C5021201388AC5021201387EC6B4
:1007A30002120138C7C602120138D4F2011201380D
:1007B30006F60112013897F701120138EEF701121C
:1007C30001380BF8011201388BF80112013807FACE
:1007D30001120138D6FA0112013843FE0112013821
:1007E3002DFF0112013852D502120138C0D802126E
:1007F300013869D90212013884DA02120138CEDBDA
:1008030002120138ACA303120138C3A30312013847
:10081300F2A3031201382BA40312013853A40312C9
:10082300013881A40312013898A403120138AFA43C
:1008330003120138C5A403120138ECA403120138D2
:10084300FFA40312013815A50312013828A50312CA
:1008530001384DA50312013811A40212013810A565
:100863000212013845A50212013866A502120138A9
:1008730076A50212013897A502120138A3A6021227
:10088300013870A702120138E3A70212013869A8E0
:1008930002120138ACA802120138E3A8021201388F
:1008A30069A9021201383BAA0212013899AA02125D
:1008B3000138B1AA021201382BAB021201382EAB58
:1008C3000212013831AB02120138D8AB02120138DF
:1008D300F0AB0212013820AC0212013840AC021214
:1008E30001382EAD02120138E4AD0212013820E6C0
:1008F3000212013848E60212013876E60212013884
:10090300ADE60212013815E7021201385EE7021262
:100913000138A9E702120138E7E70212013824E897
:100923000212013852E802120138F9E802120138C2
:1009330003E90212013810E90212013843E90212F5
:10094300013805EA0212013811EA0212013829EAD4
:100953000212013833EA0212013862AB0312013882
:1009630070AB0312013888AB03120138A0AB03123A
:1009730001381EAC01120138BCAC0112013834AD90
:100983000112013849AE0112013883AE0112013858
:100993002CAF0112013801B00112013865B1011207
:1009A3000138BCB10112013843B2011201382AB334
:1009B3000112013877B30112013805B4011201386D
:1009C30029B401120138FEB5011201383FB60112F4
:1009D300013861B601120138E2B601120138CCB711
:1009E3000112013892B80112013846CE02120138C1
:1009F30018CF02120138C1CF0212013804D00212FB
:100A0300013891D0021201381DD102120138FED1F2
:100A1300021201382DD20212013829D302120138F1
:100A230071D30212013873D402120138B7D40212FF
:100A33000138DDD40212013854AE0312013826FC0A
:100A4300021201383CFC0212013862FC0212013826
:100A53008AFD0212013894FD02120138EDFE0212E2
:100A63000138EDFF0212013850DC0212013885DD36
:100A730002120138B8DD0212013802DE0212013817
:100A8300C0DF02120138136E00120138766E0012B5
:100A93000138BB6F00120138CB6F00120138EE6FC3
:100AA30000120138397000120138DE70001201386B
:100AB300D471001201389E720012013816740012AC
:100AC3000138587400120138F67400120138437566
:100AD3000012013869750012013857770012013886
:100AE3005C77001201383D790012013891790012C8
:100AF3000138F379001201381B7A00120138BF7AEA
:100B030000120138817B00120138B27B00120138D8
:100B1300B57B00120138FD7B001201383F7C0012C7
:100B23000138A67C00120138707D00120138837DE4
:100B3300001201389C7D00120138E77D0012013854
:100B4300C27E00120138517F001201389C7F0012CF
:100B53000138DC2500120138E8250012013821266E
:100B6300001201386626001201381D2700120138D1
:100B7300A327001201380828001201383428001274
:100B830001386D2800120138812A001201385D2CCA
:100B930000120138482E001201387F2F001201384D
:100BA300DF3100120138CB32001201381134001248
:100BB30001381E35001201383B35001201387335F8
:100BC300001201388D3500120138F5350012013855
:100BD3008F3A00120138303B00120138813B00127A
:100BE3000138A83B00120138F63B00120138143CCF
:100BF30000120138683C00120138413D00120138EF
:100C0300C83E00120138503F0012013876E102124B
:100C1300013880E1021201384BE20212013866E228
:100C2300021201388CE202120138D0E202120138BA
:100C330008E30212013831E302120138AAE3021277
:100C43000138BFE302120138D4E3021201380BE486
:100C5300021201381FE40212013850E40212013873
:100C63008AE402120138B6E4021201380CE50212DA
:100C7300013860E502120138A9E502120138D3E513
:100C830002120138F8E502120138F3830312013826
:100C9300BD8403120138A08503120138168603129E
:100CA3000138588603120138858703120138008002
:100CB30002120138298002120138428002120138DF
:100CC300878102120138658202120138848202127E
:100CD3000138118302120138548302120138A184AE
:100CE30002120138408502120138BF87021201380F
:100CF3005688021201382A89021201380C8A02121C
:100D03000138788B021201380B8C021201386CA85F
:100D130003120138D5A80312013829A90312013897
:100D230050A90312013869EF02120138D6EF0212FB
:100D3300013821F00212013816F10212013812F2C1
:100D430002120138FCF2021201384FAE02120138CE
:100D530091AE021201386BAF0212013844B0021295
:100D630001383FB1021201381EB2021201388AB2B1
:100D73000212013851B302120138BCB30212013816
:100D830023B4021201384EB402120138BFB4021266
:100D9300013852B502120138BBB502120138D0B581
:100DA3000212013818B60212013831B602120138A4
:100DB30096B60212013899B6021201383E96031212
:100DC3000138669603120138A4960312013862971C
:100DD30003120138CD9703120138E9970312013842
:100DE30011980312013841980312013850980312E5
:100DF3000138CA9803120138F0980312013845C923
:100E03000112013822CB011201381DCD0112013824
:100E1300F0CD011201383BCE0112013886CE01120A
:100E2300013898CE01120138D8CE011201380DCF06
:100E33000112013859CF0112013888CF011201384C
:100E4300ABCF01120138F8CF0112013881D0011262
:100E530001388ED20112013879D401120138BCD481
:100E63000112013821D60112013862D6011201386C
:100E7300D5D60112013821D7011201384CD70112FE
:100E83000138828C02120138AD8C0212013894931E
:100E930002120138B8950212013873970212013811
:100EA300D09802120138B73F001201384E400012A9
:100EB30001387B4000120138C14000120138004262
:100EC300001201389743001201381144001201380F
:100ED3002C4400120138A14400120138D0450012FD
:100EE30001382B47001201382D48001201388A4976
:100EF30000120138A34900120138004A00120138D8
:100F0300E24A00120138154B00120138854B0012DA
:100F13000138FF4B001201384E4C001201381A4DB4
:100F2300001201381F4E00120138FE4E0012013824
:100F3300894F00120138F74F001201386B5000122D
:100F43000138945000120138535100120138CD5228
:100F530000120138EA520012013809530012013815
:100F63009A5300120138BF5300120138E75300129D
:100F73000138625400120138BC5400120138105673
:100F830000120138CD5600120138A0570012013863
:100F930076D701120138C6D701120138D2D7011210
:100FA3000138AFD801120138DFD80112013817D93F
:100FB3000112013896D901120138CED90112013834
:100FC30020DA011201385DDA0112013882DC0112E4
:100FD3000138AEDE01120138A9E00112013884E2C2
:100FE30001120138F9FF011201386D98011201381D
:100FF300B79801120138969E0112013817A0011209
:10100300013876A60112013871A701120138AEA783
:1010130001120138D1A70112013813A801120138B6
:101023001CA80112013826A80112013812A90112C5
:10103300013806AA01120138CE5700120138466260
:10104300001201384C62001201385869001201384D
:101053004E8F03120138E48F03120138FA8F031203
:101063000138749003120138CA90031201380891B1
:1010730003120138659103120138E291031201381A
:10108300EB9103120138F791031201380A9203120C
:1010930001384692031201385C9203120138BB9265
:1010A30003120138BEF302120138CBF302120138E6
:1010B300E5F30212013824F40212013862F4021239
:1010C3000138C7F402120138DCF402120138E7F4E4
:1010D30002120138F4F4021201380BF5021201383E
:1010E30019F50212013824F50212013830F5021203
:1010F30001383FF5021201384AF5021201386DF545
:101103000212013816F60212013826F602120138CD
:1011130040F6021201385DF60212013879F6021226
:1011230001389EF602120138A8F602120138BCF605
:1011330002120138DBF6021201383CF702120138C1
:1011430042F70212013848F7021201384EF7021231
:1011530001385AF7021201388DF7021201384AE5B5
:1011630001120138CCE50112013875E6011201388C
:10117300BDE701120138CBE901120138B1EA0112CE
:101183000138E6EA0112013808EB01120138B1EB2C
:101193000112013881ED01120138AAED0112013863
:1011A30022EE0112013854EE0112013861EE0112F0
:1011B3000138ACEE01120138D0EE0112013821F1F1
:1011C300011201382BF20112013887F201120138A2
:1011D300C7BA01120138D8BB01120138BCBC0112D5
:1011E3000138C6BC01120138E8BC01120138F4BC55
:1011F3000112013898BE01120138C5BE011201382F
:10120300DBBF0112013830C0011201387FC1011266
:10121300013854C201120138B0C2011201381BC394
:101223000112013850C30112013893C3011201386E
:101233005DC60112013875C60112013806C70112D5
:10124300013814C70112013861C7011201386FC791
:1012530001120138DBC70112013856C801120138E7
:10126300ADC801120138F398021201381599021220
:101273000138269B02120138E59D021201380F9FA7
:1012830002120138CD9F02120138B9A002120138AF
:10129300F3A10312013818A2031201388EA203121C
:1012A300013829C70212013832C7021201383BC77D
:1012B3000212013813C802120138C4C902120138DC
:1012C300F4C9021201381FCA021201384FCA0212AE
:1012D30001387ACA02120138AECA02120138DACAD8
:1012E300021201381DCB0212013848CB0212013819
:1012F3008FCB02120138E4CB0212013826CC021242
:10130300013880CC02120138ABCC02120138FACC7E
:10131300021201382ACD0212013855CD02120138CA
:1013230083CD02120138A6CD02120138DDAE0312BD
:10133300013809AF0312013836AF0312013840AF49
:101343000312013850AF03120138C67F001201386F
:10135300C3FF01120138DAB00312013802B103E00E
:1013630066701008A3E066700A08A3E066700408BC
:10137300A3E06622C3E7960809E7960809E79608FB
:1013830009E79622C3E09608A3E09608A3E096082F
:10139300A3E09622C008C3E096F50808A3E09642AE
:1013A3000808A3E096420808A3E09645087001D315
:1013B300D00822080808EAC0E0EBC0E086F0E7A402
:1013C300FA180986F0E7A42AFA180986F0E7A42A8E
:1013D300FA180986F0E7A42AFA1986F0E7A4FBE5D0
:1013E300F02AFA190886F0E7A42BFBE5F03AFA197C
:1013F3000886F0E7A42BFBE5F03AFA18180986F003
:10140300E7A4C5F02BFBE43AFA1908E7C5F0C6A434
:1014130026F6E5F03BFBE43AFA1886F0E7A4F6E596
:10142300F00826F6E43B08F6E43A08F6D0E0FBD0F1
:10143300E0FA22E4CFC0E0E4CEC0E0E4CDC0E0E4D3
:10144300CCC0E075F020C3E633F608E633F608E6D1
:1014530033F608E633F6181818EC33FCED33FDEEDB
:1014630033FEEF33FFC3EC9709ED9709EE9709EFCE
:1014730097191919400FFFEC97FC09ED97FD09EE39
:1014830097FE191906D5F0BEECF709EDF709EEF74B
:1014930009EFF7191919D0E0FCD0E0FDD0E0FED038
:1014A300E0FF226016080808C6C313C618C613C691
:1014B30018C613C618C613C6D5E0EA227009080871
:1014C30008226016181818C6C333C608C633C608E0
:1014D300C633C608C633C6D5E0EA22E627F60809AE
:1014E300E637F60809E637F60809E637F622E02676
:1014F300F608A3E036F608A3E036F608A3E036F6CE
:1015030022E026F008A3E036F008A3E036F008A3B3
:10151300E036F022C3E697F60809E697F60809E6EF
:1015230097F60809E697F622C3E096F008A3E0963B
:10153300F008A3E096F008A3E096F022E056F60840
:10154300A3E056F608A3E056F608A3E056F622E019
:1015530056F008A3E056F008A3E056F008A3E056BF
:10156300F022E0F608A3E0F608A3E0F608A3E0F60D
:1015730022E6F008A3E6F008A3E6F008A3E6F022CB
:10158300E0FAA3E0FBA3E0FCA3E0FD22EAF0A3EB77
:10159300F0A3ECF0A3EDF022CAC0E0E6F0A308DA72
:1015A300FAD0E0FA22CAC0E0E0A3C582CCC582C566
:1015B30083CDC583F0A3C582CCC582C583CDC58346
:1015C300DAE6D0E0CA22C3E498F8E499F912160ADD
:1015D3008026C3E49AFAE49BFBE920E7E912160AA2
:1015E300E498F8E499F922C3E498F8E499F9121617
:1015F3000AE498F8E499F9C3E49AFAE49BFB22EB32
:1016030020E7CFE920E7E0B90010BB0008E88AF043
:1016130084F8AAF022E4FBC8FA22EB70227B10C8FC
:1016230033C8C933C9335007C39AC3DBF280069A60
:1016330050012ADBEAC833F4C8C933F4C9FA227566
:10164300F008E4C833C8C933C933C99AC99B5004E5
:10165300C92AC93BD5F0ECFBC833F4C8E4C9FA2264
:10166300600D08C6A2E713C618C613C6D5E0F32259
:10167300600C08C6C313C618C613C6D5E0F422709F
:101683000422600D18C6C333C608C633C6D5E0F4BA
:101693001822251810AF08F518400215198008F50F
:1016A3001840021519D2AF22C0D0251810AF08F583
:1016B30018500205198008F51850020519D2AFD049
:1016C300D0222518F58210AF08F5184002151980AD
:1016D30008F51840021519D2AF851983222518F58C
:1016E30082E43519F58322E4732518C582C0E0E549
:1016F3001934FFC583C0E0E518C3958224F810AF01
:10170300088583198582188008858319858218D2F4
:10171300AFCEF0A3E520F0A37808E608F0A3DEFA45
:10172300EFF0A3E58124FAF8E608F0A3E608F0A3B6
:10173300E608F0A30808E608F0A3E608F0A315817D
:101743001581D0E0FED0E0F8158115811581E8C040
:10175300E0EEC0E0222518C582C0E0E51934FFC5DC
:1017630083C0E0E518C3958224F910AF0885831977
:101773008582188008858319858218D2AFCEF0A39D
:10178300E520F0A37808E608F0A3DEFAEFF0A3E57E
:101793008124FBF8E608F0A3E608F0A30808E608AE
:1017A300F0A3E608F0A315811581D0E0FED0E0F8A0
:1017B30015811581E8C0E0EEC0E022851983851804
:1017C30082E0A3FEE0A3F5207808E0A3F608DFFAA1
:1017D300E0A3FFE0A3C0E0E0A3C0E0E0A3C0E0E03B
:1017E300A3C0E0E0A3C0E010AF0885821885831989
:1017F3008008858218858319D2AFD083D0820201F5
:1018030035851983851882E0A3FEE0A3F5207808C7
:10181300E0A3F608DFFAE0A3FFE0A3C0E0E0A3C083
:10182300E0E0A3C0E0E0A3C0E010AF088582188524
:1018330083198008858218858319D2AFD083D0821B
:1018430022C0D02518C582C0E0E51934FFC583C086
:10185300E0E518C3958224F310AF088583198582C8
:10186300188008858319858218D2AFC8F0A3E9F0E0
:10187300A3EAF0A3EBF0A37908E709F0A3D8FAEC05
:10188300F0A3EDF0A3EEF0A3EFF0A3D0E0F0A3D02C
:10189300E0F0A3D0E0F0A3E520F0A3E5F0F0A3226D
:1018A300851983851882E0C0E0A3E0F9A3E0FAA3D9
:1018B300E0FBA37808E0F608A3DFFAE0FCA3E0FD71
:1018C300A3E0FEA3E0FFA3E0C0E0A3E0C0E0A3E049
:1018D300F5D0A3E0F520A3E0A3F5F010AF088583CE
:1018E300198582188008858319858218D2AFD08222
:1018F300D083D0E0F8D0E032740480067402800212
:101903007401C0E0F4041216C5D0E012159B2274D2
:1019130004800474028000CCC0E0EDC0E0E518C38D
:101923009CCCAD1950011D10AF068C188D19800683
:101933008C188D19D2AF1215A8D0E0FDD0E0FC228F
:10194300D083D082E9C0E0E493A3C386F0C5F095C9
:10195300F0F908E493A386F0C5F095F0700BE493D7
:10196300A3C3994005E9048002A3E475F002A4250A
:1019730082F582E5F03583F583D0E0F9E493A3C0E3
:10198300E0E493C0E022D083D082ECC0E0EDC0E07D
:10199300E493A3FCE493A3FDED4C600D1219D5EC85
:1019A30024FFFCED34FFFD80EFE493A3FCE493A359
:1019B300FDED4C600D121A14EC24FFFCED34FFFD19
:1019C30080EFD0E0FDD0E0FCE493A3C0E0E493C05B
:1019D300E022C0E0C3E49396087401939618400F85
:1019E300E49366700808740193661870007019A375
:1019F300A3C3E49396087401939618A3A3400DD050
:101A0300E0D0E0D0E00219C5A3A3A3A3A3A3D0E031
:101A130022C0E0C0F088F0E4936670080874019374
:101A230066187000A8F0A3A3700BD0F0D0E0D0E04C
:0C1A3300D0E00219C5A3A3D0F0D0E0223F
:101A4000C0E074F2121844A2AFE433FED2AFC2C0B9
:101A5000E5D1A2E4500653D1EF1206F0751A00EE5C
:101A6000A2E092AF7F010218A3C0E0C0D0E8C0E0BE
:101A7000E5A8D2AFC2C7751A00A2E792AFD0E0F8CE
:101A8000D0D0D0E032C0E0C0D0E8C0E0C082C08397
:101A9000E5A8F8D2AF758900C2C59003B67401F00D
:101AA000751A00E8A2E792AFD083D082D0E0F8D0D8
:101AB000D0D0E032C0E0C0D0E8C0E0E9C0E0C0086B
:101AC000C009C082C083A2AFE433F9D2AF90053A17
:101AD000E0F8A3E0687008539AFBA374018026C263
:101AE000E990053AE0F50874012508F074BA250874
:101AF000F58274043400F583E0F5C190053AE0C343
:101B000094804002E4F0E9A2E092AFD083D082D08A
:101B100009D008D0E0F9809474F5121758EAFEEB6A
:101B2000FFEE2434F8EF3400F988088909EE2435F3
:101B3000F582EF3400F583E0F8EE2437F582EF34D8
:101B400000F583E0F50AEC850AF0A4FCAAF0850A0A
:101B5000F0EDA42AFDE82CF8E43DF97A257B00128B
:101B6000160AEA850882850983F05407F87401B8DB
:101B700000028004C333D8FCC0E0E0131313541FE9
:101B8000F8EE28F8EF3400F9E8245DF582E9340036
:101B9000F583D0E0F8E0586008EE2434F582EF8059
:101BA0001EEE2436F582EF3400F583E0F5F0EA848A
:101BB000A8F0EE28F8EF3400F9E82438F582E9348B
:101BC00000F583E0F97F0402180474F5121758EA4F
:101BD000FEEBFFEE2434F582EF3400F583E0C0E045
:101BE000EE2435F582EF3400F583D0E0F08E828F5D
:101BF00083A3A3A3A3A3A3A3C082C0838E828F8346
:101C0000A3A3A3A3A3E0F8A3E0F9D083D082E0C309
:101C100098F508A3E099F509EE2480F582EF3400E9
:101C2000F583E064017069EE2481F582EF3400F5FC
:101C300083E0F8A3E0F98E828F83A3A3A3A3A3A3D9
:101C4000A3E0FCA3E0FD8E828F83A3A3A3A3A3E064
:101C5000FAA3E0FBC3EA9CEB9D5027C3EC98ED99F7
:101C6000402EC3EA98EB9950277C907D08EEFAEF5E
:101C7000FB120F42EE2480F582EF3400F583E4F08E
:101C8000800EC3EA98EB9940E0C3EC98ED9950D9E7
:101C9000EE2434F8EF3400F9E8FCE9FDEE2435F5E4
:101CA00082EF3400F583E0F8EE2437F582EF34005C
:101CB000F583E0F50AE508850AF0A4F508AAF085A1
:101CC0000AF0E509A42AF509E82508F8E43509F938
:101CD0007A257B0012160AEA8C828D83F05407F86D
:101CE0007401B800028004C333D8FCC0E0E01313D1
:101CF00013541FF8EE28F8EF3400F9E8245DF5825C
:101D0000E93400F583D0E0F8E0586008EE2434F5BB
:101D100082EF801EEE2436F582EF3400F583E0F585
:101D2000F0EA84A8F0EE28F8EF3400F9E82438F55A
:101D300082E93400F583E0F91225C5021BC5C08293
:101D4000C083851882851983E0F8A3E0F9C3EA9C73
:101D5000EB9D5012C3EC98ED994019C3EA98EB99AA
:101D6000501279018010C3EA98EB9940F5C3EC98C2
:101D7000ED9950EE7900D083D08222EAC39CFAEB31
:101D80009DFB22008521878522C622C0E0C0D0E8C5
:101D9000C0E0E9C0E0EAC0E0EBC0E0ECC0E0EDC0CC
:101DA000E0C008C009C00AC00BC082C083C0F07583
:101DB0009B00906182E0A2E64003021E69E591A2C9
:101DC000E64003021E697591BF900755E0640570F7
:101DD0000812107A121086800312108075210012EA
:101DE00010E0E9900756F079001210D4120EB87A7C
:101DF000017B00900754E0F9120420907803E0641E
:101E0000426003021EB29008F2E014F06003021E6A
:101E1000B2C2AF121E1600782AD0E0F618D0E0F653
:101E2000E59F5407F970059083C080039083BC78C8
:101E300008121565E9C4C0E07829E65508F50808D8
:101E4000E65509F509740B7808121673D0E02508D9
:101E5000F8906270E0A2E740F8E8C333906272F055
:101E6000906270E0D2E0F08049E0A2E55024E59174
:101E7000A2E5501E7591DF900755E0640D70139038
:101E80000777E004F064287002E4F07A00E0F912C9
:101E90001152906181E0A2E35009E5E9A2E3500309
:101EA00075E9F7A3E0A2E75009E591A2E7500375B1
:101EB000917FD0F0D083D082D00BD00AD009D00847
:101EC000D0E0FDD0E0FCD0E0FBD0E0FAD0E0F9D0EB
:101ED000E0F8D0D0D0E032C0E0C0D0C082C0839063
:101EE0006183E0A2E05009E5BFA2E0500375BFFEA8
:101EF000E0A2E15009E5BFA2E1500375BFFDE0A2F9
:101F0000E25009E5BFA2E2500375BFFBE0A2E35037
:101F100009E5BFA2E3500375BFF7E0A2E45009E56D
:101F2000BFA2E4500375BFEFE0A2E55009E5BFA2F0
:101F3000E5500375BFDFE0A2E65009E5BFA2E65019
:101F40000375BFBFD083D0828088C0E0C0D0E8C016
:101F5000E0E9C0E0EAC0E0EBC0E0ECC0E0EDC0E0EA
:101F6000C0F0E5A7A2E6500FE5A1A2E6500953A7ED
:101F7000BF75A1BF121FAFE5A7A2E5500CE5A1A256
:101F8000E5500653A7DF75A1DFE5A7A2E15009E5FB
:101F9000A1A2E1500375A1FDE5A7A2E2500CE5A1C5
:101FA000A2E2500653A7FB75A1FBD0F0021EC0743D
:101FB000F8121758752101900755E0640670151244
:101FC000100E8A828B83A3A3A3A3A3A3E0FAA3E0AA
:101FD000FB121068A2AFE433FED2AF90075BE0645F
:101FE0000170187A207B00900754E0F91204C27A3D
:101FF000207B00900754E0F9120426906182E0D221
:10200000E6F09008F1E0602185C622801690075A1C
:10201000E064017008E5C654F84405F5C653BEFCFB
:10202000121D847401652160E4EEA2E092AF7F018D
:10203000021804008E238F24858228858327851823
:1020400082851983E0CEA3E0CF852882852783EBA4
:10205000C9EAC8EDCBECCA75F010C3E833C8E93360
:10206000C9EA33CAEB33CBC3EA9EF526EB9FF525CD
:10207000B35004AB25AA26EC33CCED33CDD5F0DA42
:10208000AE23AF242274EB12175874FA1216958AF5
:10209000088B098C148D15900755E024F7C394051F
:1020A00050069084300221E712100E8A0A8B0BAE84
:1020B0000AAF0BEE4F70030221E4AC08AD0985189E
:1020C00082851983AA82AB831210988E828F83A394
:1020D000A37808121565908400780812153F8518BA
:1020E00082851983780C121565908400780C12157E
:1020F0003F7808790C121377501F7808790C121565
:10210000179083FC780812139740478508108509BB
:1021100011850A12850B138041850C10850D1185E0
:102120000E12850F13781079081215179083FC781A
:1021300010121397501C7510007511007512007560
:1021400013017810790C121517781079081214DE23
:102150008008908430781012156574097810121474
:10216000BF90840478081215657810790812143627
:102170008E828F83A3A3A3A3A3A3E0F8A3E0F97A9D
:10218000D07B0312160A88088909E4F50AF50B7852
:102190001079081214DE74041216E0E0F8A3E0F9D6
:1021A0007AD07B0312160AE8FA8A08E4F509781057
:1021B00079081213775007781079081215179007CD
:1021C00055E06408600AE064066005E06405701C80
:1021D000908408781012139750129084107810127F
:1021E00014F180089083F8781012156585148285A3
:1021F0001583781012157474061216AB7F0E021830
:102200000474F71217581210AA9008EFE0640170D6
:1022100010906245E4F0A3F053F4F343FE0C5390A6
:10222000F3121056E5C654804449F5C6E59E547F26
:10223000644970F8906185740FF09008EDE0F470D7
:1022400002A3E0604E9008EEE0600814601B14608A
:102250002E80407508017509009008EDE07808129D
:102260001682E508F45280802A75080175090090ED
:1022700008EDE07808121682E508F4529080147593
:1022800008017509009008EDE07808121682E5084B
:10229000F452A079007F0202180474F7121758E96B
:1022A000FEEAFF74016E700C7A807B00900754E0A8
:1022B000F91204209025D4E493F46008E493F91211
:1022C0000EAC800953C680E59E547F70FA12105CF4
:1022D0009008EFE064017003120EC49008EDE0F482
:1022E0007002A3E0604B9008EEE0600814601A14DE
:1022F000602C803D7508017509009008EDE07808B4
:10230000121682E508428080287508017509009040
:1023100008EDE07808121682E508429080137508EF
:10232000017509009008EDE07808121682E5084270
:10233000A01210AA12100E8A088B09A808A909E891
:10234000496015E5E170FCE82414F582E93400F5F4
:1023500083E0F46003E0F5E174016F700A7A0190A4
:102360000754E0F912048C02229574F11217588A6E
:10237000088B098C0A8D0B740F1216E0780C12155D
:1023800065908400780812153F908400780C12152F
:102390003F7808790C12137750157808790C1215CC
:1023A000179083FC780812139740157901801378F1
:1023B0000C79081215179083FC780C12139740EBD8
:1023C00079007F0802180474ED1217588A088B09E7
:1023D0008C0A8D0B74131216E0780C12156590841C
:1023E00000780812153F908400780C12153F780C85
:1023F000790812137740117808790C121517AA087A
:10240000AB09AC0AAD0B8022751000751100751276
:10241000007513017810790C1215177810790812CD
:1024200014DEAA10AB11AC12AD137F0C021804908D
:10243000840078081215658A828B837808121552F9
:102440007F0402180474F51217588C828D83780863
:102450001215658A828B83780812152BEA2404F8FA
:10246000EB3400F98C828D83A3A3A3A3E0FCA3E04B
:10247000FD88828983C3E09CF0A3E09DF088828977
:1024800083C3E09420A3E0944E402290844C7808CB
:102490001215658A828B8378081215048A828B83D1
:1024A000A3A3A3A3E02420F0A3E0344EF080807423
:1024B000F5121758E9FE9008A7E0FAA3E0FBEEC377
:1024C00033F8E433F9748F28F582748239F583E0A8
:1024D0002AF508A3E03BF50978081218FF9083D489
:1024E00012158312203474021216AB8A088B098CE1
:1024F0000A8D0B741078081214A6AA08AB097F0481
:1025000002180474F11217588A0C8B0D8C0E8D0F63
:10251000740F1216E0E0FAA3E0FB74111216E0E06B
:10252000F508A3E0F50974131216E0E0FEA3E0FF3E
:1025300078081218FFEA2401F508EB3400F509E4E5
:10254000F50AF50B780C79081213B690841C7808FC
:10255000121565780C79081213B6AA0CAB0DAC0EE7
:10256000AD0F12203474021216AB8B09EA450960D4
:10257000047A0180027A00EC2AFCED3400FDECF8CC
:10258000EDF97A717B0212160A88088909E4F50AC6
:10259000F50B8E828F837808121574ECF8EDF97ABA
:1025A000717B0212160A8A088B09740578081216C4
:1025B000828E828F83A3A3A3A3E508F0A3E509F08D
:1025C0007F08021804C082C083E9906000F0D083C5
:0325D000D0822294
:1025D400FFFFFFFFFFFFFFFFC082C083E9900D1ED6
:1025E400F002286074F71216ECE9900673F07CABE5
:1025F4007D067AFF7BFF120BE290067474FFF0A352
:10260400F0A3E4F0A3F07905120B6A900673E0F9E5
:10261400120A927A007B0C120DC202356E74F41207
:1026240016EC8A088B09EB54806030900673E0F94D
:102634001204088A0A8B0BAE0AAF0BEE4F60138E9E
:10264400828F83E064B07003120B82EEFAEFFB1208
:1026540003F6AA08E5096480FB80047A007B000283
:10266400282F74F21216EC74FC121695EAFEEBFF96
:1026740074121216E0123A55EE4F700302270974D1
:10268400021216E0EEF0A3EF122A6AECF0A3ED12A8
:102694002A6AAA82AB83120A8CE9F50A706AE508F1
:1026A400450960648E828F83123A3BEE4F60567AFE
:1026B400067B001204748A0C8B0DA80CA90DE84942
:1026C4007005750A13804188828983E4122716EE07
:1026D400F0A3EF123A66E508F0A3E509F090067955
:1026E40012279D9006797005123518801B12350645
:1026F4008003EAFCEBFD8C828D8312279D70F38CA2
:10270400828D8380E3750A02A90A74041216AB024F
:102714003C55F0A3123A0CA32274F21216EC890A67
:10272400E975F017A4FEAFF0900678E4F090067611
:1027340012279D600A12047A900676E4F0A3F0EE64
:10274400FAEFFB1204748A088B09EA4509602FEE3C
:10275400FCEFFD79001203DE900676E508F0A3E5B0
:1027640009F07B008008122787E4F0A3F00BEBC389
:10277400950A40F2E50A900678F079008002791310
:10278400023C55EB75F017A4F8A9F0900676E02802
:10279400FAA3E0398A82F583221231AAEA4B227421
:1027A400F41216EC740C1216E0123A30FEE9FF75BE
:1027B4000800750900800CE5082401F508E50934D2
:1027C40000F509C3E5089CE5099D503285080A8592
:1027D400090B7403780A121682EA250AF8EB350B02
:1027E400F988828983A3A3A3A3A3A31235EDEE657D
:1027F4000A7003EF650B70BFE8FAE9FB80047A0006
:102804007B00802774F41216EC7900EAA2E0501BD6
:1028140075088D75098378081218FF7C047D007A89
:10282400207B0D120B6474021216AB7F040217BED8
:10283400C082C083900679122867601C88828983CD
:10284400A3A3E06A7003A3E06B8882898370E8A382
:10285400A3A3A31231A680047A007B00D083D08284
:10286400020135123D3BE8492274EE1216EC74FC69
:10287400121695EAFEEBFF851882851983E4F0A30E
:10288400F0EE24021234F8EE2405123A13EE240476
:10289400F50EEF122E1FE024FE603924FC6046245E
:1028A400FE605224FE605E24FE700302298024FE32
:1028B40070030229E424FE70030229F324FE70034A
:1028C400022A0224FC7003022A1124FE7003022A45
:1028D40020022A5D9006927417F0A3E4122A721261
:1028E400080A022A5D851882851983AC82AD831299
:1028F4000B88022A2D851882851983AC82AD831238
:102904000B8E022A2D850C08850D0974021216E01F
:10291400AC82AD838508828509831231A6120AB080
:102924008A0C8B0DAC0CAD0DEC4D603BE4F50CF555
:102934000D780C1218FF750C92750D06780C121890
:10294400FF750C93750D06780C1218FF7408121697
:10295400E0121916123EB71216ABE9F50C700B1201
:10296400319C120822800F750C0185088285098329
:10297400122A60123518850C08022A3074021216C5
:10298400E0AC82AD83850C82850D83122F71603C8F
:10299400850C82850D83A3A31219167510927511E7
:1029A4000678101218FF7510937511067810121816
:1029B400FF74081216E0121916123EB71216ABE98C
:1029C400F509700B12319C120828800F75090185D6
:1029D4000C82850D83122A60123518850908804CF3
:1029E400851882851983AC82AD83120B94803A8555
:1029F4001882851983AC82AD83120B9A802B8518BB
:102A040082851983AC82AD83120BA0801C85188249
:102A1400851983AC82AD83120BA6800D851882853F
:102A24001983AC82AD83120BACE9F508E508602983
:102A34008E828F83A3E06414601F850E82850F83CA
:102A4400E0900692122A6A123D37900693123518C6
:102A5400E508A3122A72120804023407123D3B85CA
:102A6400188285198322F085188285198322F07CC7
:102A7400927D06850A82850B831231AA2274EE1296
:102A840016EC74FC1216958A0A8B0B8C0E8D0FEAC9
:102A94002405F508EB3400F5097C157D0079007AEE
:102AA400927B061203DEE5082402F50CE509123ACE
:102AB40016851882851983858210858311781012F2
:102AC40018FF850882850983A3A3A3A3122F681284
:102AD40018FFE5082405F510E5093400F511781010
:102AE4001218FF850C82850D831232BD120AAA7456
:102AF400061216AB8A108B11AE10AF11E50A240230
:102B0400F50AE50B1234FBEE4F7003022C3F8017DD
:102B140074021216E01231A688828983EAF0A3EBCC
:102B2400F0900692E004F0900692E0C3940540030E
:102B3400022C3FE4F510F51178101218FF75107B84
:102B440075110678101218FF75107C75110678102F
:102B54001218FF74061216E01219167910EEFCEF23
:102B6400FD123EB91216ABE9705E850882850983B1
:102B7400A3A3A3A3A3A3A3E0F890067BE0687048F3
:102B8400122F681218FF7C7C7D06E5082408FAE5FC
:102B9400093400FB1203D874021216ABE960298EC3
:102BA400828F83A3A3A3A31231A6900692E0F5100B
:102BB4007402781012168274932510F58274063507
:102BC40011F583EAF0A3EBF074021216E08582108B
:102BD40085831178101218FF74021216E012191668
:102BE400850C82850D831231CC1216AB8A108B11A1
:102BF400AE10AF11900692E0F510751100740278D2
:102C04001012168274922510F874063511F9888210
:102C14008983A312279D7003022B0BE82403080861
:102C240008E93400F9EE4F6003022B14888289838B
:102C340074FFF0A3F0900692E004F0900692E06036
:102C44000A12319C1208167900800B8508828509C6
:102C54008312350F790A02340774EA1216EC74FEF3
:102C64001216958C128D13EA2405F50CEB123EA175
:102C7400123A3F750800750900EA2402F510EB3496
:102C840000F51185188285198385820A85830B785E
:102C94000A1218FF850C82850D83A3A3A3A3122E09
:102CA400351218FFE50C2405F50AE50D1234FB78FE
:102CB4000A1218FF850C82850D83122E39120AAA76
:102CC40074061216AB8A0A8B0BEA450B7003022DAD
:102CD400DAEA2404F50EEB122E1F123A3F8A828B95
:102CE40083A3A3A3E0F98510828511831231B06018
:102CF40003022DDAE4F514F51578141218FF75148F
:102D04007B75150678141218FF75147C75150678F2
:102D1400141218FF74061216E01219167913AC0A6D
:102D2400AD0B851082851183123EBF1216ABE9F5F7
:102D3400096003022DDA90067BE0F8E5087009E0EB
:102D44002402900693F08014900693E0FCE8240299
:102D5400FAE43400FBEA6C7001EB707E850882AA09
:102D640082122F5F9414122F57506B850E82850F99
:102D740083E0C0E074942A122E16D0E0F005088592
:102D84000E82850F83A3E0C0E085080A7494250AA7
:102D9400122E16D0E0F0050890067B122E3512187C
:102DA400FF7C7C7D0685080A7494250A122E29125C
:102DB40016AB90067BE02508F50874FF6E7003746B
:102DC400FF6F6012EE24010EEF3400FFE508C39498
:102DD400145003022C87E50860131231BA8510825F
:102DE4008511831231A612081C79008014E509703C
:102DF4000375090A851282851383EEF0A3EFF0A907
:102E04000974021216AB7F0E0217BE85080C749467
:102E1400250CF58274063400F583223400F50F8501
:102E24000E82F58322FA74063400FB1203C6740280
:102E340022123A7522A3A3122E3F22123506FDEE6A
:102E4400FAEFFB2274EE1216EC74FE1216958C0E39
:102E54008D0FEA2405F50CEB123A16750B0090065B
:102E640092E4F0F50AEA2402F508EB3400F509804F
:102E740044900692E0FA90067BE0F8122F5F9417D4
:102E8400122F57400D900692E0F87416C3989006DE
:102E94007BF0122F681218FF7C7C7D0674932AFA4B
:102EA4007406122E2C1216AB90067BE0F890069254
:102EB400E028F0050AE50C2416F582E50D122E1A19
:102EC400E0F8E50AC3985074900692E0C394165053
:102ED4006BE50AC333F8E433F9E50C28FEE50D3954
:102EE400FF851882851983AC82AD838E828F83120D
:102EF4002F717008750B0112350B8050E4F510F535
:102F04001178101218FF75107B75110678101218BD
:102F1400FF75107C75110678101218FF74061216CE
:102F2400E01219167916850882850983123EBF12AC
:102F340016ABE9F50B7003022E7580BB7C927D06FF
:102F44008508828509831231A612082EA90B740202
:102F5400023409E99400C365D03322EA28F8E43442
:102F640000F9E822E0F5107511007810221233FE02
:102F74008A108B11AC10AD11EC4D2274EA1216ECD0
:102F840074FC1216958A0C8B0D8C128D13EA240591
:102F9400F50AEB1234FB750800750900E50A2402F2
:102FA400F510E50B3400F51174021216E085820E5B
:102FB40085830F780E1218FF850A82850B83A3A3DD
:102FC400A3A3123A1B1218FFE50A2405F50EE50B1C
:102FD4003400F50F780E1218FF85108285118312C4
:102FE40035011231A0120AAA74061216AB8A0E8B8E
:102FF4000FAE0EAF0FE50C2402F50EE50D3400F50F
:103004000F80388882898374FFF00508122E0F74AC
:10301400FFF0050890067BE0F50C750D00780C12A6
:1030240018FF7C7C7D0685080C7494250C122E29CF
:103034001216AB90067BE02508F508EE4F60278E4C
:10304400828F83A3A3A3E0F9850E82850F831231B7
:10305400B0EE2404123A13E96027850C82850D83AF
:10306400123192123518E50870030231781231BA20
:10307400850E82850F831231A6120834790002313D
:103084008DE4F514F51578141218FF75147B751575
:103094000678141218FF75147C7515067814121826
:1030A400FF74081216E01219167911EEFCEFFD8573
:1030B4000E82850F83123EBF1216ABE9F509709A92
:1030C400850882AA82EA90067B7009E024049006AF
:1030D40093F08025E0F8900693E0F514E82404FCCE
:1030E400E43400FDEC65147001ED7081122F5F94DF
:1030F40012122F574003023071850C82850D83E034
:10310400C0E074942A122E16D0E0F00508850C82D3
:10311400850D83A3E0C0E0122E0FD0E01231D585D7
:10312400820C85830D780C1218FF74041216E012B9
:1031340019168510828511831231CC1216AB8A0CB4
:103144008B0DAE0CAF0D85080C7494250CF8740629
:103154003400F9EE4F700302300785188285198315
:10316400E0888289831231D5A3E0C0E0122E0FD00B
:10317400E0023015E509700375090A850A82850B9A
:1031840083123192123518A9097404022E07123DD4
:103194003B851282851383227C927D06850A828573
:1031A4000B831231AA22E0FAA3E0FB221231AA1205
:1031B4000A98E9F50922900693E0F5F0E508849071
:1031C4000692F07C927D0622122E3F120AB67404F7
:1031D40022F005088518828519832274EC1216ECF6
:1031E40074FE1216958A088B098C0E8D0FEA24053D
:1031F400FEEB3400FF1233E8EE2418123A13EA45CA
:103204000B700302328B1233D150291232B08A1060
:103214008B11EA4511606B7912AC0AAD0B850882FB
:103224008509831231A68510828511831216EAE975
:10323400F50A7058E4F50AF50B780A1218FF8E8225
:103244008F83A3A3E0F50A780A1218FFEE24031271
:1032540034F8780A1218FF8E828F831232BD120B53
:10326400D074061216ABE9F50A7021850C82850D1F
:1032740083E0701F8508828509831231A612083AFB
:103284008011750A0E8009750A018004E50A60033D
:1032940012350B850C82850D83E060047900800271
:1032A400A90A74021216AB7F0C0217BE8518828518
:1032B40019831231AA120BBE22123506FD8508822B
:1032C4008509831231AA2274EE1216EC74FE1216CA
:1032D400958A088B098C0C8D0DEA2405FEEB3400CD
:1032E400FF750E001233E8EA450B70030233AF1288
:1032F40033D1502C1232B08A0E8B0FEA450F604A3C
:103304007912AC0AAD0B8508828509831231A68532
:103314000E82850F831216EAE9F50E60030233B2BA
:103324008508828509831235EDAA0AFB1233C3701E
:10333400147AFF7BFF1233C3606C88828983E50AA9
:10334400F0A3E50BF0750A008007750E0E805F058B
:103354000A900678E0FAE50AC39A504AE50A75F03D
:1033640017A4FAABF088828983A3A3E02AFAA3E026
:103374003BFB8A828B83123501EC4D70D2750A17A0
:10338400750B00780A1218FFEEFCEFFD1203C674E9
:10339400021216ABEEFCEFFD85088285098312311B
:1033A400A61208408014750E098003750E01123DA3
:1033B40033850C82850D83123518A90E022F521203
:1033C4000BB28A108B11A810A911E84922E5082430
:1033D40002F508E5093400F5098A828B83A3A3A3C7
:1033E400E0A2E522851882851983AC82AD838E82A2
:1033F4008F831233FE8A0A8B0B22E0FAA3E0FB12BE
:103404000AB02274041216AB7F0A0217BE74EC12BF
:1034140016EC8C108D11EA2405F50CEB123A167596
:103424000F00EA2402F50AEB1234FB850A82F583C5
:103434001231A6123F4570030234ED750E008071FF
:10344400850C82850D83E06401704F8E828F83A387
:10345400A31219168E828F83A3A3A3A3E0F512757A
:10346400130078121218FFEE2405F512EF3400F55C
:103474001378121218FF1231A0120BD07406121610
:10348400ABE9F50F6014850C82850D83E4F0123DE1
:10349400338510828511831235187C177D007900DD
:1034A400EEFAEFFB1203DE8E828F83E4F0A3F005C5
:1034B4000E900678E0F8E50EC398501EE50E75F000
:1034C40017A4F8A9F0850882850983A3A3123EAB4B
:1034D400123501EC4D60030234448508828509836A
:1034E40074FFF0A3F0E50F70061231A0120846A98C
:1034F4000F0232ABF50AEF3400F50B22A3123506A6
:10350400FD22E0FCA3E0228E828F83123D3B850ED8
:1035140082850F83E8F0A3E9F022C082C08390067D
:1035240074E06A7003A3E06B70067A747B0680040F
:103534007A007B0002286074F71216EC7F00EF75A6
:10354400F003A4F8A9F0EC28F8ED39F9888289830E
:10355400E06A7003A3E06B7006E8FAE9FB800B0FE6
:10356400EFC3940240D87A007B007F010217BE7437
:10357400F61216EC123B2470067A007B008007A337
:10358400A3A3A31231A6023BE574F21216ECE9FEE2
:10359400740E1216E01235ED74101216E0123A553C
:1035A4008C828D83E06402703BA3123D378882894C
:1035B40083E0F50CA3E0F9A80C7402687003742985
:1035C400697021750C02750D00780C1218FF7808CB
:1035D4001218FF780A1218FFEEF9120BF47406128F
:1035E40016AB80027901023C55E0F50AA3E0F50B25
:1035F4002274E81216EC74FB121695E9851882857C
:103604001983F08A168B178C0E8D0F741F1216E017
:10361400123A5574211216E01235ED74231216E095
:10362400123A3F7510008C828D83A3A3A3E0A2E419
:10363400502A741D1216E01232B68A828B83E582F8
:1036440045837003023701790AAC0EAD0FAA16AB9D
:10365400171216EAE9F5106003023704850E828515
:103664000F83E0640260030239BAA3123D37850870
:1036740082850983A3858212858313E50E2406F5CA
:103684000CE50F123A1688828983E0FAA3E0F9EA7E
:103694002400F514E439F515781412198901000091
:1036A400280128C93607000228A03703281037004C
:1036B40029CA380129F238022999380329CA380459
:1036C400295B39BA39EE4F703E850C82850D831221
:1036D4003A30FAE9FB8A828B83E0850A82850B8380
:1036E400123A6C1218FF8A828B83A3123506FDAA44
:1036F40008AB091203C674021216AB800375100ED0
:10370400A9107405023E9975100B80F4EE4F70F702
:10371400850A82850B837401F0123A4585088285F7
:103724000983F07C007D00850E82850F83A3A3A30B
:10373400A3E02401FAA3E03400FB120AB0EA4B60D0
:10374400418A828B83E02402F8850A82850B83E018
:1037540028F0EA2404F8EB3400F988828983E085B0
:103764001282851383123A7E123A6C1218FF8A82EF
:103774008B83123500E5082403FAE5093400FB02C3
:1037840036F7850A82850B83E02404F07C047D00EF
:103794007900AA12AB131203DE023704EE4F600362
:1037A40002370B123A45FEA3E0FF850A82850B839C
:1037B4007404F0EE850882850983F0EF8512828512
:1037C4001383F074031216E0AC82AD83EEFAEFFBC0
:1037D400123B1270030238768A828B83A3A3123AB7
:1037E4003B74011216E085820E85830F780E121841
:1037F400FF74051216E01219167CFF7DFF120AB63B
:1038040074041216AB8B0FEA450F7033850C828556
:103814000D83123A1B1218FF850C82850D83A312A7
:1038240019167C027D007A857B841208E2740412E6
:1038340016ABE9700A74011216E074FFF0A3F08E5F
:10384400828F83E064027034750C02750D00780C6D
:103854001218FF8E828F83123500E5082404FAE5DE
:1038640009122E2C1216AB850A82850B83E02402E2
:10387400800974011216E0EEF0A3EFF07401121641
:10388400E0123A2CF074011216E0A3123A24A3A316
:10389400A3F0023704EE4F600302370B850C8285D8
:1038A4000D83123501AA16AB17120BE8850A82851F
:1038B4000B837402F0EA850882850983F0851282FD
:1038C400851383EB80CBEE4F600302370B123A452E
:1038D400F8A3E0F9850A82850B837402F0E8850871
:1038E40082850983F0E985128285138380A3850C80
:1038F40082850D831231A61203C0EAFC8C82A88251
:10390400C39EE49F404BE86E7001EF70047C00801E
:103914001F851882851983E0FAEE2AFAEF3400FB3A
:10392400C3EA98EB94005003E08004EECCC39CFC03
:10393400EC850A82850B83F08C0A750B00780A12D9
:1039440018FF850C82850D83E02EFCA3E03F023630
:10395400F2751007023704EE4F600302370B850C33
:1039640082850D83123D37850A82850B837407F0A7
:1039740088828983123A24123A0CE08512828513D4
:1039840083F0E82402FAE93400FB8A828B83123A3A
:1039940024123A5D123A2CA3123A66123A35F0E830
:1039A4002405F8E93400F988828983123A35A31290
:1039B4003A7EA3023892741D1216E0123B1D700366
:1039C400023701123D37880C890DE8450D7003025A
:1039D40037018E108F1178101218FF780A1218FF11
:1039E40078081218FF74061216E0E0F9AC0EAD0F59
:1039F400AA16AB17850C82850D831216EA7406127B
:103A040016ABE9F510023704F088828983A322F506
:103A14000CEF3400F50D22E0F50E750F00780E2240
:103A2400E085088285098322123A8522123D3BE80B
:103A340022123A85A3A322A3A3A3A3E0FEA3E0FF3B
:103A440022850C82850D83E0F8A3E0F5838882E06B
:103A540022E0F508A3E0F50922A3A3F08A828B8370
:103A6400A322122718A3A322F08A828B83123A7509
:103A740022E0F50A750B00780A22123A0C123A85F4
:103A840022E0850882850983A3A32274EE1216EC32
:103A940074FE1216958A0A8B0BECFAEDFB74141261
:103AA40016E0E0F510A3E0F51174161216E0E0FE3E
:103AB40074181216E0E0F50EA3E0F50F8518828560
:103AC4001983AC82AD83123B12603E85188285193E
:103AD40083123B1D602FA3A3123A55E508450960E4
:103AE40024780E1218FF78101218FFEEF9AC0CAD02
:103AF4000DAA0AAB0B8508828509831216EA7404A1
:103B04001216AB8006790E80027901022F52120A36
:103B1400B08A0C8B0DEA450D221231AA123B2422E5
:103B2400120B7C8A828B83E58245832274F61216FB
:103B3400EC74FE121695740C1216E0123A308518C5
:103B440082851983F074011216E0E9F0E4F508F5B2
:103B54000978081218FF75080278081218FF74040F
:103B64001216E085820885830978081218FF120B63
:103B7400D074061216AB74021216AB806474F7127A
:103B840016ECEAFEEBFF89087CAB7D06120BE8EA33
:103B94005402600BA908EEFAEFFB120AA480027922
:103BA4000102356E74F61216EC74FF6A700374FF2A
:103BB4006B701C7B00EB75F003A4F8A9F0EC28F8FB
:103BC400ED39F9123BEA0BEBC39402501480E61270
:103BD4000BB88A088B09A808A909E8496003123BB5
:103BE400EA7F020217BE8882898374FF122716E4D3
:103BF400F02274F61216EC120BB88A828B83E582DB
:103C040045836006A3A3E0FA80027A007B0080D19A
:103C140074F21216EC8A088B09ECFEEDFF740E1296
:103C240016E0E0F50A123C5A701CEEFCEFFD7AFF38
:103C34007BFF123C5A70047911801688828983E5CF
:103C440008F0A3E509F088828983A3A3E50AF07943
:103C5400007F060217BE120BB88A0C8B0DA80CA9A4
:103C64000DE8492274EE1216ECEAFEEBFF8C088D87
:103C740009890C74121216E0123D3774141216E0FE
:103C840012350174161216E01231A6750D00EC4DB2
:103C94006003023D2B7402650C6003023D2688829A
:103CA4008983123506F9EC2400F50EE439F50FEAA0
:103CB400F4F8EBF4F9EC58F8E50F59F9E849705DBC
:103CC400E5082406F8E5093400F9880A890B888296
:103CD400F583122E3B120BE88A108B11E50E65104A
:103CE4007004E50F65116042780E1218FF850A8290
:103CF400850B83122E3B120BEE74021216ABE9F500
:103D04000D7027780E1218FF850882850983A3A3F6
:103D1400122E39120C0674021216AB800D750D802A
:103D24008008750D0D8003750D0BA90D02340C8EE2
:103D3400828F83123D3B22E0F8A3E0F92274E8125B
:103D440016EC74E7121695851882851983EAF0A398
:103D5400EBF08C168D17890E74311216E0E0F51213
:103D6400A3E0F51374331216E0E0F514A3E0F5159F
:103D740074351216E0E0F50F750800750900E509C1
:103D840075F003A4F8A9F0851882851983123EAB57
:103D9400E0F47003A3E0F47003023E89EE2402F51C
:103DA4000CEF123EA1E07003023E8985160A8517C6
:103DB4000B780A1218FFAC14AD15AA12AB13120B30
:103DC4007074021216AB8A0A8B0BEA450B7003025D
:103DD4003E89E4F510F51178101218FF74061216D6
:103DE400E085821085831178101218FF7409121669
:103DF400E085821085831178101218FF8512828560
:103E04001383A3A3A3A31219167914AC0AAD0B8EC2
:103E1400828F83123EBF1216ABE97069850A8285D0
:103E24000B83A3A3A3A3123D3774021216E0123529
:103E340018850C82850D83E0A2E05018A90E740247
:103E44001216E0AC82AD838E828F831231A6120AE1
:103E5400C8E94208850C82850D83E0A2E15026E57D
:103E64000FF50A780A121903A90E74031216E0ACAE
:103E740082AD838E828F831231A6120AC27401121C
:103E840016ABE942080509E509C394025003023D53
:103E940082A90874191216AB7F100217BE3400F5FC
:103EA4000D850C82F58322E028FEA3E039FF8E8283
:103EB4008F83227916850A82850B831231AA120B0D
:103EC400CA74082274F21216ECEAFEEBFF890B7432
:103ED40001650B600E7402650B70637901120DE0CD
:103EE400E9705BEEFAEFFB123F456047750A00800C
:103EF4000B7C177D0079001203DE050A900678E03A
:103F0400F8E50AC3985021E50A75F017A4F8A9F05A
:103F1400850882850983A3A3E028FAA3E039FB8AF4
:103F2400828B8312286770C985088285098374FF90
:103F3400F0A3F07CAB7D06EEFAEFFB120BE2023C41
:103F440055120BB28A088B09EA45092274F212163B
:103F5400EC8A088B09ECFEEDFF740E1216E01235A4
:103F6400ED900D1EE0F4603D7A097B001203F0EA47
:103F74004B60328A828B8374B1F0A3E4123A5FA35C
:103F8400123A5DA3E508F0A3E509123FACEEF0A3F5
:103F9400EF123FACA3A3E50AF0A3E50BF0900D1ECE
:103FA400E0F91203FC023C55F08A828B83A3A3A39D
:103FB400A3A322C082C0839061907404F0A37448C8
:103FC400F0A37402F09061807440F09061BC7403BB
:103FD400F09061877419F0906265741BF090619C95
:103FE400740DF090619A7433F0A37455F09061A04D
:103FF400743AF09008EFE064017009C29190075997
:10400400746780059007597461F09025DAE4939001
:104014006186F09025D4E493F46027E493540FF878
:10402400906185E0686012E5C654804449F5C6E5B0
:104034009E547F644970F8E8F053C680E59E547F2F
:1040440070FA79051211340241F9C082C083E9542F
:104054000FF9906185E0696012E5C654804449F522
:10406400C6E59E547F644970F8E9F053C680E59E26
:10407400547F70FA0241F9C082C083E5A8F853A8BE
:104084007E906181E4F0A3F0A3F0C2BA539AFEC219
:1040940089759B00C2C275E90075910075BF0075F2
:1040A400A91175B905906181F0A374C0F0A3E4F07F
:1040B400D2BA439A0174805842A80241F9C082C01E
:1040C4008374F8121695900757E0F8A3E0F9E849CD
:1040D40070030241EF900757E0544060237908854C
:1040E4001882851983AA82AB83120F9C8518828556
:1040F4001983AA82AB83120C72900757E054BFF065
:10410400E054806010790C7A137B09120F9C90079D
:1041140057E0547FF0E0A2E0503190619A7433F09C
:10412400A37455F09061A0743AF09008EFE0640134
:104134007009C2919007597467800590075974619A
:10414400F0120C78900757E054FEF0E0540260310E
:1041540090619A743FF0A3745AF09061A0747FF058
:104164009008EFE064017009D2919007597471804E
:1041740005900759746AF0120C78900757E054FDC3
:10418400F0E0540460139025D8E493906186F01213
:104194000C7E900757E054FBF0E054086013902520
:1041A400D9E493906186F0120C7E900757E054F79F
:1041B400F0E0541060139025DAE493906186F012D5
:1041C4000C7E900757E054EFF0E05420600A120C84
:1041D4007E900757E054DFF0A3E05401600D120E07
:1041E400C4120C84900758E054FEF074081216AB05
:1041F4008003F0A3F0D083D08202013574EC121650
:10420400EC74F4121695851882851983AC82AD83FB
:104214007583837582EC74041215A89025D893F4E1
:10422400600302438D907808E0C394025003024374
:104234006D74041216E0AC82AD8375838375824E6F
:1042440074081215A88518828519838582128583BE
:104254001374041216E0AC82AD83750EFF750FFF64
:104264007FFF7E00750C48750D78801574086E709C
:104274000302430074096E7003024300740A6E6003
:104284007B850C82850D8378081215658C828D835D
:10429400A909E50AC9F88810741878081214A6E563
:1042A400104508F8C3E098A3E099850C82850D8336
:1042B400780812156540188C828D8374187808125A
:1042C40014A6E5104508F8E0C398F8A3E0801C7430
:1042D4001878081214A6E5104508FAE9FB8C828DBB
:1042E40083E0F8A3E0F9EAC398F8EB99F9C3E895F9
:1042F4000EE9950F5006880E890FEEFF0EE50C248B
:1043040004F50CE50D3400F50DEEC39413500302CF
:10431400427074FF650E700474FF650F60238F088C
:104324007402780812168274482508F58274783568
:1043340009F5837808121565851282851383E508CB
:10434400F0EC24020C0CED3400FD851282851383FD
:10435400A3858212858313740C1216E0E5826C70B7
:1043640003E5836D600302425E75080175090078F8
:10437400081218FF74021216E0AC82AD837A767BC1
:104384000912061874021216AB740C1216AB7F0CC9
:104394000217BEC082C0839061AE7468F0A3746AD1
:1043A400F090624574FBF0A304F053F4FD43FE0265
:1043B4009008EF7401F09061A0E0643A90619A7003
:1043C400237433F0A37455F09061A0743AF074012F
:1043D40064017009C2919007597467802890075945
:1043E40074618021743FF0A3745AF09061A0747FCB
:1043F400F0740164017009D29190075974718005B9
:10440400900759746A0241F87F040217BEC082C043
:10441400839008A1E06401700A9008A6E060047922
:104424000C800279000241F9C082C08375E1F190E9
:1044340008A4E06055146008146059146051805950
:10444400120ED690089AE0F97A9B7B081210B69067
:1044540083E01215831210EC90843C121583121021
:10446400C29008A5E0F91210CE7901121128900823
:1044740098E02416F8A3E03400F98882898374EE66
:10448400F0A3740EF079000241F9120EDC80B4122C
:104494000EE280AF120EE880AA791280EA74F41258
:1044A40016EC75D90D900889E0A2E0E4331313F8F3
:1044B40090089AE0C4333354C0484401F5D978983D
:1044C400790888828983A3A3A3E0F5D988828983A4
:1044D400A3A882A983E8649E7003E9640870E37862
:1044E40089790888828983A3E0F5D988828983A39E
:1044F400A882A983E8648F7003E9640870E575E114
:1045040095900889E0F97A8A7B081210BC900D40D6
:104514007482F0A3740EF0A374E4F0A3740FF0A3F8
:1045240074E4F0A3740FF0A374E4F0A3740FF0A385
:104534007488F0A3740EF0A374E4F0A3740FF0A3D2
:1045440074A0F0A3740EF0900D4E74E4F0A3740FF5
:10455400F0A374E4F0A3740FF0A374E4F0A3740F55
:10456400F0A374E4F0A3740FF0A374E4F0A3740F45
:10457400F0A374E4F0A3740FF0900898E0F8A3E0BB
:10458400F5838882A3A378081215659083CC7808F4
:104594001214F1908400780812153F900898E024D2
:1045A4000EF8A3E03400F988828983780812157420
:1045B400900898E02414F8A3E03400F988828983F1
:1045C4007413F09007557402F002440CC082C08347
:1045D4009008AAE02407F5D990089AE0C43333542C
:1045E400C0F5D97898790888828983A3A3A3E0F5D4
:1045F400D988828983A3A882A983E8649E7003E989
:10460400640870E39008AAE0601F78987908FAE8D3
:104614002413F582E93400F583E0F5D9888289838F
:10462400A3A882A9831AEA70E69008CAE02407F5D1
:10463400D990089AE0C4333354C04404F5D9789827
:10464400790888828983A3A3A3E0F5D98882898322
:10465400A3A882A983E8649E7003E9640870E390C8
:1046640008CAE0601F78987908FAE82433F582E9EB
:104674003400F583E0F5D988828983A3A882A983CD
:104684001AEA70E675E195900D40748EF0A3740EED
:10469400F0A374E4F0A3740FF0A374E4F0A3740F14
:1046A400F0A374E4F0A3740FF0A37488F0A3740E61
:1046B400F0A374E4F0A3740FF0A374A0F0A3740E39
:1046C400F0900D4E74E4F0A3740FF0A374E4F0A31F
:1046D400740FF0A374E4F0A3740FF0A374E4F0A3D4
:1046E400740FF0A374E4F0A3740FF0A374E4F0A3C4
:1046F400740FF090844C121583900898E0240EF8FF
:10470400A3E03400F98882898312158F900898E019
:104714002414F8A3E03400F9888289837412F09099
:10472400075574010241F8C082C0839008AAE024AE
:1047340007F5D990089AE0C4333354C04402F5D93C
:104744007898790888828983A3A3A3E0F5D988821D
:104754008983A3A882A983E8649E7003E96408702E
:10476400E39008AAE0601F78987908FAE82413F522
:1047740082E93400F583E0F5D988828983A3A8828D
:10478400A9831AEA70E675E195900D40749AF0A336
:10479400740EF0A3749AF0A3740EF0A3749AF0A3A9
:1047A400740EF0A3749AF0A3740EF0A3749AF0A399
:1047B400740EF0A3749AF0A3740EF0A374A0F0A383
:1047C400740EF0900D4E74E4F0A3740FF0A374E42F
:1047D400F0A3740FF0A374E4F0A3740FF0A374E4D3
:1047E400F0A3740FF0A374E4F0A3740FF0A374E4C3
:1047F400F0A3740FF090844C121583900898E02471
:104804000EF8A3E03400F98882898312158F90088A
:1048140098E02414F8A3E03400F98882898374149E
:10482400F090075574040241F8C082C0839008AA2E
:10483400E02407F5D990089AE0C4333354C0440601
:10484400F5D97898790888828983A3A3A3E0F5D958
:1048540088828983A3A882A983E8649E7003E9649B
:104864000870E39008AAE0601F78987908FAE824B1
:1048740013F582E93400F583E0F5D988828983A3AE
:10488400A882A9831AEA70E69008CAE02407F5D939
:1048940090089AE0C4333354C04404F5D978987925
:1048A4000888828983A3A3A3E0F5D988828983A396
:1048B400A882A983E8649E7003E9640870E3900801
:1048C400CAE0601F78987908FAE82433F582E9345D
:1048D40000F583E0F5D988828983A3A882A9831A85
:1048E400EA70E675E195900D407494F0A3740EF0AF
:1048F400A374E4F0A3740FF0A374E4F0A3740FF0B2
:10490400A374E4F0A3740FF0A374E4F0A3740FF0A1
:10491400A374E4F0A3740FF0A374A0F0A3740EF0D6
:10492400900D4E74E4F0A3740FF0A374E4F0A37438
:104934000FF0A374E4F0A3740FF0A374E4F0A37471
:104944000FF0A374E4F0A3740FF0A374E4F0A37461
:104954000FF090844C121583900898E0240EF8A36D
:10496400E03400F98882898312158F900898E02436
:1049740014F8A3E03400F9888289837415F0900751
:104984005574030241F8C082C083900898E0F8A3EC
:10499400E0F5838882A3A3A3A3A3A3E40241F6744E
:1049A400F71216EC900783E0F875F004A4C8AAF097
:1049B4002AF9748528F8740739F9E82405FAE934E2
:1049C40000FB8A828B83E0FCA3E0FD88828983A3B9
:1049D400A3A3A3A3A3A3A3A3ECF0A3EDF0888289CC
:1049E40083A3A3A3A3A3A3A3E024FFF8A3E034FF1A
:1049F400F98A828B83E8F0A3E9024C4874F7121613
:104A0400ECEAFEEBFF9061D0E06003024ADD75D969
:104A14000E75D90375D904EE248CF582EF3400F5B4
:104A240083E5822408F8E5833400F9E0F5D9A3E8A6
:104A340065827003E9658370F2EE2484F582EF34B5
:104A440000F583E5822404F8E5833400F9E0F5D920
:104A5400A3E865827003E9658370F275E1957908CE
:104A6400EE248CFAEF3400FB120F907904EE2484C8
:104A7400FAEF3400FB120F907C00EEF8EFF9ECFA39
:104A8400C3E49AFA95E0FBEE2AFAEF3BFBEA248BA7
:104A9400F582EB3400F583E0C0E0E824ABF582E96D
:104AA4003400F583D0E0F00C88828983A3A882A91E
:104AB40083ECC3940840C7EE2470F582EF3400F50C
:104AC40083E0F8A3E0F9EE2472F582EF3400F58375
:104AD400E8F0A3E9F0790180027900024C49C08230
:104AE400C08375D90275D90375D90575E195EA2492
:104AF40070F582EB3400F583E0F8A3E0F9EA247260
:104B0400F582EB3400F583E8F0A3E9F07901024182
:104B1400F974F61216ECEAFEEBFF9008F37406F053
:104B24007508F375090878081218FF7C01790312D7
:104B34000FD874021216AB75D90675D9037582F3B2
:104B4400758308E0F5D9A3E58264F87004E583640D
:104B54000870F075E195900755E06408701EEE2426
:104B640070F582EF3400F583E0F8A3E0F9EE2472E7
:104B7400F582EF3400F583E8F0A3E9F07901024D02
:104B84001574F61216ECEAFEEBFF9061D0E0706645
:104B940078019008F3740BF0900755E064077019DE
:104BA4007508F375090878081218FF7C0179031257
:104BB4000FD874021216AB7805740128F5D975D98B
:104BC400037582F3758308E8FAE0F5D9A31AEA704D
:104BD400F875E195EE2470F582EF3400F583E0F882
:104BE400A3E0F9EE2472F582EF3400F583E8F0A334
:104BF400E9F0790180027900024D1574F71216EC80
:104C0400EAFEEBFF75D90375D90375D90DEE24DEE1
:104C1400F582EF3400F583E0F5D975E19579041256
:104C240010F2EE2470F582EF3400F583E0F8A3E08F
:104C3400F9EE2472F582EF3400F583E8F0A3E9F08D
:104C440079018001F07F010217BE74F61216ECEAB6
:104C5400FEEBFF9061D0E0F87480C398FAEE2483F1
:104C6400F582EF3400F583E0600478048002780074
:104C7400E8240BF8EAC3985003024D137D09900809
:104C8400F3EDF0EE24E3F8EF3400F97AF47B087CDA
:104C94000888828983E08A828B83F088828983A34F
:104CA400A882A9838A828B83A3AA82AB831CEC701B
:104CB400E0EE2483F582EF3400F583E0601D75088F
:104CC400F375090878081218FF7C097903EEFAEFE6
:104CD400FB120FD874021216AB7D0D74012DF5D999
:104CE40075D9037582F37583088D08E0F5D9A3158A
:104CF40008E50870F675E19579041210F2EE241DAA
:104D0400F582EF3400F583E4F0A3F07901800279B1
:104D1400007F020217BE74F61216ECEAFEEBFF9057
:104D240061D0E0F87480C398FAEE2483F582EF34FE
:104D340000F583E06004780480027800E82408F831
:104D4400EAC3985003024E1A7D069008F3740CF0DF
:104D5400900772E09008F4F07A737B0778F579088D
:104D64007C028A828B83E088828983F08A828B83A7
:104D7400A3AA82AB8388828983A3A882A9831CEC1B
:104D840070E07A757B077C028A828B83E088828953
:104D940083F08A828B83A3AA82AB8388828983A3CC
:104DA400A882A9831CEC70E0EE2483F582EF340022
:104DB400F583E0601D7508F375090878081218FF7B
:104DC4007C067903EEFAEFFB120FD874021216ABCD
:104DD4007D0A74012DF5D975D9037582F37583089D
:104DE4008D08E0F5D9A31508E50870F675E1957905
:104DF400041210F2EE2470F582EF3400F583E0F82B
:104E0400A3E0F9EE2472F582EF3400F583E8F0A311
:104E1400E9F0790180027900024D1574F61216EC5E
:104E2400EAFEEBFF9061D0E0F87480C398FAEE24B8
:104E340083F582EF3400F583E0600478048002781F
:104E440000E82404F8EAC3985003024EF97802906B
:104E540008F3E8F0EE24F5F582EF3400F583E090F2
:104E640008F4F0EE2483F582EF3400F583E0601B50
:104E74007508F375090878081218FF7C027903EEA7
:104E8400FA120FD874021216AB7806740128F5D9F9
:104E940075D9037582F37583088808E0F5D9A315DD
:104EA40008E50870F675E195EE2474F582EF340098
:104EB400F583E4F0EE2480F582EF3400F583E4F02A
:104EC400EE241DF582EF3400F583E4F0A3F07904B9
:104ED4001210F2EE240DF582EF3400F583E0F8A30E
:104EE400E0F9EE2472F582EF3400F583E8F0A3E9EB
:104EF400F0790180027900024D1574F61216EC90D7
:104F040061D0E0F87480C398FCEA2483F582EB3422
:104F140000F583E06004780480027800E82404F853
:104F2400ECC398405B79029008F37407F0EA24F626
:104F3400F582EB3400F583E09008F4F0EA2483F57D
:104F440082EB3400F583E060187508F3750908787E
:104F5400081218FF7C0209120FD874021216AB79DA
:104F640006740129F5D975D9037582F3758308E9A7
:104F7400F8E0F5D9A318E870F875E1957901800295
:104F84007900024D1574F51216ECE9FCA2AFE43376
:104F9400F50AC2AF7D0080010DEA246FF582EB347F
:104FA40000F583E0F8EDC398501A8D08EA2508F857
:104FB400EB3400F9E8246BF582E93400F583E06C06
:104FC40070D68024EA246FF8EB3400F9E0FEEA2E70
:104FD400FAEB3400FBEA246BF582EB3400F583EC46
:104FE400F088828983E004F0E50AA2E092AF7F03AF
:104FF4000217BE74F61216ECA2AFE433FDC2AFEA98
:10500400246FF582EB3400F583E014F07C00603605
:105014008C08EA2508F8EB3400F9E8246CF582E9F9
:105024003400F583E0C0E0E8246BF582E93400F550
:1050340083D0E0F00CEA246FF582EB3400F583E0D2
:10504400F8ECC39840CAEA246EF582EB3400F58389
:1050540074FFF0EA246AF582EB3400F583E4F0EDA2
:10506400A2E092AF024D15C082C083E5A8F8C2AF9A
:10507400EA246BF582EB3400F583E9F0EA246AF55F
:1050840082EB3400F583E4F0E8A2E792AF0241F941
:1050940074F31216ECEAFEEBFFECFAEDFB8A828B5A
:1050A40083A3A3A3A3E0541FF0EE2436F582EF34C8
:1050B40000F583E4F0F50AEEFCEFFD8A828B83E0D1
:1050C400C0E0EC245DF582ED3400F583D0E0F075AA
:1050D4000B00E50A33333354F8F50C8A828B83E0F2
:1050E400F508750900E50B7808121663E508A2E0D7
:1050F400502FEE2436F8EF3400F988828983E0F5E6
:1051040008EE2508F508EF3400F509E5082438F51C
:1051140082E5093400F583E50CF088828983E00494
:10512400F0050B050CE50BC3940840AF050A8A8211
:105134008B83A3AA82AB838C828D83A3AC82AD8341
:10514400E50AC3940550030250BF7F050217BE74DD
:10515400F71216EC900781E0640170077A007B0077
:105164000252CA7E00900787E070F17401F0A3E454
:10517400F0A3F09007E704F09007EAE4F0A3F090BE
:1051840007ED04F090078AE4F0A3F0A3F0A3F090F5
:10519400079404F09007BAE4F09083F81215839012
:1051A400079D12158F9007A1E4F0A3F0A3F09008D7
:1051B40005F09007F9F09007EE7480F0A3E4F09006
:1051C40007F4F09007ECF0900870F0A3F0A3F0A3BC
:1051D400F0A3F0A3F0A3F0A3F0900879F0900808EE
:1051E400F0900858F0A3F09083F812158390085AB1
:1051F40012158F9083F812158390085E12158F9004
:105204000864E4F0900866F0900862F090087CF07E
:10521400A3F0A3F0A3F0A3F0A3F0A3F0A3F078818C
:105224007907E8246FF582E93400F58374FFF00E02
:1052340088828983A3A882A983EEC3940440E37A75
:10524400817B077890790888828983E0C0E0EA242A
:1052540061F582EB3400F583D0E0F088828983A382
:10526400A882A9838A828B83A3AA82AB83E86495EC
:105274007003E9640870D07A817B077868790788BD
:10528400828983A3E0C0E0EA24E7F582EB3400F5E9
:1052940083D0E0F088828983A3A882A9838A828B41
:1052A40083A3AA82AB83E864707003E9640770CFB8
:1052B400900781E004F064017008900789E090078A
:1052C40083F07A857B07024C49C082C083900788AB
:1052D400E4F0900787F0900781F0A3F0A374FFF047
:1052E40075E1F10241F9C082C0837800790090072A
:1052F40088E060047885790788828983A3A3A3A3BF
:10530400E0F90241F974F61216ECEAFEEBFF8E8224
:105314008F83A3A3A3E0600F8E828F83A3A3A3E450
:10532400F0900782E014F0900781E014F07006908A
:10533400078374FFF08E828F83A3A3E4F090089513
:10534400E0700D900782E06401700579001210D4BA
:10535400EE2465F582EF3400F583E0F8A3E0F9E884
:10536400496029EE2465F8EF3400F9880889098832
:1053740082F583E0FCA3E0FD900783E0FA7B001252
:105384000CA8850882850983E4F0A3F0EEFAEFFB0C
:10539400121008024D1574F71216ECEAFEEBFF8E9C
:1053A400828F83A3A3A3A3E0FA7B00120CEAEEFA94
:1053B400EFFB120F5A120FF0024C49C082C08378DF
:1053C40068790788828983A3E4F088828983A3A803
:1053D40082A983E864707003E9640770E690076942
:1053E40002472674F61216ECEAFEEBFFEC2403F8EF
:1053F400ED3400F988088909EC2407F8ED3400F944
:10540400E8FCE9FD8C828D83E0F8A3E0F98508824D
:10541400850983E0FAA3E0FB12160AEE240DF58257
:10542400EF3400F583E8F0A3E9F08C828D83E0F893
:10543400A3E0F9850882850983E0FAA3E0FB12164C
:105444000A8B09EA45096013EE240DF582EF340056
:10545400F583E02401F0A3E03400F0024D1574F666
:105464001216ECEAFEEBFFEE242EF582EF3400F583
:1054740083E0FCA3E0FD780079FAECFAEDFB121668
:105484000AEE2470F582EF3400F583E8F0A3E9F026
:10549400780079FAECFAEDFB12160A8B09EA450951
:1054A4006013EE2470F582EF3400F583E02401F0FC
:1054B400A3E03400F0024D1574F01216ECEAFEEB92
:1054C400FF74101216E078081215651210928A0CF7
:1054D4008B0D8C0E8D0F9083C8780C1214F1908470
:1054E40000780C12153F780C1218FB8E828F83E023
:1054F400F8A3E0F5838882A3A312158312236A74A8
:10550400041216ABE960030256098E828F83E024ED
:1055140002F8A3E03400F9E8FAE9FB8A828B837885
:105524000812150490840078081215658A828B830A
:105534007808121552EE240BF582EF3400F583C07F
:1055440082C0838E828F83A3A3A3A3A3E02401F844
:10555400A3E03400F9D083D082E0687003A3E0694B
:105564007005790102560B8E828F83A3A3A3A3A394
:10557400A3A3E02401F0A3E03400F0EE2474F58248
:10558400EF3400F583E064017036EE2475F582EFA4
:105594003400F583E0F8A3E0F98E828F83A3A3A3FC
:1055A400A3A3A3A3E0687003A3E0697013EE2475BA
:1055B400F582EF3400F583E02401F0A3E03400F039
:1055C400EE2480F582EF3400F583E064017036EE5A
:1055D4002481F582EF3400F583E0F8A3E0F98E82AC
:1055E4008F83A3A3A3A3A3A3A3E0687003A3E06989
:1055F4007013EE2481F582EF3400F583E02401F08A
:10560400A3E03400F079007F080217BE74F7121685
:10561400EC900783E0F875F004A4C8AAF02AF974A2
:105624008528FE740739FF8028EE2465F8EF3400DE
:10563400F988828983E0FCA3E0FD88828983E4F011
:10564400A3F08E828F83A3A3A3A3E0FA7B00120CA2
:10565400A8EE2465F582EF3400F583E0F8A3E0F9C1
:10566400E849604FEE2464F582EF3400F583E0F5F9
:10567400087808121903EE2463F582EF3400F583E9
:10568400E0F9EE2465F582EF3400F583E0FCA3E055
:10569400FDEEFAEFFB120F8474011216ABE9608978
:1056A400EE2465F582EF3400F583E0F8A3E0F9E831
:1056B4004970137C007D008E828F83A3A3A3A3E093
:1056C400FA7B00120CA8024C4974F21216ECEAFEA2
:1056D400EBFF890A740E1216E0E0FAEE2462F582FA
:1056E400EF3400F583E0640160030257999061D0C0
:1056F400E0F87480C398F50CEE2483F582EF34004F
:10570400F583E060047804800278008908E928F8C9
:10571400E43400F9E824020808E93400F9E50C98B7
:10572400E499A2D265D0334068EA7005750B028013
:1057340003750B01E0603975090078081218FF7AC7
:10574400F37B08120FBA74021216AB7508F37509CD
:105754000878081218FFAC0AA90BEEFAEFFB120F37
:10576400D874021216AB7404250AF50A7CF37D087A
:105774007401250AF5D9850BD9E50A600D8C828D53
:1057840083F8E0F5D9A318E870F875E195790080FD
:10579400067907800279FF7F060217BEC082C083A4
:1057A400E960208C828D83E08A828B83F08C828DE9
:1057B40083A3AC82AD838A828B83A3AA82AB831931
:1057C400E970E0ECFAEDFB0241F974EA1216EC9090
:1057D4007803E06442705E9008F2E014F07056C200
:1057E400AF1257E800782AD0E0F618D0E0F6E59F2B
:1057F4005407F970059083C080039083BC78081225
:105804001565E9C4C0E07829E65508F50808E655A9
:1058140009F509740B7808121673D0E02508F8907E
:105824006270E0A2E740F8E8C333906272F09062DD
:1058340070E0D2E0F0900783E0F47003025BF1E0E3
:10584400F875F004A4C8AAF02AF9748528FE740730
:1058540039FFEE2402F582EF3401F583E0F8A3E08A
:10586400F9E849601EEE2402F582EF3401F583E085
:10587400FAA3E0FBEE2401F582EF3401F583E0F9AD
:105884001204208E828F83A3A3A3A3A3A3A3E0F86F
:10589400A3E0F98E828F83A3A3A3A3A3E8F0A3E9D3
:1058A400F0906054E090075CF0906055E090075DE4
:1058B400F0906056E090075EF0906057E090075FCC
:1058C400F0906058E0900760F0906059E0900761B4
:1058D400F090605AE0900762F090605BE09007639C
:1058E400F090605CE0FC900764F090605DE0FB90F9
:1058F4000765F090605EE0FD900766F090605FE001
:10590400FA900767F0900762E08C082508F8E43401
:1059140000F98D08E82508F8E93400F98B08E82532
:1059240008F8E93400F98A08E82508FAE93400FBA4
:10593400EE24F7F582EF3400F583E02AF0A3E03B90
:10594400F08C08EE24F9F582EF3400F583E02508A5
:10595400F0A3E03400F0EE24FBF582EF3400F5838D
:10596400E02401F0A3E03400F0EE24FFF582EF34EC
:1059740000F583E0F8A3E0F9E8496042906000E0B4
:10598400C333FCE433FDE82CF582E93DF583E02ADA
:10599400F0A3E03BF0906000E0FA900764E0FCEADA
:1059A400C333FAE433FBE82AF8E93BF9E8244AF57F
:1059B40082E93400F583E02CF0A3E03400F0900792
:1059C40062E07011900765E0700BA3E07007A3E03C
:1059D4007003025AD18E828F83A3A3A3A3A3E0F8FA
:1059E400A3E0F9EE240DF582EF3400F583E028F806
:1059F400A3E039F9EE240BF582EF3400F583E8F0E7
:105A0400A3E9F0EE240FF582EF3400F583E4F0EE21
:105A1400241CF582EF3400F583E06401701EEE244B
:105A240020F582EF3400F583E0F8A3E0F9EE241DBD
:105A3400F582EF3400F583E8F0A3E9F090075DE028
:105A44006052EE241CF582EF3400F5837401F0EE0D
:105A5400246AF582EF3400F583E07038EE2474F59F
:105A640082EF3400F583E0702BEE2480F582EF346E
:105A740000F583E0701EEE2420F582EF3400F583F8
:105A8400E0F8A3E0F9EE241DF582EF3400F583E895
:105A9400F0A3E9F0906062E07003025B848E828F71
:105AA40083E0F8A3E0F9E82406FCE93400FDE824E7
:105AB40002FAE93400FB12108C8E828F83E02412E8
:105AC400F8A3E03400F988828983025B8E9007642E
:105AD400E0603AEE240FF582EF3400F583E4F0EE53
:105AE400241CF582EF3400F583E064017040EE2459
:105AF40020F582EF3400F583E0F8A3E0F9EE241DED
:105B0400F582EF3400F583E8F0A3E98020EE24FD6C
:105B1400F582EF3400F583E02401F0A3E03400F0D3
:105B2400EE241DF582EF3400F583E4F0A3F0EE24B7
