:020000040000FA
:0600000002011D021ECBEF
:03002B00021A5D59
:03003B00021AA8FE
:03004300021A346A
:03005300021F3E4B
:03006B00021A79FD
:10008300021D7FE5C754F84401F5C779012200003A
:100093000080FB120086B90003020107E47921788E
:1000A30008B800028004F709D8FCE479297802B87B
:1000B30000028004F709D8FCE4900281786F790983
:1000C3008002F0A3D8FCD9FA781A90014D7A01BACC
:1000D30000028007E493A3F608DAF9900AEFAA82F4
:1000E300AB8390014E787E79038015E493A3AC82B1
:1000F300AD838A828B83F0A3AA82AB838C828D83A8
:10010300D8E9D9E77582C57583AD740312012F75DC
:100113008291758300740012012F75D00075813FA1
:10012300751881751902759F00020096C09FF59F8F
:10013300E473D09F22D083D082C09FE493C0E07445
:100143000193C0E0740293F59F2201FFFF1101990F
:10015300010F126404010240840100003484025838
:1001630084010000F60A024484010000F70A0248F1
:1001730084030000A602025684010000F80A01E885
:1001830003053F100A4368617261637465726973A2
:10019300746963203100024368617261637465723C
:1001A3006973746963203200084368617261637420
:1001B3006572697374696320330010436861726107
:1001C3006374657269737469632034000243686100
:1001D30072616374657269737469632035000240E8
:1001E300840100003184025884010000280B02645A
:1001F300840300004205024684010000290B0258D3
:10020300840100003A0B02628401000043050246A8
:10021300840100003B0B0258840100004C0B025E7A
:100223008402000044050246840100004D0B02587D
:10023300840100005E0B025C840000004505024857
:100243008403000046050246840100005F0B025848
:1002530084010000700B025A840400004C0502461E
:1002630084010000710BFF000130750302010600D9
:10027300000000000000000000000000000000007B
:100283000000000000000000000000FFFF060080E7
:100293000CE803090941312D30303030303005127C
:1002A3005000A000020A00020106030200234131AC
:1002B3002D303030303030000000000000000000EE
:1002C300000000E5070000EB07FF0000B400002872
:1002D300002800283075A000A000A000A00000089E
:1002E3000008E001F00010001000100010001000E2
:1002F300100050005000500010001000D007000004
:10030300000000000F000100050030750700100019
:10031300010081FF0000FFF509130AFB09FF020238
:100323000208025000A0000000E80302408401001C
:10033300003784025884010000C20C024A84010081
:10034300004606025884010000C30C024C840100DD
:10035300005C06025884010000C40C024E840100B4
:10036300005E06025884010000C50C025084080098
:10037300005F06025884010000C60C02528401008B
:1003830000C70CFF0100FF200240840100002E84FF
:100393000258840100002B0D025484000000000069
:1003A300024884030000AC06D70FD70FD70FD70F2F
:1003B300D70FD70FD70FD70FD70FD70FD70FD70F0A
:1003C300D70F65127D125F121201384FC10212015D
:1003D3003859C1021201389AC102120138E3C1022D
:1003E3001201381DC20212013873C202120138947D
:1003F300C20212013843C5021201384CC502120170
:1004030038A0C502120138C9C502120138D3C5028A
:1004130012013841C602120138D1C6021201382C2A
:10042300C7021201385AC702120138E2C702120189
:100433003821C80212013856C80212013868C802AE
:1004430012013887C80212013890C80212013857C6
:10045300C902120138A0A8031201381F9E0312011A
:1004630038559E03120138899E03120138D69F0323
:10047300120138CAAB03120138E0AB03120138EAA8
:10048300AB0312013834AC0312013866AD03120119
:10049300383DEC0212013850EC0212013811ED0222
:1004A30012013850ED021201386DED02120138A627
:1004B300ED02120138F3ED0212013825EE021201AA
:1004C300385CEE0212013865F002120138D1F002F5
:1004D30012013814A50312013837A5031201386637
:1004E300A503120138FEA50312013840A603120129
:1004F300389BFD02120138CBFD0212013877FE0250
:100503001201381DFF021201382AAB0312013838D9
:10051300AB031201383BAB03120138ACAB0312013E
:1005230038E9AE031201381DAE031201386A8401A3
:100533001201383C86011201381A8801120138BFB2
:100543008801120138538901120138CA8901120145
:1005530038F38901120138CF8D011201386A8E01F7
:10056300120138B48F01120138EE8F011201382FB6
:100573009001120138C591011201382A920112012A
:1005830038739201120138DE92011201386D930122
:100593001201389B9301120138B6930112013818E6
:1005A3009501120138289501120138E796011201CD
:1005B30038FE9601120138309701120138CD9801A7
:1005C3001201387299011201386EAA031201387FA1
:1005D300AA031201381FAB0312013873AE031201D1
:1005E30038B2AE03120138EAFF0212013835FF01B7
:1005F30012013845FF011201385DFF01120138F184
:10060300FF011201389EA70312013823A803120128
:100613003887A803120138F07F00120138008003E5
:100623001201382D80031201389F8003120138B460
:100633008003120138D58103120138588203120155
:1006430038D18203120138F0820312013813830375
:10065300120138508303120138688303120138BE34
:1006630083031201387FF90212013896F90212014D
:100673003810FA02120138F4FA02120138CBFC02E4
:1006830012013830FD0212013887FD02120138F8D9
:100693007F00120138EB9B03120138759D03120191
:1006A30038D69D031201381C9E03120138B08B0308
:1006B3001201384B8C03120138E98C03120138E123
:1006C3008D03120138938E03120138BB8E0312017E
:1006D30038C98E031201383E8F03120138528F033B
:1006E3001201385C8F031201385F8F03120138A4A3
:1006F3008F03120138C18F0312013877900312015F
:1007030038CA9003120138BE9103120138D4920300
:100713001201387CA303120138CEA303120138411E
:10072300A403120138AEA403120138A499031201E1
:1007330038CE99031201389D9A03120138799B032D
:10074300120138EDB802120138B9B902120138FAB0
:10075300B90212013834BA0212013892BA021201F4
:1007630038E6BA021201384BBB02120138E9BB0268
:10077300120138EFBC021201387CBE021201381D8F
:10078300BF0212013887BF021201389ABF02120159
:1007930038A2C002120138EDC002120138008002F3
:1007A300120138328302120138C384021201381A4B
:1007B3008502120138378502120138E585021201DC
:1007C30038718702120138408802120138CE8B0239
:1007D300120138B88C02120138AED7021201381355
:1007E300DB02120138BCDB02120138D7DC02120132
:1007F3003843DD02120138C9A103120138E0A10315
:100803001201380FA20312013848A20312013870F3
:10081300A2031201389EA203120138B5A2031201EA
:1008230038CCA203120138E2A20312013809A30350
:100833001201381CA30312013832A30312013845F5
:10084300A3031201386AA30312013841A60212015D
:100853003840A70212013875A70212013896A70281
:10086300120138A6A702120138C7A702120138D312
:10087300A802120138A0A90212013813AA02120118
:100883003899AA02120138DCAA0212013813AB020A
:1008930012013899AB021201386BAC02120138C94C
:1008A300AC02120138E1AC021201385BAD02120155
:1008B300385EAD0212013861AD0212013808AE0292
:1008C30012013820AE0212013850AE021201387004
:1008D300AE021201385EAF0212013814B0021201E7
:1008E3003895E702120138BDE702120138EBE7023F
:1008F30012013822E8021201388AE802120138D3C1
:10090300E8021201381EE9021201385CE902120101
:100913003899E902120138C7E9021201386EEA0276
:1009230012013878EA0212013885EA02120138B856
:10093300EA021201387AEB0212013886EB02120145
:10094300389EEB02120138A8EB0212013897A90373
:10095300120138A5A903120138BDA903120138D524
:10096300A90312013861AD01120138FFAD01120173
:100973003877AE011201388CAF01120138C6AF01CE
:100983001201386FB00112013844B101120138A8C5
:10099300B201120138FFB20112013886B30112010C
:1009A300386DB401120138BAB40112013848B501E7
:1009B3001201386CB50112013841B70112013882B6
:1009C300B701120138A4B70112013825B801120189
:1009D300380FB901120138D5B901120138A2D0027A
:1009E30012013874D1021201381DD202120138608B
:1009F300D202120138EDD20212013879D302120168
:100A0300385AD40212013889D40212013885D5022A
:100A1300120138CDD502120138CFD6021201381394
:100A2300D70212013839D70212013860AC03120120
:100A330038DF8703120138F587031201381B880357
:100A43001201384389031201384D8903120138A674
:100A53008A03120138A68B03120138C5DD02120185
:100A630038FADE021201382DDF0212013877DF0275
:100A730012013835E102120138076E001201386A9B
:100A83006E00120138AF6F00120138BF6F00120100
:100A930038E26F001201382D7000120138D2700055
:100AA300120138C871001201389272001201380A1B
:100AB30074001201384C7400120138EA74001201F8
:100AC300383775001201385D75001201384B770015
:100AD300120138507700120138317900120138853C
:100AE3007900120138E779001201380F7A001201F8
:100AF30038B37A00120138757B00120138A67B00E7
:100B0300120138A97B00120138F17B00120138333E
:100B13007C001201389A7C00120138647D001201B6
:100B230038777D00120138907D00120138DB7D009B
:100B3300120138B67E00120138457F001201389049
:100B43007F00120138D02500120138DC2500120184
:100B5300381526001201385A2600120138112700D1
:100B6300120138972700120138FC27001201382898
:100B73002800120138612800120138752A00120179
:100B830038512C001201383C2E00120138732F000B
:100B9300120138D33100120138BF32001201380577
:100BA30034001201381235001201382F35001201BA
:100BB30038673500120138813500120138E93500F4
:100BC300120138833A00120138243B0012013875B0
:100BD3003B001201389C3B00120138EA3B00120132
:100BE30038083C001201385C3C00120138353D00E6
:100BF300120138BC3E00120138443F00120138EBA9
:100C0300E202120138F5E202120138C0E3021201D6
:100C130038DBE30212013801E40212013845E40231
:100C23001201387DE402120138A6E4021201381FD2
:100C3300E50212013834E50212013849E5021201D6
:100C43003880E50212013894E502120138C5E50245
:100C5300120138FFE5021201382BE6021201388136
:100C6300E602120138D5E6021201381EE70212012C
:100C73003848E7021201386DE702120138F38303A3
:100C8300120138BD8403120138A0850312013816FE
:100C9300860312013858860312013885870312012F
:100CA300384E8D02120138778D02120138908D0271
:100CB300120138D58E02120138B38F02120138D2D5
:100CC3008F021201385F9002120138A290021201C2
:100CD30038EF91021201388E92021201380D9502FB
:100CE300120138A495021201387896021201385A7B
:100CF3009702120138C6980212013859990212015B
:100D03003889A603120138F2A60312013846A70355
:100D13001201386DA703120138DEF0021201384BBD
:100D2300F10212013896F1021201388BF20212011C
:100D33003887F30212013871F4021201387FB002CE
:100D4300120138C1B0021201389BB102120138748A
:100D5300B2021201386FB3021201384EB40212010B
:100D630038BAB40212013881B502120138ECB50267
:100D730012013853B6021201387EB602120138EF5F
:100D8300B60212013882B702120138EBB702120120
:100D93003800B80212013848B80212013861B802AB
:100DA300120138C6B802120138C9B802120138AAB2
:100DB3009603120138D296031201381097031201D9
:100DC30038CE970312013839980312013855980326
:100DD3001201387D9803120138AD9803120138BC13
:100DE30098031201383699031201385C99031201F2
:100DF3003888CA0112013865CC0112013860CE016E
:100E030012013833CF011201387ECF01120138C9E4
:100E1300CF01120138DBCF011201381BD0011201BF
:100E23003850D0011201389CD001120138CBD001C7
:100E3300120138EED0011201383BD101120138C43E
:100E4300D101120138D1D301120138BCD5011201ED
:100E530038FFD50112013864D701120138A5D70133
:100E630012013818D80112013864D8011201388FE1
:100E7300D801120138D09902120138FB99021201EC
:100E830038E2A00212013806A302120138C1A402FB
:100E93001201381EA602120138AB3F00120138427C
:100EA30040001201386F4000120138B540001201B2
:100EB30038F441001201388B430012013805440015
:100EC300120138204400120138954400120138C43D
:100ED30045001201381F4700120138214800120152
:100EE300387E4900120138974900120138F449004D
:100EF300120138D64A00120138094B001201387921
:100F03004B00120138F34B00120138424C0012011E
:100F1300380E4D00120138134E00120138F24E0004
:100F23001201387D4F00120138EB4F001201385F78
:100F33005000120138885000120138475100120145
:100F430038C15200120138DE5200120138FD52003E
:100F53001201388E5300120138B35300120138DBEB
:100F63005300120138565400120138B054001201D4
:100F730038045600120138C1560012013894570044
:100F8300120138B9D80112013809D90112013815F3
:100F9300D901120138F2D90112013822DA01120102
:100FA300385ADA01120138D9DA0112013811DB019A
:100FB30012013863DB01120138A0DB01120138C5CD
:100FC300DD01120138F1DF01120138ECE1011201F8
:100FD30038C7E301120138F37F00120138B09901D9
:100FE300120138FA9901120138D99F011201385AB6
:100FF300A101120138B9A701120138B4A8011201E5
:1010030038F1A80112013814A90112013856A901B7
:101013001201385FA90112013869A901120138557B
:10102300AA0112013849AB01120138C2570012015B
:10103300383A62001201384062001201384C6900EC
:101043001201380D9303120138A39303120138B927
:101053009303120138339403120138899403120164
:1010630038C79403120138249503120138A195035C
:10107300120138AA9503120138B69503120138C933
:1010830095031201380596031201381B96031201CA
:10109300387A960312013833F50212013840F5020B
:1010A3001201385AF50212013899F502120138D7A4
:1010B300F5021201383CF60212013851F602120110
:1010C300385CF60212013869F60212013880F60222
:1010D3001201388EF60212013899F602120138A570
:1010E300F602120138B4F602120138BFF6021201F9
:1010F30038E2F6021201388BF7021201389BF7022D
:10110300120138B5F702120138D2F702120138EE94
:10111300F70212013813F8021201381DF802120106
:101123003831F80212013850F802120138B1F802CE
:10113300120138B7F802120138BDF802120138C3A0
:10114300F802120138CFF80212013802F902120133
:10115300388DE6011201380FE701120138B8E701B3
:1011630012013800E9011201380EEB01120138F4C3
:10117300EB0112013829EC011201384BEC01120189
:1011830038F4EC01120138C4EE01120138EDEE011E
:1011930012013865EF0112013897EF01120138A4EB
:1011A300EF01120138EFEF0112013813F0011201C0
:1011B3003864F2011201386EF301120138CAF301E7
:1011C3001201380ABC011201381BBD01120138FF9C
:1011D300BD0112013809BE011201382BBE011201F3
:1011E3003837BE01120138DBBF0112013808C001D4
:1011F3001201381EC10112013873C101120138C234
:10120300C20112013897C301120138F3C30112015D
:10121300385EC40112013893C401120138D6C401E7
:10122300120138A0C701120138B8C70112013849A9
:10123300C80112013857C801120138A4C8011201AC
:1012430038B2C8011201381EC90112013899C90107
:10125300120138F0C90112013817F40112013839AB
:10126300F4011201384AF60112013809F901120199
:101273003833FA01120138F1FA01120138DDFB01AA
:1012830012013810A00312013835A003120138AB44
:10129300A00312013885C9021201388EC902120156
:1012A3003897C9021201386FCA0212013820CC02E2
:1012B30012013850CC021201387BCC02120138AB38
:1012C300CC02120138D6CC021201380ACD02120127
:1012D3003836CD0212013879CD02120138A4CD027D
:1012E300120138EBCD0212013840CE0212013882CE
:1012F300CE02120138DCCE0212013807CF021201EE
:101303003856CF0212013886CF02120138B1CF020C
:10131300120138DFCF0212013802D002120138E97C
:10132300AC0312013815AD0312013842AD031201AB
:10133300384CAD031201385CAD03120138BCAE0367
:10134300120138BA7F0012013813AF031201383B80
:10135300AF03E066701008A3E066700A08A3E066B6
:10136300700408A3E06622C3E7960809E796080914
:10137300E7960809E79622C3E09608A3E09608A338
:10138300E09608A3E09622C008C3E096F50808A3F8
:10139300E096420808A3E096420808A3E0964508B1
:1013A3007001D3D00822080808EAC0E0EBC0E08649
:1013B300F0E7A4FA180986F0E7A42AFA180986F0D8
:1013C300E7A42AFA180986F0E7A42AFA1986F0E7AF
:1013D300A4FBE5F02AFA190886F0E7A42BFBE5F055
:1013E3003AFA190886F0E7A42BFBE5F03AFA181845
:1013F3000986F0E7A4C5F02BFBE43AFA1908E7C520
:10140300F0C6A426F6E5F03BFBE43AFA1886F0E7CB
:10141300A4F6E5F00826F6E43B08F6E43A08F6D02D
:10142300E0FBD0E0FA22E4CFC0E0E4CEC0E0E4CDBC
:10143300C0E0E4CCC0E075F020C3E633F608E63341
:10144300F608E633F608E633F6181818EC33FCED25
:1014530033FDEE33FEEF33FFC3EC9709ED9709EE4F
:101463009709EF97191919400FFFEC97FC09ED97AE
:10147300FD09EE97FE191906D5F0BEECF709EDF755
:1014830009EEF709EFF7191919D0E0FCD0E0FDD008
:10149300E0FED0E0FF226016080808C6C313C61892
:1014A300C613C618C613C618C613C6D5E0EA2270FB
:1014B30009080808226016181818C6C333C608C6D8
:1014C30033C608C633C608C633C6D5E0EA22E627C4
:1014D300F60809E637F60809E637F60809E637F6A7
:1014E30022E026F608A3E036F608A3E036F608A3C2
:1014F300E036F622E026F008A3E036F008A3E03653
:10150300F008A3E036F022C3E697F60809E697F65B
:101513000809E697F60809E697F622C3E096F0086D
:10152300A3E096F008A3E096F008A3E096F022E08B
:1015330056F608A3E056F608A3E056F608A3E056CD
:10154300F622E056F008A3E056F008A3E056F008B0
:10155300A3E056F022E0F608A3E0F608A3E0F608BD
:10156300A3E0F622E6F008A3E6F008A3E6F008A35A
:10157300E6F022E0FAA3E0FBA3E0FCA3E0FD22EA0D
:10158300F0A3EBF0A3ECF0A3EDF022CAC0E0E6F089
:10159300A308DAFAD0E0FA22CAC0E0E0A3C582CCFD
:1015A300C582C583CDC583F0A3C582CCC582C5835F
:1015B300CDC583DAE6D0E0CA22C3E498F8E499F90A
:1015C3001215FD8026C3E49AFAE49BFBE920E7E9C0
:1015D3001215FDE498F8E499F922C3E498F8E49924
:1015E300F91215FDE498F8E499F9C3E49AFAE49B37
:1015F300FB22EB20E7CFE920E7E0B90010BB0008AE
:10160300E88AF084F8AAF022E4FBC8FA22EB7022FD
:101613007B10C833C8C933C9335007C39AC3DBF23D
:1016230080069A50012ADBEAC833F4C8C933F4C9E7
:10163300FA2275F008E4C833C8C933C933C99AC953
:101643009B5004C92AC93BD5F0ECFBC833F4C8E46A
:10165300C9FA22600D08C6A2E713C618C613C6D579
:10166300E0F322600C08C6C313C618C613C6D5E040
:10167300F422700422600D18C6C333C608C633C6ED
:10168300D5E0F41822251810AF08F51840021519F3
:101693008008F51840021519D2AF22C0D0251810C2
:1016A300AF08F518500205198008F51850020519FE
:1016B300D2AFD0D0222518F58210AF08F51840021A
:1016C30015198008F51840021519D2AF8519832220
:1016D3002518F582E43519F58322E4732518C582AC
:1016E300C0E0E51934FFC583C0E0E518C395822443
:1016F300F810AF08858319858218800885831985BA
:101703008218D2AFCEF0A3E520F0A37808E608F064
:10171300A3DEFAEFF0A3E58124FAF8E608F0A3E6E6
:1017230008F0A3E608F0A30808E608F0A3E608F02B
:10173300A315811581D0E0FED0E0F8158115811540
:1017430081E8C0E0EEC0E0222518C582C0E0E519BB
:1017530034FFC583C0E0E518C3958224F910AF08B0
:101763008583198582188008858319858218D2AFED
:10177300CEF0A3E520F0A37808E608F0A3DEFAEFA5
:10178300F0A3E58124FBF8E608F0A3E608F0A3083C
:1017930008E608F0A3E608F0A315811581D0E0FE62
:1017A300D0E0F815811581E8C0E0EEC0E02285198C
:1017B30083851882E0A3FEE0A3F5207808E0A3F672
:1017C30008DFFAE0A3FFE0A3C0E0E0A3C0E0E0A3EA
:1017D300C0E0E0A3C0E0E0A3C0E010AF088582183A
:1017E3008583198008858218858319D2AFD083D069
:1017F30082020135851983851882E0A3FEE0A3F5F3
:10180300207808E0A3F608DFFAE0A3FFE0A3C0E036
:10181300E0A3C0E0E0A3C0E0E0A3C0E010AF088510
:1018230082188583198008858218858319D2AFD0E1
:1018330083D08222C0D02518C582C0E0E51934FFC9
:10184300C583C0E0E518C3958224F310AF088583F0
:10185300198582188008858319858218D2AFC8F04C
:10186300A3E9F0A3EAF0A3EBF0A37908E709F0A357
:10187300D8FAECF0A3EDF0A3EEF0A3EFF0A3D0E0E1
:10188300F0A3D0E0F0A3D0E0F0A3E520F0A3E5F0CF
:10189300F0A322851983851882E0C0E0A3E0F9A3B1
:1018A300E0FAA3E0FBA37808E0F608A3DFFAE0FC84
:1018B300A3E0FDA3E0FEA3E0FFA3E0C0E0A3E0C03C
:1018C300E0A3E0F5D0A3E0F520A3E0A3F5F010AF8B
:1018D300088583198582188008858319858218D223
:1018E300AFD082D083D0E0F8D0E0327404800674A5
:1018F3000280027401C0E0F4041216B8D0E012159D
:101903008E227404800474028000CCC0E0EDC0E039
:10191300E518C39CCCAD1950011D10AF068C188D72
:101923001980068C188D19D2AF12159BD0E0FDD00B
:10193300E0FC22D083D082E9C0E0E493A3C386F025
:10194300C5F095F0F908E493A386F0C5F095F0701F
:101953000BE493A3C3994005E9048002A3E475F063
:1019630002A42582F582E5F03583F583D0E0F9E41E
:1019730093A3C0E0E493C0E022D083D082ECC0E024
:10198300EDC0E0E493A3FCE493A3FDED4C600D12E2
:1019930019C8EC24FFFCED34FFFD80EFE493A3FCB6
:1019A300E493A3FDED4C600D121A07EC24FFFCED4C
:1019B30034FFFD80EFD0E0FDD0E0FCE493A3C0E072
:1019C300E493C0E022C0E0C3E493960874019396C5
:1019D30018400FE49366700808740193661870004A
:1019E3007019A3A3C3E49396087401939618A3A351
:1019F300400DD0E0D0E0D0E00219B8A3A3A3A3A385
:101A0300A3D0E022C0E0C0F088F0E4936670080839
:101A130074019366187000A8F0A3A3700BD0F0D0E4
:0F1A2300E0D0E0D0E00219B8A3A3D0F0D0E022C9
:101A3400C0E074F2121837A2AFE433FED2AFC2C0D2
:101A4400E5D1A2E4500653D1EF1206E3751A00EE75
:101A5400A2E092AF7F01021896C0E0C0D0E8C0E0D7
:101A6400E5A8D2AFC2C7751A00A2E792AFD0E0F8DA
:101A7400D0D0D0E032C0E0C0D0E8C0E0C082C083A3
:101A8400E5A8F8D2AF758900C2C59003B67401F019
:101A9400751A00E8A2E792AFD083D082D0E0F8D0E4
:101AA400D0D0E032C0E0C0D0E8C0E0E9C0E0C00877
:101AB400C009C082C083A2AFE433F9D2AF90053A23
:101AC400E0F8A3E0687008539AFBA374018026C26F
:101AD400E990053AE0F50874012508F074BA250880
:101AE400F58274043400F583E0F5C190053AE0C34F
:101AF40094804002E4F0E9A2E092AFD083D082D097
:101B040009D008D0E0F9809474F512174BEAFEEB83
:101B1400FFEE2434F8EF3400F988088909EE2435FF
:101B2400F582EF3400F583E0F8EE2437F582EF34E4
:101B340000F583E0F50AEC850AF0A4FCAAF0850A16
:101B4400F0EDA42AFDE82CF8E43DF97A257B001297
:101B540015FDEA850882850983F05407F87401B8F5
:101B640000028004C333D8FCC0E0E0131313541FF5
:101B7400F8EE28F8EF3400F9E8245DF582E9340042
:101B8400F583D0E0F8E0586008EE2434F582EF8065
:101B94001EEE2436F582EF3400F583E0F5F0EA8496
:101BA400A8F0EE28F8EF3400F9E82438F582E93497
:101BB40000F583E0F97F040217F774F512174BEA76
:101BC400FEEBFFEE2434F582EF3400F583E0C0E051
:101BD400EE2435F582EF3400F583D0E0F08E828F69
:101BE40083A3A3A3A3A3A3A3C082C0838E828F8352
:101BF400A3A3A3A3A3E0F8A3E0F9D083D082E0C316
:101C040098F508A3E099F509EE2480F582EF3400F5
:101C1400F583E064017069EE2481F582EF3400F508
:101C240083E0F8A3E0F98E828F83A3A3A3A3A3A3E5
:101C3400A3E0FCA3E0FD8E828F83A3A3A3A3A3E070
:101C4400FAA3E0FBC3EA9CEB9D5027C3EC98ED9903
:101C5400402EC3EA98EB9950277C917D08EEFAEF69
:101C6400FB120F35EE2480F582EF3400F583E4F0A7
:101C7400800EC3EA98EB9940E0C3EC98ED9950D9F3
:101C8400EE2434F8EF3400F9E8FCE9FDEE2435F5F0
:101C940082EF3400F583E0F8EE2437F582EF340068
:101CA400F583E0F50AE508850AF0A4F508AAF085AD
:101CB4000AF0E509A42AF509E82508F8E43509F944
:101CC4007A257B001215FDEA8C828D83F05407F887
:101CD4007401B800028004C333D8FCC0E0E01313DD
:101CE40013541FF8EE28F8EF3400F9E8245DF58268
:101CF400E93400F583D0E0F8E0586008EE2434F5C8
:101D040082EF801EEE2436F582EF3400F583E0F591
:101D1400F0EA84A8F0EE28F8EF3400F9E82438F566
:101D240082E93400F583E0F91225B9021BB9C082B7
:101D3400C083851882851983E0F8A3E0F9C3EA9C7F
:101D4400EB9D5012C3EC98ED994019C3EA98EB99B6
:101D5400501279018010C3EA98EB9940F5C3EC98CE
:101D6400ED9950EE7900D083D08222EAC39CFAEB3D
:101D74009DFB22008521878522C622C0E0C0D0E8D1
:101D8400C0E0E9C0E0EAC0E0EBC0E0ECC0E0EDC0D8
:101D9400E0C008C009C00AC00BC082C083C0F0758F
:101DA4009B00906182E0A2E64003021E5DE591A2E1
:101DB400E64003021E5D7591BF900756E06405700E
:101DC4000812106D1210798003121073752100121D
:101DD40010D3E9900757F079001210C7120EAB7AAE
:101DE400017B00900755E0F912042B907803E0641E
:101DF400426003021EA69008F3E014F06003021E82
:101E0400A6C2AF121E0A00782AD0E0F618D0E0F677
:101E1400E59F5407F970059083DE80039083DA7898
:101E240008121558E9C4C0E07829E65508F50808F1
:101E3400E65509F509740B7808121666D0E02508F2
:101E4400F8906270E0A2E740F8E8C333906272F061
:101E5400906270E0D2E0F08049E0A2E55024E59180
:101E6400A2E5501E7591DF900756E0640D70139043
:101E74000778E004F064287002E4F07A00E0F912D4
:101E84001145906181E0A2E35009E5E9A2E3500322
:101E940075E9F7A3E0A2E75009E591A2E7500375BD
:101EA400917FD0F0D083D082D00BD00AD009D00853
:101EB400D0E0FDD0E0FCD0E0FBD0E0FAD0E0F9D0F7
:101EC400E0F8D0D0D0E032C0E0C0D0C082C083906F
:101ED4006183E0A2E05009E5BFA2E0500375BFFEB4
:101EE400E0A2E15009E5BFA2E1500375BFFDE0A205
:101EF400E25009E5BFA2E2500375BFFBE0A2E35044
:101F040009E5BFA2E3500375BFF7E0A2E45009E579
:101F1400BFA2E4500375BFEFE0A2E55009E5BFA2FC
:101F2400E5500375BFDFE0A2E65009E5BFA2E65025
:101F34000375BFBFD083D0828088C0E0C0D0E8C022
:101F4400E0E9C0E0EAC0E0EBC0E0ECC0E0EDC0E0F6
:101F5400C0F0E5A7A2E6500FE5A1A2E6500953A7F9
:101F6400BF75A1BF121FA3E5A7A2E5500CE5A1A26E
:101F7400E5500653A7DF75A1DFE5A7A2E15009E507
:101F8400A1A2E1500375A1FDE5A7A2E2500CE5A1D1
:101F9400A2E2500653A7FB75A1FBD0F0021EB47455
:101FA400F812174B752101900756E064067015125C
:101FB40010018A828B83A3A3A3A3A3A3E0FAA3E0C3
:101FC400FB12105BA2AFE433FED2AF90075CE06477
:101FD4000170187A207B00900755E0F91204B57A55
:101FE400207B00900755E0F9120431906182E0D221
:101FF400E6F09008F2E0602185C622801690075B27
:10200400E064017008E5C654F84405F5C653BEFC07
:10201400121D787401652160E4EEA2E092AF7F01A5
:102024000217F7008E238F2485822885832785183D
:1020340082851983E0CEA3E0CF852882852783EBB0
:10204400C9EAC8EDCBECCA75F010C3E833C8E9336C
:10205400C9EA33CAEB33CBC3EA9EF526EB9FF525D9
:10206400B35004AB25AA26EC33CCED33CDD5F0DA4E
:10207400AE23AF242274EB12174B74FA1216888A1B
:10208400088B098C148D15900756E024F7C394052A
:10209400500690840E0221DB1210018A0A8B0BAECB
:1020A4000AAF0BEE4F70030221D8AC08AD098518B6
:1020B40082851983AA82AB8312108B8E828F83A3AD
:1020C400A3780812155890841A78081215328518C6
:1020D40082851983780C12155890841A780C12157D
:1020E400327808790C12136A501F7808790C12158B
:1020F4000A9083B6780812138A4047850810850928
:1021040011850A12850B138041850C10850D1185EC
:102114000E12850F137810790812150A9083B67879
:102124001012138A501C7510007511007512007579
:1021340013017810790C12150A781079081214D149
:10214400800890840E7810121558740978101214AF
:10215400B29083B2780812155878107908121429AD
:102164008E828F83A3A3A3A3A3A3E0F8A3E0F97AA9
:10217400D07B031215FD88088909E4F50AF50B786C
:102184001079081214D174041216D3E0F8A3E0F9FC
:102194007AD07B031215FDE8FA8A08E4F509781071
:1021A400790812136A50077810790812150A9007F3
:1021B40056E06408600AE064066005E06405701C8B
:1021C4009083AE781012138A50129083AA7810125A
:1021D40014E480089083E2781012155885148285DF
:1021E40015837810121567740612169E7F0E021757
:1021F400F774F712174B12109D9008F0E064017009
:1022040010906245E4F0A3F053F4F343FE0C5390B2
:10221400F3121049E5C654804449F5C6E59E547F3F
:10222400644970F8906185740FF09008EEE0F470E2
:1022340002A3E0604E9008EFE0600814601B146095
:102244002E80407508017509009008EEE0780812A8
:102254001675E508F45280802A7508017509009006
:1022640008EEE07808121675E508F45290801475AB
:1022740008017509009008EEE07808121675E50863
:10228400F452A079007F020217F774F712174BE992
:10229400FEEAFF74016E700C7A807B00900755E0B3
:1022A400F912042B9025C8E493F46008E493F9121E
:1022B4000E9F800953C680E59E547F70FA12104F1A
:1022C4009008F0E064017003120EB79008EEE0F499
:1022D4007002A3E0604B9008EFE0600814601A14E9
:1022E400602C803D7508017509009008EEE07808BF
:1022F400121675E50842808028750801750900905A
:1023040008EEE07808121675E50842908013750807
:10231400017509009008EEE07808121675E5084288
:10232400A012109D1210018A088B09A808A909E8B7
:10233400496015E5E170FCE82414F582E93400F500
:1023440083E0F46003E0F5E174016F700A7A0190B0
:102354000755E0F912047F02228974F112174B8A9F
:10236400088B098C0A8D0B740F1216D3780C121576
:102374005890841A780812153290841A780C121521
:10238400327808790C12136A50157808790C1215F2
:102394000A9083B6780812138A401579018013785D
:1023A4000C790812150A9083B6780C12138A40EB44
:1023B40079007F080217F774ED12174B8A088B090E
:1023C4008C0A8D0B74131216D3780C121558908442
:1023D4001A780812153290841A780C121532780C77
:1023E400790812136A40117808790C12150AAA08A0
:1023F400AB09AC0AAD0B8022751000751100751283
:10240400007513017810790C12150A7810790812E6
:1024140014D1AA10AB11AC12AD137F0C0217F790B4
:10242400841A78081215588A828B83780812154505
:102434007F040217F774F512174B8C828D8378088A
:102444001215588A828B83780812151EEA2404F820
:10245400EB3400F98C828D83A3A3A3A3E0FCA3E057
:10246400FD88828983C3E09CF0A3E09DF088828983
:1024740083C3E09420A3E0944E40229083FE780826
:102484001215588A828B8378081214F78A828B83F8
:10249400A3A3A3A3E02420F0A3E0344EF08080742F
:1024A400F512174BE9FE9008A8E0FAA3E0FBEEC38F
:1024B40033F8E433F974AF28F582748239F583E094
:1024C4002AF508A3E03BF50978081218F29084066F
:1024D400121576122028740212169E8A088B098C13
:1024E4000A8D0B74107808121499AA08AB097F049A
:1024F4000217F774F112174B8A0C8B0D8C0E8D0F8B
:10250400740F1216D3E0FAA3E0FB74111216D3E091
:10251400F508A3E0F50974131216D3E0FEA3E0FF57
:1025240078081218F2EA2401F508EB3400F509E4FE
:10253400F50AF50B780C79081213A99083A2780890
:10254400121558780C79081213A9AA0CAB0DAC0E0D
:10255400AD0F122028740212169E8B09EA450960F9
:10256400047A0180027A00EC2AFCED3400FDECF8D8
:10257400EDF97A717B021215FD88088909E4F50AE0
:10258400F50B8E828F837808121567ECF8EDF97AD3
:10259400717B021215FD8A088B09740578081216DE
:1025A400758E828F83A3A3A3A3E508F0A3E509F0A6
:1025B4007F080217F7C082C083E9906000F0D083DF
:0325C400D08222A0
:1025C800FFFFFFFFFFFFFFFFC082C083E9900D2AD6
:1025D800F002285474F71216DFE9900674F07CAC08
:1025E8007D067AFF7BFF120BD590067574FFF0A36A
:1025F800F0A3E4F0A3F07905120B5D900674E0F9FE
:10260800120A857AF37B0B120DB502356274F41247
:1026180016DF8A088B09EB54806030900674E0F965
:102628001204138A0A8B0BAE0AAF0BEE4F60138E9F
:10263800828F83E064B07003120B75EEFAEFFB1221
:102648000401AA08E5096480FB80047A007B000283
:10265800282374F21216DF74FC121688EAFEEBFFC8
:1026680074121216D3123A49EE4F70030226FD7403
:10267800021216D3EEF0A3EF122A5EECF0A3ED12CD
:102688002A5EAA82AB83120A7FE9F50A706AE50816
:10269800450960648E828F83123A2FEE4F60567A16
:1026A800067B001204678A0C8B0DA80CA90DE8495B
:1026B8007005750A13804188828983E412270AEE1F
:1026C800F0A3EF123A5AE508F0A3E509F090067A6C
:1026D80012279190067A700512350C801B1234FA75
:1026E8008003EAFCEBFD8C828D8312279170F38CBA
:1026F800828D8380E3750A02A90A740412169E0269
:102708003C49F0A3123A00A32274F21216DF890A98
:10271800E975F017A4FEAFF0900679E4F09006771B
:10272800122791600A12046D900677E4F0A3F0EE88
:10273800FAEFFB1204678A088B09EA4509602FEE55
:10274800FCEFFD79001203E9900677E508F0A3E5B0
:1027580009F07B00800812277BE4F0A3F00BEBC3A1
:10276800950A40F2E50A900679F07900800279131B
:10277800023C49EB75F017A4F8A9F0900677E02819
:10278800FAA3E0398A82F5832212319EEA4B227439
:10279800F41216DF740C1216D3123A24FEE9FF75F0
:1027A8000800750900800CE5082401F508E50934DE
:1027B80000F509C3E5089CE5099D503285080A859E
:1027C800090B7403780A121675EA250AF8EB350B1B
:1027D800F988828983A3A3A3A3A3A31235E1EE6595
:1027E8000A7003EF650B70BFE8FAE9FB80047A0012
:1027F8007B00802774F41216DF7900EAA2E0501BF0
:1028080075085475098378081218F27C047D007ADB
:102818002C7B0D120B57740212169E7F040217B1FF
:10282800C082C08390067A12285B601C88828983E4
:10283800A3A3E06A7003A3E06B8882898370E8A38E
:10284800A3A3A312319A80047A007B00D083D0829C
:10285800020135123D2FE8492274EE1216DF74FC8E
:10286800121688EAFEEBFF851882851983E4F0A327
:10287800F0EE24021234ECEE2405123A07EE24049A
:10288800F50EEF122E13E024FE603924FC60462476
:10289800FE605224FE605E24FE700302297424FE4A
:1028A80070030229D824FE70030229E724FE70036E
:1028B8000229F624FC7003022A0524FE7003022A6A
:1028C80014022A519006937417F0A3E4122A661290
:1028D80007FD022A51851882851983AC82AD8312BF
:1028E8000B7B022A21851882851983AC82AD83125D
:1028F8000B81022A21850C08850D0974021216D352
:10290800AC82AD8385088285098312319A120AA3A5
:102918008A0C8B0DAC0CAD0DEC4D603BE4F50CF561
:102928000D780C1218F2750C93750D06780C1218A8
:10293800F2750C94750D06780C1218F274081216BC
:10294800D3121909123EAB12169EE9F50C700B1240
:102958003190120815800F750C018508828509834E
:10296800122A5412350C850C08022A2474021216F5
:10297800D3AC82AD83850C82850D83122F65603CB4
:10298800850C82850D83A3A31219097510937511FF
:102998000678101218F2751094751106781012182E
:1029A800F274081216D3121909123EAB12169EE9D8
:1029B800F509700B12319012081B800F75090185FB
:1029C8000C82850D83122A5412350C850908804C17
:1029D800851882851983AC82AD83120B87803A856E
:1029E8001882851983AC82AD83120B8D802B8518D4
:1029F80082851983AC82AD83120B93801C85188263
:102A0800851983AC82AD83120B99800D8518828558
:102A18001983AC82AD83120B9FE9F508E50860299C
:102A28008E828F83A3E06414601F850E82850F83D6
:102A3800E0900693122A5E123D2B90069412350CF4
:102A4800E508A3122A661207F70233FB123D2F8509
:102A5800188285198322F085188285198322F07CD3
:102A6800937D06850A82850B8312319E2274EE12AD
:102A780016DF74FC1216888A0A8B0B8C0E8D0FEAEF
:102A88002405F508EB3400F5097C157D0079007AFA
:102A9800937B061203E9E5082402F50CE509123ACE
:102AA8000A8518828519838582108583117810120A
:102AB80018F2850882850983A3A3A3A3122F5C12A9
:102AC80018F2E5082405F510E5093400F511781029
:102AD8001218F2850C82850D831232B1120A9D7488
:102AE8000612169E8A108B11AE10AF11E50A240249
:102AF800F50AE50B1234EFEE4F7003022C33801702
:102B080074021216D312319A88828983EAF0A3EBF1
:102B1800F0900693E004F0900693E0C39405400318
:102B2800022C33E4F510F51178101218F275107CA8
:102B380075110678101218F275107D751106781047
:102B48001218F274061216D31219097910EEFCEF56
:102B5800FD123EAD12169EE9705E850882850983D6
:102B6800A3A3A3A3A3A3A3E0F890067CE0687048FE
:102B7800122F5C1218F27C7D7D06E5082408FAE520
:102B8800093400FB1203E3740212169EE960298ED1
:102B9800828F83A3A3A3A312319A900693E0F51022
:102BA8007402781012167574942510F5827406351F
:102BB80011F583EAF0A3EBF074021216D3858210A4
:102BC80085831178101218F274021216D31219099B
:102BD800850C82850D831231C012169E8A108B11C6
:102BE800AE10AF11900693E0F510751100740278DD
:102BF8001012167574932510F874063511F9888229
:102C08008983A31227917003022AFFE82403080886
:102C180008E93400F9EE4F6003022B0888828983A3
:102C280074FFF0A3F0900693E004F0900693E06040
:102C38000A1231901208097900800B8508828509EB
:102C480083123503790A0233FB74EA1216DF74FE25
:102C58001216888C128D13EA2405F50CEB123E959A
:102C6800123A33750800750900EA2402F510EB34AE
:102C780000F51185188285198385820A85830B786A
:102C88000A1218F2850C82850D83A3A3A3A3122E22
:102C9800291218F2E50C2405F50AE50D1234EF782F
:102CA8000A1218F2850C82850D83122E2D120A9DA8
:102CB800740612169E8A0A8B0BEA450B7003022DC6
:102CC800CEEA2404F50EEB122E13123A338A828BC5
:102CD80083A3A3A3E0F98510828511831231A46030
:102CE80003022DCEE4F514F51578141218F27514B4
:102CF8007C75150678141218F275147D751506780A
:102D0800141218F274061216D31219097913AC0AA0
:102D1800AD0B851082851183123EB312169EE9F51C
:102D2800096003022DCE90067CE0F8E5087009E002
:102D38002402900694F08014900694E0FCE82402A3
:102D4800FAE43400FBEA6C7001EB707E850882AA15
:102D580082122F539414122F4B506B850E82850FBD
:102D680083E0C0E074952A122E0AD0E0F0050885A9
:102D78000E82850F83A3E0C0E085080A7495250AB2
:102D8800122E0AD0E0F0050890067C122E2912189F
:102D9800F27C7D7D0685080A7495250A122E1D127F
:102DA800169E90067CE02508F50874FF6E70037483
:102DB800FF6F6012EE24010EEF3400FFE508C394A4
:102DC800145003022C7BE50860131231AE85108283
:102DD80085118312319A12080F79008014E5097061
:102DE8000375090A851282851383EEF0A3EFF0A913
:102DF80009740212169E7F0E0217B185080C74958D
:102E0800250CF58274063400F583223400F50F850D
:102E18000E82F58322FA74063400FB1203D1740281
:102E280022123A6922A3A3122E33221234FAFDEE9B
:102E3800FAEFFB2274EE1216DF74FE1216888C0E5F
:102E48008D0FEA2405F50CEB123A0A750B00900673
:102E580093E4F0F50AEA2402F508EB3400F509805A
:102E680044900693E0FA90067CE0F8122F539417EA
:102E7800122F4B400D900693E0F87416C3989006F5
:102E88007CF0122F5C1218F27C7D7D0674942AFA6D
:102E98007406122E2012169E90067CE0F890069377
:102EA800E028F0050AE50C2416F582E50D122E0E31
:102EB800E0F8E50AC3985074900693E0C39416505E
:102EC8006BE50AC333F8E433F9E50C28FEE50D3960
:102ED800FF851882851983AC82AD838E828F831219
:102EE8002F657008750B011234FF8050E4F510F55A
:102EF8001178101218F275107C75110678101218D6
:102F0800F275107D75110678101218F274061216F3
:102F1800D31219097916850882850983123EB312DE
:102F2800169EE9F50B7003022E6980BB7C937D0623
:102F380085088285098312319A120821A90B740227
:102F48000233FDE99400C365D03322EA28F8E4345B
:102F580000F9E822E0F5107511007810221233F21A
:102F68008A108B11AC10AD11EC4D2274EA1216DFE9
:102F780074FC1216888A0C8B0D8C128D13EA2405AA
:102F8800F50AEB1234EF750800750900E50A24020A
:102F9800F510E50B3400F51174021216D385820E74
:102FA80085830F780E1218F2850A82850B83A3A3F6
:102FB800A3A3123A0F1218F2E50A2405F50EE50B41
:102FC8003400F50F780E1218F285108285118312DD
:102FD80034F5123194120A9D740612169E8A0E8BCD
:102FE8000FAE0EAF0FE50C2402F50EE50D3400F51B
:102FF8000F80388882898374FFF00508122E0374C5
:10300800FFF0050890067CE0F50C750D00780C12B1
:1030180018F27C7D7D0685080C7495250C122E1DF2
:1030280012169E90067CE02508F508EE4F60278E64
:10303800828F83A3A3A3E0F9850E82850F831231C3
:10304800A4EE2404123A07E96027850C82850D83D3
:1030580012318612350CE508700302316C1231AE5C
:10306800850E82850F8312319A1208277900023162
:1030780081E4F514F51578141218F275147C751599
:103088000678141218F275147D751506781412183E
:10309800F274081216D31219097911EEFCEFFD85A6
:1030A8000E82850F83123EB312169EE9F509709AB7
:1030B800850882AA82EA90067C7009E024049006BA
:1030C80094F08025E0F8900694E0F514E82404FCD8
:1030D800E43400FDEC65147001ED7081122F5394F7
:1030E80012122F4B4003023065850C82850D83E058
:1030F800C0E074952A122E0AD0E0F00508850C82EB
:10310800850D83A3E0C0E0122E03D0E01231C985FB
:10311800820C85830D780C1218F274041216D312DF
:1031280019098510828511831231C012169E8A0CE6
:103138008B0DAE0CAF0D85080C7495250CF8740634
:103148003400F9EE4F7003022FFB8518828519832E
:10315800E0888289831231C9A3E0C0E0122E03D02F
:10316800E0023009E509700375090A850A82850BB2
:103178008312318612350CA9097404022DFB123D05
:103188002F851282851383227C937D06850A82858A
:103198000B8312319E22E0FAA3E0FB2212319E1229
:1031A8000A8BE9F50922900694E0F5F0E508849089
:1031B8000693F07C937D0622122E33120AA974041A
:1031C80022F005088518828519832274EC1216DF0F
:1031D80074FE1216888A088B098C0E8D0FEA240556
:1031E800FEEB3400FF1233DCEE2418123A07EA45EE
:1031F8000B700302327F1233C550291232A48A1091
:103208008B11EA4511606B7912AC0AAD0B85088207
:1032180085098312319A8510828511831216DDE99A
:10322800F50A7058E4F50AF50B780A1218F28E823E
:103238008F83A3A3E0F50A780A1218F2EE2403128A
:1032480034EC780A1218F28E828F831232B1120B84
:10325800C3740612169EE9F50A7021850C82850D45
:1032680083E0701F85088285098312319A12082D20
:103278008011750A0E8009750A018004E50A600349
:103288001234FF850C82850D83E06004790080028A
:10329800A90A740212169E7F0C0217B1851882853E
:1032A800198312319E120BB1221234FAFD8508825D
:1032B80085098312319E2274EE1216DF74FE1216EF
:1032C800888A088B098C0C8D0DEA2405FEEB3400E6
:1032D800FF750E001233DCEA450B70030233A312AC
:1032E80033C5502C1232A48A0E8B0FEA450F604A60
:1032F8007912AC0AAD0B85088285098312319A854B
:103308000E82850F831216DDE9F50E60030233A6DF
:103318008508828509831235E1AA0AFB1233B77042
:10332800147AFF7BFF1233B7606C88828983E50AC1
:10333800F0A3E50BF0750A008007750E0E805F0597
:103348000A900679E0FAE50AC39A504AE50A75F048
:1033580017A4FAABF088828983A3A3E02AFAA3E032
:103368003BFB8A828B831234F5EC4D70D2750A17B9
:10337800750B00780A1218F2EEFCEFFD1203D174F7
:103388000212169EEEFCEFFD850882850983123134
:103398009A1208338014750E098003750E01123DC8
:1033A80027850C82850D8312350CA90E022F461233
:1033B8000BA58A108B11A810A911E84922E5082449
:1033C80002F508E5093400F5098A828B83A3A3A3D3
:1033D800E0A2E522851882851983AC82AD838E82AE
:1033E8008F831233F28A0A8B0B22E0FAA3E0FB12D6
:1033F8000AA322740412169E7F0A0217B174EC12F3
:1034080016DF8C108D11EA2405F50CEB123A0A75BB
:103418000F00EA2402F50AEB1234EF850A82F583DD
:1034280012319A123F3970030234E1750E0080712F
:10343800850C82850D83E06401704F8E828F83A393
:10344800A31219098E828F83A3A3A3A3E0F5127593
:10345800130078121218F2EE2405F512EF3400F575
:103468001378121218F2123194120BC37406121642
:103478009EE9F50F6014850C82850D83E4F0123DFA
:103488002785108285118312350C7C177D00790001
:10349800EEFAEFFB1203E98E828F83E4F0A3F005C6
:1034A8000E900679E0F8E50EC398501EE50E75F00B
:1034B80017A4F8A9F0850882850983A3A3123E9F63
:1034C8001234F5EC4D60030234388508828509838F
:1034D80074FFF0A3F0E50F7006123194120839A9B1
:1034E8000F02329FF50AEF3400F50B22A31234FACB
:1034F800FD22E0FCA3E0228E828F83123D2F850EF1
:1035080082850F83E8F0A3E9F022C082C083900689
:1035180075E06A7003A3E06B70067A757B06800419
:103528007A007B0002285474F71216DF7F00EF75CB
:10353800F003A4F8A9F0EC28F8ED39F9888289831A
:10354800E06A7003A3E06B7006E8FAE9FB800B0FF2
:10355800EFC3940240D87A007B007F010217B17450
:10356800F61216DF123B1870067A007B008007A35C
:10357800A3A3A312319A023BD974F21216DFE9FE13
:10358800740E1216D31235E174101216D3123A497A
:103598008C828D83E06402703BA3123D2B88828964
:1035A80083E0F50CA3E0F9A80C7402687003742991
:1035B800697021750C02750D00780C1218F27808E4
:1035C8001218F2780A1218F2EEF9120BE7740612C2
:1035D800169E80027901023C49E0F50AA3E0F50B4A
:1035E8002274E81216DF74FB121688E985188285A2
:1035F8001983F08A168B178C0E8D0F741F1216D331
:10360800123A4974211216D31235E174231216D3D3
:10361800123A337510008C828D83A3A3A3E0A2E431
:10362800502A741D1216D31232AA8A828B83E5821D
:10363800458370030236F5790AAC0EAD0FAA16ABB6
:10364800171216DDE9F51060030236F8850E82853B
:103658000F83E0640260030239AEA3123D2B850894
:1036680082850983A3858212858313E50E2406F5D6
:103678000CE50F123A0A88828983E0FAA3E0F9EA96
:103688002400F514E439F515781412197C010000AA
:10369800280128BD3607000228943703280437007C
:1036A80029BE380129E63802298D380329BE380495
:1036B800294F39AE39EE4F703E850C82850D831245
:1036C8003A24FAE9FB8A828B83E0850A82850B8398
:1036D800123A601218F28A828B83A31234FAFDAA76
:1036E80008AB091203D1740212169E800375100EDE
:1036F800A9107405023E8D75100B80F4EE4F70F71B
:10370800850A82850B837401F0123A39850882850F
:103718000983F07C007D00850E82850F83A3A3A317
:10372800A3E02401FAA3E03400FB120AA3EA4B60E9
:10373800418A828B83E02402F8850A82850B83E024
:1037480028F0EA2404F8EB3400F988828983E085BC
:103758001282851383123A72123A601218F28A8220
:103768008B831234F4E5082403FAE5093400FB02DC
:1037780036EB850A82850B83E02404F07C047D0007
:103788007900AA12AB131203E90236F8EE4F600370
:103798000236FF123A39FEA3E0FF850A82850B83C1
:1037A8007404F0EE850882850983F0EF851282851E
:1037B8001383F074031216D3AC82AD83EEFAEFFBD9
:1037C800123B06700302386A8A828B83A3A3123ADB
:1037D8002F74011216D385820E85830F780E121866
:1037E800F274051216D31219097CFF7DFF120AA97B
:1037F800740412169E8B0FEA450F7033850C828570
:103808000D83123A0F1218F2850C82850D83A312CC
:1038180019097C027D007A427B841208D57404124F
:10382800169EE9700A74011216D374FFF0A3F08E85
:10383800828F83E064027034750C02750D00780C79
:103848001218F28E828F831234F4E5082404FAE504
:1038580009122E2012169E850A82850B83E0240207
:10386800800974011216D3EEF0A3EFF0740112165A
:10387800D3123A20F074011216D3A3123A18A3A354
:10388800A3F00236F8EE4F60030236FF850C8285FE
:103898000D831234F5AA16AB17120BDB850A828545
:1038A8000B837402F0EA850882850983F085128209
:1038B800851383EB80CBEE4F60030236FF123A3953
:1038C800F8A3E0F9850A82850B837402F0E885087D
:1038D80082850983F0E985128285138380A3850C8C
:1038E80082850D8312319A1203CBEAFC8C82A8825E
:1038F800C39EE49F404BE86E7001EF70047C00802B
:103908001F851882851983E0FAEE2AFAEF3400FB46
:10391800C3EA98EB94005003E08004EECCC39CFC0F
:10392800EC850A82850B83F08C0A750B00780A12E5
:1039380018F2850C82850D83E02EFCA3E03F023649
:10394800E67510070236F8EE4F60030236FF850C65
:1039580082850D83123D2B850A82850B837407F0BF
:1039680088828983123A18123A00E08512828513F8
:1039780083F0E82402FAE93400FB8A828B83123A46
:1039880018123A51123A20A3123A5A123A29F0E878
:103998002405F8E93400F988828983123A29A312A8
:1039A8003A72A3023886741D1216D3123B117003A3
:1039B8000236F5123D2B880C890DE8450D7003027F
:1039C80036F58E108F1178101218F2780A1218F244
:1039D80078081218F274061216D3E0F9AC0EAD0F7F
:1039E800AA16AB17850C82850D831216DD74061294
:1039F800169EE9F5100236F8F088828983A322F52D
:103A08000CEF3400F50D22E0F50E750F00780E224C
:103A1800E085088285098322123A7922123D2FE82F
:103A280022123A79A3A322A3A3A3A3E0FEA3E0FF53
:103A380022850C82850D83E0F8A3E0F5838882E077
:103A480022E0F508A3E0F50922A3A3F08A828B837C
:103A5800A32212270CA3A322F08A828B83123A692D
:103A680022E0F50A750B00780A22123A00123A7918
:103A780022E0850882850983A3A32274EE1216DF4B
:103A880074FE1216888A0A8B0BECFAEDFB7414127A
:103A980016D3E0F510A3E0F51174161216D3E0FE64
:103AA80074181216D3E0F50EA3E0F50F8518828579
:103AB8001983AC82AD83123B06603E851882851956
:103AC80083123B11602FA3A3123A49E50845096008
:103AD80024780E1218F278101218F2EEF9AC0CAD28
:103AE8000DAA0AAB0B8508828509831216DD7404BA
:103AF80012169E8006790E80027901022F46120A5C
:103B0800A38A0C8B0DEA450D2212319E123B182216
:103B1800120B6F8A828B83E58245832274F6121614
:103B2800DF74FE121688740C1216D3123A24851804
:103B380082851983F074011216D3E9F0E4F508F5CB
:103B48000978081218F275080278081218F2740435
:103B58001216D385820885830978081218F2120B89
:103B6800C3740612169E740212169E806474F712AD
:103B780016DFEAFEEBFF89087CAC7D06120BDBEA58
:103B88005402600BA908EEFAEFFB120A978002793B
:103B98000102356274F61216DF74FF6A700374FF4F
:103BA8006B701C7B00EB75F003A4F8A9F0EC28F807
:103BB800ED39F9123BDE0BEBC39402501480E61288
:103BC8000BAB8A088B09A808A909E8496003123BCE
:103BD800DE7F020217B18882898374FF12270AE404
:103BE800F02274F61216DF120BAB8A828B83E58201
:103BF80045836006A3A3E0FA80027A007B0080D1A7
:103C080074F21216DF8A088B09ECFEEDFF740E12AF
:103C180016D3E0F50A123C4E701CEEFCEFFD7AFF5D
:103C28007BFF123C4E70047911801688828983E5E7
:103C380008F0A3E509F088828983A3A3E50AF0794F
:103C4800007F060217B1120BAB8A0C8B0DA80CA9CA
:103C58000DE8492274EE1216DFEAFEEBFF8C088DA0
:103C680009890C74121216D3123D2B74141216D330
:103C78001234F574161216D312319A750D00EC4DE4
:103C88006003023D1F7402650C6003023D1A8882BE
:103C980089831234FAF9EC2400F50EE439F50FEAB9
:103CA800F4F8EBF4F9EC58F8E50F59F9E849705DC8
:103CB800E5082406F8E5093400F9880A890B8882A2
:103CC800F583122E2F120BDB8A108B11E50E65106F
:103CD8007004E50F65116042780E1218F2850A82A9
:103CE800850B83122E2F120BE1740212169EE9F532
:103CF8000D7027780E1218F2850882850983A3A310
:103D0800122E2D120BF9740212169E800D750D805D
:103D18008008750D0D8003750D0BA90D0234008EFA
:103D2800828F83123D2F22E0F8A3E0F92274E81273
:103D380016DF74E7121688851882851983EAF0A3BE
:103D4800EBF08C168D17890E74311216D3E0F5122C
:103D5800A3E0F51374331216D3E0F514A3E0F515B8
:103D680074351216D3E0F50F750800750900E509DA
:103D780075F003A4F8A9F0851882851983123E9F6F
:103D8800E0F47003A3E0F47003023E7DEE2402F534
:103D98000CEF123E95E07003023E7D85160A8517EA
:103DA8000B780A1218F2AC14AD15AA12AB13120B49
:103DB80063740212169E8A0A8B0BEA450B70030283
:103DC8003E7DE4F510F51178101218F274061216FB
:103DD800D385821085831178101218F2740912168F
:103DE800D385821085831178101218F28512828586
:103DF8001383A3A3A3A31219097914AC0AAD0B8EDC
:103E0800828F83123EB312169EE97069850A8285F5
:103E18000B83A3A3A3A3123D2B74021216D312354E
:103E28000C850C82850D83E0A2E05018A90E74025F
:103E38001216D3AC82AD838E828F8312319A120A06
:103E4800BBE94208850C82850D83E0A2E15026E596
:103E58000FF50A780A1218F6A90E74031216D3ACD5
:103E680082AD838E828F8312319A120AB574011241
:103E7800169EE942080509E509C394025003023D6C
:103E880076A908741912169E7F100217B13400F52E
:103E98000D850C82F58322E028FEA3E039FF8E828F
:103EA8008F83227916850A82850B8312319E120B25
:103EB800BD74082274F21216DFEAFEEBFF890B7458
:103EC80001650B600E7402650B70637901120DD3E6
:103ED800E9705BEEFAEFFB123F396047750A008024
:103EE8000B7C177D0079001203E9050A900679E03A
:103EF800F8E50AC3985021E50A75F017A4F8A9F067
:103F0800850882850983A3A3E028FAA3E039FB8A00
:103F1800828B8312285B70C985088285098374FFA8
:103F2800F0A3F07CAC7D06EEFAEFFB120BD5023C59
:103F380049120BA58A088B09EA45092274F2121660
:103F4800DF8A088B09ECFEEDFF740E1216D31235CA
:103F5800E1900D2AE0F4603D7A097B001203FBEA48
:103F68004B60328A828B8374B1F0A3E4123A53A374
:103F7800123A51A3E508F0A3E509123FA0EEF0A319
:103F8800EF123FA0A3A3E50AF0A3E50BF0900D2ADA
:103F9800E0F9120407023C49F08A828B83A3A3A3A9
:103FA800A3A322C082C0839061907404F0A37448D4
:103FB800F0A37402F09061807440F09061BC7403C7
:103FC800F09061877419F0906265741BF090619CA1
:103FD800740DF090619A7433F0A37455F09061A059
:103FE800743AF09008F0E064017009C29190075AA1
:103FF8007467800590075A7461F09025CEE4939019
:104008006186F09025C8E493F46027E493540FF890
:10401800906185E0686012E5C654804449F5C6E5BC
:104028009E547F644970F8E8F053C680E59E547F3B
:1040380070FA79051211270241EDC082C083E95454
:104048000FF9906185E0696012E5C654804449F52E
:10405800C6E59E547F644970F8E9F053C680E59E32
:10406800547F70FA0241EDC082C083E5A8F853A8D6
:104078007E906181E4F0A3F0A3F0C2BA539AFEC225
:1040880089759B00C2C275E90075910075BF0075FE
:10409800A91175B905906181F0A374C0F0A3E4F08B
:1040A800D2BA439A0174805842A80241EDC082C036
:1040B8008374F8121688900758E0F8A3E0F9E849E5
:1040C80070030241E3900758E05440602379088563
:1040D8001882851983AA82AB83120F8F851882856F
:1040E8001983AA82AB83120C65900758E054BFF07D
:1040F800E054806010790C7A147B09120F8F9007B6
:1041080058E0547FF0E0A2E0503190619A7433F0A7
:10411800A37455F09061A0743AF09008F0E064013F
:104128007009C29190075A7467800590075A7461A4
:10413800F0120C6B900758E054FEF0E05402603126
:1041480090619A743FF0A3745AF09061A0747FF064
:104158009008F0E064017009D29190075A74718058
:104168000590075A746AF0120C6B900758E054FDDA
:10417800F0E0540460139025CCE493906186F0122B
:104188000C71900758E054FBF0E054086013902538
:10419800CDE493906186F0120C71900758E054F7C3
:1041A800F0E0541060139025CEE493906186F012ED
:1041B8000C71900758E054EFF0E05420600A120C9C
:1041C80071900758E054DFF0A3E05401600D120E1F
:1041D800B7120C77900759E054FEF0740812169E37
:1041E8008003F0A3F0D083D08202013574EC12165C
:1041F800DF74F4121688851882851983AC82AD8322
:104208007583837582F6740412159B9025CC93F4FC
:104218006003024381907808E0C39402500302438C
:104228006174041216D3AC82AD83758383758235AD
:10423800740812159B8518828519838582128583D7
:104248001374041216D3AC82AD83750EFF750FFF7D
:104258007FFF7E00750C48750D78801574086E70A8
:10426800030242F474096E70030242F4740A6E6029
:104278007B850C82850D8378081215588C828D8376
:10428800A909E50AC9F8881074187808121499E57C
:10429800104508F8C3E098A3E099850C82850D8342
:1042A800780812155840188C828D83741878081273
:1042B8001499E5104508F8E0C398F8A3E0801C7449
:1042C800187808121499E5104508FAE9FB8C828DD4
:1042D80083E0F8A3E0F9EAC398F8EB99F9C3E89505
:1042E8000EE9950F5006880E890FEEFF0EE50C2497
:1042F80004F50CE50D3400F50DEEC39413500302DC
:10430800426474FF650E700474FF650F60238F08A4
:104318007402780812167574482508F58274783581
:1043280009F5837808121558851282851383E508E4
:10433800F0EC24020C0CED3400FD85128285138309
:10434800A3858212858313740C1216D3E5826C70D0
:1043580003E5836D60030242527508017509007810
:10436800081218F274021216D3AC82AD837A737BEA
:104378000912060B740212169E740C12169E7F0CFC
:104388000217B1C082C0839061AE7468F0A3746AEA
:10439800F090624574FBF0A304F053F4FD43FE0271
:1043A8009008F07401F09061A0E0643A90619A700E
:1043B800237433F0A37455F09061A0743AF074013B
:1043C80064017009C29190075A7467802890075A4F
:1043D80074618021743FF0A3745AF09061A0747FD7
:1043E800F0740164017009D29190075A74718005C4
:1043F80090075A746A0241EC7F040217B1C082C068
:10440800839008A2E06401700A9008A7E06004792C
:104418000C800279000241EDC082C08375E1F19001
:1044280008A5E0605514600814605914605180595B
:10443800120EC990089BE0F97A9C7B081210A9908B
:1044480083EE1215761210DF908422121576121060
:10445800B59008A6E0F91210C1790112111B900855
:1044680099E02416F8A3E03400F98882898374E17E
:10447800F0A3740EF079000241ED120ECF80B41251
:104488000ED580AF120EDB80AA791280EA74F4127E
:1044980016DF75D90D90088AE0A2E0E4331313F80B
:1044A80090089BE0C4333354C0484401F5D9789947
:1044B800790888828983A3A3A3E0F5D988828983B0
:1044C800A3A882A983E8649F7003E9640870E3786D
:1044D8008A790888828983A3E0F5D988828983A3A9
:1044E800A882A983E864907003E9640870E575E11F
:1044F8009590088AE0F97A8B7B081210AF900D4CE2
:104508007475F0A3740EF0A374D7F0A3740FF0A31E
:1045180074D7F0A3740FF0A374D7F0A3740FF0A3AB
:10452800747BF0A3740EF0A374D7F0A3740FF0A3F8
:104538007493F0A3740EF0900D5A74D7F0A3740F0F
:10454800F0A374D7F0A3740FF0A374D7F0A3740F7B
:10455800F0A374D7F0A3740FF0A374D7F0A3740F6B
:10456800F0A374D7F0A3740FF0900899E0F8A3E0D3
:10457800F5838882A3A378081215589083EA7808EF
:104588001214E490841A7808121532900899E024DD
:104598000EF8A3E03400F988828983780812156739
:1045A800900899E02414F8A3E03400F988828983FC
:1045B8007413F09007567402F0024400C082C0835E
:1045C8009008ABE02407F5D990089BE0C433335436
:1045D800C0F5D97899790888828983A3A3A3E0F5DF
:1045E800D988828983A3A882A983E8649F7003E994
:1045F800640870E39008ABE0601F78997908FAE8DE
:104608002413F582E93400F583E0F5D9888289839B
:10461800A3A882A9831AEA70E69008CBE02407F5DC
:10462800D990089BE0C4333354C04404F5D9789931
:10463800790888828983A3A3A3E0F5D9888289832E
:10464800A3A882A983E8649F7003E9640870E390D3
:1046580008CBE0601F78997908FAE82433F582E9F5
:104668003400F583E0F5D988828983A3A882A983D9
:104678001AEA70E675E195900D4C7481F0A3740EFA
:10468800F0A374D7F0A3740FF0A374D7F0A3740F3A
:10469800F0A374D7F0A3740FF0A3747BF0A3740E87
:1046A800F0A374D7F0A3740FF0A37493F0A3740E5F
:1046B800F0900D5A74D7F0A3740FF0A374D7F0A339
:1046C800740FF0A374D7F0A3740FF0A374D7F0A3FA
:1046D800740FF0A374D7F0A3740FF0A374D7F0A3EA
:1046E800740FF09083FE121576900899E0240EF866
:1046F800A3E03400F988828983121582900899E032
:104708002414F8A3E03400F9888289837412F090A5
:10471800075674010241ECC082C0839008ABE024C4
:1047280007F5D990089BE0C4333354C04402F5D947
:104738007899790888828983A3A3A3E0F5D9888228
:104748008983A3A882A983E8649F7003E964087039
:10475800E39008ABE0601F78997908FAE82413F52C
:1047680082E93400F583E0F5D988828983A3A88299
:10477800A9831AEA70E675E195900D4C748DF0A343
:10478800740EF0A3748DF0A3740EF0A3748DF0A3CF
:10479800740EF0A3748DF0A3740EF0A3748DF0A3BF
:1047A800740EF0A3748DF0A3740EF0A37493F0A3A9
:1047B800740EF0900D5A74D7F0A3740FF0A374D749
:1047C800F0A3740FF0A374D7F0A3740FF0A374D7F9
:1047D800F0A3740FF0A374D7F0A3740FF0A374D7E9
:1047E800F0A3740FF09083FE121576900899E024D8
:1047F8000EF8A3E03400F9888289831215829008A4
:1048080099E02414F8A3E03400F9888289837414A9
:10481800F090075674040241ECC082C0839008AB44
:10482800E02407F5D990089BE0C4333354C044060C
:10483800F5D97899790888828983A3A3A3E0F5D963
:1048480088828983A3A882A983E8649F7003E964A6
:104858000870E39008ABE0601F78997908FAE824BB
:1048680013F582E93400F583E0F5D988828983A3BA
:10487800A882A9831AEA70E69008CBE02407F5D944
:1048880090089BE0C4333354C04404F5D97899792F
:104898000888828983A3A3A3E0F5D988828983A3A2
:1048A800A882A983E8649F7003E9640870E390080C
:1048B800CBE0601F78997908FAE82433F582E93467
:1048C80000F583E0F5D988828983A3A882A9831A91
:1048D800EA70E675E195900D4C7487F0A3740EF0BC
:1048E800A374D7F0A3740FF0A374D7F0A3740FF0D8
:1048F800A374D7F0A3740FF0A374D7F0A3740FF0C8
:10490800A374D7F0A3740FF0A37493F0A3740EF0FC
:10491800900D5A74D7F0A3740FF0A374D7F0A37452
:104928000FF0A374D7F0A3740FF0A374D7F0A37497
:104938000FF0A374D7F0A3740FF0A374D7F0A37487
:104948000FF09083FE121576900899E0240EF8A3D4
:10495800E03400F988828983121582900899E0244E
:1049680014F8A3E03400F9888289837415F090075D
:104978005674030241ECC082C083900899E0F8A302
:10498800E0F5838882A3A3A3A3A3A3E40241EA7466
:10499800F71216DF900784E0F875F004A4C8AAF0AF
:1049A8002AF9748628F8740739F9E82405FAE934ED
:1049B80000FB8A828B83E0FCA3E0FD88828983A3C5
:1049C800A3A3A3A3A3A3A3A3ECF0A3EDF0888289D8
:1049D80083A3A3A3A3A3A3A3E024FFF8A3E034FF26
:1049E800F98A828B83E8F0A3E9024C3C74F712162B
:1049F800DFEAFEEBFF9061D0E06003024AD175D98F
:104A08000E75D90375D904EE248CF582EF3400F5C0
:104A180083E5822408F8E5833400F9E0F5D9A3E8B2
:104A280065827003E9658370F2EE2484F582EF34C1
:104A380000F583E5822404F8E5833400F9E0F5D92C
:104A4800A3E865827003E9658370F275E1957908DA
:104A5800EE248CFAEF3400FB120F837904EE2484E1
:104A6800FAEF3400FB120F837C00EEF8EFF9ECFA52
:104A7800C3E49AFA95E0FBEE2AFAEF3BFBEA248BB3
:104A8800F582EB3400F583E0C0E0E824ABF582E979
:104A98003400F583D0E0F00C88828983A3A882A92A
:104AA80083ECC3940840C7EE2470F582EF3400F518
:104AB80083E0F8A3E0F9EE2472F582EF3400F58381
:104AC800E8F0A3E9F0790180027900024C3DC08248
:104AD800C08375D90275D90375D90575E195EA249E
:104AE80070F582EB3400F583E0F8A3E0F9EA24726C
:104AF800F582EB3400F583E8F0A3E9F0790102418F
:104B0800ED74F61216DFEAFEEBFF9008F47406F077
:104B18007508F475090878081218F27C01790312EF
:104B28000FCB740212169E75D90675D9037582F4D7
:104B3800758308E0F5D9A3E58264F97004E5836418
:104B48000870F075E195900756E06408701EEE2431
:104B580070F582EF3400F583E0F8A3E0F9EE2472F3
:104B6800F582EF3400F583E8F0A3E9F07901024D0E
:104B78000974F61216DFEAFEEBFF9061D0E070666A
:104B880078019008F4740BF0900756E064077019E8
:104B98007508F475090878081218F27C017903126F
:104BA8000FCB740212169E7805740128F5D975D9B1
:104BB800037582F4758308E8FAE0F5D9A31AEA7058
:104BC800F875E195EE2470F582EF3400F583E0F88E
:104BD800A3E0F9EE2472F582EF3400F583E8F0A340
:104BE800E9F0790180027900024D0974F71216DFA5
:104BF800EAFEEBFF75D90375D90375D90DEE24DEEE
:104C0800F582EF3400F583E0F5D975E19579041262
:104C180010E5EE2470F582EF3400F583E0F8A3E0A8
:104C2800F9EE2472F582EF3400F583E8F0A3E9F099
:104C380079018001F07F010217B174F61216DFEADC
:104C4800FEEBFF9061D0E0F87480C398FAEE2483FD
:104C5800F582EF3400F583E0600478048002780080
:104C6800E8240BF8EAC3985003024D077D09900821
:104C7800F4EDF0EE24E3F8EF3400F97AF57B087CE4
:104C88000888828983E08A828B83F088828983A35B
:104C9800A882A9838A828B83A3AA82AB831CEC7027
:104CA800E0EE2483F582EF3400F583E0601D75089B
:104CB800F475090878081218F27C097903EEFAEFFE
:104CC800FB120FCB740212169E7D0D74012DF5D9BF
:104CD80075D9037582F47583088D08E0F5D9A31595
:104CE80008E50870F675E19579041210E5EE241DC3
:104CF800F582EF3400F583E4F0A3F07901800279BE
:104D0800007F020217B174F61216DFEAFEEBFF907D
:104D180061D0E0F87480C398FAEE2483F582EF340A
:104D280000F583E06004780480027800E82408F83D
:104D3800EAC3985003024E0E7D069008F4740CF0F6
:104D4800900773E09008F5F07A747B0778F6790895
:104D58007C028A828B83E088828983F08A828B83B3
:104D6800A3AA82AB8388828983A3A882A9831CEC27
:104D780070E07A767B077C028A828B83E08882895E
:104D880083F08A828B83A3AA82AB8388828983A3D8
:104D9800A882A9831CEC70E0EE2483F582EF34002E
:104DA800F583E0601D7508F475090878081218F293
:104DB8007C067903EEFAEFFB120FCB740212169EF3
:104DC8007D0A74012DF5D975D9037582F4758308A8
:104DD8008D08E0F5D9A31508E50870F675E1957911
:104DE800041210E5EE2470F582EF3400F583E0F844
:104DF800A3E0F9EE2472F582EF3400F583E8F0A31E
:104E0800E9F0790180027900024D0974F61216DF83
:104E1800EAFEEBFF9061D0E0F87480C398FAEE24C4
:104E280083F582EF3400F583E0600478048002782B
:104E380000E82404F8EAC3985003024EED78029083
:104E480008F4E8F0EE24F5F582EF3400F583E090FD
:104E580008F5F0EE2483F582EF3400F583E0601B5B
:104E68007508F475090878081218F27C027903EEBF
:104E7800FA120FCB740212169E7806740128F5D91F
:104E880075D9037582F47583088808E0F5D9A315E8
:104E980008E50870F675E195EE2474F582EF3400A4
:104EA800F583E4F0EE2480F582EF3400F583E4F036
:104EB800EE241DF582EF3400F583E4F0A3F07904C5
:104EC8001210E5EE240DF582EF3400F583E0F8A327
:104ED800E0F9EE2472F582EF3400F583E8F0A3E9F7
:104EE800F0790180027900024D0974F61216DF90FC
:104EF80061D0E0F87480C398FCEA2483F582EB342F
:104F080000F583E06004780480027800E82404F85F
:104F1800ECC398405B79029008F47407F0EA24F631
:104F2800F582EB3400F583E09008F5F0EA2483F588
:104F380082EB3400F583E060187508F47509087889
:104F4800081218F27C0209120FCB740212169E790D
:104F580006740129F5D975D9037582F4758308E9B2
:104F6800F8E0F5D9A318E870F875E19579018002A1
:104F78007900024D0974F51216DFE9FCA2AFE4339B
:104F8800F50AC2AF7D0080010DEA246FF582EB348B
:104F980000F583E0F8EDC398501A8D08EA2508F863
:104FA800EB3400F9E8246BF582E93400F583E06C12
:104FB80070D68024EA246FF8EB3400F9E0FEEA2E7C
:104FC800FAEB3400FBEA246BF582EB3400F583EC52
:104FD800F088828983E004F0E50AA2E092AF7F03BB
:104FE8000217B174F61216DFA2AFE433FDC2AFEABE
:104FF800246FF582EB3400F583E014F07C00603612
:105008008C08EA2508F8EB3400F9E8246CF582E905
:105018003400F583E0C0E0E8246BF582E93400F55C
:1050280083D0E0F00CEA246FF582EB3400F583E0DE
:10503800F8ECC39840CAEA246EF582EB3400F58395
:1050480074FFF0EA246AF582EB3400F583E4F0EDAE
:10505800A2E092AF024D09C082C083E5A8F8C2AFB2
:10506800EA246BF582EB3400F583E9F0EA246AF56B
:1050780082EB3400F583E4F0E8A2E792AF0241ED59
:1050880074F31216DFEAFEEBFFECFAEDFB8A828B73
:1050980083A3A3A3A3E0541FF0EE2436F582EF34D4
:1050A80000F583E4F0F50AEEFCEFFD8A828B83E0DD
:1050B800C0E0EC245DF582ED3400F583D0E0F075B6
:1050C8000B00E50A33333354F8F50C8A828B83E0FE
:1050D800F508750900E50B7808121656E508A2E0F0
:1050E800502FEE2436F8EF3400F988828983E0F5F2
:1050F80008EE2508F508EF3400F509E5082438F529
:1051080082E5093400F583E50CF088828983E004A0
:10511800F0050B050CE50BC3940840AF050A8A821D
:105128008B83A3AA82AB838C828D83A3AC82AD834D
:10513800E50AC3940550030250B37F050217B17402
:10514800F71216DF900782E0640170077A007B008F
:105158000252BE7E00900788E070F17401F0A3E46B
:10516800F0A3F09007E804F09007EBE4F0A3F090C8
:1051780007EE04F090078BE4F0A3F0A3F0A3F090FF
:10518800079504F09007BBE4F09083E2121576903F
:10519800079E1215829007A2E4F0A3F0A3F09008EE
:1051A80006F09007FAF09007EF7480F0A3E4F0900F
:1051B80007F5F09007EDF0900871F0A3F0A3F0A3C5
:1051C800F0A3F0A3F0A3F0A3F090087AF0900809F8
:1051D800F0900859F0A3F09083E212157690085BDE
:1051E8001215829083E212157690085F121582904C
:1051F8000865E4F0900867F0900863F090087DF087
:10520800A3F0A3F0A3F0A3F0A3F0A3F0A3F0788297
:105218007907E8246FF582E93400F58374FFF00E0E
:1052280088828983A3A882A983EEC3940440E37A81
:10523800827B077891790888828983E0C0E0EA2434
:1052480061F582EB3400F583D0E0F088828983A38E
:10525800A882A9838A828B83A3AA82AB83E86496F7
:105268007003E9640870D07A827B077869790788C7
:10527800828983A3E0C0E0EA24E7F582EB3400F5F5
:1052880083D0E0F088828983A3A882A9838A828B4D
:1052980083A3AA82AB83E864717003E9640770CFC3
:1052A800900782E004F06401700890078AE0900794
:1052B80084F07A867B07024C3DC082C083900789C0
:1052C800E4F0900788F0900782F0A3F0A374FFF051
:1052D80075E1F10241EDC082C08378007900900742
:1052E80089E060047886790788828983A3A3A3A3C9
:1052F800E0F90241ED74F61216DFEAFEEBFF8E824A
:105308008F83A3A3A3E0600F8E828F83A3A3A3E45C
:10531800F0900783E014F0900782E014F070069094
:10532800078474FFF08E828F83A3A3E4F09008961D
:10533800E0700D900783E06401700579001210C7D2
:10534800EE2465F582EF3400F583E0F8A3E0F9E890
:10535800496029EE2465F8EF3400F988088909883E
:1053680082F583E0FCA3E0FD900784E0FA7B00125D
:105378000C9B850882850983E4F0A3F0EEFAEFFB25
:10538800120FFB024D0974F71216DFEAFEEBFF8ECF
:10539800828F83A3A3A3A3E0FA7B00120CDDEEFAAD
:1053A800EFFB120F4D120FE3024C3DC082C0837811
:1053B80069790788828983A3E4F088828983A3A80E
:1053C80082A983E864717003E9640770E690076A4C
:1053D80002471A74F61216DFEAFEEBFFEC2403F814
:1053E800ED3400F988088909EC2407F8ED3400F950
:1053F800E8FCE9FD8C828D83E0F8A3E0F98508825A
:10540800850983E0FAA3E0FB1215FDEE240DF58271
:10541800EF3400F583E8F0A3E9F08C828D83E0F89F
:10542800A3E0F9850882850983E0FAA3E0FB121559
:10543800FD8B09EA45096013EE240DF582EF34006F
:10544800F583E02401F0A3E03400F0024D0974F67E
:105458001216DFEAFEEBFFEE242EF582EF3400F59C
:1054680083E0FCA3E0FD780079FAECFAEDFB121575
:10547800FDEE2470F582EF3400F583E8F0A3E9F03F
:10548800780079FAECFAEDFB1215FD8B09EA45096B
:105498006013EE2470F582EF3400F583E02401F008
:1054A800A3E03400F0024D0974F01216DFEAFEEBB7
:1054B800FF74101216D378081215581210858A0C2A
:1054C8008B0D8C0E8D0F9083E6780C1214E490846B
:1054D8001A780C121532780C1218EE8E828F83E02F
:1054E800F8A3E0F5838882A3A312157612235E74CD
:1054F8000412169EE960030255FD8E828F83E02414
:1055080002F8A3E03400F9E8FAE9FB8A828B837891
:10551800081214F790841A78081215588A828B8317
:105528007808121545EE240BF582EF3400F583C098
:1055380082C0838E828F83A3A3A3A3A3E02401F850
:10554800A3E03400F9D083D082E0687003A3E06957
:10555800700579010255FF8E828F83A3A3A3A3A3AD
:10556800A3A3E02401F0A3E03400F0EE2474F58254
:10557800EF3400F583E064017036EE2475F582EFB0
:105588003400F583E0F8A3E0F98E828F83A3A3A308
:10559800A3A3A3A3E0687003A3E0697013EE2475C6
:1055A800F582EF3400F583E02401F0A3E03400F045
:1055B800EE2480F582EF3400F583E064017036EE66
:1055C8002481F582EF3400F583E0F8A3E0F98E82B8
:1055D8008F83A3A3A3A3A3A3A3E0687003A3E06995
:1055E8007013EE2481F582EF3400F583E02401F096
:1055F800A3E03400F079007F080217B174F712169F
:10560800DF900784E0F875F004A4C8AAF02AF974BA
:105618008628FE740739FF8028EE2465F8EF3400E9
:10562800F988828983E0FCA3E0FD88828983E4F01D
:10563800A3F08E828F83A3A3A3A3E0FA7B00120CAE
:105648009BEE2465F582EF3400F583E0F8A3E0F9DA
:10565800E849604FEE2464F582EF3400F583E0F505
:105668000878081218F6EE2463F582EF3400F58303
:10567800E0F9EE2465F582EF3400F583E0FCA3E061
:10568800FDEEFAEFFB120F77740112169EE960899E
:10569800EE2465F582EF3400F583E0F8A3E0F9E83D
:1056A8004970137C007D008E828F83A3A3A3A3E09F
:1056B800FA7B00120C9B024C3D74F21216DFEAFED4
:1056C800EBFF890A740E1216D3E0FAEE2462F58213
:1056D800EF3400F583E06401600302578D9061D0D8
:1056E800E0F87480C398F50CEE2483F582EF34005B
:1056F800F583E060047804800278008908E928F8D6
:10570800E43400F9E824020808E93400F9E50C98C3
:10571800E499A2D265D0334068EA7005750B02801F
:1057280003750B01E0603975090078081218F27AE0
:10573800F47B08120FAD740212169E7508F47509F1
:105748000878081218F2AC0AA90BEEFAEFFB120F50
:10575800CB740212169E7404250AF50A7CF47D089F
:105768007401250AF5D9850BD9E50A600D8C828D5F
:1057780083F8E0F5D9A318E870F875E19579008009
:10578800067907800279FF7F060217B1C082C083BD
:10579800E960208C828D83E08A828B83F08C828DF5
:1057A80083A3AC82AD838A828B83A3AA82AB83193D
:1057B800E970E0ECFAEDFB0241ED74EA1216DF90B5
:1057C8007803E06442705E9008F3E014F07056C20B
:1057D800AF1257DC00782AD0E0F618D0E0F6E59F43
:1057E8005407F970059083DE80039083DA780812F5
:1057F8001558E9C4C0E07829E65508F50808E655C3
:1058080009F509740B7808121666D0E02508F89097
:105818006270E0A2E740F8E8C333906272F09062E9
:1058280070E0D2E0F0900784E0F47003025BE5E0FA
:10583800F875F004A4C8AAF02AF9748628FE74073B
:1058480039FFEE2402F582EF3401F583E0F8A3E096
:10585800F9E849601EEE2402F582EF3401F583E091
:10586800FAA3E0FBEE2401F582EF3401F583E0F9B9
:1058780012042B8E828F83A3A3A3A3A3A3A3E0F870
:10588800A3E0F98E828F83A3A3A3A3A3E8F0A3E9DF
:10589800F0906054E090075DF0906055E090075EEE
:1058A800F0906056E090075FF0906057E0900760D6
:1058B800F0906058E0900761F0906059E0900762BE
:1058C800F090605AE0900763F090605BE0900764A6
:1058D800F090605CE0FC900765F090605DE0FB9004
:1058E8000766F090605EE0FD900767F090605FE00B
:1058F800FA900768F0900763E08C082508F8E4340C
:1059080000F98D08E82508F8E93400F98B08E8253E
:1059180008F8E93400F98A08E82508FAE93400FBB0
:10592800EE24F7F582EF3400F583E02AF0A3E03B9C
:10593800F08C08EE24F9F582EF3400F583E02508B1
:10594800F0A3E03400F0EE24FBF582EF3400F58399
:10595800E02401F0A3E03400F0EE24FFF582EF34F8
:1059680000F583E0F8A3E0F9E8496042906000E0C0
:10597800C333FCE433FDE82CF582E93DF583E02AE6
:10598800F0A3E03BF0906000E0FA900765E0FCEAE5
:10599800C333FAE433FBE82AF8E93BF9E8244AF58B
:1059A80082E93400F583E02CF0A3E03400F090079E
:1059B80063E07011900766E0700BA3E07007A3E046
:1059C8007003025AC58E828F83A3A3A3A3A3E0F812
:1059D800A3E0F9EE240DF582EF3400F583E028F812
:1059E800A3E039F9EE240BF582EF3400F583E8F0F3
:1059F800A3E9F0EE240FF582EF3400F583E4F0EE2E
:105A0800241CF582EF3400F583E06401701EEE2457
:105A180020F582EF3400F583E0F8A3E0F9EE241DC9
:105A2800F582EF3400F583E8F0A3E9F090075EE033
:105A38006052EE241CF582EF3400F5837401F0EE19
:105A4800246AF582EF3400F583E07038EE2474F5AB
:105A580082EF3400F583E0702BEE2480F582EF347A
:105A680000F583E0701EEE2420F582EF3400F58304
:105A7800E0F8A3E0F9EE241DF582EF3400F583E8A1
:105A8800F0A3E9F0906062E07003025B788E828F89
:105A980083E0F8A3E0F9E82406FCE93400FDE824F3
:105AA80002FAE93400FB12107F8E828F83E0241201
:105AB800F8A3E03400F988828983025B8290076545
:105AC800E0603AEE240FF582EF3400F583E4F0EE5F
:105AD800241CF582EF3400F583E064017040EE2465
:105AE80020F582EF3400F583E0F8A3E0F9EE241DF9
:105AF800F582EF3400F583E8F0A3E98020EE24FD79
:105B0800F582EF3400F583E02401F0A3E03400F0DF
:105B1800EE241DF582EF3400F583E4F0A3F0EE24C3
:105B28000BF582EF3400F583E0F8A3E0F98E828F5D
