:020000040000FA
:0600000002011D021F4376
:03002B00021AD5E1
:03003B00021B2085
:03004300021AACF2
:03005300021FB6D3
:03006B00021AF185
:10008300021DF7E5C754F84401F5C77901220000C2
:100093000080FB120086B90003020107E47921788E
:1000A30008B800028004F709D8FCE479297802B87B
:1000B30000028004F709D8FCE490028178D5790C1A
:1000C3008002F0A3D8FCD9FA781A90014D7A01BACC
:1000D30000028007E493A3F608DAF9900E55AA828A
:1000E300AB8390014E787F79038015E493A3AC82B0
:1000F300AD838A828B83F0A3AA82AB838C828D83A8
:10010300D8E9D9E77582A87583FF740212012F75A8
:100113008291758300740012012F75D00075813FA1
:10012300751881751902759F00020096C09FF59F8F
:10013300E473D09F22D083D082C09FE493C0E07445
:100143000193C0E0740293F59F2201FFFF1101990F
:10015300010F12640401028B840100005D84028795
:10016300840100005C0E0269840100005D0E0283BD
:1001730084030000A7020275840100005E0E01E8FB
:1001830003053F101A446F2053796E63000000008B
:1001930000000000000008415050205365742043C4
:1001A3006C6F636B0000000012446174612048654A
:1001B30061646572000000000000124461746120F4
:1001C300426F64790000000000000000028B84018C
:1001D300000060840287840100008E0E0271840394
:1001E300000044050283840300004C05028584015A
:1001F30000008F0E028784010000A00E026F8402AC
:1002030000005205028584010000A10E02878401CB
:100213000000B20E026D84030000560502838403BE
:1002230000005805028584010000B30E0287840193
:100233000000C40E026B840300005E050283840386
:1002430000006605028584010000C50E0000000061
:1002530000000000FF0001307503020106000000EA
:10026300000000000000000000000000000000008B
:10027300000000000000000000FFFF0600800CE803
:100283000305000A002C0101000100110941646407
:10029300696E672041312D303030303030051250D7
:1002A30000A000020A00020106050200230F184104
:1002B3006464696E672041312D3030303030300056
:1002C300000000004C0800005808FF0000B40000C4
:1002D30028002800283075A000A000A000A000007E
:1002E300080008E001F000100010001000100010DA
:1002F30000100050005000500010001000D0070004
:1003030000000000000F0001000500307507001019
:1003130000010081FF0000FF7A0A980A800AFF02A9
:10032300020208025000A0000000E803028B8401CF
:100333000000578402878401000029100281840190
:100343000000AC090287840100002A10027F8401A7
:100353000000C2090287840100002B10027D840182
:100363000000C4090287840100002C10027B84086A
:100373000000C5090287840100002D100279840161
:1003830000002E10FF0100FF20028B8401000054A7
:100393008402878401000092100277840000000029
:1003A30000028384030000120A50105010501050B2
:1003B300105010501050105010501050105010503A
:1003C300105010DE12F612D812120138B9C40212FC
:1003D3000138C3C40212013804C5021201384DC5E5
:1003E3000212013887C502120138DDC50212013835
:1003F300FEC502120138ADC802120138B6C8021296
:1004030001380AC90212013833C9021201383DC941
:1004130002120138ABC9021201383BCA0212013879
:1004230096CA02120138C4CA021201384CCB021216
:1004330001388BCB02120138C0CB02120138D2CB68
:1004430002120138F1CB02120138FACB0212013841
:10045300C1CC021201380EFB0212013805FC021254
:1004630001381FFC0212013830FC0212013842FE2F
:100473000212013861FE02120138D7A803120138B3
:100483000DA90312013841A9031201388EAA0312E0
:10049300013820B80312013836B80312013840B8C6
:1004A300031201388AB803120138BCB903120138A8
:1004B3006DF60212013880F60212013841F702127A
:1004C300013880F7021201389DF702120138D6F77E
:1004D3000212013823F80212013855F802120138CA
:1004E3008CF80212013895FA0212013801FB02124C
:1004F3000138CCAF03120138EFAF031201381EB03D
:1005030003120138B6B003120138F8B003120138F0
:10051300E89B03120138189C031201382B9C031229
:1005230001385A9C03120138719C031201381D9D36
:1005330003120138B69D031201383F9E031201389E
:1005430084B20312013892B20312013895B2031236
:10055300013810B30312013860B3031201381DBB15
:10056300031201381BBA03120138918401120138B6
:100573006F86011201380E8801120138B988011201
:100583000138398901120138BE8901120138E7891E
:1005930001120138C28D01120138398E011201385E
:1005A300508F011201388A8F01120138CB8F01124B
:1005B3000138129101120138689101120138B19189
:1005C300011201382092011201388C920112013874
:1005D300BD9201120138D59201120138EE93011236
:1005E3000138FE9301120138B49501120138CB95FD
:1005F30001120138FD95011201389F97011201384C
:1006030033980112013864B70312013875B7031226
:10061300013815B80312013871BA03120138B0BAA0
:10062300031201388DBB031201389BB60312013844
:10063300ABB603120138C3B60312013857B703121E
:100643000138C2B40312013847B503120138ABB500
:100653000312013841B10312013875B10312013895
:100663009EB10312013815B203120138F07F001254
:100673000138BD8C03120138EA8C031201385C8DFA
:1006830003120138718D03120138928E031201385F
:10069300158F031201388E8F03120138AD8F0312A9
:1006A3000138D08F031201380D90031201382590C1
:1006B300031201387B9003120138A1880312013819
:1006C300B88803120138328903120138168A0312DB
:1006D3000138ED8B03120138528C03120138A98CB7
:1006E30003120138F87F00120138A3A60312013860
:1006F3002DA8031201388EA803120138D4A80312BF
:1007030001389C9403120138379503120138D595AB
:1007130003120138CD96031201387F970312013873
:10072300A79703120138B597031201382A980312C9
:1007330001383E9803120138489803120138C6F174
:100743000212013800F2021201381DF202120138BE
:10075300C0F20212013822F3021201381EF402120F
:10076300013850F50212013875F502120138BEF551
:100773000212013828F60212013834AE031201388E
:1007830086AE03120138F9AE0312013866AF0312C5
:1007930001385CA40312013886A40312013855A55D
:1007A3000312013831A603120138EFCC02120138CB
:1007B300BBCD02120138FCCD0212013836CE021233
:1007C300013894CE02120138E8CE0212013846CF26
:1007D30002120138DCCF02120138E4D002120138D0
:1007E3006ED2021201380CD30212013873D30212F3
:1007F300013886D3021201387AD402120138C3D4E5
:10080300021201388F8D02120138C1900212013891
:10081300529202120138A99202120138C6920212B0
:100823000138469302120138C2940212013891959D
:1008330002120138FE9802120138E89902120138B7
:100843007AD701120138D4DA01120138A1DB01127F
:100853000138BCDC01120138F3DC011201387FDE00
:100863000112013801DF0112013831E001120138B0
:10087300A7E20112013874E30112013881AC0312BB
:10088300013898AC03120138C7AC0312013800AD2C
:100893000312013828AD0312013856AD0312013893
:1008A3006DAD0312013884AD031201389AAD031202
:1008B3000138C1AD03120138D4AD03120138EAADDA
:1008C30003120138FDAD0312013822AE03120138C1
:1008D3000DB2021201380CB30212013841B30212F5
:1008E300013862B30212013872B30212013893B3B2
:1008F300021201389FB4021201386CB5021201389A
:10090300DFB50212013865B602120138A8B6021229
:100913000138DFB60212013865B70212013837B861
:100923000212013895B802120138ADB8021201382B
:1009330027B9021201382AB9021201382DB902125D
:100943000138D4B902120138ECB9021201381CBAC9
:10095300021201383CBA021201382ABB02120138D2
:10096300E0BB021201381EED0212013846ED0212FD
:10097300013874ED02120138ABED0212013813EEA7
:10098300021201385CEE02120138A7EE021201389E
:10099300E5EE0212013822EF0212013850EF021283
:1009A3000138F7EF0212013801F0021201380EF09C
:1009B3000212013841F00212013803F10212013828
:1009C3000FF10212013827F10212013831F102123C
:1009D3000138C4B503120138D2B503120138EAB5A0
:1009E3000312013802B60312013822AC0112013896
:1009F300C0AC0112013838AD011201384DAE0112FD
:100A0300013887AE0112013830AF0112013805B049
:100A13000112013869B101120138C0B10112013864
:100A230047B2011201382EB3011201387BB3011210
:100A3300013809B4011201382DB40112013802B68C
:100A43000112013843B60112013865B601120138AB
:100A5300E6B601120138D0B70112013896B8011277
:100A6300013842DC0212013814DD02120138BDDD07
:100A73000212013800DE021201388DDE0212013843
:100A830019DF02120138FADF0212013829E00212DB
:100A9300013825E1021201386DE1021201386FE2DB
:100AA30002120138B3E202120138D9E2021201380C
:100AB300B6B8031201381F7C00120138357C0012CE
:100AC30001385B7C00120138837D001201388D7D73
:100AD30000120138E67E00120138E67F0012013869
:100AE3004EE30212013883E402120138B6E4021223
:100AF300013800E502120138BEE602120138C26C69
:100B030000120138256D001201386A6E0012013897
:100B13007A6E001201389D6E00120138E86E0012E1
:100B230001388D6F001201388370001201384D7146
:100B330000120138C5720012013807730012013820
:100B4300A57300120138F2730012013818740012F1
:100B530001380676001201380B7600120138EC7763
:100B630000120138407800120138A27800120138CF
:100B7300CA78001201386E7900120138307A0012F7
:100B83000138617A00120138647A00120138AC7AB4
:100B930000120138EE7A00120138557B0012013839
:100BA30006A20312013819A20312013832A203125A
:100BB30001387DA20312013858A303120138E7A3B9
:100BC3000312013832A403120138482600120138F7
:100BD3005426001201388D2600120138D226001245
:100BE30001388927001201380F28001201383B28E9
:100BF30000120138742800120138882A00120138C3
:100C0300642C001201384F2E00120138862F001277
:100C13000138E63100120138D2320012013818349B
:100C2300001201382535001201384235001201380F
:100C33007A3500120138943500120138FC35001260
:100C43000138963A00120138373B00120138883BCD
:100C530000120138AF3B00120138FD3B001201388E
:100C63001B3C001201386F3C00120138773D001223
:100C73000138FF3D0012013874E8021201387EE8A2
:100C83000212013849E90212013864E902120138FB
:100C93008AE902120138CEE90212013806EA021289
:100CA30001382FEA02120138A8EA02120138BDEA1C
:100CB30002120138D2EA0212013809EB021201389A
:100CC3001DEB021201384EEB0212013888EB0212BF
:100CD3000138B4EB021201380AEC021201385EEC5F
:100CE30002120138A7EC02120138D1EC02120138CA
:100CF300F6EC02120138B090031201387A91031214
:100D030001385D9203120138D3920312013815930F
:100D13000312013842940312013876F301120138A9
:100D23009FF301120138B8F301120138FDF40112E7
:100D33000138DBF501120138FAF50112013887F6A3
:100D430001120138CAF60112013817F801120138ED
:100D5300B6F80112013835FB01120138CCFB011240
:100D63000138A0FC0112013882FD01120138EEFEA8
:100D73000112013881FF01120138ADB303120138AA
:100D830016B4031201386AB40312013891B4031282
:100D930001380080031201386D8003120138B880D6
:100DA30003120138AD8103120138A98203120138FD
:100DB3009383031201384BBC021201388DBC02121B
:100DC300013867BD0212013840BE021201383BBF31
:100DD300021201381AC00212013886C00212013809
:100DE3004DC102120138B8C1021201381FC20212EA
:100DF30001384AC202120138BBC2021201384EC383
:100E030002120138B7C302120138CCC302120138EF
:100E130014C4021201382DC40212013892C4021202
:100E2300013895C4021201380C9F03120138349F14
:100E330003120138729F0312013830A003120138E4
:100E43009BA003120138B7A003120138DFA00312DD
:100E530001380FA1031201381EA10312013898A112
:100E630003120138BEA10312013849C90112013826
:100E730026CB0112013821CD01120138F4CD011224
:100E830001383FCE011201388ACE011201389CCEBF
:100E930001120138DCCE0112013811CF01120138E1
:100EA3005DCF011201388CCF01120138AFCF01128F
:100EB3000138FCCF0112013885D00112013892D2DA
:100EC300011201387DD401120138C0D40112013856
:100ED30025D60112013866D601120138D9D601127E
:100EE300013825D70112013850D7011201387E9AF3
:100EF30002120138A99A0212013890A10212013894
:100F0300B4A3021201386FA502120138CCA6021253
:100F13000138663E00120138FD3E001201382A3FB7
:100F230000120138703F00120138AF40001201383F
:100F3300464200120138C04200120138DB4200125F
:100F430001385043001201387F4400120138DA455A
:100F530000120138DC46001201383948001201380A
:100F6300524800120138AF4800120138914900126B
:100F73000138C44900120138344A00120138AE4A1C
:100F830000120138FD4A00120138C94B0012013822
:100F9300CE4C00120138AD4D00120138384E00120C
:100FA3000138A64E001201381A4F00120138434F80
:100FB300001201380250001201387C51001201382E
:100FC300995100120138B8510012013849520012E8
:100FD30001386E5200120138965200120138115333
:100FE300001201386B5300120138BF54001201384C
:100FF3007C55001201384F5600120138A7E5011243
:101003000138F7E50112013803E601120138E0E681
:101013000112013810E70112013848E701120138C3
:10102300C7E701120138FFE70112013851E8011245
:1010330001388EE801120138B3EA01120138DFECFE
:1010430001120138DAEE01120138B5F0011201384C
:10105300F37F00120138719801120138BB98011215
:1010630001389A9E011201381BA0011201387AA699
:101073000112013875A701120138B2A70112013814
:10108300D5A70112013817A80112013820A80112AF
:1010930001382AA80112013816A9011201380AAA37
:1010A300011201387D5600120138F5600012013833
:1010B300FB60001201380768001201384B980312D5
:1010C3000138E19803120138F79803120138719936
:1010D30003120138C79903120138059A0312013824
:1010E300629A03120138DF9A03120138E89A031255
:1010F3000138F49A03120138079B03120138439B0A
:1011030003120138599B03120138B89B03120138AB
:101113005584031201386284031201387C8403125C
:101123000138BB8403120138F984031201385E8548
:10113300031201387385031201387E8503120138C7
:101143008B8503120138A28503120138B08503127F
:101153000138BB8503120138C78503120138D685D0
:1011630003120138E18503120138048603120138A2
:10117300AD8603120138BD8603120138D7860312E8
:101183000138F486031201381087031201383587BA
:10119300031201383F8703120138538703120138C2
:1011A300728703120138D38703120138D9870312D8
:1011B3000138DF8703120138E58703120138F1870D
:1011C3000312013824880312013805800212013802
:1011D30087800212013830810212013878820212AC
:1011E30001388684021201386C8502120138A18508
:1011F30002120138C385021201386C8602120138CB
:101203003C8802120138658802120138DD88021217
:1012130001380F89021201381C89021201386789CB
:10122300021201388B8902120138DC8B0212013859
:10123300E68C02120138428D02120138CBBA011238
:101243000138DCBB01120138C0BC01120138CABC31
:1012530001120138ECBC01120138F8BC011201384B
:101263009CBE01120138C9BE01120138DFBF011251
:10127300013834C00112013883C10112013858C248
:1012830001120138B4C2011201381FC3011201381F
:1012930054C30112013897C30112013861C6011208
:1012A300013879C6011201380AC70112013818C77B
:1012B3000112013865C70112013873C701120138E1
:1012C300DFC7011201385AC801120138B1C801122F
:1012D3000138EFA60212013811A70212013822A920
:1012E30002120138E1AB021201380BAD02120138D0
:1012F300C9AD02120138B5AE02120138C8AA0312F1
:101303000138EDAA0312013863AB0312013825D566
:10131300021201382ED50212013837D502120138D4
:101323000FD602120138C0D702120138F0D70212C9
:1013330001381BD8021201384BD80212013876D873
:1013430002120138AAD802120138D6D80212013883
:1013530019D90212013844D9021201388BD9021269
:101363000138E0D90212013822DA021201387CDA9C
:1013730002120138A7DA02120138F6DA0212013832
:1013830026DB0212013851DB021201387FDB021225
:101393000138A2DB021201383FB9031201386BB9DD
:1013A3000312013898B903120138A2B903120138A4
:1013B300B2B903120138F0BA03120138BABA0312F0
:1013C300013847BB031201386FBB03E06670100896
:1013D300A3E066700A08A3E066700408A3E066222F
:1013E300C3E7960809E7960809E7960809E79622EE
:1013F300C3E09608A3E09608A3E09608A3E096222C
:10140300C008C3E096F50808A3E096420808A3E0E5
:1014130096420808A3E09645087001D3D008220835
:101423000808EAC0E0EBC0E086F0E7A4FA180986F2
:10143300F0E7A42AFA180986F0E7A42AFA1809861D
:10144300F0E7A42AFA1986F0E7A4FBE5F02AFA19D3
:101453000886F0E7A42BFBE5F03AFA190886F0E7D3
:10146300A42BFBE5F03AFA18180986F0E7A4C5F0B7
:101473002BFBE43AFA1908E7C5F0C6A426F6E5F013
:101483003BFBE43AFA1886F0E7A4F6E5F00826F603
:10149300E43B08F6E43A08F6D0E0FBD0E0FA22E4B5
:1014A300CFC0E0E4CEC0E0E4CDC0E0E4CCC0E07562
:1014B300F020C3E633F608E633F608E633F608E62B
:1014C30033F6181818EC33FCED33FDEE33FEEF332F
:1014D300FFC3EC9709ED9709EE9709EF97191919CF
:1014E300400FFFEC97FC09ED97FD09EE97FE1919E4
:1014F30006D5F0BEECF709EDF709EEF709EFF7199A
:101503001919D0E0FCD0E0FDD0E0FED0E0FF22606E
:1015130016080808C6C313C618C613C618C613C6CA
:1015230018C613C6D5E0EA22700908080822601617
:10153300181818C6C333C608C633C608C633C60848
:10154300C633C6D5E0EA22E627F60809E637F608E9
:1015530009E637F60809E637F622E026F608A3E09F
:1015630036F608A3E036F608A3E036F622E026F0C6
:1015730008A3E036F008A3E036F008A3E036F02233
:10158300C3E697F60809E697F60809E697F6080909
:10159300E697F622C3E096F008A3E096F008A3E0EE
:1015A30096F008A3E096F022E056F608A3E056F67C
:1015B30008A3E056F608A3E056F622E056F008A387
:1015C300E056F008A3E056F008A3E056F022E0F658
:1015D30008A3E0F608A3E0F608A3E0F622E6F00885
:1015E300A3E6F008A3E6F008A3E6F022E0FAA3E0FE
:1015F300FBA3E0FCA3E0FD22EAF0A3EBF0A3ECF0F5
:10160300A3EDF022CAC0E0E6F0A308DAFAD0E0FACC
:1016130022CAC0E0E0A3C582CCC582C583CDC58301
:10162300F0A3C582CCC582C583CDC583DAE6D0E0FD
:10163300CA22C3E498F8E499F91216768026C3E423
:101643009AFAE49BFBE920E7E9121676E498F8E4BA
:1016530099F922C3E498F8E499F9121676E498F814
:10166300E499F9C3E49AFAE49BFB22EB20E7CFE980
:1016730020E7E0B90010BB0008E88AF084F8AAF07C
:1016830022E4FBC8FA22EB70227B10C833C8C933AB
:10169300C9335007C39AC3DBF280069A50012ADB91
:1016A300EAC833F4C8C933F4C9FA2275F008E4C8A8
:1016B30033C8C933C933C99AC99B5004C92AC93B22
:1016C300D5F0ECFBC833F4C8E4C9FA22600D08C6B0
:1016D300A2E713C618C613C6D5E0F322600C08C6EA
:1016E300C313C618C613C6D5E0F422700422600DD6
:1016F30018C6C333C608C633C6D5E0F41822251866
:1017030010AF08F518400215198008F518400215A6
:1017130019D2AF22C0D0251810AF08F51850020512
:10172300198008F51850020519D2AFD0D022251818
:10173300F58210AF08F518400215198008F5184016
:10174300021519D2AF851983222518F582E43519BC
:10175300F58322E4732518C582C0E0E51934FFC57B
:1017630083C0E0E518C3958224F810AF0885831978
:101773008582188008858319858218D2AFCEF0A39D
:10178300E520F0A37808E608F0A3DEFAEFF0A3E57E
:101793008124FAF8E608F0A3E608F0A3E608F0A32C
:1017A3000808E608F0A3E608F0A315811581D0E048
:1017B300FED0E0F8158115811581E8C0E0EEC0E0A8
:1017C300222518C582C0E0E51934FFC583C0E0E5D2
:1017D30018C3958224F910AF088583198582188070
:1017E30008858319858218D2AFCEF0A3E520F0A334
:1017F3007808E608F0A3DEFAEFF0A3E58124FBF80E
:10180300E608F0A3E608F0A30808E608F0A3E60854
:10181300F0A315811581D0E0FED0E0F81581158184
:10182300E8C0E0EEC0E022851983851882E0A3FEBC
:10183300E0A3F5207808E0A3F608DFFAE0A3FFE0D1
:10184300A3C0E0E0A3C0E0E0A3C0E0E0A3C0E0E009
:10185300A3C0E010AF0885821885831980088582AC
:1018630018858319D2AFD083D082020135851983BD
:10187300851882E0A3FEE0A3F5207808E0A3F6082C
:10188300DFFAE0A3FFE0A3C0E0E0A3C0E0E0A3C071
:10189300E0E0A3C0E010AF088582188583198008B3
:1018A300858218858319D2AFD083D08222C0D025F8
:1018B30018C582C0E0E51934FFC583C0E0E518C34D
:1018C300958224F310AF08858319858218800885D3
:1018D3008319858218D2AFC8F0A3E9F0A3EAF0A375
:1018E300EBF0A37908E709F0A3D8FAECF0A3EDF045
:1018F300A3EEF0A3EFF0A3D0E0F0A3D0E0F0A3D0E9
:10190300E0F0A3E520F0A3E5F0F0A3228519838599
:101913001882E0C0E0A3E0F9A3E0FAA3E0FBA37818
:1019230008E0F608A3DFFAE0FCA3E0FDA3E0FEA3D2
:10193300E0FFA3E0C0E0A3E0C0E0A3E0F5D0A3E0B4
:10194300F520A3E0A3F5F010AF088583198582186D
:101953008008858319858218D2AFD082D083D0E0E6
:10196300F8D0E03274048006740280027401C0E08F
:10197300F404121731D0E0121607227404800474A1
:10198300028000CCC0E0EDC0E0E518C39CCCAD19EB
:1019930050011D10AF068C188D1980068C188D19F7
:1019A300D2AF121614D0E0FDD0E0FC22D083D08257
:1019B300E9C0E0E493A3C386F0C5F095F0F908E429
:1019C30093A386F0C5F095F0700BE493A3C39940FD
:1019D30005E9048002A3E475F002A42582F582E5FB
:1019E300F03583F583D0E0F9E493A3C0E0E493C03A
:1019F300E022D083D082ECC0E0EDC0E0E493A3FC0E
:101A0300E493A3FDED4C600D121A41EC24FFFCEDB1
:101A130034FFFD80EFE493A3FCE493A3FDED4C605E
:101A23000D121A80EC24FFFCED34FFFD80EFD0E0B3
:101A3300FDD0E0FCE493A3C0E0E493C0E022C0E067
:101A4300C3E49396087401939618400FE493667069
:101A53000808740193661870007019A3A3C3E49374
:101A630096087401939618A3A3400DD0E0D0E0D05C
:101A7300E0021A31A3A3A3A3A3A3D0E022C0E0C032
:101A8300F088F0E493667008087401936618700098
:101A9300A8F0A3A3700BD0F0D0E0D0E0D0E0021AFE
:081AA30031A3A3D0F0D0E02232
:101AAC00C0E074F21218B0A2AFE433FED2AFC2C0E1
:101ABC00E5D1A2E4500653D1EF120738751A00EEA7
:101ACC00A2E092AF7F0102190FC0E0C0D0E8C0E0E5
:101ADC00E5A8D2AFC2C7751A00A2E792AFD0E0F862
:101AEC00D0D0D0E032C0E0C0D0E8C0E0C082C0832B
:101AFC00E5A8F8D2AF758900C2C59003B87401F09F
:101B0C00751A00E8A2E792AFD083D082D0E0F8D06B
:101B1C00D0D0E032C0E0C0D0E8C0E0E9C0E0C008FE
:101B2C00C009C082C083A2AFE433F9D2AF90053CA8
:101B3C00E0F8A3E0687008539AFBA374018026C2F6
:101B4C00E990053CE0F50874012508F074BC250803
:101B5C00F58274043400F583E0F5C190053CE0C3D4
:101B6C0094804002E4F0E9A2E092AFD083D082D01E
:101B7C0009D008D0E0F9809474F51217C4EAFEEB92
:101B8C00FFEE2434F8EF3400F988088909EE243587
:101B9C00F582EF3400F583E0F8EE2437F582EF346C
:101BAC0000F583E0F50AEC850AF0A4FCAAF0850A9E
:101BBC00F0EDA42AFDE82CF8E43DF97A257B00121F
:101BCC001676EA850882850983F05407F87401B803
:101BDC0000028004C333D8FCC0E0E0131313541F7D
:101BEC00F8EE28F8EF3400F9E8245DF582E93400CA
:101BFC00F583D0E0F8E0586008EE2434F582EF80ED
:101C0C001EEE2436F582EF3400F583E0F5F0EA841D
:101C1C00A8F0EE28F8EF3400F9E82438F582E9341E
:101C2C0000F583E0F97F0402187074F51217C4EA0A
:101C3C00FEEBFFEE2434F582EF3400F583E0C0E0D8
:101C4C00EE2435F582EF3400F583D0E0F08E828FF0
:101C5C0083A3A3A3A3A3A3A3C082C0838E828F83D9
:101C6C00A3A3A3A3A3E0F8A3E0F9D083D082E0C39D
:101C7C0098F508A3E099F509EE2480F582EF34007D
:101C8C00F583E064017069EE2481F582EF3400F590
:101C9C0083E0F8A3E0F98E828F83A3A3A3A3A3A36D
:101CAC00A3E0FCA3E0FD8E828F83A3A3A3A3A3E0F8
:101CBC00FAA3E0FBC3EA9CEB9D5027C3EC98ED998B
:101CCC00402EC3EA98EB9950277CF77D0BEEFAEF88
:101CDC00FB120FAEEE2480F582EF3400F583E4F0B6
:101CEC00800EC3EA98EB9940E0C3EC98ED9950D97B
:101CFC00EE2434F8EF3400F9E8FCE9FDEE2435F578
:101D0C0082EF3400F583E0F8EE2437F582EF3400EF
:101D1C00F583E0F50AE508850AF0A4F508AAF08534
:101D2C000AF0E509A42AF509E82508F8E43509F9CB
:101D3C007A257B00121676EA8C828D83F05407F894
:101D4C007401B800028004C333D8FCC0E0E0131364
:101D5C0013541FF8EE28F8EF3400F9E8245DF582EF
:101D6C00E93400F583D0E0F8E0586008EE2434F54F
:101D7C0082EF801EEE2436F582EF3400F583E0F519
:101D8C00F0EA84A8F0EE28F8EF3400F9E82438F5EE
:101D9C0082E93400F583E0F9122631021C31C0824D
:101DAC00C083851882851983E0F8A3E0F9C3EA9C07
:101DBC00EB9D5012C3EC98ED994019C3EA98EB993E
:101DCC00501279018010C3EA98EB9940F5C3EC9856
:101DDC00ED9950EE7900D083D08222EAC39CFAEBC5
:101DEC009DFB22008521878522C622C0E0C0D0E859
:101DFC00C0E0E9C0E0EAC0E0EBC0E0ECC0E0EDC060
:101E0C00E0C008C009C00AC00BC082C083C0F07516
:101E1C009B00906182E0A2E64003021ED5E591A2F0
:101E2C00E64003021ED57591BF900ABCE0640570B4
:101E3C00081210E61210F280031210EC7521001239
:101E4C00114CE9900ABDF07900121140120F247A5E
:101E5C00017B00900ABBE0F912042C907803E0643B
:101E6C00426003021F1E900C59E014F06003021F25
:101E7C001EC2AF121E8200782AD0E0F618D0E0F60F
:101E8C00E59F5407F970059083C080039083BC785C
:101E9C00081215D1E9C4C0E07829E65508F5080800
:101EAC00E65509F509740B78081216DFD0E0250801
:101EBC00F8906270E0A2E740F8E8C333906272F0E9
:101ECC00906270E0D2E0F08049E0A2E55024E59108
:101EDC00A2E5501E7591DF900ABCE0640D70139062
:101EEC000ADEE004F064287002E4F07A00E0F912F3
:101EFC0011BE906181E0A2E35009E5E9A2E3500331
:101F0C0075E9F7A3E0A2E75009E591A2E750037544
:101F1C00917FD0F0D083D082D00BD00AD009D008DA
:101F2C00D0E0FDD0E0FCD0E0FBD0E0FAD0E0F9D07E
:101F3C00E0F8D0D0D0E032C0E0C0D0C082C08390F6
:101F4C006183E0A2E05009E5BFA2E0500375BFFE3B
:101F5C00E0A2E15009E5BFA2E1500375BFFDE0A28C
:101F6C00E25009E5BFA2E2500375BFFBE0A2E350CB
:101F7C0009E5BFA2E3500375BFF7E0A2E45009E501
:101F8C00BFA2E4500375BFEFE0A2E55009E5BFA284
:101F9C00E5500375BFDFE0A2E65009E5BFA2E650AD
:101FAC000375BFBFD083D0828088C0E0C0D0E8C0AA
:101FBC00E0E9C0E0EAC0E0EBC0E0ECC0E0EDC0E07E
:101FCC00C0F0E5A7A2E6500FE5A1A2E6500953A781
:101FDC00BF75A1BF12201BE5A7A2E5500CE5A1A27D
:101FEC00E5500653A7DF75A1DFE5A7A2E15009E58F
:101FFC00A1A2E1500375A1FDE5A7A2E2500CE5A159
:10200C00A2E2500653A7FB75A1FBD0F0021F2C7463
:10201C00F81217C4752101900ABCE0640670151201
:10202C00107A8A828B83A3A3A3A3A3A3E0FAA3E0D1
:10203C00FB1210D4A2AFE433FED2AF900AC2E0641C
:10204C000170187A207B00900ABBE0F91204D47A54
:10205C00207B00900ABBE0F9120432906182E0D23E
:10206C00E6F0900C58E0602185C6228016900AC1DB
:10207C00E064017008E5C654F84405F5C653BEFC8F
:10208C00121DF07401652160E4EEA2E092AF7F01B5
:10209C00021870008E238F2485822885832785184B
:1020AC0082851983E0CEA3E0CF852882852783EB38
:1020BC00C9EAC8EDCBECCA75F010C3E833C8E933F4
:1020CC00C9EA33CAEB33CBC3EA9EF526EB9FF52561
:1020DC00B35004AB25AA26EC33CCED33CDD5F0DAD6
:1020EC00AE23AF242274EB1217C474FA1217018AB0
:1020FC00088B098C148D15900ABCE024F7C3940549
:10210C00500690843402225312107A8A0A8B0BAE3A
:10211C000AAF0BEE4F7003022250AC08AD098518C4
:10212C0082851983AA82AB831211048E828F83A3BA
:10213C00A378081215D190840078081215AB851875
:10214C0082851983780C1215D1908400780C1215A5
:10215C00AB7808790C1213E3501F7808790C121520
:10216C00839084047808121403404785081085096D
:10217C0011850A12850B138041850C10850D118574
:10218C000E12850F13781079081215839084047839
:10219C0010121403501C7510007511007512007587
:1021AC0013017810790C1215837810790812154ADE
:1021BC00800890843478101215D174097810121597
:1021CC002B90840878081215D1781079081214A273
:1021DC008E828F83A3A3A3A3A3A3E0F8A3E0F97A31
:1021EC00D07B0312167688088909E4F50AF50B787A
:1021FC0010790812154A740412174CE0F8A3E0F990
:10220C007AD07B03121676E8FA8A08E4F50978107E
:10221C0079081213E3500778107908121583900A85
:10222C00BCE06408600AE064066005E06405701CAC
:10223C0090840C781012140350129084147810129D
:10224C00155D80089083F878101215D1851482855D
:10225C00158378101215E074061217177F0E0218EA
:10226C007074F71217C4121116900C56E0640170BA
:10227C0010906245E4F0A3F053F4F343FE0C53903A
:10228C00F31210C2E5C654804449F5C6E59E547F4E
:10229C00644970F8906185740FF0900C54E0F47000
:1022AC0002A3E0604E900C55E0600814601B1460B3
:1022BC002E8040750801750900900C54E0780812C6
:1022CC0016EEE508F45280802A7508017509009015
:1022DC000C54E078081216EEE508F4529080147550
:1022EC000801750900900C54E078081216EEE50808
:1022FC00F452A079007F0202187074F71217C4E927
:10230C00FEEAFF74016E700C7A807B00900ABBE0D1
:10231C00F912042C902640E493F46008E493F9122B
:10232C000F18800953C680E59E547F70FA1210C8AE
:10233C00900C56E064017003120F30900C54E0F4D2
:10234C007002A3E0604B900C55E0600814601A1406
:10235C00602C803D750801750900900C54E07808DC
:10236C001216EEE508428080287508017509009068
:10237C000C54E078081216EEE508429080137508AC
:10238C0001750900900C54E078081216EEE508422D
:10239C00A012111612107A8A088B09A808A909E84C
:1023AC00496015E5E170FCE82414F582E93400F588
:1023BC0083E0F46003E0F5E174016F700A7A019038
:1023CC000ABBE0F912049E02230174F11217C48AAD
:1023DC00088B098C0A8D0B740F12174C780C121584
:1023EC00D190840078081215AB908400780C1215EB
:1023FC00AB7808790C1213E350157808790C121588
:10240C0083908404780812140340157901801378A2
:10241C000C7908121583908404780C12140340EB89
:10242C0079007F0802187074ED1217C48A088B09A2
:10243C008C0A8D0B741312174C780C1215D19084D6
:10244C000078081215AB908400780C1215AB780C40
:10245C0079081213E340117808790C121583AA0835
:10246C00AB09AC0AAD0B802275100075110075120A
:10247C00007513017810790C1215837810790812F5
:10248C00154AAA10AB11AC12AD137F0C0218709048
:10249C00840078081215D18A828B8378081215BEB5
:1024AC007F0402187074F51217C48C828D8378081F
:1024BC001215D18A828B837808121597EA2404F8B6
:1024CC00EB3400F98C828D83A3A3A3A3E0FCA3E0DF
:1024DC00FD88828983C3E09CF0A3E09DF08882890B
:1024EC0083C3E09420A3E0944E40229083D07808DC
:1024FC001215D18A828B8378081215708A828B838D
:10250C00A3A3A3A3E02420F0A3E0344EF0808074B6
:10251C00F51217C4E9FE900C0EE0FAA3E0FBEEC333
:10252C0033F8E433F9748F28F582748239F583E03B
:10253C002AF508A3E03BF509780812196B90845032
:10254C001215EF1220A074021217178A088B098C2F
:10255C000A8D0B74107808121512AA08AB097F04A7
:10256C0002187074F11217C48A0C8B0D8C0E8D0F1F
:10257C00740F12174CE0FAA3E0FB741112174CE025
:10258C00F508A3E0F509741312174CE0FEA3E0FF65
:10259C00780812196BEA2401F508EB3400F509E40C
:1025AC00F50AF50B780C790812142290842078081F
:1025BC001215D1780C7908121422AA0CAB0DAC0EA2
:1025CC00AD0F1220A074021217178B09EA4509608F
:1025DC00047A0180027A00EC2AFCED3400FDECF860
:1025EC00EDF97A717B0212167688088909E4F50AEE
:1025FC00F50B8E828F8378081215E0ECF8EDF97AE2
:10260C00717B021216768A088B09740578081216EB
:10261C00EE8E828F83A3A3A3A3E508F0A3E509F0B4
:10262C007F08021870C082C083E9906000F0D083EC
:03263C00D0822227
:10264000FFFFFFFFFFFFFFFFC082C083E9901091F3
:10265000F002286774F7121758E99009DAF07C1233
:102660007D0A7AFF7BFF120C549009DB74FFF0A304
:10267000F0A3E4F0A3F07905120BE29009DAE0F997
:10268000120B0A7A6C7B0C120E2E02357574F41242
:1026900017588A088B09EB548060309009DAE0F90A
:1026A0001204148A0A8B0BAE0AAF0BEE4F60138E26
:1026B000828F83E064B07003120BF4EEFAEFFB122A
:1026C0000402AA08E5096480FB80047A007B00020A
:1026D000283674F212175874FC121701EAFEEBFF49
:1026E000741212174C123A5CEE4F70030227757485
:1026F0000212174CEEF0A3EF122A71ECF0A3ED12C8
:102700002A71AA82AB83120B04E9F50A706AE50804
:10271000450960648E828F83123A42EE4F60567A8A
:10272000067B001204868A0C8B0DA80CA90DE849C3
:102730007005750A13804188828983E4122782EE2E
:10274000F0A3EF123A6DE508F0A3E509F09009E077
:102750001228099009E0700512351F801B12350DF3
:102760008003EAFCEBFD8C828D8312280970F38CC8
:10277000828D8380E3750A02A90A74041217170276
:102780003C5CF0A3123A13A32274F2121758890A80
:10279000E975F017A4FEAFF09009DFE4F09009DDD1
:1027A000122809600A12048C9009DDE4F0A3F0EE0F
:1027B000FAEFFB1204868A088B09EA4509602FEEBE
:1027C000FCEFFD79001203EA9009DDE508F0A3E5CE
:1027D00009F07B0080081227F3E4F0A3F00BEBC3B1
:1027E000950A40F2E50A9009DFF07900800279133A
:1027F000023C5CEB75F017A4F8A9F09009DDE02825
:10280000FAA3E0398A82F583221231B1EA4B2274AD
:10281000F41217587900EAA2E0501B750887750971
:1028200083780812196B7C047D007A937B10120B5D
:10283000DC74021217177F0402182AC082C083902A
:1028400009E012286E601C88828983A3A3E06A7065
:1028500003A3E06B8882898370E8A3A3A3A312314A
:10286000AD80047A007B00D083D082020135123D16
:1028700042E8492274EE12175874FC121701EAFE5E
:10288000EBFF851882851983E4F0A3F0EE24021291
:1028900034FFEE2405123A1AEE2404F50EEF122E40
:1028A00026E024FE603924FC604624FE605224FEAB
:1028B000605E24FE700302298724FE70030229EB68
:1028C00024FE70030229FA24FE7003022A0924FC64
:1028D0007003022A1824FE7003022A27022A649039
:1028E00009F97417F0A3E4122A79120882022A6403
:1028F000851882851983AC82AD83120BFA022A34C3
:10290000851882851983AC82AD83120C00022A34AB
:10291000850C08850D09740212174CAC82AD8385B5
:1029200008828509831231AD120B288A0C8B0DACFD
:102930000CAD0DEC4D603BE4F50CF50D780C121967
:102940006B750CF9750D09780C12196B750CFA750D
:102950000D09780C12196B740812174C1219821297
:102960003D66121717E9F50C700B1231A312089A85
:10297000800F750C01850882850983122A6712353C
:102980001F850C08022A37740212174CAC82AD83E3
:10299000850C82850D83122F78603C850C82850D15
:1029A00083A3A31219827510F975110978101219F1
:1029B0006B7510FA751109781012196B74081217DB
:1029C0004C121982123D66121717E9F509700B12A5
:1029D00031A31208A0800F750901850C82850D8333
:1029E000122A6712351F850908804C8518828519BF
:1029F00083AC82AD83120C06803A851882851983D8
:102A0000AC82AD83120C0C802B851882851983ACA7
:102A100082AD83120C12801C851882851983AC82CA
:102A2000AD83120C18800D851882851983AC82AD98
:102A300083120C1EE9F508E50860298E828F83A3B6
:102A4000E06414601F850E82850F83E09009F912FF
:102A50002A71123D3E9009FA12351FE508A3122A89
:102A60007912087C02340E123D4285188285198342
:102A700022F085188285198322F07CF97D09850A68
:102A800082850B831231B12274EE12175874FC1236
:102A900017018A0A8B0B8C0E8D0FEA2405F508EBC3
:102AA0003400F5097C157D0079007AF97B09120361
:102AB000EAE5082402F50CE509123A1D851882851D
:102AC0001983858210858311781012196B8508820D
:102AD000850983A3A3A3A3122F6F12196BE5082402
:102AE00005F510E5093400F511781012196B850C05
:102AF00082850D831232C4120B2274061217178AB4
:102B0000108B11AE10AF11E50A2402F50AE50B1285
:102B10003502EE4F7003022C468017740212174CD8
:102B20001231AD88828983EAF0A3EBF09009F9E0D5
:102B300004F09009F9E0C394054003022C46E4F543
:102B400010F511781012196B7510E27511097810D3
:102B500012196B7510E3751109781012196B740650
:102B600012174C1219827910EEFCEFFD123D68121B
:102B70001717E9705E850882850983A3A3A3A3A321
:102B8000A3A3E0F89009E2E0687048122F6F1219D1
:102B90006B7CE37D09E5082408FAE5093400FB12A3
:102BA00003E47402121717E960298E828F83A3A3AE
:102BB000A3A31231AD9009F9E0F510740278101258
:102BC00016EE74FA2510F58274093511F583EAF0D2
:102BD000A3EBF0740212174C8582108583117810D4
:102BE00012196B740212174C121982850C82850D12
:102BF000831231D31217178A108B11AE10AF1190B8
:102C000009F9E0F510751100740278101216EE74CF
:102C1000F92510F874093511F988828983A31228DF
:102C2000097003022B12E82403080808E93400F9AC
:102C3000EE4F6003022B1B8882898374FFF0A3F0A0
:102C40009009F9E004F09009F9E0600A1231A3124A
:102C5000088E7900800B85088285098312351679E4
:102C60000A02340E74EA12175874FE1217018C12FD
:102C70008D13EA2405F50CEB123D50123A46750807
:102C800000750900EA2402F510EB3400F5118518EF
:102C90008285198385820A85830B780A12196B85D0
:102CA0000C82850D83A3A3A3A3122E3C12196BE5FE
:102CB0000C2405F50AE50D123502780A12196B8508
:102CC0000C82850D83122E40120B227406121717E8
:102CD0008A0A8B0BEA450B7003022DE1EA2404F506
:102CE0000EEB122E26123A468A828B83A3A3A3E010
:102CF000F98510828511831231B76003022DE1E45A
:102D0000F514F515781412196B7514E27515097818
:102D10001412196B7514E3751509781412196B7474
:102D20000612174C1219827913AC0AAD0B8510826A
:102D3000851183123D6E121717E9F5096003022D04
:102D4000E19009E2E0F8E5087009E024029009FA50
:102D5000F080149009FAE0FCE82402FAE43400FB65
:102D6000EA6C7001EB707E850882AA82122F66944D
:102D700014122F5E506B850E82850F83E0C0E074C5
:102D8000FB2A122E1DD0E0F00508850E82850F83E8
:102D9000A3E0C0E085080A74FB250A122E1DD0E0CE
:102DA000F005089009E2122E3C12196B7CE37D09B4
:102DB00085080A74FB250A122E301217179009E2B3
:102DC000E02508F50874FF6E700374FF6F6012EE63
:102DD00024010EEF3400FFE508C394145003022CC5
:102DE0008EE50860131231C185108285118312317E
:102DF000AD12089479008014E509700375090A85FD
:102E00001282851383EEF0A3EFF0A9097402121762
:102E1000177F0E02182A85080C74FB250CF58274A6
:102E2000093400F583223400F50F850E82F58322E4
:102E3000FA74093400FB1203D2740222123A7C2283
:102E4000A3A3122E462212350DFDEEFAEFFB2274DB
:102E5000EE12175874FE1217018C0E8D0FEA24051E
:102E6000F50CEB123A1D750B009009F9E4F0F50A28
:102E7000EA2402F508EB3400F50980449009F9E0F2
:102E8000FA9009E2E0F8122F669417122F5E400DB7
:102E90009009F9E0F87416C3989009E2F0122F6FC8
:102EA00012196B7CE37D0974FA2AFA7409122E3325
:102EB0001217179009E2E0F89009F9E028F0050AE6
:102EC000E50C2416F582E50D122E21E0F8E50AC383
:102ED0009850749009F9E0C39416506BE50AC33317
:102EE000F8E433F9E50C28FEE50D39FF85188285F5
:102EF0001983AC82AD838E828F83122F7870087510
:102F00000B011235128050E4F510F51178101219EA
:102F10006B7510E2751109781012196B7510E37555
:102F20001109781012196B740612174C1219827954
:102F300016850882850983123D6E121717E9F50B75
:102F40007003022E7C80BB7CF97D0985088285098F
:102F5000831231AD1208A6A90B7402023410E99451
:102F600000C365D03322EA28F8E43400F9E822E00F
:102F7000F5107511007810221234058A108B11ACEF
:102F800010AD11EC4D2274EA12175874FC1217019F
:102F90008A0C8B0D8C128D13EA2405F50AEB123581
:102FA00002750800750900E50A2402F510E50B34E6
:102FB00000F511740212174C85820E85830F780E6E
:102FC00012196B850A82850B83A3A3A3A3123A224D
:102FD00012196BE50A2405F50EE50B3400F50F78A0
:102FE0000E12196B8510828511831235081231A7D4
:102FF000120B2274061217178A0E8B0FAE0EAF0F2C
:10300000E50C2402F50EE50D3400F50F80388882BA
:10301000898374FFF00508122E1674FFF0050890DE
:1030200009E2E0F50C750D00780C12196B7CE37D5C
:103030000985080C74FB250C122E30121717900905
:10304000E2E02508F508EE4F60278E828F83A3A368
:10305000A3E0F9850E82850F831231B7EE240412A6
:103060003A1AE96027850C82850D83123199123551
:103070001FE508700302317F1231C1850E82850F72
:10308000831231AD1208AC7900023194E4F514F5E5
:1030900015781412196B7514E27515097814121944
:1030A0006B7514E3751509781412196B74081217EF
:1030B0004C1219827911EEFCEFFD850E82850F838B
:1030C000123D6E121717E9F509709A850882AA82D7
:1030D000EA9009E27009E024049009FAF08025E002
:1030E000F89009FAE0F514E82404FCE43400FDEC5F
:1030F00065147001ED7081122F669412122F5E40DC
:1031000003023078850C82850D83E0C0E074FB2AD1
:10311000122E1DD0E0F00508850C82850D83A3E0FA
:10312000C0E0122E16D0E01231DC85820C85830DB2
:10313000780C12196B740412174C121982851082C4
:103140008511831231D31217178A0C8B0DAE0CAF79
:103150000D85080C74FB250CF874093400F9EE4F4A
:10316000700302300E851882851983E08882898376
:103170001231DCA3E0C0E0122E16D0E002301CE5D4
:1031800009700375090A850A82850B831231991229
:10319000351FA9097404022E0E123D428512828544
:1031A0001383227CF97D09850A82850B831231B154
:1031B00022E0FAA3E0FB221231B1120B10E9F5096B
:1031C000229009FAE0F5F0E508849009F9F07CF91D
:1031D0007D0922122E46120B2E740422F00508855A
:1031E00018828519832274EC12175874FE12170185
:1031F0008A088B098C0E8D0FEA2405FEEB3400FF44
:103200001233EFEE2418123A1AEA450B7003023219
:10321000921233D850291232B78A108B11EA451115
:10322000606B7912AC0AAD0B850882850983123177
:10323000AD851082851183121756E9F50A7058E49E
:10324000F50AF50B780A12196B8E828F83A3A3E01F
:10325000F50A780A12196BEE24031234FF780A1269
:10326000196B8E828F831232C4120C4274061217AD
:1032700017E9F50A7021850C82850D83E0701F85A2
:1032800008828509831231AD1208B28011750A0EC9
:103290008009750A018004E50A6003123512850C65
:1032A00082850D83E0600479008002A90A7402120D
:1032B00017177F0C02182A8518828519831231B1DD
:1032C000120C302212350DFD8508828509831231DA
:1032D000B12274EE12175874FE1217018A088B0976
:1032E0008C0C8D0DEA2405FEEB3400FF750E0012E8
:1032F00033EFEA450B70030233B61233D8502C1269
:1033000032B78A0E8B0FEA450F604A7912AC0AADCC
:103310000B8508828509831231AD850E82850F8366
:10332000121756E9F50E60030233B9850882850944
:10333000831235F4AA0AFB1233CA70147AFF7BFF9A
:103340001233CA606C88828983E50AF0A3E50BF02A
:10335000750A008007750E0E805F050A9009DFE090
:10336000FAE50AC39A504AE50A75F017A4FAABF0D9
:1033700088828983A3A3E02AFAA3E03BFB8A828B9D
:1033800083123508EC4D70D2750A17750B00780A58
:1033900012196BEEFCEFFD1203D27402121717EE36
:1033A000FCEFFD8508828509831231AD1208B880D3
:1033B00014750E098003750E01123D3A850C828545
:1033C0000D8312351FA90E022F59120C248A108B5F
:1033D00011A810A911E84922E5082402F508E50919
:1033E0003400F5098A828B83A3A3A3E0A2E522859A
:1033F0001882851983AC82AD838E828F8312340547
:103400008A0A8B0B22E0FAA3E0FB120B2822740439
:103410001217177F0A02182A74EC1217588C108D95
:1034200011EA2405F50CEB123A1D750F00EA24028F
:10343000F50AEB123502850A82F5831231AD123D91
:10344000F470030234F4750E008071850C82850DD2
:1034500083E06401704F8E828F83A3A31219828E42
:10346000828F83A3A3A3A3E0F51275130078121231
:10347000196BEE2405F512EF3400F51378121219CA
:103480006B1231A7120C427406121717E9F50F6080
:1034900014850C82850D83E4F0123D3A85108285F7
:1034A000118312351F7C177D007900EEFAEFFB12B5
:1034B00003EA8E828F83E4F0A3F0050E9009DFE02B
:1034C000F8E50EC398501EE50E75F017A4F8A9F0A4
:1034D000850882850983A3A3123D5A123508EC4D55
:1034E000600302344B85088285098374FFF0A3F0E2
:1034F000E50F70061231A71208BEA90F0232B2F50D
:103500000AEF3400F50B22A312350DFD22E0FCA3D7
:10351000E0228E828F83123D42850E82850F83E8E2
:10352000F0A3E9F022C082C0839009DBE06A700357
:10353000A3E06B70067ADB7B0980047A007B0002D3
:10354000286774F71217587F00EF75F003A4F8A9E5
:10355000F0EC28F8ED39F988828983E06A7003A3DA
:10356000E06B7006E8FAE9FB800B0FEFC3940240B2
:10357000D87A007B007F0102182A74F612175812BD
:103580003B2B70067A007B008007A3A3A3A3123114
:10359000AD023BEC74F2121758E9FE740E12174C90
:1035A0001235F4741012174C123A5C8C828D83E041
:1035B0006402703BA3123D3E88828983E0F50CA330
:1035C000E0F9A80C74026870037429697021750C05
:1035D00002750D00780C12196B780812196B780AB5
:1035E00012196BEEF9120C66740612171780027925
:1035F00001023C5CE0F50AA3E0F50B2274E8121727
:103600005874FB121701E9851882851983F08A1610
:103610008B178C0E8D0F741F12174C123A5C74218D
:1036200012174C1235F4742312174C123A467510C7
:10363000008C828D83A3A3A3E0A2E4502A741D1200
:10364000174C1232BD8A828B83E582458370030258
:103650003708790AAC0EAD0FAA16AB17121756E948
:10366000F510600302370B850E82850F83E064023C
:1036700060030239C1A3123D3E850882850983A3F8
:10368000858212858313E50E2406F50CE50F123AA8
:103690001D88828983E0FAA3E0F9EA2400F514E4A6
:1036A00039F51578141219F5010000280128D036D3
:1036B00007000228A737032817370029D138012926
:1036C000F9380229A0380329D13804296239C139CF
:1036D000EE4F703E850C82850D83123A37FAE9FB76
:1036E0008A828B83E0850A82850B83123A731219D2
:1036F0006B8A828B83A312350DFDAA08AB091203D6
:10370000D27402121717800375100EA910740502E7
:103710003D4875100B80F4EE4F70F7850A82850BDB
:10372000837401F0123A4C850882850983F07C008D
:103730007D00850E82850F83A3A3A3A3E02401FA55
:10374000A3E03400FB120B28EA4B60418A828B8392
:10375000E02402F8850A82850B83E028F0EA24043D
:10376000F8EB3400F988828983E08512828513831F
:10377000123A85123A7312196B8A828B83123507BB
:10378000E5082403FAE5093400FB0236FE850A82C7
:10379000850B83E02404F07C047D007900AA12AB41
:1037A000131203EA02370BEE4F6003023712123A8C
:1037B0004CFEA3E0FF850A82850B837404F0EE853E
:1037C0000882850983F0EF851282851383F07403E4
:1037D00012174CAC82AD83EEFAEFFB123B1970036B
:1037E00002387D8A828B83A3A3123A427401121796
:1037F0004C85820E85830F780E12196B7405121793
:103800004C1219827CFF7DFF120B2E7404121717C5
:103810008B0FEA450F7033850C82850D83123A2297
:1038200012196B850C82850D83A31219827C027D8F
:10383000007A897B8412095A7404121717E9700AF6
:10384000740112174C74FFF0A3F08E828F83E06432
:10385000027034750C02750D00780C12196B8E8293
:103860008F83123507E5082404FAE509122E331276
:103870001717850A82850B83E024028009740112E0
:10388000174CEEF0A3EFF0740112174C123A33F01C
:10389000740112174CA3123A2BA3A3A3F002370B07
:1038A000EE4F6003023712850C82850D83123508B6
:1038B000AA16AB17120C5A850A82850B837402F084
:1038C000EA850882850983F0851282851383EB805F
:1038D000CBEE4F6003023712123A4CF8A3E0F985A1
:1038E0000A82850B837402F0E8850882850983F0DB
:1038F000E985128285138380A3850C82850D83124E
:1039000031AD1203CCEAFC8C82A882C39EE49F40B6
:103910004BE86E7001EF70047C00801F8518828573
:103920001983E0FAEE2AFAEF3400FBC3EA98EB942D
:10393000005003E08004EECCC39CFCEC850A828539
:103940000B83F08C0A750B00780A12196B850C82B8
:10395000850D83E02EFCA3E03F0236F975100702C7
:10396000370BEE4F6003023712850C82850D8312F0
:103970003D3E850A82850B837407F0888289831215
:103980003A2B123A13E0851282851383F0E8240261
:10399000FAE93400FB8A828B83123A2B123A6412C2
:1039A0003A33A3123A6D123A3CF0E82405F8E934B0
:1039B00000F988828983123A3CA3123A85A302381F
:1039C00099741D12174C123B247003023708123DE4
:1039D0003E880C890DE8450D70030237088E108F64
:1039E00011781012196B780A12196B780812196B7A
:1039F000740612174CE0F9AC0EAD0FAA16AB178582
:103A00000C82850D831217567406121717E9F510EC
:103A100002370BF088828983A322F50CEF3400F57E
:103A20000D22E0F50E750F00780E22E085088285E4
:103A3000098322123A8C22123D42E822123A8CA3C8
:103A4000A322A3A3A3A3E0FEA3E0FF22850C82850B
:103A50000D83E0F8A3E0F5838882E022E0F508A377
:103A6000E0F50922A3A3F08A828B83A32212278484
:103A7000A3A322F08A828B83123A7C22E0F50A7596
:103A80000B00780A22123A13123A8C22E08508823F
:103A9000850983A3A32274EE12175874FE1217012E
:103AA0008A0A8B0BECFAEDFB741412174CE0F5103C
:103AB000A3E0F511741612174CE0FE741812174C9F
:103AC000E0F50EA3E0F50F851882851983AC82AD71
:103AD00083123B19603E851882851983123B24604E
:103AE0002FA3A3123A5CE50845096024780E121949
:103AF0006B781012196BEEF9AC0CAD0DAA0AAB0B7A
:103B000085088285098312175674041217178006D8
:103B1000790E80027901022F59120B288A0C8B0D25
:103B2000EA450D221231B1123B2B22120BEE8A8292
:103B30008B83E58245832274F612175874FE1217A0
:103B400001740C12174C123A37851882851983F0CC
:103B5000740112174CE9F0E4F508F5097808121918
:103B60006B750802780812196B740412174C858261
:103B700008858309780812196B120C427406121713
:103B8000177402121717806474F7121758EAFEEBC5
:103B9000FF89087C127D0A120C5AEA5402600BA9B4
:103BA00008EEFAEFFB120B1C8002790102357574E6
:103BB000F612175874FF6A700374FF6B701C7B0059
:103BC000EB75F003A4F8A9F0EC28F8ED39F9123BF5
:103BD000F10BEBC39402501480E6120C2A8A088B76
:103BE00009A808A909E8496003123BF17F020218FD
:103BF0002A8882898374FF122782E4F02274F612E5
:103C00001758120C2A8A828B83E58245836006A3AB
:103C1000A3E0FA80027A007B0080D174F212175878
:103C20008A088B09ECFEEDFF740E12174CE0F50AC2
:103C3000123C61701CEEFCEFFD7AFF7BFF123C61D1
:103C400070047911801688828983E508F0A3E5095C
:103C5000F088828983A3A3E50AF079007F06021821
:103C60002A120C2A8A0C8B0DA80CA90DE849227483
:103C7000EE121758EAFEEBFF8C088D09890C7412BE
:103C800012174C123D3E741412174C12350874165C
:103C900012174C1231AD750D00EC4D6003023D3230
:103CA0007402650C6003023D2D8882898312350DF4
:103CB000F9EC2400F50EE439F50FEAF4F8EBF4F929
:103CC000EC58F8E50F59F9E849705DE5082406F865
:103CD000E5093400F9880A890B8882F583122E429F
:103CE000120C5A8A108B11E50E65107004E50F65F1
:103CF000116042780E12196B850A82850B83122E91
:103D000042120C607402121717E9F50D7027780E35
:103D100012196B850882850983A3A3122E40120C09
:103D2000727402121717800D750D808008750D0DC5
:103D30008003750D0BA90D0234138E828F83123D03
:103D40004222E0F8A3E0F9221217177F1002182A86
:103D50003400F50D850C82F58322E028FEA3E039BE
:103D6000FF8E828F83227916850A82850B8312311A
:103D7000B1120C3C74082274F2121758EAFEEBFFE1
:103D8000890B7401650B600E7402650B7063790119
:103D9000120E4CE9705BEEFAEFFB123DF4604775D2
:103DA0000A00800B7C177D0079001203EA050A9057
:103DB00009DFE0F8E50AC3985021E50A75F017A479
:103DC000F8A9F0850882850983A3A3E028FAA3E077
:103DD00039FB8A828B8312286E70C9850882850917
:103DE0008374FFF0A3F07C127D0AEEFAEFFB120C55
:103DF00054023C5C120C248A088B09EA450922749F
:103E0000F21217588A088B09ECFEEDFF740E121798
:103E10004C1235F4901091E0F4603D7A097B001269
:103E200003FCEA4B60328A828B8374B1F0A3E41204
:103E30003A66A3123A64A3E508F0A3E509123E5BD3
:103E4000EEF0A3EF123E5BA3A3E50AF0A3E50BF0AF
:103E5000901091E0F9120408023C5CF08A828B8396
:103E6000A3A3A3A3A322C082C0839061907404F093
:103E7000A37448F0A37402F09061807440F09061E4
:103E8000BC7403F09061877419F0906265741BF044
:103E900090619C740DF090619A7433F0A37455F0A6
:103EA0009061A0743AF0900C56E064017009C291E0
:103EB000900AC074678005900AC07461F09026462D
:103EC000E493906186F0902640E493F46027E493B5
:103ED000540FF8906185E0686012E5C6548044494B
:103EE000F5C6E59E547F644970F8E8F053C680E556
:103EF0009E547F70FA79051211A00240A8C082C0BA
:103F000083E9540FF9906185E0696012E5C6548039
:103F10004449F5C6E59E547F644970F8E9F053C6FC
:103F200080E59E547F70FA0240A8C082C083E5A855
:103F3000F853A87E906181E4F0A3F0A3F0C2BA53D5
:103F40009AFEC289759B00C2C275E9007591007521
:103F5000BF0075A91175B905906181F0A374C0F017
:103F6000A3E4F0D2BA439A0174805842A80240A850
:103F7000C082C08374F8121701900ABEE0F8A3E073
:103F8000F9E849700302409E900ABEE05440602365
:103F90007908851882851983AA82AB831210088557
:103FA0001882851983AA82AB83120CDE900ABEE0C8
:103FB00054BFF0E054806010790C7A7A7B0C1210B8
:103FC00008900ABEE0547FF0E0A2E0503190619A80
:103FD0007433F0A37455F09061A0743AF0900C56CD
:103FE000E064017009C291900AC074678005900A6C
:103FF000C07461F0120CE4900ABEE054FEF0E0548C
:1040000002603190619A743FF0A3745AF09061A0FD
:10401000747FF0900C56E064017009D291900AC050
:1040200074718005900AC0746AF0120CE4900ABEA4
:10403000E054FDF0E054046013902644E493906152
:1040400086F0120CEA900ABEE054FBF0E0540860DF
:1040500013902645E493906186F0120CEA900ABE14
:10406000E054F7F0E054106013902646E49390611A
:1040700086F0120CEA900ABEE054EFF0E0542060A3
:104080000A120CEA900ABEE054DFF0A3E05401608B
:104090000D120F30120CF0900ABFE054FEF07408BD
:1040A0001217178003F0A3F0D083D0820201357479
:1040B000EC12175874F4121701851882851983AC15
:1040C00082AD837583837582EC7404121614902676
:1040D0004493F4600302423C907808E0C394025099
:1040E0000302421C740412174CAC82AD83758383A7
:1040F0007582387408121614851882851983858292
:1041000012858313740412174CAC82AD83750EFFB5
:10411000750FFF7FFF7E00750C48750D7880157454
:10412000086E70030241AF74096E70030241AF74F0
:104130000A6E607B850C82850D8378081215D18C00
:10414000828D83A909E50AC9F888107418780812C5
:104150001512E5104508F8C3E098A3E099850C8294
:10416000850D8378081215D140188C828D837418C0
:104170007808121512E5104508F8E0C398F8A3E096
:10418000801C74187808121512E5104508FAE9FB2E
:104190008C828D83E0F8A3E0F9EAC398F8EB99F9F3
:1041A000C3E8950EE9950F5006880E890FEEFF0EB5
:1041B000E50C2404F50CE50D3400F50DEEC3941365
:1041C000500302411F74FF650E700474FF650F6099
:1041D000238F08740278081216EE74482508F582B9
:1041E00074783509F58378081215D1851282851304
:1041F00083E508F0EC24020C0CED3400FD851282FE
:10420000851383A3858212858313740C12174CE5E2
:10421000826C7003E5836D600302410D75080175C2
:104220000900780812196B740212174CAC82AD8326
:104230007A917B091206487402121717740C121730
:10424000177F0C02182AC082C0839061AE7468F098
:10425000A3746AF090624574FBF0A304F053F4FD7C
:1042600043FE02900C567401F09061A0E0643A9015
:10427000619A70237433F0A37455F09061A0743A7E
:10428000F0740164017009C291900AC074678028BB
:10429000900AC074618021743FF0A3745AF0906159
:1042A000A0747FF0740164017009D291900AC07407
:1042B000718005900AC0746A0240A77F0402182A20
:1042C000C082C083900C08E06401700A900C0DE07D
:1042D0006004790C800279000240A8C082C0837516
:1042E000E1F1900C0BE06055146008146059146003
:1042F000518059120F42900C01E0F97A027B0C12A6
:1043000011229083E01215EF12115890844012157B
:10431000EF12112E900C0CE0F912113A79011211E2
:1043200094900BFFE02416F8A3E03400F98882890A
:1043300083745AF0A3740FF079000240A8120F485A
:1043400080B4120F4E80AF120F5480AA791280EA07
:1043500074F412175875D90D900BF0E0A2E0E43315
:104360001313F8900C01E0C4333354C0484401F5F2
:10437000D978FF790B88828983A3A3A3E0F5D98834
:10438000828983A3A882A983E864057003E9640C89
:1043900070E378F0790B88828983A3E0F5D988826D
:1043A0008983A3A882A983E864F67003E9640B708B
:1043B000E575E195900BF0E0F97AF17B0B1211288D
:1043C0009010B374EEF0A3740EF0A37450F0A374C5
:1043D00010F0A37450F0A37410F0A37450F0A37401
:1043E00010F0A374F4F0A3740EF0A37450F0A3744F
:1043F00010F0A3740CF0A3740FF09010C17450F07F
:10440000A37410F0A37450F0A37410F0A37450F0D0
:10441000A37410F0A37450F0A37410F0A37450F0C0
:10442000A37410F0A37450F0A37410F0900BFFE08D
:10443000F8A3E0F5838882A3A378081215D19083AE
:10444000CC780812155D90840078081215AB900B9B
:10445000FFE0240EF8A3E03400F98882898378080D
:104460001215E0900BFFE02414F8A3E03400F98863
:104470008289837413F0900ABC7402F00242BBC0BC
:1044800082C083900C11E02407F5D9900C01E0C4A0
:10449000333354C0F5D978FF790B88828983A3A37D
:1044A000A3E0F5D988828983A3A882A983E864055B
:1044B0007003E9640C70E3900C11E0601F78FF79E1
:1044C0000BFAE82413F582E93400F583E0F5D98886
:1044D000828983A3A882A9831AEA70E6900C31E04E
:1044E0002407F5D9900C01E0C4333354C04404F5DB
:1044F000D978FF790B88828983A3A3A3E0F5D988B3
:10450000828983A3A882A983E864057003E9640C07
:1045100070E3900C31E0601F78FF790BFAE82433E8
:10452000F582E93400F583E0F5D988828983A3A870
:1045300082A9831AEA70E675E1959010B374FAF0D7
:10454000A3740EF0A37450F0A37410F0A37450F091
:10455000A37410F0A37450F0A37410F0A374F4F0DB
:10456000A3740EF0A37450F0A37410F0A3740CF0B5
:10457000A3740FF09010C17450F0A37410F0A374E2
:1045800050F0A37410F0A37450F0A37410F0A3744F
:1045900050F0A37410F0A37450F0A37410F0A3743F
:1045A00050F0A37410F09083D01215EF900BFFE041
:1045B000240EF8A3E03400F9888289831215FB9059
:1045C0000BFFE02414F8A3E03400F9888289837497
:1045D00012F0900ABC74010240A7C082C083900C04
:1045E00011E02407F5D9900C01E0C4333354C044E2
:1045F00002F5D978FF790B88828983A3A3A3E0F51C
:10460000D988828983A3A882A983E864057003E915
:10461000640C70E3900C11E0601F78FF790BFAE8EE
:104620002413F582E93400F583E0F5D98882898383
:10463000A3A882A9831AEA70E675E1959010B37475
:1046400006F0A3740FF0A37406F0A3740FF0A37424
:1046500006F0A3740FF0A37406F0A3740FF0A37414
:1046600006F0A3740FF0A37406F0A3740FF0A37404
:104670000CF0A3740FF09010C17450F0A37410F0FC
:10468000A37450F0A37410F0A37450F0A37410F04E
:10469000A37450F0A37410F0A37450F0A37410F03E
:1046A000A37450F0A37410F09083D01215EF900B08
:1046B000FFE0240EF8A3E03400F988828983121504
:1046C000FB900BFFE02414F8A3E03400F988828902
:1046D000837414F0900ABC74040240A7C082C083A3
:1046E000900C11E02407F5D9900C01E0C433335449
:1046F000C04406F5D978FF790B88828983A3A3A3E8
:10470000E0F5D988828983A3A882A983E86405702B
:1047100003E9640C70E3900C11E0601F78FF790BE3
:10472000FAE82413F582E93400F583E0F5D98882AC
:104730008983A3A882A9831AEA70E6900C31E02449
:1047400007F5D9900C01E0C4333354C04404F5D9C3
:1047500078FF790B88828983A3A3A3E0F5D98882A7
:104760008983A3A882A983E864057003E9640C70B7
:10477000E3900C31E0601F78FF790BFAE82433F501
:1047800082E93400F583E0F5D988828983A3A88281
:10479000A9831AEA70E675E1959010B37400F0A34E
:1047A000740FF0A37450F0A37410F0A37450F0A32E
:1047B0007410F0A37450F0A37410F0A37450F0A31D
:1047C0007410F0A37450F0A37410F0A3740CF0A351
:1047D000740FF09010C17450F0A37410F0A37450D3
:1047E000F0A37410F0A37450F0A37410F0A37450ED
:1047F000F0A37410F0A37450F0A37410F0A37450DD
:10480000F0A37410F09083D01215EF900BFFE0240A
:104810000EF8A3E03400F9888289831215FB900B0F
:10482000FFE02414F8A3E03400F98882898374152A
:10483000F0900ABC74030240A7C082C083900BFFB3
:10484000E0F8A3E0F5838882A3A3A3A3A3A3E402D3
:1048500040A574F7121758900AEAE0F875F004A41E
:10486000C8AAF02AF974EC28F8740A39F9E8240582
:10487000FAE93400FB8A828B83E0FCA3E0FD8882A6
:104880008983A3A3A3A3A3A3A3A3A3ECF0A3EDF005
:1048900088828983A3A3A3A3A3A3A3E024FFF8A3EF
:1048A000E034FFF98A828B83E8F0A3E9024AF774C7
:1048B000F7121758EAFEEBFF9061D0E0600302495F
:1048C0008C75D90E75D90375D904EE248CF582EF59
:1048D0003400F583E5822408F8E5833400F9E0F537
:1048E000D9A3E865827003E9658370F2EE2484F54C
:1048F00082EF3400F583E5822404F8E5833400F97F
:10490000E0F5D9A3E865827003E9658370F275E18B
:10491000957908EE248CFAEF3400FB120FFC790431
:10492000EE2484FAEF3400FB120FFC7C00EEF8EF6B
:10493000F9ECFAC3E49AFA95E0FBEE2AFAEF3BFBB6
:10494000EA248BF582EB3400F583E0C0E0E824AB89
:10495000F582E93400F583D0E0F00C88828983A3E6
:10496000A882A983ECC3940840C7EE2470F582EFB7
:104970003400F583E0F8A3E0F9EE2472F582EF3419
:1049800000F583E8F0A3E9F0790180027900024A9A
:10499000F8C082C08375D90275D90375D90575E150
:1049A00095EA2470F582EB3400F583E0F8A3E0F992
:1049B000EA2472F582EB3400F583E8F0A3E9F0799C
:1049C000010240A874F6121758EAFEEBFF900C5A49
:1049D0007406F075085A75090C780812196B7C0179
:1049E0007903121044740212171775D90675D9038A
:1049F00075825A75830CE0F5D9A3E582645F700473
:104A0000E583640C70F075E195900ABCE064087071
:104A10001EEE2470F582EF3400F583E0F8A3E0F990
:104A2000EE2472F582EF3400F583E8F0A3E9F07923
:104A300001024BC474F6121758EAFEEBFF9061D0E6
:104A4000E070667801900C5A740BF0900ABCE06438
:104A500007701975085A75090C780812196B7C01D2
:104A6000790312104474021217177805740128F59F
:104A7000D975D90375825A75830CE8FAE0F5D9A384
:104A80001AEA70F875E195EE2470F582EF3400F5BE
:104A900083E0F8A3E0F9EE2472F582EF3400F583A9
:104AA000E8F0A3E9F0790180027900024BC474F7C1
:104AB000121758EAFEEBFF75D90375D90375D90DA6
:104AC000EE24DEF582EF3400F583E0F5D975E1954B
:104AD000790412115EEE2470F582EF3400F583E064
:104AE000F8A3E0F9EE2472F582EF3400F583E8F0E4
:104AF000A3E9F079018001F07F0102182A74F6120F
:104B00001758EAFEEBFF9061D0E0F87480C398FA82
:104B1000EE2483F582EF3400F583E06004780480AE
:104B2000027800E8240BF8EAC3985003024BC27DD8
:104B300009900C5AEDF0EE24E3F8EF3400F97A5BBB
:104B40007B0C7C0888828983E08A828B83F0888250
:104B50008983A3A882A9838A828B83A3AA82AB8339
:104B60001CEC70E0EE2483F582EF3400F583E06006
:104B70001D75085A75090C780812196B7C097903A0
:104B8000EEFAEFFB12104474021217177D0D740138
:104B90002DF5D975D90375825A75830C8D08E0F50A
:104BA000D9A31508E50870F675E195790412115E30
:104BB000EE241DF582EF3400F583E4F0A3F07901D3
:104BC000800279007F0202182A74F6121758EAFE52
:104BD000EBFF9061D0E0F87480C398FAEE2483F57F
:104BE00082EF3400F583E06004780480027800E806
:104BF0002408F8EAC3985003024CC97D06900C5A69
:104C0000740CF0900AD9E0900C5BF07ADA7B0A78A9
:104C10005C790C7C028A828B83E088828983F08AAB
:104C2000828B83A3AA82AB8388828983A3A882A96B
:104C3000831CEC70E07ADC7B0A7C028A828B83E046
:104C400088828983F08A828B83A3AA82AB8388823D
:104C50008983A3A882A9831CEC70E0EE2483F582EB
:104C6000EF3400F583E0601D75085A75090C78086B
:104C700012196B7C067903EEFAEFFB1210447402F2
:104C80001217177D0A74012DF5D975D90375825A4B
:104C900075830C8D08E0F5D9A31508E50870F67545
:104CA000E195790412115EEE2470F582EF3400F57F
:104CB00083E0F8A3E0F9EE2472F582EF3400F58387
:104CC000E8F0A3E9F0790180027900024BC474F6A0
:104CD000121758EAFEEBFF9061D0E0F87480C39899
:104CE000FAEE2483F582EF3400F583E06004780463
:104CF00080027800E82404F8EAC3985003024DA823
:104D00007802900C5AE8F0EE24F5F582EF3400F5C5
:104D100083E0900C5BF0EE2483F582EF3400F583A2
:104D2000E0601B75085A75090C780812196B7C0233
:104D30007903EEFA12104474021217177806740100
:104D400028F5D975D90375825A75830C8808E0F562
:104D5000D9A31508E50870F675E195EE2474F5827F
:104D6000EF3400F583E4F0EE2480F582EF3400F5B3
:104D700083E4F0EE241DF582EF3400F583E4F0A324
:104D8000F0790412115EEE240DF582EF3400F58304
:104D9000E0F8A3E0F9EE2472F582EF3400F583E841
:104DA000F0A3E9F0790180027900024BC474F61295
:104DB00017589061D0E0F87480C398FCEA2483F51A
:104DC00082EB3400F583E06004780480027800E828
:104DD0002404F8ECC398405B7902900C5A7407F0F5
:104DE000EA24F6F582EB3400F583E0900C5BF0EA00
:104DF0002483F582EB3400F583E0601875085A755A
:104E0000090C780812196B7C020912104474021202
:104E100017177906740129F5D975D90375825A7562
:104E2000830CE9F8E0F5D9A318E870F875E19579F5
:104E30000180027900024BC474F5121758E9FCA2F4
:104E4000AFE433F50AC2AF7D0080010DEA246FF5AF
:104E500082EB3400F583E0F8EDC398501A8D08EA30
:104E60002508F8EB3400F9E8246BF582E93400F505
:104E700083E06C70D68024EA246FF8EB3400F9E00C
:104E8000FEEA2EFAEB3400FBEA246BF582EB3400E9
:104E9000F583ECF088828983E004F0E50AA2E092D1
:104EA000AF7F0302182A74F6121758A2AFE433FD3D
:104EB000C2AFEA246FF582EB3400F583E014F07C96
:104EC0000060368C08EA2508F8EB3400F9E8246C19
:104ED000F582E93400F583E0C0E0E8246BF582E96F
:104EE0003400F583D0E0F00CEA246FF582EB340057
:104EF000F583E0F8ECC39840CAEA246EF582EB34FF
:104F000000F58374FFF0EA246AF582EB3400F58340
:104F1000E4F0EDA2E092AF024BC4C082C083E5A8EA
:104F2000F8C2AFEA246BF582EB3400F583E9F0EACE
:104F3000246AF582EB3400F583E4F0E8A2E792AF4F
:104F40000240A874F3121758EAFEEBFFECFAEDFBEF
:104F50008A828B83A3A3A3A3E0541FF0EE2436F52B
:104F600082EF3400F583E4F0F50AEEFCEFFD8A826F
:104F70008B83E0C0E0EC245DF582ED3400F583D056
:104F8000E0F0750B00E50A33333354F8F50C8A82F0
:104F90008B83E0F508750900E50B78081216CFE55C
:104FA00008A2E0502FEE2436F8EF3400F988828909
:104FB00083E0F508EE2508F508EF3400F509E5086B
:104FC0002438F582E5093400F583E50CF088828900
:104FD00083E004F0050B050CE50BC3940840AF0516
:104FE0000A8A828B83A3AA82AB838C828D83A3AC33
:104FF00082AD83E50AC394055003024F6E7F05021C
:10500000182A74F7121758900AE8E0640170077ABA
:10501000007B000251797E00900AEEE070F174018D
:10502000F0A3E4F0A3F0900B4E04F0900B51E4F0E9
:10503000A3F0900B5404F0900AF1E4F0A3F0A3F075
:10504000A3F0900AFB04F0900B21E4F09083F81297
:1050500015EF900B041215FB900B08E4F0A3F0A3DE
:10506000F0900B6CF0900B60F0900B557480F0A3F7
:10507000E4F0900B5BF0900B53F0900BD7F0A3F0A3
:10508000A3F0A3F0A3F0A3F0A3F0A3F0900BE0F043
:10509000900B6FF0900BBFF0A3F09083F81215EF18
:1050A000900BC11215FB9083F81215EF900BC512EF
:1050B00015FB900BCBE4F0900BCDF0900BC9F0906A
:1050C0000BE3F0A3F0A3F0A3F0A3F0A3F0A3F0A3ED
:1050D000F078E8790AE8246FF582E93400F5837402
:1050E000FFF00E88828983A3A882A983EEC394046B
:1050F00040E37AE87B0A78F7790B88828983E0C0FD
:10510000E0EA2461F582EB3400F583D0E0F0888298
:105110008983A3A882A9838A828B83A3AA82AB8373
:10512000E864FC7003E9640B70D07AE87B0A78CFFE
:10513000790A88828983A3E0C0E0EA24E7F582EB5C
:105140003400F583D0E0F088828983A3A882A98304
:105150008A828B83A3AA82AB83E864D77003E96455
:105160000A70CF900AE8E004F064017008900AF039
:10517000E0900AEAF07AEC7B0A024AF8C082C08327
:10518000900AEFE4F0900AEEF0900AE8F0A3F0A3A2
:1051900074FFF075E1F10240A8C082C08378007905
:1051A00000900AEFE0600478EC790A88828983A392
:1051B000A3A3A3E0F90240A874F6121758EAFEEB85
:1051C000FF8E828F83A3A3A3E0600F8E828F83A3C1
:1051D000A3A3E4F0900AE9E014F0900AE8E014F0E8
:1051E0007006900AEA74FFF08E828F83A3A3E4F026
:1051F000900BFCE0700D900AE9E064017005790005
:10520000121140EE2465F582EF3400F583E0F8A337
:10521000E0F9E8496029EE2465F8EF3400F98808E0
:1052200089098882F583E0FCA3E0FD900AEAE0FAB0
:105230007B00120D14850882850983E4F0A3F0EE4B
:10524000FAEFFB121074024BC474F7121758EAFEFF
:10525000EBFF8E828F83A3A3A3A3E0FA7B00120D42
:1052600056EEFAEFFB120FC612105C024AF8C0822B
:10527000C08378CF790A88828983A3E4F088828901
:1052800083A3A882A983E864D77003E9640A70E65F
:10529000900AD00245D574F6121758EAFEEBFFECDF
:1052A0002403F8ED3400F988088909EC2407F8EDA7
:1052B0003400F9E8FCE9FD8C828D83E0F8A3E0F985
:1052C000850882850983E0FAA3E0FB121676EE24B6
:1052D0000DF582EF3400F583E8F0A3E9F08C828DC0
:1052E00083E0F8A3E0F9850882850983E0FAA3E06A
:1052F000FB1216768B09EA45096013EE240DF58240
:10530000EF3400F583E02401F0A3E03400F0024B19
:10531000C474F6121758EAFEEBFFEE242EF582EF66
:105320003400F583E0FCA3E0FD780079FAECFAEDB7
:10533000FB121676EE2470F582EF3400F583E8F068
:10534000A3E9F0780079FAECFAEDFB1216768B09F6
:10535000EA45096013EE2470F582EF3400F583E02E
:105360002401F0A3E03400F0024BC474F01217588B
:10537000EAFEEBFF741012174C78081215D11210C8
:10538000FE8A0C8B0D8C0E8D0F9083C8780C121535
:105390005D908400780C1215AB780C1219678E8220
:1053A0008F83E0F8A3E0F5838882A3A31215EF12A0
:1053B00023D67404121717E960030254B88E828F43
:1053C00083E02402F8A3E03400F9E8FAE9FB8A82DA
:1053D0008B83780812157090840078081215D18A92
:1053E000828B8378081215BEEE240BF582EF340011
:1053F000F583C082C0838E828F83A3A3A3A3A3E07F
:105400002401F8A3E03400F9D083D082E06870036F
:10541000A3E069700579010254BA8E828F83A3A339
:10542000A3A3A3A3A3E02401F0A3E03400F0EE249F
:1054300074F582EF3400F583E064017036EE247574
:10544000F582EF3400F583E0F8A3E0F98E828F83D4
:10545000A3A3A3A3A3A3A3E0687003A3E0697013AD
:10546000EE2475F582EF3400F583E02401F0A3E02B
:105470003400F0EE2480F582EF3400F583E064011F
:105480007036EE2481F582EF3400F583E0F8A3E076
:10549000F98E828F83A3A3A3A3A3A3A3E0687003C1
:1054A000A3E0697013EE2481F582EF3400F583E008
:1054B0002401F0A3E03400F079007F0802182A7478
:1054C000F7121758900AEAE0F875F004A4C8AAF099
:1054D0002AF974EC28FE740A39FF8028EE2465F856
:1054E000EF3400F988828983E0FCA3E0FD8882899B
:1054F00083E4F0A3F08E828F83A3A3A3A3E0FA7BBF
:1055000000120D14EE2465F582EF3400F583E0F807
:10551000A3E0F9E849604FEE2464F582EF3400F52A
:1055200083E0F508780812196FEE2463F582EF34F2
:1055300000F583E0F9EE2465F582EF3400F583E0B1
:10554000FCA3E0FDEEFAEFFB120FF0740112171747
:10555000E96089EE2465F582EF3400F583E0F8A375
:10556000E0F9E84970137C007D008E828F83A3A34D
:10557000A3A3E0FA7B00120D14024AF874F212178A
:1055800058EAFEEBFF890A740E12174CE0FAEE247B
:1055900062F582EF3400F583E0640160030256484F
:1055A0009061D0E0F87480C398F50CEE2483F58206
:1055B000EF3400F583E06004780480027800890805
:1055C000E928F8E43400F9E824020808E93400F98D
:1055D000E50C98E499A2D265D0334068EA7005756D
:1055E0000B028003750B01E0603975090078081221
:1055F000196B7A5A7B0C1210267402121717750851
:105600005A75090C780812196BAC0AA90BEEFAEF5F
:10561000FB12104474021217177404250AF50A7C51
:105620005A7D0C7401250AF5D9850BD9E50A600D60
:105630008C828D83F8E0F5D9A318E870F875E195B0
:10564000790080067907800279FF7F0602182AC058
:1056500082C083E960208C828D83E08A828B83F014
:105660008C828D83A3AC82AD838A828B83A3AA8232
:10567000AB8319E970E0ECFAEDFB0240A874EA1282
:105680001758907803E06442705E900C59E014F073
:105690007056C2AF12569700782AD0E0F618D0E0C4
:1056A000F6E59F5407F970059083C080039083BC92
:1056B00078081215D1E9C4C0E07829E65508F50844
:1056C00008E65509F509740B78081216DFD0E025B5
:1056D00008F8906270E0A2E740F8E8C33390627285
:1056E000F0906270E0D2E0F0900AEAE0F470030219
:1056F0005AA0E0F875F004A4C8AAF02AF974EC28BE
:10570000FE740A39FFEE2402F582EF3401F583E0DE
:10571000F8A3E0F9E849601EEE2402F582EF3401B7
:10572000F583E0FAA3E0FBEE2401F582EF3401F506
:1057300083E0F912042C8E828F83A3A3A3A3A3A3D7
:10574000A3E0F8A3E0F98E828F83A3A3A3A3A3E829
:10575000F0A3E9F0906054E0900AC3F0906055E047
:10576000900AC4F0906056E0900AC5F0906057E04F
:10577000900AC6F0906058E0900AC7F0906059E037
:10578000900AC8F090605AE0900AC9F090605BE01F
:10579000900ACAF090605CE0FC900ACBF090605DEB
:1057A000E0FB900ACCF090605EE0FD900ACDF090B6
:1057B000605FE0FA900ACEF0900AC9E08C082508F4
:1057C000F8E43400F98D08E82508F8E93400F98B8D
:1057D00008E82508F8E93400F98A08E82508FAE914
:1057E0003400FBEE24F7F582EF3400F583E02AF075
:1057F000A3E03BF08C08EE24F9F582EF3400F5834A
:10580000E02508F0A3E03400F0EE24FBF582EF344D
:1058100000F583E02401F0A3E03400F0EE24FFF56E
:1058200082EF3400F583E0F8A3E0F9E849604290A4
:105830006000E0C333FCE433FDE82CF582E93DF57C
:1058400083E02AF0A3E03BF0906000E0FA900ACBFE
:10585000E0FCEAC333FAE433FBE82AF8E93BF9E871
:10586000244AF582E93400F583E02CF0A3E034000B
:10587000F0900AC9E07011900ACCE0700BA3E070C0
:1058800007A3E070030259808E828F83A3A3A3A392
:10589000A3E0F8A3E0F9EE240DF582EF3400F583E0
:1058A000E028F8A3E039F9EE240BF582EF3400F597
:1058B00083E8F0A3E9F0EE240FF582EF3400F583DE
:1058C000E4F0EE241CF582EF3400F583E06401700F
:1058D0001EEE2420F582EF3400F583E0F8A3E0F912
:1058E000EE241DF582EF3400F583E8F0A3E9F09093
:1058F0000AC4E06052EE241CF582EF3400F5837494
:1059000001F0EE246AF582EF3400F583E07038EEA2
:105910002474F582EF3400F583E0702BEE2480F5DB
:1059200082EF3400F583E0701EEE2420F582EF3420
:1059300000F583E0F8A3E0F9EE241DF582EF3400D2
:10594000F583E8F0A3E9F0906062E07003025A3357
:105950008E828F83E0F8A3E0F9E82406FCE93400A6
:10596000FDE82402FAE93400FB1210F88E828F83DE
:10597000E02412F8A3E03400F988828983025A3DBA
:10598000900ACBE0603AEE240FF582EF3400F58305
:10599000E4F0EE241CF582EF3400F583E06401703E
:1059A00040EE2420F582EF3400F583E0F8A3E0F91F
:1059B000EE241DF582EF3400F583E8F0A3E98020A2
:1059C000EE24FDF582EF3400F583E02401F0A3E03E
:1059D0003400F0EE241DF582EF3400F583E4F0A3EB
:1059E000F0EE240BF582EF3400F583E0F8A3E0F944
:1059F0008E828F83A3A3A3A3A3E0687003A3E069AF
:105A000060030258EFEE240FF582EF3400F583E0D7
:105A100060128E828F83A3A3A3A3A3E06405700208
:105A2000A3E0600B7908EEFAEFFB120FCC807179DE
:105A30003E80F3EE241DF582EF3400F583E4F0A3FD
:105A4000F0906060E0C0E0EE2469F582EF3400F58C
:105A500083D0E0F0900AC9E0F8EE2467F582EF34D5
:105A600000F583E028025BA0900C57E064017035DC
:105A70001211ACEE2467F582EF3400F583E0700676
:105A80009060607480F0EEFAEFFB1210B6E96401EA
:105A9000600E120FEA1210B0E96401600312105C8C
:105AA0007F0E02182AEE2483F582EF3400F583E09E
:105AB0006004780480027800E50CC398F9120D08A0
:105AC0008A0A8B0BEA450B60A7EE2483F582EF343C
:105AD00000F583E070048A088B09E50C60128508E4
:105AE00082850983F512E5D9F0A31512E51270F647
:105AF000EE2483F582EF3400F583E0603774FC25F3
:105B00000CF50C780812196BAC0CA90DEEFAEFFB32
:105B100012104A7402121717E970197403650D7098
:105B200003025BE0E50A24FBFAE50B34FFFB1204F9
