:020000040000FA
:0600000002011D021F0BAE
:03002B00021A9D19
:03003B00021AE8BE
:03004300021A742A
:03005300021F7E0B
:03006B00021AB9BD
:10008300021DBFE5C754F84401F5C77901220000FA
:100093000080FB120086B90003020107E47921788E
:1000A30008B800028004F709D8FCE479297802B87B
:1000B30000028004F709D8FCE49002817870790982
:1000C3008002F0A3D8FCD9FA781A90014D7A01BACC
:1000D30000028007E493A3F608DAF9900AF0AA82F3
:1000E300AB8390014E787579038015E493A3AC82BA
:1000F300AD838A828B83F0A3AA82AB838C828D83A8
:10010300D8E9D9E77582A87583B1740312012F75F5
:100113008291758300740012012F75D00075813FA1
:10012300751881751902759F00020096C09FF59F8F
:10013300E473D09F22D083D082C09FE493C0E07445
:100143000193C0E0740293F59F2201FFFF1101990F
:10015300010F126404010296840100006884029274
:1001630084010000F70A027484010000F80A028E79
:1001730084030000A702028084010000F90A01E859
:1001830003053F1012446F2053796E630000000093
:1001930000000000000008415050205365742043C4
:1001A3006C6F636B0000000002446174612048655A
:1001B3006164657200000000000002446174612004
:1001C300426F647900000000000000000296840181
:1001D30000006B84029284010000290B027C8403DB
:1001E300000044050290840100002A0B029284015E
:1001F30000003B0B027A8402000045050290840153
:1002030000003C0B0292840100004D0B0278840134
:10021300000049050290840100004E0B0292840104
:1002230000005F0B0276840100004B05028E8403FD
:1002330000004C05029084010000600B00000000E8
:1002430000000000000000000000000000000000AB
:1002530000000000FF0001307503020106000000EA
:10026300000000000000000000000000000000008B
:10027300000000000000000000FFFF0600800CE803
:10028300031109416464696E672041312D303030B8
:1002930030303005125000A000020A0002010603AC
:1002A3000200230F18416464696E672041312D30C9
:1002B300303030303000000000001E0800002A08F3
:1002C300FF0000B4000028002800283075A000A01B
:1002D30000A000A00000080008E001F000100010DA
:1002E30000100010001000100050005000500010CB
:1002F300001000D0070000000000000F00010005FF
:1003030000307507001000010081FF0000FF340A70
:10031300520A3A0AFF02020208025000A00000003B
:10032300E8030296840100006284029284010000C3
:10033300BA0C028C8401000047060292840100007B
:10034300BB0C028A840100005D0602928401000056
:10035300BC0C0288840100005F0602928401000045
:10036300BD0C02868408000060060292840100002E
:10037300BE0C028484010000BF0CFF0100FF2002B9
:1003830096840100005F84029284010000230D0221
:1003930082840000000000028E84030000AD061674
:1003A300101610161016101610161016101610161A
:1003B300101610161016101610A412BC129E12124C
:1003C3000138BDB602120138C7B60212013808B7A8
:1003D3000212013851B7021201388BB702120138E9
:1003E300E1B70212013802B802120138B1BA02129F
:1003F3000138BABA021201380EBB0212013837BBF8
:100403000212013841BB02120138AFBB021201389C
:100413003FBC021201389ABC02120138C8BC021256
:10042300013850BD021201388FBD02120138C4BD1C
:1004330002120138D6BD02120138F5BD021201388D
:10044300FEBD02120138C5BE02120138AA9603127C
:100453000138A19703120138BB9703120138CC97D7
:1004630003120138DE990312013881A10312013806
:10047300B7A103120138EBA10312013838A3031209
:100483000138ADAF03120138C3AF03120138CDAF4A
:100493000312013817B00312013849B103120138AE
:1004A30075EB0212013888EB0212013849EC021293
:1004B300013888EC02120138A5EC02120138DEEC97
:1004C300021201382BED021201385DED02120138E0
:1004D30094ED021201389DEF0212013809F0021265
:1004E300013876A80312013899A803120138C8A865
:1004F3000312013860A903120138A2A903120138BB
:10050300D3FC0212013803FD0212013816FD021258
:10051300013845FD021201385CFD0212013808FE64
:1005230002120138A1FE021201382AFF0212013819
:10053300EBA903120138F9A903120138FCA903122C
:10054300013877AA03120138C7AA0312013803AB93
:1005530003120138D5B20312013800B20312013875
:100563009C84011201387A8601120138198801121C
:100573000138C48801120138448901120138C9893C
:1005830001120138F28901120138CD8D01120138AF
:10059300448E011201385B8F01120138958F0112CD
:1005A3000138D68F011201381D9101120138739160
:1005B30001120138BC91011201382B92011201384A
:1005C300979201120138C89201120138E092011288
:1005D3000138F99301120138099401120138BF95CA
:1005E30001120138D695011201380896011201381B
:1005F300AA97011201383E9801120138F1AE031295
:10060300013802AF03120138A2AF0312013856B208
:100613000312013895B2031201386EB30312013885
:1006230028AE0312013838AE0312013850AE03125C
:100633000138E4AE031201384FAC03120138D4ACD5
:100643000312013838AD03120138FFB20312013827
:10065300EB7F001201380080031201382D80031252
:1006630001389F8003120138B48003120138D58109
:1006730003120138588203120138D1820312013860
:10068300F0820312013813830312013850830312DB
:100693000138688303120138BE8303120138B7F8A7
:1006A30002120138CEF80212013848F90212013859
:1006B3002CFA0212013803FC0212013868FC021200
:1006C3000138BFFC02120138F87F001201384D9F38
:1006D30003120138D7A00312013838A103120138DD
:1006E3007EA103120138B08B031201384B8C031225
:1006F3000138E98C03120138E18D03120138938E1E
:1007030003120138BB8E03120138C98E031201385C
:100713003E8F03120138528F031201385C8F03128C
:1007230001385F8F03120138A48F03120138C18F80
:1007330003120138659003120138B990031201388E
:10074300AC9103120138D49203120138DEA60312CE
:10075300013830A703120138A3A70312013810A8E8
:1007630003120138A47D00120138CE7D0012013836
:100773009D7E00120138797F00120138F3BE021208
:100783000138BFBF0212013800C0021201383AC05B
:100793000212013898C002120138ECC0021201386B
:1007A3004AC102120138E0C102120138E8C2021242
:1007B300013872C40212013810C50212013877C51C
:1007C300021201388AC5021201387EC602120138AC
:1007D300C7C602120138E3F20112013815F60112FD
:1007E3000138A6F701120138FDF7011201381AF892
:1007F300011201389AF80112013816FA0112013870
:10080300E5FA0112013852FE011201383CFF0112D0
:10081300013829C702120138DECA02120138A7CBF8
:1008230002120138C2CC0212013808CD021201387B
:1008330052CE021201382BA50312013842A503122E
:10084300013871A503120138AAA503120138D2A5F4
:100853000312013800A60312013817A60312013848
:100863002EA60312013844A6031201386BA6031205
:1008730001387EA60312013894A603120138A7A6F5
:1008830003120138CCA60312013811A40212013855
:1008930010A50212013845A50212013866A50212FD
:1008A300013876A50212013897A502120138A3A6D2
:1008B3000212013870A702120138E3A702120138AD
:1008C30069A802120138ACA802120138E3A8021287
:1008D300013869A9021201383BAA0212013899AA08
:1008E30002120138B1AA021201382BAB02120138ED
:1008F3002EAB0212013831AB02120138D8AB02120F
:100903000138F0AB0212013820AC0212013840ACBE
:10091300021201382EAD02120138E4AD0212013881
:10092300CDE602120138F5E60212013823E702127E
:1009330001385AE702120138C2E7021201380BE804
:100943000212013856E80212013894E80212013803
:10095300D1E802120138FFE802120138A6E90212B7
:100963000138B0E902120138BDE902120138F0E999
:1009730002120138B2EA02120138BEEA0212013849
:10098300D6EA02120138E0EA0212013851AD03122D
:1009930001385FAD0312013877AD031201388FAD13
:1009A300031201382DAC01120138CBAC011201380E
:1009B30043AD0112013858AE0112013892AE011253
:1009C30001383BAF0112013810B00112013874B184
:1009D30001120138CBB10112013852B201120138B0
:1009E30039B30112013886B30112013814B401126C
:1009F300013838B4011201380DB6011201384EB670
:100A03000112013870B601120138F1B60112013832
:100A1300DBB701120138A1B801120138F1D5021276
:100A23000138C3D6021201386CD702120138AFD78E
:100A3300021201383CD802120138C8D80212013818
:100A4300A9D902120138D8D902120138D4DA021214
:100A530001381CDB021201381EDC0212013862DC91
:100A63000212013888DC0212013843B00312013844
:100A7300DF8703120138F587031201381B8803123D
:100A830001384389031201384D8903120138A68ABC
:100A930003120138A68B03120138FDDC0212013860
:100AA30032DE0212013865DE02120138AFDE0212B5
:100AB30001386DE002120138476E00120138AA6E48
:100AC30000120138EF6F00120138FF6F0012013876
:100AD3002270001201386D70001201381271001279
:100AE3000138087200120138D272001201384A74B8
:100AF300001201388C74001201382A750012013873
:100B03007775001201389D75001201388B7700123A
:100B13000138907700120138717900120138C579D4
:100B230000120138277A001201384F7A0012013877
:100B3300F37A00120138B57B00120138E67B00120C
:100B43000138E97B00120138317C00120138737CD3
:100B530000120138DA7C00120138F79C03120138C5
:100B63000A9D03120138239D031201386E9D03125F
:100B73000138499E03120138D89E03120138239F7E
:100B8300031201381026001201381C260012013806
:100B93005526001201389A260012013851270012F7
:100BA3000138D727001201383C2800120138682881
:100BB30000120138A12800120138B52A00120138A9
:100BC300912C001201387C2E00120138B32F001231
:100BD3000138133200120138FF3200120138453454
:100BE300001201385235001201386F3500120138F6
:100BF300A73500120138C135001201382936001219
:100C03000138C33A00120138643B00120138B53B86
:100C130000120138DC3B001201382A3C0012013873
:100C2300483C001201389C3C00120138753D00120B
:100C33000138FC3E00120138843F0012013823E2E0
:100C4300021201382DE202120138F8E202120138D1
:100C530013E30212013839E3021201387DE3021271
:100C63000138B5E302120138DEE30212013857E41A
:100C7300021201386CE40212013881E402120138D5
:100C8300B8E402120138CCE402120138FDE4021286
:100C9300013837E50212013863E502120138B9E57C
:100CA300021201380DE60212013856E6021201382B
:100CB30080E602120138A5E602120138F38303121B
:100CC3000138BD8403120138A0850312013816864A
:100CD300031201385886031201388587031201383D
:100CE3000080021201382980021201384280021268
:100CF3000138878102120138658202120138848229
:100D0300021201381183021201385483021201388E
:100D1300A18402120138408502120138BF870212F2
:100D230001385688021201382A89021201380C8AC6
:100D330002120138788B021201380B8C021201382F
:100D43003AAB03120138A3AB03120138F7AB03121A
:100D530001381EAC0312013816F00212013883F079
:100D630002120138CEF002120138C3F10212013827
:100D7300BFF202120138A9F3021201384FAE021278
:100D8300013891AE021201386BAF0212013844B040
:100D9300021201383FB1021201381EB202120138A9
:100DA3008AB20212013851B302120138BCB30212E3
:100DB300013823B4021201384EB402120138BFB411
:100DC3000212013852B502120138BBB502120138C2
:100DD300D0B50212013818B60212013831B6021228
:100DE300013896B60212013899B602120138FD99FC
:100DF30003120138259A03120138639A031201384A
:100E0300219B031201388C9B03120138A89B031208
:100E13000138D09B03120138009C031201380F9C48
:100E230003120138899C03120138AF9C0312013865
:100E330054C90112013831CB011201382CCD0112F2
:100E43000138FFCD011201384ACE0112013895CE87
:100E530001120138A7CE01120138E7CE0112013881
:100E63001CCF0112013868CF0112013897CF01124C
:100E73000138BACF0112013807D00112013890D0DE
:100E8300011201389DD20112013888D401120138B0
:100E9300CBD40112013830D60112013871D60112B8
:100EA3000138E4D60112013830D7011201385BD77B
:100EB30001120138828C02120138AD8C0212013802
:100EC300949302120138B8950212013873970212F3
:100ED3000138D09802120138EB3F001201388240EA
:100EE30000120138AF4000120138F54000120138FA
:100EF300344200120138CB4300120138454400123A
:100F03000138604400120138D54400120138044608
:100F1300001201385F47001201386148001201389E
:100F2300BE4900120138D74900120138344A001271
:100F33000138164B00120138494B00120138B94BE6
:100F430000120138334C00120138824C0012013870
:100F53004E4D00120138534E00120138324F001229
:100F63000138BD4F001201382B50001201389F5039
:100F730000120138C850001201388751001201389D
:100F83000153001201381E53001201383D53001261
:100F93000138CE5300120138F353001201381B54A9
:100FA30000120138965400120138F054001201382F
:100FB300445600120138015700120138D457001269
:100FC300013885D701120138D5D701120138E1D78D
:100FD30001120138BED801120138EED801120138CE
:100FE30026D901120138A5D901120138DDD9011220
:100FF30001382FDA011201386CDA0112013891DC61
:1010030001120138BDDE01120138B8E001120138C6
:1010130093E201120138EE7F001201387C9801122D
:101023000138C69801120138A59E0112013826A085
:101033000112013885A60112013880A70112013877
:10104300BDA701120138E0A70112013822A801123D
:1010530001382BA80112013835A80112013821A942
:101063000112013815AA0112013802580012013881
:101073007A62001201388062001201388C69001212
:1010830001380D9303120138A39303120138B99366
:10109300031201383394031201388994031201387F
:1010A300C79403120138249503120138A195031242
:1010B3000138AA9503120138B69503120138C99570
:1010C300031201380596031201381B9603120138E7
:1010D3007A96031201386BF40212013878F4021283
:1010E300013892F402120138D1F4021201380FF5DB
:1010F3000212013874F50212013889F5021201381F
:1011030094F502120138A1F502120138B8F5021262
:101113000138C6F502120138D1F502120138DDF5A6
:1011230002120138ECF502120138F7F50212013808
:101133001AF602120138C3F602120138D3F602126C
:101143000138EDF6021201380AF70212013826F7C8
:10115300021201384BF70212013855F70212013817
:1011630069F70212013888F702120138E9F702120F
:101173000138EFF702120138F5F702120138FBF7D5
:101183000212013807F8021201383AF80212013844
:1011930059E501120138DBE50112013884E6011239
:1011A3000138CCE701120138DAE901120138C0EA4B
:1011B30001120138F5EA0112013817EB0112013867
:1011C300C0EB0112013890ED01120138B9ED0112A3
:1011D300013831EE0112013863EE0112013870EE6D
:1011E30001120138BBEE01120138DFEE01120138A2
:1011F30030F1011201383AF20112013896F201126C
:101203000138D6BA01120138E7BB01120138CBBC51
:1012130001120138D5BC01120138F7BC01120138A3
:1012230003BD01120138A7BE01120138D4BE011259
:101233000138EABF011201383FC0011201388EC1E3
:101243000112013863C201120138BFC20112013811
:101253002AC3011201385FC301120138A2C301126C
:1012630001386CC60112013884C60112013815C752
:101273000112013823C70112013870C70112013866
:101283007EC701120138EAC70112013865C801128D
:101293000138BCC801120138F398021201381599BC
:1012A30002120138269B02120138E59D0212013811
:1012B3000F9F02120138CD9F02120138B9A002120A
:1012C300013872A30312013897A3031201380DA446
:1012D30003120138D4CE02120138DDCE02120138D6
:1012E300E6CE02120138BECF021201386FD10212CC
:1012F30001389FD102120138CAD102120138FAD142
:101303000212013825D20212013859D202120138D1
:1013130085D202120138C8D202120138F3D2021266
:1013230001383AD3021201388FD302120138D1D3D4
:10133300021201382BD40212013856D4021201389A
:10134300A5D402120138D5D40212013800D50212F5
:1013530001382ED50212013851D502120138CCB012
:1013630003120138F8B00312013825B10312013812
:101373002FB1031201383FB103120138D2FF01121A
:1013830001389FB20312013828B30312013850B356
:1013930003E066701008A3E066700A08A3E06670B5
:1013A3000408A3E06622C3E7960809E7960809E75D
:1013B300960809E79622C3E09608A3E09608A3E0FF
:1013C3009608A3E09622C008C3E096F50808A3E0B8
:1013D30096420808A3E096420808A3E096450870E1
:1013E30001D3D00822080808EAC0E0EBC0E086F089
:1013F300E7A4FA180986F0E7A42AFA180986F0E7A1
:10140300A42AFA180986F0E7A42AFA1986F0E7A4B1
:10141300FBE5F02AFA190886F0E7A42BFBE5F03A7E
:10142300FA190886F0E7A42BFBE5F03AFA18180935
:1014330086F0E7A4C5F02BFBE43AFA1908E7C5F0F8
:10144300C6A426F6E5F03BFBE43AFA1886F0E7A4D7
:10145300F6E5F00826F6E43B08F6E43A08F6D0E0B1
:10146300FBD0E0FA22E4CFC0E0E4CEC0E0E4CDC09C
:10147300E0E4CCC0E075F020C3E633F608E633F6CB
:1014830008E633F608E633F6181818EC33FCED33A8
:10149300FDEE33FEEF33FFC3EC9709ED9709EE97AB
:1014A30009EF97191919400FFFEC97FC09ED97FD08
:1014B30009EE97FE191906D5F0BEECF709EDF70909
:1014C300EEF709EFF7191919D0E0FCD0E0FDD0E0F1
:1014D300FED0E0FF226016080808C6C313C618C66C
:1014E30013C618C613C618C613C6D5E0EA22700978
:1014F300080808226016181818C6C333C608C6336E
:10150300C608C633C608C633C6D5E0EA22E627F6C0
:101513000809E637F60809E637F60809E637F6223A
:10152300E026F608A3E036F608A3E036F608A3E0C3
:1015330036F622E026F008A3E036F008A3E036F002
:1015430008A3E036F022C3E697F60809E697F60803
:1015530009E697F60809E697F622C3E096F008A392
:10156300E096F008A3E096F008A3E096F022E05698
:10157300F608A3E056F608A3E056F608A3E056F6ED
:1015830022E056F008A3E056F008A3E056F008A3C3
:10159300E056F022E0F608A3E0F608A3E0F608A37D
:1015A300E0F622E6F008A3E6F008A3E6F008A3E6D7
:1015B300F022E0FAA3E0FBA3E0FCA3E0FD22EAF0C3
:1015C300A3EBF0A3ECF0A3EDF022CAC0E0E6F0A396
:1015D30008DAFAD0E0FA22CAC0E0E0A3C582CCC59B
:1015E30082C583CDC583F0A3C582CCC582C583CD17
:1015F300C583DAE6D0E0CA22C3E498F8E499F91285
:10160300163C8026C3E49AFAE49BFBE920E7E9123F
:10161300163CE498F8E499F922C3E498F8E499F9BC
:1016230012163CE498F8E499F9C3E49AFAE49BFBB4
:1016330022EB20E7CFE920E7E0B90010BB0008E880
:101643008AF084F8AAF022E4FBC8FA22EB70227B2A
:1016530010C833C8C933C9335007C39AC3DBF280F8
:10166300069A50012ADBEAC833F4C8C933F4C9FA2D
:101673002275F008E4C833C8C933C933C99AC99B72
:101683005004C92AC93BD5F0ECFBC833F4C8E4C9FC
:10169300FA22600D08C6A2E713C618C613C6D5E022
:1016A300F322600C08C6C313C618C613C6D5E0F4EC
:1016B30022700422600D18C6C333C608C633C6D5CC
:1016C300E0F41822251810AF08F518400215198008
:1016D30008F51840021519D2AF22C0D0251810AF53
:1016E30008F518500205198008F51850020519D29B
:1016F300AFD0D0222518F58210AF08F51840021597
:10170300198008F51840021519D2AF8519832225CF
:1017130018F582E43519F58322E4732518C582C0D0
:10172300E0E51934FFC583C0E0E518C3958224F8CA
:1017330010AF0885831985821880088583198582EF
:1017430018D2AFCEF0A3E520F0A37808E608F0A303
:10175300DEFAEFF0A3E58124FAF8E608F0A3E60841
:10176300F0A3E608F0A30808E608F0A3E608F0A350
:1017730015811581D0E0FED0E0F815811581158122
:10178300E8C0E0EEC0E0222518C582C0E0E51934C8
:10179300FFC583C0E0E518C3958224F910AF08851F
:1017A30083198582188008858319858218D2AFCE64
:1017B300F0A3E520F0A37808E608F0A3DEFAEFF043
:1017C300A3E58124FBF8E608F0A3E608F0A30808E4
:1017D300E608F0A3E608F0A315811581D0E0FED05A
:1017E300E0F815811581E8C0E0EEC0E02285198399
:1017F300851882E0A3FEE0A3F5207808E0A3F608AD
:10180300DFFAE0A3FFE0A3C0E0E0A3C0E0E0A3C0F1
:10181300E0E0A3C0E0E0A3C0E010AF088582188534
:1018230083198008858218858319D2AFD083D0822B
:10183300020135851983851882E0A3FEE0A3F52014
:101843007808E0A3F608DFFAE0A3FFE0A3C0E0E036
:10185300A3C0E0E0A3C0E0E0A3C0E010AF0885822E
:10186300188583198008858218858319D2AFD083A0
:10187300D08222C0D02518C582C0E0E51934FFC547
:1018830083C0E0E518C3958224F310AF088583195C
:101893008582188008858319858218D2AFC8F0A382
:1018A300E9F0A3EAF0A3EBF0A37908E709F0A3D8E2
:1018B300FAECF0A3EDF0A3EEF0A3EFF0A3D0E0F089
:1018C300A3D0E0F0A3D0E0F0A3E520F0A3E5F0F08F
:1018D300A322851983851882E0C0E0A3E0F9A3E081
:1018E300FAA3E0FBA37808E0F608A3DFFAE0FCA381
:1018F300E0FDA3E0FEA3E0FFA3E0C0E0A3E0C0E0BF
:10190300A3E0F5D0A3E0F520A3E0A3F5F010AF0822
:101913008583198582188008858319858218D2AF3B
:10192300D082D083D0E0F8D0E03274048006740211
:1019330080027401C0E0F4041216F7D0E01215CD52
:10194300227404800474028000CCC0E0EDC0E0E5A2
:1019530018C39CCCAD1950011D10AF068C188D19FE
:1019630080068C188D19D2AF1215DAD0E0FDD0E0C5
:10197300FC22D083D082E9C0E0E493A3C386F0C500
:10198300F095F0F908E493A386F0C5F095F0700B99
:10199300E493A3C3994005E9048002A3E475F0022C
:1019A300A42582F582E5F03583F583D0E0F9E4934D
:1019B300A3C0E0E493C0E022D083D082ECC0E0ED8A
:1019C300C0E0E493A3FCE493A3FDED4C600D121A75
:1019D30007EC24FFFCED34FFFD80EFE493A3FCE46C
:1019E30093A3FDED4C600D121A46EC24FFFCED347D
:1019F300FFFD80EFD0E0FDD0E0FCE493A3C0E0E482
:101A030093C0E022C0E0C3E4939608740193961850
:101A1300400FE493667008087401936618700070B1
:101A230019A3A3C3E49396087401939618A3A34040
:101A33000DD0E0D0E0D0E00219F7A3A3A3A3A3A3A2
:101A4300D0E022C0E0C0F088F0E493667008087428
:101A5300019366187000A8F0A3A3700BD0F0D0E038
:0E1A6300D0E0D0E00219F7A3A3D0F0D0E0222B
:101A7400C0E074F2121876A2AFE433FED2AFC2C053
:101A8400E5D1A2E4500653D1EF12071C751A00EEFB
:101A9400A2E092AF7F010218D5C0E0C0D0E8C0E058
:101AA400E5A8D2AFC2C7751A00A2E792AFD0E0F89A
:101AB400D0D0D0E032C0E0C0D0E8C0E0C082C08363
:101AC400E5A8F8D2AF758900C2C59003B87401F0D7
:101AD400751A00E8A2E792AFD083D082D0E0F8D0A4
:101AE400D0D0E032C0E0C0D0E8C0E0E9C0E0C00837
:101AF400C009C082C083A2AFE433F9D2AF90053CE1
:101B0400E0F8A3E0687008539AFBA374018026C22E
:101B1400E990053CE0F50874012508F074BC25083B
:101B2400F58274043400F583E0F5C190053CE0C30C
:101B340094804002E4F0E9A2E092AFD083D082D056
:101B440009D008D0E0F9809474F512178AEAFEEB04
:101B5400FFEE2434F8EF3400F988088909EE2435BF
:101B6400F582EF3400F583E0F8EE2437F582EF34A4
:101B740000F583E0F50AEC850AF0A4FCAAF0850AD6
:101B8400F0EDA42AFDE82CF8E43DF97A257B001257
:101B9400163CEA850882850983F05407F87401B875
:101BA40000028004C333D8FCC0E0E0131313541FB5
:101BB400F8EE28F8EF3400F9E8245DF582E9340002
:101BC400F583D0E0F8E0586008EE2434F582EF8025
:101BD4001EEE2436F582EF3400F583E0F5F0EA8456
:101BE400A8F0EE28F8EF3400F9E82438F582E93457
:101BF40000F583E0F97F0402183674F512178AEAB7
:101C0400FEEBFFEE2434F582EF3400F583E0C0E010
:101C1400EE2435F582EF3400F583D0E0F08E828F28
:101C240083A3A3A3A3A3A3A3C082C0838E828F8311
:101C3400A3A3A3A3A3E0F8A3E0F9D083D082E0C3D5
:101C440098F508A3E099F509EE2480F582EF3400B5
:101C5400F583E064017069EE2481F582EF3400F5C8
:101C640083E0F8A3E0F98E828F83A3A3A3A3A3A3A5
:101C7400A3E0FCA3E0FD8E828F83A3A3A3A3A3E030
:101C8400FAA3E0FBC3EA9CEB9D5027C3EC98ED99C3
:101C9400402EC3EA98EB9950277C927D08EEFAEF28
:101CA400FB120F74EE2480F582EF3400F583E4F028
:101CB400800EC3EA98EB9940E0C3EC98ED9950D9B3
:101CC400EE2434F8EF3400F9E8FCE9FDEE2435F5B0
:101CD40082EF3400F583E0F8EE2437F582EF340028
:101CE400F583E0F50AE508850AF0A4F508AAF0856D
:101CF4000AF0E509A42AF509E82508F8E43509F904
:101D04007A257B0012163CEA8C828D83F05407F806
:101D14007401B800028004C333D8FCC0E0E013139C
:101D240013541FF8EE28F8EF3400F9E8245DF58227
:101D3400E93400F583D0E0F8E0586008EE2434F587
:101D440082EF801EEE2436F582EF3400F583E0F551
:101D5400F0EA84A8F0EE28F8EF3400F9E82438F526
:101D640082E93400F583E0F91225F9021BF9C082F7
:101D7400C083851882851983E0F8A3E0F9C3EA9C3F
:101D8400EB9D5012C3EC98ED994019C3EA98EB9976
:101D9400501279018010C3EA98EB9940F5C3EC988E
:101DA400ED9950EE7900D083D08222EAC39CFAEBFD
:101DB4009DFB22008521878522C622C0E0C0D0E891
:101DC400C0E0E9C0E0EAC0E0EBC0E0ECC0E0EDC098
:101DD400E0C008C009C00AC00BC082C083C0F0754F
:101DE4009B00906182E0A2E64003021E9DE591A261
:101DF400E64003021E9D7591BF900757E06405708D
:101E0400081210AC1210B880031210B2752100121F
:101E14001112E9900758F07900121106120EEA7AAD
:101E2400017B00900756E0F9120422907803E064E5
:101E3400426003021EE69008F4E014F06003021E00
:101E4400E6C2AF121E4A00782AD0E0F618D0E0F6B7
:101E5400E59F5407F970059083C380039083BF788E
:101E640008121597E9C4C0E07829E65508F5080872
:101E7400E65509F509740B78081216A5D0E0250873
:101E8400F8906270E0A2E740F8E8C333906272F021
:101E9400906270E0D2E0F08049E0A2E55024E59140
:101EA400A2E5501E7591DF900757E0640D70139002
:101EB4000779E004F064287002E4F07A00E0F91293
:101EC4001184906181E0A2E35009E5E9A2E35003A3
:101ED40075E9F7A3E0A2E75009E591A2E75003757D
:101EE400917FD0F0D083D082D00BD00AD009D00813
:101EF400D0E0FDD0E0FCD0E0FBD0E0FAD0E0F9D0B7
:101F0400E0F8D0D0D0E032C0E0C0D0C082C083902E
:101F14006183E0A2E05009E5BFA2E0500375BFFE73
:101F2400E0A2E15009E5BFA2E1500375BFFDE0A2C4
:101F3400E25009E5BFA2E2500375BFFBE0A2E35003
:101F440009E5BFA2E3500375BFF7E0A2E45009E539
:101F5400BFA2E4500375BFEFE0A2E55009E5BFA2BC
:101F6400E5500375BFDFE0A2E65009E5BFA2E650E5
:101F74000375BFBFD083D0828088C0E0C0D0E8C0E2
:101F8400E0E9C0E0EAC0E0EBC0E0ECC0E0EDC0E0B6
:101F9400C0F0E5A7A2E6500FE5A1A2E6500953A7B9
:101FA400BF75A1BF121FE3E5A7A2E5500CE5A1A2EE
:101FB400E5500653A7DF75A1DFE5A7A2E15009E5C7
:101FC400A1A2E1500375A1FDE5A7A2E2500CE5A191
:101FD400A2E2500653A7FB75A1FBD0F0021EF474D5
:101FE400F812178A752101900757E06406701512DC
:101FF40010408A828B83A3A3A3A3A3A3E0FAA3E044
:10200400FB12109AA2AFE433FED2AF90075DE064F6
:102014000170187A207B00900756E0F91204C47A04
:10202400207B00900756E0F9120428906182E0D2E8
:10203400E6F09008F3E0602185C622801690075CE4
:10204400E064017008E5C654F84405F5C653BEFCC7
:10205400121DB87401652160E4EEA2E092AF7F0125
:10206400021836008E238F248582288583278518BD
:1020740082851983E0CEA3E0CF852882852783EB70
:10208400C9EAC8EDCBECCA75F010C3E833C8E9332C
:10209400C9EA33CAEB33CBC3EA9EF526EB9FF52599
:1020A400B35004AB25AA26EC33CCED33CDD5F0DA0E
:1020B400AE23AF242274EB12178A74FA1216C78A5D
:1020C400088B098C148D15900757E024F7C39405E9
:1020D400500690843F02221B1210408A0A8B0BAEDA
:1020E4000AAF0BEE4F7003022218AC08AD09851835
:1020F40082851983AA82AB831210CA8E828F83A32E
:10210400A37808121597908407780812157185181A
:1021140082851983780C121597908407780C121510
:10212400717808790C1213A9501F7808790C1215CC
:102134004990840378081213C9404785081085091B
:1021440011850A12850B138041850C10850D1185AC
:102154000E12850F137810790812154990840378AC
:10216400101213C9501C75100075110075120075FA
:1021740013017810790C121549781079081215108A
:10218400800890843F7810121597740978101214FF
:10219400F190840B78081215977810790812146856
:1021A4008E828F83A3A3A3A3A3A3E0F8A3E0F97A69
:1021B400D07B0312163C88088909E4F50AF50B78EC
:1021C4001079081215107404121712E0F8A3E0F93C
:1021D4007AD07B0312163CE8FA8A08E4F5097810F1
:1021E40079081213A9500778107908121549900735
:1021F40057E06408600AE064066005E06405701C4A
:1022040090840F78101213C950129084137810120E
:10221400152380089083FF78101215978514828502
:10222400158378101215A674061216DD7F0E021897
:102234003674F712178A1210DC9008F1E06401700A
:1022440010906245E4F0A3F053F4F343FE0C539072
:10225400F3121088E5C654804449F5C6E59E547FC0
:10226400644970F8906185740FF09008EFE0F470A1
:1022740002A3E0604E9008F0E0600814601B146054
:102284002E80407508017509009008EFE078081267
:1022940016B4E508F45280802A7508017509009087
:1022A40008EFE078081216B4E508F452908014752B
:1022B40008017509009008EFE078081216B4E508E3
:1022C400F452A079007F0202183674F712178AE9D3
:1022D400FEEAFF74016E700C7A807B00900756E072
:1022E400F9120422902608E493F46008E493F912A6
:1022F4000EDE800953C680E59E547F70FA12108E5C
:102304009008F1E064017003120EF69008EFE0F417
:102314007002A3E0604B9008F0E0600814601A14A7
:10232400602C803D7508017509009008EFE078087D
:102334001216B4E5084280802875080175090090DA
:1023440008EFE078081216B4E50842908013750887
:10235400017509009008EFE078081216B4E5084208
:10236400A01210DC1210408A088B09A808A909E8F9
:10237400496015E5E170FCE82414F582E93400F5C0
:1023840083E0F46003E0F5E174016F700A7A019070
:102394000756E0F912048E0222C974F112178A8AD0
:1023A400088B098C0A8D0B740F121712780C1215F6
:1023B400979084077808121571908407780C121589
:1023C400717808790C1213A950157808790C121534
:1023D4004990840378081213C94015790180137851
:1023E4000C7908121549908403780C1213C940EB38
:1023F40079007F0802183674ED12178A8A088B094F
:102404008C0A8D0B7413121712780C121597908482
:10241400077808121571908407780C121571780CDE
:1024240079081213A940117808790C121549AA08E1
:10243400AB09AC0AAD0B8022751000751100751242
:10244400007513017810790C121549781079081267
:102454001510AA10AB11AC12AD137F0C02183690F4
:10246400840778081215978A828B8378081215845A
:102474007F0402183674F512178A8C828D837808CB
:102484001215978A828B83780812155DEA2404F862
:10249400EB3400F98C828D83A3A3A3A3E0FCA3E017
:1024A400FD88828983C3E09CF0A3E09DF088828943
:1024B40083C3E09420A3E0944E40229083D778080D
:1024C4001215978A828B8378081215368A828B8339
:1024D400A3A3A3A3E02420F0A3E0344EF0808074EF
:1024E400F512178AE9FE9008A9E0FAA3E0FBEEC30F
:1024F40033F8E433F9748F28F582748239F583E074
:102504002AF508A3E03BF50978081219319083D322
:102514001215B512206874021216DD8A088B098C14
:102524000A8D0B741078081214D8AA08AB097F041A
:1025340002183674F112178A8A0C8B0D8C0E8D0FCB
:10254400740F121712E0FAA3E0FB7411121712E0D1
:10255400F508A3E0F5097413121712E0FEA3E0FFD7
:102564007808121931EA2401F508EB3400F509E47E
:10257400F50AF50B780C79081213E890842378088F
:10258400121597780C79081213E8AA0CAB0DAC0E4F
:10259400AD0F12206874021216DD8B09EA4509603A
:1025A400047A0180027A00EC2AFCED3400FDECF898
:1025B400EDF97A717B0212163C88088909E4F50A60
:1025C400F50B8E828F8378081215A6ECF8EDF97A54
:1025D400717B0212163C8A088B097405780812165E
:1025E400B48E828F83A3A3A3A3E508F0A3E509F027
:1025F4007F08021836C082C083E9906000F0D0835F
:03260400D082225F
:10260800FFFFFFFFFFFFFFFFC082C083E9900D229D
:10261800F002289474F712171EE9900675F07CAD45
:102628007D067AFF7BFF120C1490067674FFF0A3E8
:10263800F0A3E4F0A3F07905120B9C900675E0F97D
:10264800120AC47A327B0C120DF40235A274F41209
:10265800171E8A088B09EB54806030900675E0F9E4
:1026680012040A8A0A8B0BAE0AAF0BEE4F60138E68
:10267800828F83E064B07003120BB4EEFAEFFB12A2
:1026880003F8AA08E5096480FB80047A007B00024D
:10269800286374F212171E74FC1216C7EAFEEBFFC9
:1026A8007412121712123A89EE4F700302273D7402
:1026B80002121712EEF0A3EF122A9EECF0A3ED120D
:1026C8002A9EAA82AB83120ABEE9F50A706AE50857
:1026D800450960648E828F83123A6FEE4F60567A96
:1026E800067B001204768A0C8B0DA80CA90DE8490C
:1026F8007005750A13804188828983E412274AEE9F
:10270800F0A3EF123A9AE508F0A3E509F090067BEA
:102718001227D190067B700512354C801B12353A72
:102728008003EAFCEBFD8C828D831227D170F38C39
:10273800828D8380E3750A02A90A74041216DD02E9
:102748003C89F0A3123A40A32274F212171E890A98
:10275800E975F017A4FEAFF090067AE4F0900678D9
:102768001227D1600A12047C900678E4F0A3F0EEF8
:10277800FAEFFB1204768A088B09EA4509602FEE06
:10278800FCEFFD79001203E0900678E508F0A3E578
:1027980009F07B0080081227BBE4F0A3F00BEBC321
:1027A800950A40F2E50A90067AF0790080027913DA
:1027B800023C89EB75F017A4F8A9F0900678E02898
:1027C800FAA3E0398A82F583221231DEEA4B2274B9
:1027D800F412171E740C121712123A64FEE9FF75F0
:1027E8000800750900800CE5082401F508E509349E
:1027F80000F509C3E5089CE5099D503285080A855E
:10280800090B7403780A1216B4EA250AF8EB350B9B
:10281800F988828983A3A3A3A3A3A3123621EE6513
:102828000A7003EF650B70BFE8FAE9FB80047A00D1
:102838007B00802774F412171E7900EAA2E0501B6F
:1028480075088875098378081219317C047D007A27
:10285800247B0D120B9674021216DD7F040217F00A
:10286800C082C08390067B12289B601C8882898363
:10287800A3A3E06A7003A3E06B8882898370E8A34E
:10288800A3A3A31231DA80047A007B00D083D0821C
:10289800020135123D6FE8492274EE12171E74FCCE
:1028A8001216C7EAFEEBFF851882851983E4F0A3A8
:1028B800F0EE240212352CEE2405123A47EE2404D9
:1028C800F50EEF122E53E024FE603924FC604624F6
:1028D800FE605224FE605E24FE70030229B424FECA
:1028E8007003022A1824FE7003022A2724FE7003AC
:1028F800022A3624FC7003022A4524FE7003022AA9
:1029080054022A919006947417F0A3E4122AA6128E
:10291800083C022A91851882851983AC82AD8312FE
:102928000BBA022A61851882851983AC82AD83129D
:102938000BC0022A61850C08850D09740212171252
:10294800AC82AD838508828509831231DA120AE2E6
:102958008A0C8B0DAC0CAD0DEC4D603BE4F50CF521
:102968000D780C121931750C94750D06780C121926
:1029780031750C95750D06780C12193174081217FB
:1029880012121948123EEB1216DDE9F50C700B1203
:1029980031D0120854800F750C018508828509838F
:1029A800122A9412354C850C08022A6474021217F4
:1029B80012AC82AD83850C82850D83122FA5603CF5
:1029C800850C82850D83A3A312194875109475117F
:1029D80006781012193175109575110678101219AC
:1029E800317408121712121948123EEB1216DDE95B
:1029F800F509700B1231D012085A800F750901853C
:102A08000C82850D83122A9412354C850908804C56
:102A1800851882851983AC82AD83120BC6803A85EE
:102A28001882851983AC82AD83120BCC802B851854
:102A380082851983AC82AD83120BD2801C851882E3
:102A4800851983AC82AD83120BD8800D85188285D9
:102A58001983AC82AD83120BDEE9F508E50860291D
:102A68008E828F83A3E06414601F850E82850F8396
:102A7800E0900694122A9E123D6B90069512354CF2
:102A8800E508A3122AA612083602343B123D6F85C8
:102A9800188285198322F085188285198322F07C93
:102AA800947D06850A82850B831231DE2274EE122C
:102AB800171E74FC1216C78A0A8B0B8C0E8D0FEA30
:102AC8002405F508EB3400F5097C157D0079007ABA
:102AD800947B061203E0E5082402F50CE509123A96
:102AE8004A8518828519838582108583117810128A
:102AF8001931850882850983A3A3A3A3122F9C12E9
:102B08001931E5082405F510E5093400F5117810A8
:102B1800121931850C82850D831232F1120ADC7488
:102B2800061216DD8A108B11AE10AF11E50A2402C9
:102B3800F50AE50B12352FEE4F7003022C73801740
:102B480074021217121231DA88828983EAF0A3EB31
:102B5800F0900694E004F0900694E0C394054003D6
:102B6800022C73E4F510F511781012193175107DE7
:102B7800751106781012193175107E7511067810C6
:102B880012193174061217121219487910EEFCEF57
:102B9800FD123EED1216DDE9705E85088285098317
:102BA800A3A3A3A3A3A3A3E0F890067DE0687048BD
:102BB800122F9C1219317C7E7D06E5082408FAE55F
:102BC800093400FB1203DA74021216DDE960298E5B
:102BD800828F83A3A3A3A31231DA900694E0F510A1
:102BE800740278101216B474952510F5827406359F
:102BF80011F583EAF0A3EBF0740212171285821024
:102C0800858311781012193174021217121219489B
:102C1800850C82850D831232001216DD8A108B1105
:102C2800AE10AF11900694E0F5107511007402789B
:102C3800101216B474942510F874063511F98882A8
:102C48008983A31227D17003022B3FE824030808C5
:102C580008E93400F9EE4F6003022B488882898323
:102C680074FFF0A3F0900694E004F0900694E060FE
:102C78000A1231D01208487900800B85088285092C
:102C880083123543790A02343B74EA12171E74FE24
:102C98001216C78C128D13EA2405F50CEB123ED5DB
:102CA800123A73750800750900EA2402F510EB342E
:102CB80000F51185188285198385820A85830B782A
:102CC8000A121931850C82850D83A3A3A3A3122EA2
:102CD80069121931E50C2405F50AE50D12352F782E
:102CE8000A121931850C82850D83122E6D120ADCA9
:102CF80074061216DD8A0A8B0BEA450B7003022E46
:102D08000EEA2404F50EEB122E53123A738A828BC4
:102D180083A3A3A3E0F98510828511831231E460AF
:102D280003022E0EE4F514F51578141219317514F2
:102D38007D751506781412193175147E7515067887
:102D48001412193174061217121219487913AC0AA1
:102D5800AD0B851082851183123EF31216DDE9F55D
:102D6800096003022E0E90067DE0F8E5087009E080
:102D78002402900695F08014900695E0FCE8240261
:102D8800FAE43400FBEA6C7001EB707E850882AAD5
:102D980082122F939414122F8B506B850E82850FFD
:102DA80083E0C0E074962A122E4AD0E0F005088528
:102DB8000E82850F83A3E0C0E085080A7496250A71
:102DC800122E4AD0E0F0050890067D122E691219DD
:102DD800317C7E7D0685080A7496250A122E5D12BE
:102DE80016DD90067DE02508F50874FF6E70037403
:102DF800FF6F6012EE24010EEF3400FFE508C39464
:102E0800145003022CBBE50860131231EE851082C2
:102E18008511831231DA12084E79008014E50970A1
:102E28000375090A851282851383EEF0A3EFF0A9D2
:102E38000974021216DD7F0E0217F085080C7496CD
:102E4800250CF58274063400F583223400F50F85CD
:102E58000E82F58322FA74063400FB1203C874024A
:102E680022123AA922A3A3122E732212353AFDEE9A
:102E7800FAEFFB2274EE12171E74FE1216C78C0EA0
:102E88008D0FEA2405F50CEB123A4A750B009006F3
:102E980094E4F0F50AEA2402F508EB3400F5098019
:102EA80044900694E0FA90067DE0F8122F93941768
:102EB800122F8B400D900694E0F87416C398900674
:102EC8007DF0122F9C1219317C7E7D0674952AFAAA
:102ED8007406122E601216DD90067DE0F8900694B6
:102EE800E028F0050AE50C2416F582E50D122E4EB1
:102EF800E0F8E50AC3985074900694E0C39416501D
:102F08006BE50AC333F8E433F9E50C28FEE50D391F
:102F1800FF851882851983AC82AD838E828F8312D8
:102F28002FA57008750B0112353F8050E4F510F598
:102F380011781012193175107D7511067810121953
:102F48003175107E75110678101219317406121732
:102F5800121219487916850882850983123EF312E0
:102F680016DDE9F50B7003022EA980BB7C947D0663
:102F78008508828509831231DA120860A90B740268
:102F880002343DE99400C365D03322EA28F8E434DA
:102F980000F9E822E0F51075110078102212343299
:102FA8008A108B11AC10AD11EC4D2274EA12171E69
:102FB80074FC1216C78A0C8B0D8C128D13EA24052B
:102FC800F50AEB12352F750800750900E50A240289
:102FD800F510E50B3400F511740212171285820EF4
:102FE80085830F780E121931850A82850B83A3A376
:102FF800A3A3123A4F121931E50A2405F50EE50B81
:103008003400F50F780E121931851082851183125C
:1030180035351231D4120ADC74061216DD8A0E8B8D
:103028000FAE0EAF0FE50C2402F50EE50D3400F5DA
:103038000F80388882898374FFF00508122E437444
:10304800FFF0050890067DE0F50C750D00780C1270
:1030580019317C7E7D0685080C7496250C122E5D30
:103068001216DD90067DE02508F508EE4F60278EE4
:10307800828F83A3A3A3E0F9850E82850F83123183
:10308800E4EE2404123A47E96027850C82850D8313
:103098001231C612354CE50870030231AC1231EE1C
:1030A800850E82850F831231DA12086679000231A3
:1030B800C1E4F514F515781412193175147D7515D8
:1030C80006781412193175147E75150678141219BC
:1030D8003174081217121219487911EEFCEFFD85A8
:1030E8000E82850F83123EF31216DDE9F509709AF8
:1030F800850882AA82EA90067D7009E02404900679
:1031080095F08025E0F8900695E0F514E82404FC95
:10311800E43400FDEC65147001ED7081122F939476
:1031280012122F8B40030230A5850C82850D83E097
:10313800C0E074962A122E4AD0E0F00508850C8269
:10314800850D83A3E0C0E0122E43D0E0123209853A
:10315800820C85830D780C1219317404121712121F
:1031680019488510828511831232001216DD8A0CE7
:103178008B0DAE0CAF0D85080C7496250CF87406F3
:103188003400F9EE4F700302303B851882851983AD
:10319800E088828983123209A3E0C0E0122E43D06E
:1031A800E0023049E509700375090A850A82850B32
:1031B800831231C612354CA9097404022E3B123D04
:1031C8006F851282851383227C947D06850A828509
:1031D8000B831231DE22E0FAA3E0FB221231DE1269
:1031E8000ACAE9F50922900695E0F5F0E508849009
:1031F8000694F07C947D0622122E73120AE8740459
:1032080022F005088518828519832274EC12171E8E
:1032180074FE1216C78A088B098C0E8D0FEA2405D6
:10322800FEEB3400FF12341CEE2418123A47EA452C
:103238000B70030232BF12340550291232E48A108F
:103248008B11EA4511606B7912AC0AAD0B850882C7
:103258008509831231DA85108285118312171CE9DA
:10326800F50A7058E4F50AF50B780A1219318E82BE
:103278008F83A3A3E0F50A780A121931EE2403120A
:10328800352C780A1219318E828F831232F1120C82
:103298000274061216DDE9F50A7021850C82850D87
:1032A80083E0701F8508828509831231DA12086C61
:1032B8008011750A0E8009750A018004E50A600309
:1032C80012353F850C82850D83E060047900800209
:1032D800A90A74021216DD7F0C0217F08518828580
:1032E80019831231DE120BF02212353AFD8508825D
:1032F8008509831231DE2274EE12171E74FE12162F
:10330800C78A088B098C0C8D0DEA2405FEEB340066
:10331800FF750E0012341CEA450B70030233E312EA
:103328003405502C1232E48A0E8B0FEA450F604A9E
:103338007912AC0AAD0B8508828509831231DA85CA
:103348000E82850F8312171CE9F50E60030233E61F
:10335800850882850983123621AA0AFB1233F77081
:10336800147AFF7BFF1233F7606C88828983E50A41
:10337800F0A3E50BF0750A008007750E0E805F0557
:103388000A90067AE0FAE50AC39A504AE50A75F007
:1033980017A4FAABF088828983A3A3E02AFAA3E0F2
:1033A8003BFB8A828B83123535EC4D70D2750A1738
:1033B800750B00780A121931EEFCEFFD1203C87480
:1033C800021216DDEEFCEFFD8508828509831231B5
:1033D800DA1208728014750E098003750E01123D09
:1033E80067850C82850D8312354CA90E022F861233
:1033F8000BE48A108B11A810A911E84922E50824CA
:1034080002F508E5093400F5098A828B83A3A3A392
:10341800E0A2E522851882851983AC82AD838E826D
:103428008F831234328A0A8B0B22E0FAA3E0FB1254
:103438000AE22274041216DD7F0A0217F074EC12F5
:10344800171E8C108D11EA2405F50CEB123A4A75FB
:103458000F00EA2402F50AEB12352F850A82F5835C
:103468001231DA123F797003023521750E0080712E
:10347800850C82850D83E06401704F8E828F83A353
:10348800A31219488E828F83A3A3A3A3E0F5127514
:1034980013007812121931EE2405F512EF3400F5F5
:1034A8001378121219311231D4120C027406121642
:1034B800DDE9F50F6014850C82850D83E4F0123D7B
:1034C8006785108285118312354C7C177D00790041
:1034D800EEFAEFFB1203E08E828F83E4F0A3F0058F
:1034E8000E90067AE0F8E50EC398501EE50E75F0CA
:1034F80017A4F8A9F0850882850983A3A3123EDFE3
:10350800123535EC4D6003023478850882850983CD
:1035180074FFF0A3F0E50F70061231D4120878A9F1
:103528000F0232DFF50AEF3400F50B22A312353A09
:10353800FD22E0FCA3E0228E828F83123D6F850E70
:1035480082850F83E8F0A3E9F022C082C083900649
:1035580076E06A7003A3E06B70067A767B068004D7
:103568007A007B0002289474F712171E7F00EF750B
:10357800F003A4F8A9F0EC28F8ED39F988828983DA
:10358800E06A7003A3E06B7006E8FAE9FB800B0FB2
:10359800EFC3940240D87A007B007F010217F074D1
:1035A800F612171E123B5870067A007B008007A39C
:1035B800A3A3A31231DA023C1974F212171EE9FE12
:1035C800740E1217121236217410121712123A8939
:1035D8008C828D83E06402703BA3123D6B888289E4
:1035E80083E0F50CA3E0F9A80C7402687003742951
:1035F800697021750C02750D00780C121931780864
:10360800121931780A121931EEF9120C26740612C1
:1036180016DD80027901023C89E0F50AA3E0F50B8A
:103628002274E812171E74FB1216C7E985188285E2
:103638001983F08A168B178C0E8D0F741F121712B0
:10364800123A897421121712123621742312171292
:10365800123A737510008C828D83A3A3A3E0A2E4B1
:10366800502A741D1217121232EA8A828B83E5825D
:1036780045837003023735790AAC0EAD0FAA16AB35
:103688001712171CE9F5106003023738850E82857A
:103698000F83E0640260030239EEA3123D6B8508D4
:1036A80082850983A3858212858313E50E2406F596
:1036B8000CE50F123A4A88828983E0FAA3E0F9EA16
:1036C8002400F514E439F51578141219BB0100002B
:1036D800280128FD3607000228D43703284437007C
:1036E80029FE38012926390229CD380329FE380454
:1036F800298F39EE39EE4F703E850C82850D831285
:103708003A64FAE9FB8A828B83E0850A82850B8317
:10371800123AA01219318A828B83A312353AFDAA74
:1037280008AB091203C874021216DD800375100E67
:10373800A9107405023ECD75100B80F4EE4F70F79A
:10374800850A82850B837401F0123A79850882858F
:103758000983F07C007D00850E82850F83A3A3A3D7
:10376800A3E02401FAA3E03400FB120AE2EA4B606A
:10377800418A828B83E02402F8850A82850B83E0E4
:1037880028F0EA2404F8EB3400F988828983E0857C
:103798001282851383123AB2123AA01219318A8220
:1037A8008B83123534E5082403FAE5093400FB025B
:1037B800372B850A82850B83E02404F07C047D0086
:1037C8007900AA12AB131203E0023738EE4F6003F8
:1037D80002373F123A79FEA3E0FF850A82850B8300
:1037E8007404F0EE850882850983F0EF85128285DE
:1037F8001383F07403121712AC82AD83EEFAEFFB59
:10380800123B4670030238AA8A828B83A3A3123A1A
:103818006F740112171285820E85830F780E1219A4
:103828003174051217121219487CFF7DFF120AE83D
:1038380074041216DD8B0FEA450F7033850C8285F0
:103848000D83123A4F121931850C82850D83A3120C
:1038580019487C027D007A947B841209147404123E
:1038680016DDE9700A740112171274FFF0A3F08EC6
:10387800828F83E064027034750C02750D00780C39
:103888001219318E828F83123534E5082404FAE543
:1038980009122E601216DD850A82850B83E0240248
:1038A80080097401121712EEF0A3EFF074011217D9
:1038B80012123A60F07401121712A3123A58A3A315
:1038C800A3F0023738EE4F600302373F850C82853C
:1038D8000D83123535AA16AB17120C1A850A828584
:1038E8000B837402F0EA850882850983F0851282C9
:1038F800851383EB80CBEE4F600302373F123A7992
:10390800F8A3E0F9850A82850B837402F0E885083C
:1039180082850983F0E985128285138380A3850C4B
:1039280082850D831231DA1203C2EAFC8C82A882E6
:10393800C39EE49F404BE86E7001EF70047C0080EA
:103948001F851882851983E0FAEE2AFAEF3400FB06
:10395800C3EA98EB94005003E08004EECCC39CFCCF
:10396800EC850A82850B83F08C0A750B00780A12A5
:103978001931850C82850D83E02EFCA3E03F0237C8
:1039880026751007023738EE4F600302373F850C63
:1039980082850D83123D6B850A82850B837407F03F
:1039A80088828983123A58123A40E0851282851338
:1039B80083F0E82402FAE93400FB8A828B83123A06
:1039C80058123A91123A60A3123A9A123A69F0E8F8
:1039D8002405F8E93400F988828983123A69A31228
:1039E8003AB2A30238C6741D121712123B51700363
:1039F800023735123D6B880C890DE8450D700302BE
:103A080037358E108F117810121931780A12193142
:103A180078081219317406121712E0F9AC0EAD0FBE
:103A2800AA16AB17850C82850D8312171C74061213
:103A380016DDE9F510023738F088828983A322F56C
:103A48000CEF3400F50D22E0F50E750F00780E220C
:103A5800E085088285098322123AB922123D6FE86F
:103A680022123AB9A3A322A3A3A3A3E0FEA3E0FFD3
:103A780022850C82850D83E0F8A3E0F5838882E037
:103A880022E0F508A3E0F50922A3A3F08A828B833C
:103A9800A32212274CA3A322F08A828B83123AA96D
:103AA80022E0F50A750B00780A22123A40123AB958
:103AB80022E0850882850983A3A32274EE12171ECB
:103AC80074FE1216C78A0A8B0BECFAEDFB741412FB
:103AD8001712E0F510A3E0F5117416121712E0FEA4
:103AE8007418121712E0F50EA3E0F50F85188285F9
:103AF8001983AC82AD83123B46603E8518828519D6
:103B080083123B51602FA3A3123A89E50845096047
:103B180024780E1219317810121931EEF9AC0CAD67
:103B28000DAA0AAB0B85088285098312171C740439
:103B38001216DD8006790E80027901022F86120A9C
:103B4800E28A0C8B0DEA450D221231DE123B582217
:103B5800120BAE8A828B83E58245832274F6121794
:103B68001E74FE1216C7740C121712123A648518C6
:103B780082851983F07401121712E9F0E4F508F54B
:103B88000978081219317508027808121931740475
:103B98001217128582088583097808121931120CC8
:103BA8000274061216DD74021216DD806474F712B0
:103BB800171EEAFEEBFF89087CAD7D06120C1AEA97
:103BC8005402600BA908EEFAEFFB120AD6800279BC
:103BD800010235A274F612171E74FF6A700374FF8F
:103BE8006B701C7B00EB75F003A4F8A9F0EC28F8C7
:103BF800ED39F9123C1E0BEBC39402501480E61207
:103C08000BEA8A088B09A808A909E8496003123C4D
:103C18001E7F020217F08882898374FF12274AE404
:103C2800F02274F612171E120BEA8A828B83E58241
:103C380045836006A3A3E0FA80027A007B0080D166
:103C480074F212171E8A088B09ECFEEDFF740E122F
:103C58001712E0F50A123C8E701CEEFCEFFD7AFF9D
:103C68007BFF123C8E70047911801688828983E567
:103C780008F0A3E509F088828983A3A3E50AF0790F
:103C8800007F060217F0120BEA8A0C8B0DA80CA90C
:103C98000DE8492274EE12171EEAFEEBFF8C088D20
:103CA80009890C7412121712123D6B741412171230
:103CB80012353574161217121231DA750D00EC4DE3
:103CC8006003023D5F7402650C6003023D5A8882FE
:103CD800898312353AF9EC2400F50EE439F50FEA38
:103CE800F4F8EBF4F9EC58F8E50F59F9E849705D88
:103CF800E5082406F8E5093400F9880A890B888262
:103D0800F583122E6F120C1A8A108B11E50E6510AE
:103D18007004E50F65116042780E121931850A8228
:103D2800850B83122E6F120C2074021216DDE9F532
:103D38000D7027780E121931850882850983A3A38F
:103D4800122E6D120C3874021216DD800D750D805E
:103D58008008750D0D8003750D0BA90D0234408E7A
:103D6800828F83123D6F22E0F8A3E0F92274E812F3
:103D7800171E74E71216C7851882851983EAF0A3FF
:103D8800EBF08C168D17890E7431121712E0F512AC
:103D9800A3E0F5137433121712E0F514A3E0F51538
:103DA8007435121712E0F50F750800750900E5095A
:103DB80075F003A4F8A9F0851882851983123EDFEF
:103DC800E0F47003A3E0F47003023EBDEE2402F5B4
:103DD8000CEF123ED5E07003023EBD85160A85172A
:103DE8000B780A121931AC14AD15AA12AB13120BC9
:103DF800A274021216DD8A0A8B0BEA450B700302C5
:103E08003EBDE4F510F51178101219317406121739
:103E180012858210858311781012193174091217CE
:103E280012858210858311781012193185128285C6
:103E38001383A3A3A3A31219487914AC0AAD0B8E5C
:103E4800828F83123EF31216DDE97069850A828536
:103E58000B83A3A3A3A3123D6B740212171212358E
:103E68004C850C82850D83E0A2E05018A90E7402DF
:103E7800121712AC82AD838E828F831231DA120A46
:103E8800FAE94208850C82850D83E0A2E15026E517
:103E98000FF50A780A121935A90E7403121712AC15
:103EA80082AD838E828F831231DA120AF474011282
:103EB80016DDE942080509E509C394025003023DED
:103EC800B6A90874191216DD7F100217F03400F530
:103ED8000D850C82F58322E028FEA3E039FF8E824F
:103EE8008F83227916850A82850B831231DE120BA5
:103EF800FC74082274F212171EEAFEEBFF890B7499
:103F080001650B600E7402650B70637901120E1265
:103F1800E9705BEEFAEFFB123F796047750A0080A3
:103F28000B7C177D0079001203E0050A90067AE001
:103F3800F8E50AC3985021E50A75F017A4F8A9F026
:103F4800850882850983A3A3E028FAA3E039FB8AC0
:103F5800828B8312289B70C985088285098374FF28
:103F6800F0A3F07CAD7D06EEFAEFFB120C14023CD8
:103F780089120BE48A088B09EA45092274F21217A0
:103F88001E8A088B09ECFEEDFF740E12171212360A
:103F980021900D22E0F4603D7A097B001203F2EAD9
:103FA8004B60328A828B8374B1F0A3E4123A93A3F4
:103FB800123A91A3E508F0A3E509123FE0EEF0A359
:103FC800EF123FE0A3A3E50AF0A3E50BF0900D2262
:103FD800E0F91203FE023C89F08A828B83A3A3A333
:103FE800A3A322C082C0839061907404F0A3744894
:103FF800F0A37402F09061807440F09061BC740387
:10400800F09061877419F0906265741BF090619C60
:10401800740DF090619A7433F0A37455F09061A018
:10402800743AF09008F1E064017009C29190075B5E
:104038007467800590075B7461F090260EE4939096
:104048006186F0902608E493F46027E493540FF80F
:10405800906185E0686012E5C654804449F5C6E57C
:104068009E547F644970F8E8F053C680E59E547FFB
:1040780070FA790512116602422DC082C083E95494
:104088000FF9906185E0696012E5C654804449F5EE
:10409800C6E59E547F644970F8E9F053C680E59EF2
:1040A800547F70FA02422DC082C083E5A8F853A855
:1040B8007E906181E4F0A3F0A3F0C2BA539AFEC2E5
:1040C80089759B00C2C275E90075910075BF0075BE
:1040D800A91175B905906181F0A374C0F0A3E4F04B
:1040E800D2BA439A0174805842A802422DC082C0B5
:1040F8008374F81216C7900759E0F8A3E0F9E84965
:104108007003024223900759E054406023790885E0
:104118001882851983AA82AB83120FCE85188285EF
:104128001983AA82AB83120CA4900759E054BFF0FC
:10413800E054806010790C7A157B09120FCE900735
:1041480059E0547FF0E0A2E0503190619A7433F066
:10415800A37455F09061A0743AF09008F1E06401FE
:104168007009C29190075B7467800590075B746162
:10417800F0120CAA900759E054FEF0E054026031A6
:1041880090619A743FF0A3745AF09061A0747FF024
:104198009008F1E064017009D29190075B74718016
:1041A8000590075B746AF0120CAA900759E054FD59
:1041B800F0E05404601390260CE493906186F012AA
:1041C8000CB0900759E054FBF0E0540860139026B7
:1041D8000DE493906186F0120CB0900759E054F703
:1041E800F0E05410601390260EE493906186F0126C
:1041F8000CB0900759E054EFF0E05420600A120C1C
:10420800B0900759E054DFF0A3E05401600D120E9E
:10421800F6120CB690075AE054FEF074081216DD38
:104228008003F0A3F0D083D08202013574EC12171A
:104238001E74F41216C7851882851983AC82AD8363
:104248007583837582F374041215DA90260C93F43F
:1042580060030243C1907808E0C39402500302430C
:10426800A17404121712AC82AD83758383758238EA
:1042780074081215DA851882851983858212858358
:10428800137404121712AC82AD83750EFF750FFFFD
:104298007FFF7E00750C48750D78801574086E7068
:1042A8000302433474096E7003024334740A6E6067
:1042B8007B850C82850D8378081215978C828D83F7
:1042C800A909E50AC9F88810741878081214D8E5FD
:1042D800104508F8C3E098A3E099850C82850D8302
:1042E800780812159740188C828D837418780812F4
:1042F80014D8E5104508F8E0C398F8A3E0801C74CA
:104308001878081214D8E5104508FAE9FB8C828D54
:1043180083E0F8A3E0F9EAC398F8EB99F9C3E895C4
:104328000EE9950F5006880E890FEEFF0EE50C2456
:1043380004F50CE50D3400F50DEEC394135003029B
:1043480042A474FF650E700474FF650F60238F0824
:10435800740278081216B474482508F58274783502
:1043680009F5837808121597851282851383E50865
:10437800F0EC24020C0CED3400FD851282851383C9
:10438800A3858212858313740C121712E5826C7050
:1043980003E5836D60030242927508017509007890
:1043A800081219317402121712AC82AD837A837B1A
:1043B8000912063E74021216DD740C1216DD7F0C0B
:1043C8000217F0C082C0839061AE7468F0A3746A6B
:1043D800F090624574FBF0A304F053F4FD43FE0231
:1043E8009008F17401F09061A0E0643A90619A70CD
:1043F800237433F0A37455F09061A0743AF07401FB
:1044080064017009C29190075B7467802890075B0C
:1044180074618021743FF0A3745AF09061A0747F96
:10442800F0740164017009D29190075B7471800582
:1044380090075B746A02422C7F040217F0C082C0A6
:10444800839008A3E06401700A9008A8E0600479EA
:104458000C8002790002422DC082C08375E1F19080
:1044680008A6E0605514600814605914605180591A
:10447800120F0890089CE0F97A9D7B081210E890CA
:1044880083E71215B512111E90844B1215B5121040
:10449800F49008A7E0F9121100790112115A900856
:1044A8009AE02416F8A3E03400F9888289837420FE
:1044B800F0A3740FF0790002422D120F0E80B4128F
:1044C8000F1480AF120F1A80AA791280EA74F412BE
:1044D800171E75D90D90088BE0A2E0E4331313F88A
:1044E80090089CE0C4333354C0484401F5D9789A05
:1044F800790888828983A3A3A3E0F5D98882898370
:10450800A3A882A983E864A07003E9640870E3782B
:104518008B790888828983A3E0F5D988828983A367
:10452800A882A983E864917003E9640870E575E1DD
:104538009590088BE0F97A8C7B081210EE900D4468
:1045480074B4F0A3740EF0A37416F0A37410F0A35F
:104558007416F0A37410F0A37416F0A37410F0A3EB
:1045680074BAF0A3740EF0A37416F0A37410F0A339
:1045780074D2F0A3740EF0900D527416F0A3741058
:10458800F0A37416F0A37410F0A37416F0A37410BB
:10459800F0A37416F0A37410F0A37416F0A37410AB
:1045A800F0A37416F0A37410F090089AE0F8A3E052
:1045B800F5838882A3A378081215979083CF78088B
:1045C800121523908407780812157190089AE02430
:1045D8000EF8A3E03400F98882898378081215A6BA
:1045E80090089AE02414F8A3E03400F988828983BB
:1045F8007413F09007577402F0024440C082C083DD
:104608009008ACE02407F5D990089CE0C4333354F3
:10461800C0F5D9789A790888828983A3A3A3E0F59D
:10462800D988828983A3A882A983E864A07003E952
:10463800640870E39008ACE0601F789A7908FAE89B
:104648002413F582E93400F583E0F5D9888289835B
:10465800A3A882A9831AEA70E69008CCE02407F59B
:10466800D990089CE0C4333354C04404F5D9789AEF
:10467800790888828983A3A3A3E0F5D988828983EE
:10468800A3A882A983E864A07003E9640870E39092
:1046980008CCE0601F789A7908FAE82433F582E9B3
:1046A8003400F583E0F5D988828983A3A882A98399
:1046B8001AEA70E675E195900D4474C0F0A3740E83
:1046C800F0A37416F0A37410F0A37416F0A374107A
:1046D800F0A37416F0A37410F0A374BAF0A3740EC8
:1046E800F0A37416F0A37410F0A374D2F0A3740EA0
:1046F800F0900D527416F0A37410F0A37416F0A382
:104708007410F0A37416F0A37410F0A37416F0A339
:104718007410F0A37416F0A37410F0A37416F0A329
:104728007410F09083D71215B590089AE0240EF80B
:10473800A3E03400F9888289831215C190089AE0B1
:104748002414F8A3E03400F9888289837412F09065
:104758000757740102422CC082C0839008ACE02441
:1047680007F5D990089CE0C4333354C04402F5D906
:10477800789A790888828983A3A3A3E0F5D98882E7
:104788008983A3A882A983E864A07003E9640870F8
:10479800E39008ACE0601F789A7908FAE82413F5EA
:1047A80082E93400F583E0F5D988828983A3A88259
:1047B800A9831AEA70E675E195900D4474CCF0A3CC
:1047C800740EF0A374CCF0A3740EF0A374CCF0A311
:1047D800740EF0A374CCF0A3740EF0A374CCF0A301
:1047E800740EF0A374CCF0A3740EF0A374D2F0A3EB
:1047F800740EF0900D527416F0A37410F0A3741692
:10480800F0A37410F0A37416F0A37410F0A3741638
:10481800F0A37410F0A37416F0A37410F0A3741628
:10482800F0A37410F09083D71215B590089AE0247D
:104838000EF8A3E03400F9888289831215C1900824
:104848009AE02414F8A3E03400F988828983741468
:10485800F0900757740402422CC082C0839008ACC1
:10486800E02407F5D990089CE0C4333354C04406CB
:10487800F5D9789A790888828983A3A3A3E0F5D922
:1048880088828983A3A882A983E864A07003E96465
:104898000870E39008ACE0601F789A7908FAE82479
:1048A80013F582E93400F583E0F5D988828983A37A
:1048B800A882A9831AEA70E69008CCE02407F5D903
:1048C80090089CE0C4333354C04404F5D9789A79ED
:1048D8000888828983A3A3A3E0F5D988828983A362
:1048E800A882A983E864A07003E9640870E39008CB
:1048F800CCE0601F789A7908FAE82433F582E93425
:1049080000F583E0F5D988828983A3A882A9831A50
:10491800EA70E675E195900D4474C6F0A3740EF044
:10492800A37416F0A37410F0A37416F0A37410F017
:10493800A37416F0A37410F0A37416F0A37410F007
:10494800A37416F0A37410F0A374D2F0A3740EF03D
:10495800900D527416F0A37410F0A37416F0A3749B
:1049680010F0A37416F0A37410F0A37416F0A374D7
:1049780010F0A37416F0A37410F0A37416F0A374C7
:1049880010F09083D71215B590089AE0240EF8A37A
:10499800E03400F9888289831215C190089AE024CE
:1049A80014F8A3E03400F9888289837415F090071D
:1049B80057740302422CC082C08390089AE0F8A37F
:1049C800E0F5838882A3A3A3A3A3A3E402422A74E5
:1049D800F712171E900785E0F875F004A4C8AAF02E
:1049E8002AF9748728F8740739F9E82405FAE934AC
:1049F80000FB8A828B83E0FCA3E0FD88828983A385
:104A0800A3A3A3A3A3A3A3A3ECF0A3EDF088828997
:104A180083A3A3A3A3A3A3A3E024FFF8A3E034FFE5
:104A2800F98A828B83E8F0A3E9024C7C74F71217A9
:104A38001EEAFEEBFF9061D0E06003024B1175D9CE
:104A48000E75D90375D904EE248CF582EF3400F580
:104A580083E5822408F8E5833400F9E0F5D9A3E872
:104A680065827003E9658370F2EE2484F582EF3481
:104A780000F583E5822404F8E5833400F9E0F5D9EC
:104A8800A3E865827003E9658370F275E19579089A
:104A9800EE248CFAEF3400FB120FC27904EE248462
:104AA800FAEF3400FB120FC27C00EEF8EFF9ECFAD3
:104AB800C3E49AFA95E0FBEE2AFAEF3BFBEA248B73
:104AC800F582EB3400F583E0C0E0E824ABF582E939
:104AD8003400F583D0E0F00C88828983A3A882A9EA
:104AE80083ECC3940840C7EE2470F582EF3400F5D8
:104AF80083E0F8A3E0F9EE2472F582EF3400F58341
:104B0800E8F0A3E9F0790180027900024C7DC082C7
:104B1800C08375D90275D90375D90575E195EA245D
:104B280070F582EB3400F583E0F8A3E0F9EA24722B
:104B3800F582EB3400F583E8F0A3E9F0790102424D
:104B48002D74F612171EEAFEEBFF9008F57406F0B6
:104B58007508F575090878081219317C017903126E
:104B6800100A74021216DD75D90675D9037582F517
:104B7800758308E0F5D9A3E58264FA7004E58364D7
:104B88000870F075E195900757E06408701EEE24F0
:104B980070F582EF3400F583E0F8A3E0F9EE2472B3
:104BA800F582EF3400F583E8F0A3E9F07901024DCE
:104BB8004974F612171EEAFEEBFF9061D0E07066AA
:104BC80078019008F5740BF0900757E064077019A6
:104BD8007508F575090878081219317C01790312EE
:104BE800100A74021216DD7805740128F5D975D9F2
:104BF800037582F5758308E8FAE0F5D9A31AEA7017
:104C0800F875E195EE2470F582EF3400F583E0F84D
:104C1800A3E0F9EE2472F582EF3400F583E8F0A3FF
:104C2800E9F0790180027900024D4974F712171EE4
:104C3800EAFEEBFF75D90375D90375D90DEE24DEAD
:104C4800F582EF3400F583E0F5D975E19579041222
:104C58001124EE2470F582EF3400F583E0F8A3E028
:104C6800F9EE2472F582EF3400F583E8F0A3E9F059
:104C780079018001F07F010217F074F612171EEA1D
:104C8800FEEBFF9061D0E0F87480C398FAEE2483BD
:104C9800F582EF3400F583E0600478048002780040
:104CA800E8240BF8EAC3985003024D477D099008A1
:104CB800F5EDF0EE24E3F8EF3400F97AF67B087CA2
:104CC8000888828983E08A828B83F088828983A31B
:104CD800A882A9838A828B83A3AA82AB831CEC70E7
:104CE800E0EE2483F582EF3400F583E0601D75085B
:104CF800F575090878081219317C097903EEFAEF7D
:104D0800FB12100A74021216DD7D0D74012DF5D9FF
:104D180075D9037582F57583088D08E0F5D9A31553
:104D280008E50870F675E1957904121124EE241D42
:104D3800F582EF3400F583E4F0A3F079018002797D
:104D4800007F020217F074F612171EEAFEEBFF90BE
:104D580061D0E0F87480C398FAEE2483F582EF34CA
:104D680000F583E06004780480027800E82408F8FD
:104D7800EAC3985003024E4E7D069008F5740CF075
:104D8800900774E09008F6F07A757B0778F7790851
:104D98007C028A828B83E088828983F08A828B8373
:104DA800A3AA82AB8388828983A3A882A9831CECE7
:104DB80070E07A777B077C028A828B83E08882891D
:104DC80083F08A828B83A3AA82AB8388828983A398
:104DD800A882A9831CEC70E0EE2483F582EF3400EE
:104DE800F583E0601D7508F5750908780812193112
:104DF8007C067903EEFAEFFB12100A74021216DD34
:104E08007D0A74012DF5D975D9037582F575830866
:104E18008D08E0F5D9A31508E50870F675E19579D0
:104E280004121124EE2470F582EF3400F583E0F8C3
:104E3800A3E0F9EE2472F582EF3400F583E8F0A3DD
:104E4800E9F0790180027900024D4974F612171EC3
:104E5800EAFEEBFF9061D0E0F87480C398FAEE2484
:104E680083F582EF3400F583E060047804800278EB
:104E780000E82404F8EAC3985003024F2D78029002
:104E880008F5E8F0EE24F5F582EF3400F583E090BC
:104E980008F6F0EE2483F582EF3400F583E0601B1A
:104EA8007508F575090878081219317C027903EE3E
:104EB800FA12100A74021216DD7806740128F5D960
:104EC80075D9037582F57583088808E0F5D9A315A7
:104ED80008E50870F675E195EE2474F582EF340064
:104EE800F583E4F0EE2480F582EF3400F583E4F0F6
:104EF800EE241DF582EF3400F583E4F0A3F0790485
:104F0800121124EE240DF582EF3400F583E0F8A3A6
:104F1800E0F9EE2472F582EF3400F583E8F0A3E9B6
:104F2800F0790180027900024D4974F612171E903B
:104F380061D0E0F87480C398FCEA2483F582EB34EE
:104F480000F583E06004780480027800E82404F81F
:104F5800ECC398405B79029008F57407F0EA24F6F0
:104F6800F582EB3400F583E09008F6F0EA2483F547
:104F780082EB3400F583E060187508F57509087848
:104F8800081219317C020912100A74021216DD790E
:104F980006740129F5D975D9037582F5758308E971
:104FA800F8E0F5D9A318E870F875E1957901800261
:104FB8007900024D4974F512171EE9FCA2AFE433DB
:104FC800F50AC2AF7D0080010DEA246FF582EB344B
:104FD80000F583E0F8EDC398501A8D08EA2508F823
:104FE800EB3400F9E8246BF582E93400F583E06CD2
:104FF80070D68024EA246FF8EB3400F9E0FEEA2E3C
:10500800FAEB3400FBEA246BF582EB3400F583EC11
:10501800F088828983E004F0E50AA2E092AF7F037A
:105028000217F074F612171EA2AFE433FDC2AFEAFE
:10503800246FF582EB3400F583E014F07C006036D1
:105048008C08EA2508F8EB3400F9E8246CF582E9C5
:105058003400F583E0C0E0E8246BF582E93400F51C
:1050680083D0E0F00CEA246FF582EB3400F583E09E
:10507800F8ECC39840CAEA246EF582EB3400F58355
:1050880074FFF0EA246AF582EB3400F583E4F0ED6E
:10509800A2E092AF024D49C082C083E5A8F8C2AF32
:1050A800EA246BF582EB3400F583E9F0EA246AF52B
:1050B80082EB3400F583E4F0E8A2E792AF02422DD8
:1050C80074F312171EEAFEEBFFECFAEDFB8A828BF3
:1050D80083A3A3A3A3E0541FF0EE2436F582EF3494
:1050E80000F583E4F0F50AEEFCEFFD8A828B83E09D
:1050F800C0E0EC245DF582ED3400F583D0E0F07576
:105108000B00E50A33333354F8F50C8A828B83E0BD
:10511800F508750900E50B7808121695E508A2E070
:10512800502FEE2436F8EF3400F988828983E0F5B1
:1051380008EE2508F508EF3400F509E5082438F5E8
:1051480082E5093400F583E50CF088828983E00460
:10515800F0050B050CE50BC3940840AF050A8A82DD
:105168008B83A3AA82AB838C828D83A3AC82AD830D
:10517800E50AC3940550030250F37F050217F07443
:10518800F712171E900783E0640170077A007B000E
:105198000252FE7E00900789E070F17401F0A3E4EA
:1051A800F0A3F09007E904F09007ECE4F0A3F09086
:1051B80007EF04F090078CE4F0A3F0A3F0A3F090BD
:1051C800079604F09007BCE4F09083FF1215B590A1
:1051D800079F1215C19007A3E4F0A3F0A3F090086D
:1051E80007F09007FBF09007F07480F0A3E4F090CC
:1051F80007F6F09007EEF0900872F0A3F0A3F0A382
:10520800F0A3F0A3F0A3F0A3F090087BF090080AB5
:10521800F090085AF0A3F09083FF1215B590085C3F
:105228001215C19083FF1215B59008601215C19030
:105238000866E4F0900868F0900864F090087EF042
:10524800A3F0A3F0A3F0A3F0A3F0A3F0A3F0788356
:105258007907E8246FF582E93400F58374FFF00ECE
:1052680088828983A3A882A983EEC3940440E37A41
:10527800837B077892790888828983E0C0E0EA24F2
:1052880061F582EB3400F583D0E0F088828983A34E
:10529800A882A9838A828B83A3AA82AB83E86497B6
:1052A8007003E9640870D07A837B07786A79078885
:1052B800828983A3E0C0E0EA24E7F582EB3400F5B5
:1052C80083D0E0F088828983A3A882A9838A828B0D
:1052D80083A3AA82AB83E864727003E9640770CF82
:1052E800900783E004F06401700890078BE0900752
:1052F80085F07A877B07024C7DC082C08390078A3D
:10530800E4F0900789F0900783F0A3F0A374FFF00E
:1053180075E1F102422DC082C083780079009007C0
:105328008AE060047887790788828983A3A3A3A386
:10533800E0F902422D74F612171EEAFEEBFF8E8288
:105348008F83A3A3A3E0600F8E828F83A3A3A3E41C
:10535800F0900784E014F0900783E014F070069052
:10536800078574FFF08E828F83A3A3E4F0900897DB
:10537800E0700D900784E064017005790012110651
:10538800EE2465F582EF3400F583E0F8A3E0F9E850
:10539800496029EE2465F8EF3400F98808890988FE
:1053A80082F583E0FCA3E0FD900785E0FA7B00121C
:1053B8000CDA850882850983E4F0A3F0EEFAEFFBA6
:1053C80012103A024D4974F712171EEAFEEBFF8ECF
:1053D800828F83A3A3A3A3E0FA7B00120D1CEEFA2D
:1053E800EFFB120F8C121022024C7DC082C0837812
:1053F8006A790788828983A3E4F088828983A3A8CD
:1054080082A983E864727003E9640770E690076B09
:1054180002475A74F612171EEAFEEBFFEC2403F853
:10542800ED3400F988088909EC2407F8ED3400F90F
:10543800E8FCE9FD8C828D83E0F8A3E0F985088219
:10544800850983E0FAA3E0FB12163CEE240DF582F1
:10545800EF3400F583E8F0A3E9F08C828D83E0F85F
:10546800A3E0F9850882850983E0FAA3E0FB121618
:105478003C8B09EA45096013EE240DF582EF3400F0
:10548800F583E02401F0A3E03400F0024D4974F6FE
:1054980012171EEAFEEBFFEE242EF582EF3400F51C
:1054A80083E0FCA3E0FD780079FAECFAEDFB121634
:1054B8003CEE2470F582EF3400F583E8F0A3E9F0C0
:1054C800780079FAECFAEDFB12163C8B09EA4509EB
:1054D8006013EE2470F582EF3400F583E02401F0C8
:1054E800A3E03400F0024D4974F012171EEAFEEBF7
:1054F800FF741012171278081215971210C48A0C2C
:105508008B0D8C0E8D0F9083CB780C121523908405
:1055180007780C121571780C12192D8E828F83E082
:10552800F8A3E0F5838882A3A31215B512239E740D
:10553800041216DDE9600302563D8E828F83E02453
:1055480002F8A3E03400F9E8FAE9FB8A828B837851
:105558000812153690840778081215978A828B836B
:105568007808121584EE240BF582EF3400F583C019
:1055780082C0838E828F83A3A3A3A3A3E02401F810
:10558800A3E03400F9D083D082E0687003A3E06917
:105598007005790102563F8E828F83A3A3A3A3A32C
:1055A800A3A3E02401F0A3E03400F0EE2474F58214
:1055B800EF3400F583E064017036EE2475F582EF70
:1055C8003400F583E0F8A3E0F98E828F83A3A3A3C8
:1055D800A3A3A3A3E0687003A3E0697013EE247586
:1055E800F582EF3400F583E02401F0A3E03400F005
:1055F800EE2480F582EF3400F583E064017036EE26
:105608002481F582EF3400F583E0F8A3E0F98E8277
:105618008F83A3A3A3A3A3A3A3E0687003A3E06954
:105628007013EE2481F582EF3400F583E02401F055
:10563800A3E03400F079007F080217F074F712171E
:105648001E900785E0F875F004A4C8AAF02AF9743A
:105658008728FE740739FF8028EE2465F8EF3400A8
:10566800F988828983E0FCA3E0FD88828983E4F0DD
:10567800A3F08E828F83A3A3A3A3E0FA7B00120C6E
:10568800DAEE2465F582EF3400F583E0F8A3E0F95B
:10569800E849604FEE2464F582EF3400F583E0F5C5
:1056A800087808121935EE2463F582EF3400F58383
:1056B800E0F9EE2465F582EF3400F583E0FCA3E021
:1056C800FDEEFAEFFB120FB674011216DDE96089E0
:1056D800EE2465F582EF3400F583E0F8A3E0F9E8FD
:1056E8004970137C007D008E828F83A3A3A3A3E05F
:1056F800FA7B00120CDA024C7D74F212171EEAFED5
:10570800EBFF890A740E121712E0FAEE2462F58292
:10571800EF3400F583E0640160030257CD9061D057
:10572800E0F87480C398F50CEE2483F582EF34001A
:10573800F583E060047804800278008908E928F895
:10574800E43400F9E824020808E93400F9E50C9883
:10575800E499A2D265D0334068EA7005750B0280DF
:1057680003750B01E0603975090078081219317A60
:10577800F57B08120FEC74021216DD7508F5750931
:10578800087808121931AC0AA90BEEFAEFFB1210CF
:105798000A74021216DD7404250AF50A7CF57D08E0
:1057A8007401250AF5D9850BD9E50A600D8C828D1F
:1057B80083F8E0F5D9A318E870F875E195790080C9
:1057C800067907800279FF7F060217F0C082C0833E
:1057D800E960208C828D83E08A828B83F08C828DB5
:1057E80083A3AC82AD838A828B83A3AA82AB8319FD
:1057F800E970E0ECFAEDFB02422D74EA12171E90F4
:105808007803E06442705E9008F4E014F07056C2C9
:10581800AF12581C00782AD0E0F618D0E0F6E59FC1
:105828005407F970059083C380039083BF780812EA
:105838001597E9C4C0E07829E65508F50808E65543
:1058480009F509740B78081216A5D0E02508F89018
:105858006270E0A2E740F8E8C333906272F09062A9
:1058680070E0D2E0F0900785E0F47003025C25E078
:10587800F875F004A4C8AAF02AF9748728FE7407FA
:1058880039FFEE2402F582EF3401F583E0F8A3E056
:10589800F9E849601EEE2402F582EF3401F583E051
:1058A800FAA3E0FBEE2401F582EF3401F583E0F979
:1058B8001204228E828F83A3A3A3A3A3A3A3E0F839
:1058C800A3E0F98E828F83A3A3A3A3A3E8F0A3E99F
:1058D800F0906054E090075EF0906055E090075FAC
:1058E800F0906056E0900760F0906057E090076194
:1058F800F0906058E0900762F0906059E09007637C
:10590800F090605AE0900764F090605BE090076563
:10591800F090605CE0FC900766F090605DE0FB90C2
:105928000767F090605EE0FD900768F090605FE0C8
:10593800FA900769F0900764E08C082508F8E434C9
:1059480000F98D08E82508F8E93400F98B08E825FE
:1059580008F8E93400F98A08E82508FAE93400FB70
:10596800EE24F7F582EF3400F583E02AF0A3E03B5C
:10597800F08C08EE24F9F582EF3400F583E0250871
:10598800F0A3E03400F0EE24FBF582EF3400F58359
:10599800E02401F0A3E03400F0EE24FFF582EF34B8
:1059A80000F583E0F8A3E0F9E8496042906000E080
:1059B800C333FCE433FDE82CF582E93DF583E02AA6
:1059C800F0A3E03BF0906000E0FA900766E0FCEAA4
:1059D800C333FAE433FBE82AF8E93BF9E8244AF54B
:1059E80082E93400F583E02CF0A3E03400F090075E
:1059F80064E07011900767E0700BA3E07007A3E004
:105A08007003025B058E828F83A3A3A3A3A3E0F890
:105A1800A3E0F9EE240DF582EF3400F583E028F8D1
:105A2800A3E039F9EE240BF582EF3400F583E8F0B2
:105A3800A3E9F0EE240FF582EF3400F583E4F0EEED
:105A4800241CF582EF3400F583E06401701EEE2417
:105A580020F582EF3400F583E0F8A3E0F9EE241D89
:105A6800F582EF3400F583E8F0A3E9F090075FE0F2
:105A78006052EE241CF582EF3400F5837401F0EED9
:105A8800246AF582EF3400F583E07038EE2474F56B
:105A980082EF3400F583E0702BEE2480F582EF343A
:105AA80000F583E0701EEE2420F582EF3400F583C4
:105AB800E0F8A3E0F9EE241DF582EF3400F583E861
:105AC800F0A3E9F0906062E07003025BB88E828F09
:105AD80083E0F8A3E0F9E82406FCE93400FDE824B3
:105AE80002FAE93400FB1210BE8E828F83E0241282
:105AF800F8A3E03400F988828983025BC2900766C4
:105B0800E0603AEE240FF582EF3400F583E4F0EE1E
:105B1800241CF582EF3400F583E064017040EE2424
:105B280020F582EF3400F583E0F8A3E0F9EE241DB8
