:020000040000FA
:0600000002011D021F3782
:03002B00021AC9ED
:03003B00021B1491
:03004300021AA0FE
:03005300021FAADF
:03006B00021AE591
:10008300021DEBE5C754F84401F5C77901220000CE
:100093000080FB120086B90003020107E47921788E
:1000A30008B800028004F709D8FCE479297802B87B
:1000B30000028004F709D8FCE4900281789479095E
:1000C3008002F0A3D8FCD9FA781A90014D7A01BACC
:1000D30000028007E493A3F608DAF9900B14AA82CE
:1000E300AB8390014E787F79038015E493A3AC82B0
:1000F300AD838A828B83F0A3AA82AB838C828D83A8
:10010300D8E9D9E775823A7583B8740312012F755C
:100113008291758300740012012F75D00075813FA1
:10012300751881751902759F00020096C09FF59F8F
:10013300E473D09F22D083D082C09FE493C0E07445
:100143000193C0E0740293F59F2201FFFF1101990F
:10015300010F12640401028B840100005D84028795
:10016300840100001B0B0269840100001C0B028345
:1001730084030000A7020275840100001D0B01E83F
:1001830003053F1012446F2053796E630000000093
:1001930000000000000008415050205365742043C4
:1001A3006C6F636B0000000002446174612048655A
:1001B3006164657200000000000002446174612004
:1001C300426F64790000000000000000028B84018C
:1001D300000060840287840100004D0B02718403D8
:1001E300000044050283840300004A05028584015C
:1001F30000004E0B0287840100005F0B026F840234
:1002030000005005028584010000600B0287840111
:100213000000710B026D8401000054050285840106
:100223000000720B028784010000830B026B8401C0
:1002330000005605028384030000570502858401EC
:100243000000840B0000000000000000000000001C
:1002530000000000FF0001307503020106000000EA
:10026300000000000000000000000000000000008B
:10027300000000000000000000FFFF0600800CE803
:100283000305000A002C0101000100110941646407
:10029300696E672041312D303030303030051250D7
:1002A30000A000020A00020106050200230F184104
:1002B3006464696E672041312D3030303030300056
:1002C300000000003A0800004608FF0000B40000E8
:1002D30028002800283075A000A000A000A000007E
:1002E300080008E001F000100010001000100010DA
:1002F30000100050005000500010001000D0070004
:1003030000000000000F0001000500307507001019
:1003130000010081FF0000FF620A800A680AFF02F1
:10032300020208025000A0000000E803028B8401CF
:1003330000005784028784010000E80C02818401D5
:1003430000006B06028784010000E90C027F840130
:1003530000008106028784010000EA0C027D84010B
:1003630000008306028784010000EB0C027B8408F3
:1003730000008406028784010000EC0C02798401EA
:100383000000ED0CFF0100FF20028B8401000054EC
:1003930084028784010000510D027784000000006D
:1003A30000028384030000D1064410441044104427
:1003B300104410441044104410441044104410449A
:1003C300104410D212EA12CC12120138E9C20212FE
:1003D3000138F3C20212013834C3021201387DC35B
:1003E30002120138B7C3021201380DC402120138D8
:1003F3002EC402120138DDC602120138E6C602120B
:1004030001383AC70212013863C7021201386DC7B7
:1004130002120138DBC7021201386BC8021201381D
:10042300C6C802120138F4C8021201387CC902128C
:100433000138BBC902120138F0C90212013802CADD
:100443000212013821CA021201382ACA02120138E3
:10045300F1CA021201385A9B03120138519C03124C
:1004630001386B9C031201387C9C031201388E9E69
:1004730003120138D07D00120138067E00120138C4
:100483003A7E00120138877F001201389EB60312AC
:100493000138B4B603120138BEB60312013808B7E7
:1004A300031201388EFF02120138F6EF02120138EF
:1004B30009F002120138CAF00212013809F10212DE
:1004C300013826F1021201385FF102120138ACF152
:1004D30002120138DEF10212013815F2021201385C
:1004E3001EF4021201388AF4021201384AAE0312D2
:1004F30001386DAE031201389CAE0312013834AFDC
:100503000312013876AF03120138AD9E031201388E
:10051300DD9E03120138F09E031201381F9F031260
:100523000138369F03120138E29F031201387BA082
:100533000312013804A10312013802B10312013876
:1005430010B10312013813B1031201388EB1031233
:100553000138DEB10312013831B90312013892B800
:10056300031201389184011201386F860112013898
:100573000E8801120138B988011201383989011234
:100583000138BE8901120138E78901120138C28D91
:1005930001120138398E01120138508F01120138CE
:1005A3008A8F01120138CB8F011201381291011287
:1005B3000138689101120138B1910112013820927A
:1005C300011201388C9201120138BD9201120138D7
:1005D300D59201120138EE9301120138FE930112F4
:1005E3000138B49501120138CB9501120138FD95FC
:1005F300011201389F970112013833980112013813
:10060300E2B503120138F3B50312013893B60312AE
:100613000138E8B80312013827B903120138EDFF96
:100623000212013819B50312013829B50312013832
:1006330041B503120138D5B50312013840B3031293
:100643000138C5B30312013829B403120138BFAF0F
:1006530003120138F3AF031201381CB0031201383F
:1006630093B003120138F4FF011201385E880312BC
:1006730001388B8803120138FD880312013812896F
:1006830003120138338A03120138B68A0312013880
:100693002F8B031201384E8B03120138718B031217
:1006A3000138AE8B03120138C68B031201381C8C40
:1006B30003120138428403120138598403120138AA
:1006C300D38403120138B785031201388E870312CE
:1006D3000138F387031201384A8803120138F87F7F
:1006E3000012013812A7031201389CA80312013823
:1006F300FDA80312013843A9031201380E94031213
:100703000138A994031201384795031201383F9623
:1007130003120138F19603120138199703120138B5
:100723002797031201389C9703120138B0970312DD
:100733000138BA970312013800800312013845804B
:100743000312013862800312013818810312013841
:100753007D81031201387082031201389A830312D8
:100763000138D38303120138B2AC0312013804AD4C
:100773000312013877AD03120138E4AD03120138D7
:10078300CBA403120138F5A403120138C4A5031244
:100793000138A0A6031201381FCB02120138EBCB9C
:1007A300021201382CCC0212013866CC0212013835
:1007B300C4CC0212013818CD0212013876CD0212D0
:1007C30001380CCE0212013814CF021201389ED028
:1007D300021201383CD102120138A3D102120138AE
:1007E300B6D102120138AAD202120138F3D2021290
:1007F3000138D8F2011201380AF6011201389BF7C9
:1008030001120138F2F7011201380FF80112013811
:100813008FF8011201380BFA01120138DAFA0112CA
:10082300013847FE0112013831FF01120138F398F4
:1008330002120138519C02120138489D02120138FC
:10084300639E021201389A9E02120138E49F02123B
:10085300013866A00212013896A10212013852A48F
:1008630002120138FFAA0312013816AB0312013832
:1008730045AB031201387EAB03120138A6AB03125A
:100883000138D4AB03120138EBAB0312013802ACCD
:100893000312013818AC031201383FAC03120138BC
:1008A30052AC0312013868AC031201387BAC03125B
:1008B3000138A0AC031201383DB0021201383CB13B
:1008C3000212013871B10212013892B102120138D9
:1008D300A2B102120138C3B102120138CFB202121F
:1008E30001389CB3021201380FB40212013895B4D7
:1008F30002120138D8B4021201380FB502120138BE
:1009030095B50212013867B602120138C5B6021254
:100913000138DDB60212013857B7021201385AB74F
:10092300021201385DB70212013804B8021201380D
:100933001CB8021201384CB8021201386CB802120A
:1009430001385AB90212013810BA021201384EEBBB
:100953000212013876EB02120138A4EB02120138BD
:10096300DBEB0212013843EC021201388CEC021269
:100973000138D7EC0212013815ED0212013852ED9D
:100983000212013880ED0212013827EE02120138FB
:1009930031EE021201383EEE0212013871EE0212FC
:1009A300013833EF021201383FEF0212013857EFDB
:1009B3000212013861EF0212013842B40312013806
:1009C30050B40312013868B40312013880B403121F
:1009D300013822AC01120138C0AC0112013838AD24
:1009E300011201384DAE0112013887AE01120138F0
:1009F30030AF0112013805B00112013869B101129B
:100A03000138C0B10112013847B2011201382EB3C7
:100A1300011201387BB30112013809B40112013804
:100A23002DB40112013802B60112013843B6011286
:100A3300013865B601120138E6B601120138D0B7A4
:100A43000112013896B80112013872DA0212013824
:100A530044DB02120138EDDB0212013830DC0212F2
:100A63000138BDDC0212013849DD021201382ADEE9
:100A73000212013859DE0212013855DF0212013821
:100A83009DDF021201389FE002120138E3E00212F7
:100A9300013809E10212013834B7031201383D90DD
:100AA300031201385390031201387990031201386D
:100AB300A19103120138AB9103120138049303127D
:100AC30001380494031201387EE102120138B3E2C3
:100AD30002120138E6E20212013830E30212013851
:100AE300EEE402120138736E00120138D66E001262
:100AF30001381B70001201382B70001201384E7040
:100B0300001201389970001201383E710012013849
:100B1300347200120138FE7200120138767400122A
:100B23000138B87400120138567500120138A375E4
:100B330000120138C97500120138B7770012013865
:100B4300BC77001201389D7900120138F179001247
:100B53000138537A001201387B7A001201381F7B67
:100B630000120138E17B00120138127C00120138B7
:100B7300157C001201385D7C001201389F7C001245
:100B83000138067D0012013838FD021201384BFD91
:100B93000212013864FD02120138AFFD021201385E
:100BA3008AFE0212013819FF0212013864FF021291
:100BB30001383C26001201384826001201388126EC
:100BC30000120138C626001201387D2700120138B1
:100BD30003280012013868280012013894280012F3
:100BE3000138CD2800120138E12A00120138BD2C4A
:100BF30000120138A82E00120138DF2F001201382D
:100C03003F32001201382B330012013871340012C5
:100C130001387E35001201389B3500120138D33577
:100C230000120138ED350012013855360012013833
:100C3300EF3A00120138903B00120138E13B0012F9
:100C43000138083C00120138563C00120138743C4C
:100C530000120138C83C00120138A13D00120138CE
:100C6300283F00120138B03F00120138A4E60212F7
:100C73000138AEE60212013879E70212013894E72F
:100C830002120138BAE702120138FEE702120138F4
:100C930036E8021201385FE802120138D8E802127E
:100CA3000138EDE80212013802E90212013839E98C
:100CB300021201384DE9021201387EE902120138AD
:100CC300B8E902120138E4E9021201383AEA0212E1
:100CD30001388EEA02120138D7EA0212013801EB19
:100CE3000212013826EB02120138518C031201382B
:100CF3001B8D03120138FE8D03120138748E03120B
:100D03000138B68E03120138E38F031201380080D5
:100D1300021201382980021201384280021201387E
:100D2300878102120138658202120138848202121D
:100D33000138118302120138548302120138A1844D
:100D430002120138408502120138BF8702120138AE
:100D53005688021201382A89021201380C8A0212BB
:100D63000138788B021201380B8C021201382BB236
:100D73000312013894B203120138E8B203120138A6
:100D83000FB30312013897F40212013804F502126B
:100D930001384FF50212013844F60212013840F7C8
:100DA300021201382AF8021201387BBA0212013802
:100DB300BDBA0212013897BB0212013870BC02128D
:100DC30001386BBD021201384ABE02120138B6BEA9
:100DD300021201387DBF02120138E8BF0212013846
:100DE3004FC0021201387AC002120138EBC002125E
:100DF30001387EC102120138E7C102120138FCC179
:100E03000212013844C2021201385DC202120138D3
:100E1300C2C202120138C5C202120138D1A10312A3
:100E23000138F9A10312013837A203120138F5A2E0
:100E33000312013860A3031201387CA303120138A3
:100E4300A4A303120138D4A303120138E3A30312AA
:100E530001385DA40312013883A40312013849C980
:100E63000112013826CB0112013821CD01120138BC
:100E7300F4CD011201383FCE011201388ACE01129E
:100E830001389CCE01120138DCCE0112013811CF9A
:100E9300011201385DCF011201388CCF01120138E4
:100EA300AFCF01120138FCCF0112013885D00112F6
:100EB300013892D2011201387DD401120138C0D415
:100EC3000112013825D60112013866D60112013804
:100ED300D9D60112013825D70112013850D7011292
:100EE3000138828C02120138AD8C021201389493BE
:100EF30002120138B89502120138739702120138B1
:100F0300D09802120138174000120138AE40001287
:100F13000138DB40001201382141001201386042E0
:100F230000120138F74300120138714400120138EE
:100F33008C4400120138014500120138304600127A
:100F430001388B47001201388D4800120138EA49F5
:100F530000120138034A00120138604A00120138B6
:100F6300424B00120138754B00120138E54B001259
:100F730001385F4C00120138AE4C001201387A4D33
:100F8300001201387F4E001201385E4F0012013803
:100F9300E94F00120138575000120138CB500012AC
:100FA3000138F45000120138B351001201382D53A7
:100FB300001201384A5300120138695300120138F4
:100FC300FA53001201381F5400120138475400121B
:100FD3000138C254001201381C55001201387056F2
:100FE300001201382D570012013800580012013841
:100FF3007AD701120138CAD701120138D6D70112A4
:101003000138B3D801120138E3D8011201381BD9D2
:10101300011201389AD901120138D2D901120138CB
:1010230024DA0112013861DA0112013886DC011277
:101033000138B2DE01120138ADE00112013888E255
:1010430001120138F7FF01120138719801120138BA
:10105300BB98011201389A9E011201381BA001129C
:1010630001387AA60112013875A701120138B2A717
:1010730001120138D5A70112013817A8011201384E
:1010830020A8011201382AA80112013816A9011259
:1010930001380AAA011201382E5800120138A6623B
:1010A30000120138AC6200120138B869001201382D
:1010B300BD9703120138539803120138699803123C
:1010C3000138E398031201383999031201387799EB
:1010D30003120138D49903120138519A03120138CB
:1010E3005A9A03120138669A03120138799A031245
:1010F3000138B59A03120138CB9A031201382A9B9F
:1011030003120138ECF802120138F9F8021201381F
:1011130013F90212013852F90212013890F902123E
:101123000138F5F9021201380AFA0212013815FAE8
:101133000212013822FA0212013839FA0212013876
:1011430047FA0212013852FA021201385EFA021209
:1011530001386DFA0212013878FA021201389BFA4B
:101163000212013844FB0212013854FB0212013807
:101173006EFB021201388BFB02120138A7FB02122D
:101183000138CCFB02120138D6FB02120138EAFB0C
:101193000212013809FC021201386AFC02120138FA
:1011A30070FC0212013876FC021201387CFC021238
:1011B300013888FC02120138BBFC021201384EE5EB
:1011C30001120138D0E50112013879E60112013824
:1011D300C1E701120138CFE901120138B5EA011262
:1011E3000138EAEA011201380CEB01120138B5EBC0
:1011F3000112013885ED01120138AEED01120138FB
:1012030026EE0112013858EE0112013865EE011283
:101213000138B0EE01120138D4EE0112013825F184
:10122300011201382FF2011201388BF20112013839
:10123300CBBA01120138DCBB01120138C0BC011268
:101243000138CABC01120138ECBC01120138F8BCE8
:10125300011201389CBE01120138C9BE01120138C6
:10126300DFBF0112013834C00112013883C10112FA
:10127300013858C201120138B4C2011201381FC328
:101283000112013854C30112013897C30112013806
:1012930061C60112013879C6011201380AC7011269
:1012A300013818C70112013865C70112013873C725
:1012B30001120138DFC7011201385AC8011201387F
:1012C300B1C8011201381FA50212013841A502124B
:1012D300013852A70212013811AA021201383BAB9E
:1012E30002120138F9AB02120138E5AC02120138DF
:1012F30046A9031201386BA903120138E1A90312AD
:10130300013855D3021201385ED30212013867D374
:10131300021201383FD402120138F0D5021201380B
:1013230020D6021201384BD6021201387BD60212A4
:101333000138A6D602120138DAD60212013806D7CE
:101343000212013849D70212013874D70212013848
:10135300BBD70212013810D80212013852D8021238
:101363000138ACD802120138D7D80212013826D975
:101373000212013856D90212013881D902120138FA
:10138300AFD902120138D2D902120138BDB7031204
:101393000138E9B70312013816B80312013820B82F
:1013A3000312013830B803120138C7FF01120138A4
:1013B300C17F001201385BB90312013883B903E01E
:1013C30066701008A3E066700A08A3E0667004085C
:1013D300A3E06622C3E7960809E7960809E796089B
:1013E30009E79622C3E09608A3E09608A3E09608CF
:1013F300A3E09622C008C3E096F50808A3E096424E
:101403000808A3E096420808A3E09645087001D3B4
:10141300D00822080808EAC0E0EBC0E086F0E7A4A1
:10142300FA180986F0E7A42AFA180986F0E7A42A2D
:10143300FA180986F0E7A42AFA1986F0E7A4FBE56F
:10144300F02AFA190886F0E7A42BFBE5F03AFA191B
:101453000886F0E7A42BFBE5F03AFA18180986F0A2
:10146300E7A4C5F02BFBE43AFA1908E7C5F0C6A4D4
:1014730026F6E5F03BFBE43AFA1886F0E7A4F6E536
:10148300F00826F6E43B08F6E43A08F6D0E0FBD091
:10149300E0FA22E4CFC0E0E4CEC0E0E4CDC0E0E473
:1014A300CCC0E075F020C3E633F608E633F608E671
:1014B30033F608E633F6181818EC33FCED33FDEE7B
:1014C30033FEEF33FFC3EC9709ED9709EE9709EF6E
:1014D30097191919400FFFEC97FC09ED97FD09EED9
:1014E30097FE191906D5F0BEECF709EDF709EEF7EB
:1014F30009EFF7191919D0E0FCD0E0FDD0E0FED0D8
:10150300E0FF226016080808C6C313C618C613C630
:1015130018C613C618C613C6D5E0EA227009080810
:1015230008226016181818C6C333C608C633C6087F
:10153300C633C608C633C6D5E0EA22E627F608094D
:10154300E637F60809E637F60809E637F622E02615
:10155300F608A3E036F608A3E036F608A3E036F66D
:1015630022E026F008A3E036F008A3E036F008A353
:10157300E036F022C3E697F60809E697F60809E68F
:1015830097F60809E697F622C3E096F008A3E096DB
:10159300F008A3E096F008A3E096F022E056F608E0
:1015A300A3E056F608A3E056F608A3E056F622E0B9
:1015B30056F008A3E056F008A3E056F008A3E0565F
:1015C300F022E0F608A3E0F608A3E0F608A3E0F6AD
:1015D30022E6F008A3E6F008A3E6F008A3E6F0226B
:1015E300E0FAA3E0FBA3E0FCA3E0FD22EAF0A3EB17
:1015F300F0A3ECF0A3EDF022CAC0E0E6F0A308DA12
:10160300FAD0E0FA22CAC0E0E0A3C582CCC582C505
:1016130083CDC583F0A3C582CCC582C583CDC583E5
:10162300DAE6D0E0CA22C3E498F8E499F912166A1C
:101633008026C3E49AFAE49BFBE920E7E912166AE1
:10164300E498F8E499F922C3E498F8E499F91216B6
:101653006AE498F8E499F9C3E49AFAE49BFB22EB71
:1016630020E7CFE920E7E0B90010BB0008E88AF0E3
:1016730084F8AAF022E4FBC8FA22EB70227B10C89C
:1016830033C8C933C9335007C39AC3DBF280069A00
:1016930050012ADBEAC833F4C8C933F4C9FA227506
:1016A300F008E4C833C8C933C933C99AC99B500485
:1016B300C92AC93BD5F0ECFBC833F4C8E4C9FA2204
:1016C300600D08C6A2E713C618C613C6D5E0F322F9
:1016D300600C08C6C313C618C613C6D5E0F422703F
:1016E3000422600D18C6C333C608C633C6D5E0F45A
:1016F3001822251810AF08F518400215198008F5AF
:101703001840021519D2AF22C0D0251810AF08F522
:1017130018500205198008F51850020519D2AFD0E8
:10172300D0222518F58210AF08F51840021519804C
:1017330008F51840021519D2AF851983222518F52B
:1017430082E43519F58322E4732518C582C0E0E5E8
:101753001934FFC583C0E0E518C3958224F810AFA0
:10176300088583198582188008858319858218D294
:10177300AFCEF0A3E520F0A37808E608F0A3DEFAE5
:10178300EFF0A3E58124FAF8E608F0A3E608F0A356
:10179300E608F0A30808E608F0A3E608F0A315811D
:1017A3001581D0E0FED0E0F8158115811581E8C0E0
:1017B300E0EEC0E0222518C582C0E0E51934FFC57C
:1017C30083C0E0E518C3958224F910AF0885831917
:1017D3008582188008858319858218D2AFCEF0A33D
:1017E300E520F0A37808E608F0A3DEFAEFF0A3E51E
:1017F3008124FBF8E608F0A3E608F0A30808E6084E
:10180300F0A3E608F0A315811581D0E0FED0E0F83F
:1018130015811581E8C0E0EEC0E0228519838518A3
:1018230082E0A3FEE0A3F5207808E0A3F608DFFA40
:10183300E0A3FFE0A3C0E0E0A3C0E0E0A3C0E0E0DA
:10184300A3C0E0E0A3C0E010AF0885821885831928
:101853008008858218858319D2AFD083D082020194
:1018630035851983851882E0A3FEE0A3F520780867
:10187300E0A3F608DFFAE0A3FFE0A3C0E0E0A3C023
:10188300E0E0A3C0E0E0A3C0E010AF0885821885C4
:1018930083198008858218858319D2AFD083D082BB
:1018A30022C0D02518C582C0E0E51934FFC583C026
:1018B300E0E518C3958224F310AF08858319858268
:1018C300188008858319858218D2AFC8F0A3E9F080
:1018D300A3EAF0A3EBF0A37908E709F0A3D8FAECA5
:1018E300F0A3EDF0A3EEF0A3EFF0A3D0E0F0A3D0CC
:1018F300E0F0A3D0E0F0A3E520F0A3E5F0F0A3220D
:10190300851983851882E0C0E0A3E0F9A3E0FAA378
:10191300E0FBA37808E0F608A3DFFAE0FCA3E0FD10
:10192300A3E0FEA3E0FFA3E0C0E0A3E0C0E0A3E0E8
:10193300F5D0A3E0F520A3E0A3F5F010AF0885836D
:10194300198582188008858319858218D2AFD082C1
:10195300D083D0E0F8D0E0327404800674028002B1
:101963007401C0E0F404121725D0E01215FB2274B1
:1019730004800474028000CCC0E0EDC0E0E518C32D
:101983009CCCAD1950011D10AF068C188D19800623
:101993008C188D19D2AF121608D0E0FDD0E0FC22CE
:1019A300D083D082E9C0E0E493A3C386F0C5F09569
:1019B300F0F908E493A386F0C5F095F0700BE49377
:1019C300A3C3994005E9048002A3E475F002A425AA
:1019D30082F582E5F03583F583D0E0F9E493A3C083
:1019E300E0E493C0E022D083D082ECC0E0EDC0E01D
:1019F300E493A3FCE493A3FDED4C600D121A35ECC4
:101A030024FFFCED34FFFD80EFE493A3FCE493A3F8
:101A1300FDED4C600D121A74EC24FFFCED34FFFD58
:101A230080EFD0E0FDD0E0FCE493A3C0E0E493C0FA
:101A3300E022C0E0C3E49396087401939618400F24
:101A4300E49366700808740193661870007019A314
:101A5300A3C3E49396087401939618A3A3400DD0EF
:101A6300E0D0E0D0E0021A25A3A3A3A3A3A3D0E070
:101A730022C0E0C0F088F0E4936670080874019314
:101A830066187000A8F0A3A3700BD0F0D0E0D0E0EC
:0C1A9300D0E0021A25A3A3D0F0D0E0227E
:101AA000C0E074F21218A4A2AFE433FED2AFC2C0F9
:101AB000E5D1A2E4500653D1EF120732751A00EEB9
:101AC000A2E092AF7F01021903C0E0C0D0E8C0E0FD
:101AD000E5A8D2AFC2C7751A00A2E792AFD0E0F86E
:101AE000D0D0D0E032C0E0C0D0E8C0E0C082C08337
:101AF000E5A8F8D2AF758900C2C59003B87401F0AB
:101B0000751A00E8A2E792AFD083D082D0E0F8D077
:101B1000D0D0E032C0E0C0D0E8C0E0E9C0E0C0080A
:101B2000C009C082C083A2AFE433F9D2AF90053CB4
:101B3000E0F8A3E0687008539AFBA374018026C202
:101B4000E990053CE0F50874012508F074BC25080F
:101B5000F58274043400F583E0F5C190053CE0C3E0
:101B600094804002E4F0E9A2E092AFD083D082D02A
:101B700009D008D0E0F9809474F51217B8EAFEEBAA
:101B8000FFEE2434F8EF3400F988088909EE243593
:101B9000F582EF3400F583E0F8EE2437F582EF3478
:101BA00000F583E0F50AEC850AF0A4FCAAF0850AAA
:101BB000F0EDA42AFDE82CF8E43DF97A257B00122B
:101BC000166AEA850882850983F05407F87401B81B
:101BD00000028004C333D8FCC0E0E0131313541F89
:101BE000F8EE28F8EF3400F9E8245DF582E93400D6
:101BF000F583D0E0F8E0586008EE2434F582EF80F9
:101C00001EEE2436F582EF3400F583E0F5F0EA8429
:101C1000A8F0EE28F8EF3400F9E82438F582E9342A
:101C200000F583E0F97F0402186474F51217B8EA2E
:101C3000FEEBFFEE2434F582EF3400F583E0C0E0E4
:101C4000EE2435F582EF3400F583D0E0F08E828FFC
:101C500083A3A3A3A3A3A3A3C082C0838E828F83E5
:101C6000A3A3A3A3A3E0F8A3E0F9D083D082E0C3A9
:101C700098F508A3E099F509EE2480F582EF340089
:101C8000F583E064017069EE2481F582EF3400F59C
:101C900083E0F8A3E0F98E828F83A3A3A3A3A3A379
:101CA000A3E0FCA3E0FD8E828F83A3A3A3A3A3E004
:101CB000FAA3E0FBC3EA9CEB9D5027C3EC98ED9997
:101CC000402EC3EA98EB9950277CB67D08EEFAEFD8
:101CD000FB120FA2EE2480F582EF3400F583E4F0CE
:101CE000800EC3EA98EB9940E0C3EC98ED9950D987
:101CF000EE2434F8EF3400F9E8FCE9FDEE2435F584
:101D000082EF3400F583E0F8EE2437F582EF3400FB
:101D1000F583E0F50AE508850AF0A4F508AAF08540
:101D20000AF0E509A42AF509E82508F8E43509F9D7
:101D30007A257B0012166AEA8C828D83F05407F8AC
:101D40007401B800028004C333D8FCC0E0E0131370
:101D500013541FF8EE28F8EF3400F9E8245DF582FB
:101D6000E93400F583D0E0F8E0586008EE2434F55B
:101D700082EF801EEE2436F582EF3400F583E0F525
:101D8000F0EA84A8F0EE28F8EF3400F9E82438F5FA
:101D900082E93400F583E0F9122625021C25C08271
:101DA000C083851882851983E0F8A3E0F9C3EA9C13
:101DB000EB9D5012C3EC98ED994019C3EA98EB994A
:101DC000501279018010C3EA98EB9940F5C3EC9862
:101DD000ED9950EE7900D083D08222EAC39CFAEBD1
:101DE0009DFB22008521878522C622C0E0C0D0E865
:101DF000C0E0E9C0E0EAC0E0EBC0E0ECC0E0EDC06C
:101E0000E0C008C009C00AC00BC082C083C0F07522
:101E10009B00906182E0A2E64003021EC9E591A208
:101E2000E64003021EC97591BF90077BE064057010
:101E3000081210DA1210E680031210E07521001269
:101E40001140E990077CF07900121134120F187AD2
:101E5000017B0090077AE0F912042C907803E0648B
:101E6000426003021F12900918E014F06003021F81
:101E700012C2AF121E7600782AD0E0F618D0E0F633
:101E8000E59F5407F970059083C080039083BC7868
:101E9000081215C5E9C4C0E07829E65508F5080818
:101EA000E65509F509740B78081216D3D0E0250819
:101EB000F8906270E0A2E740F8E8C333906272F0F5
:101EC000906270E0D2E0F08049E0A2E55024E59114
:101ED000A2E5501E7591DF90077BE0640D701390B2
:101EE000079DE004F064287002E4F07A00E0F91243
:101EF00011B2906181E0A2E35009E5E9A2E3500349
:101F000075E9F7A3E0A2E75009E591A2E750037550
:101F1000917FD0F0D083D082D00BD00AD009D008E6
:101F2000D0E0FDD0E0FCD0E0FBD0E0FAD0E0F9D08A
:101F3000E0F8D0D0D0E032C0E0C0D0C082C0839002
:101F40006183E0A2E05009E5BFA2E0500375BFFE47
:101F5000E0A2E15009E5BFA2E1500375BFFDE0A298
:101F6000E25009E5BFA2E2500375BFFBE0A2E350D7
:101F700009E5BFA2E3500375BFF7E0A2E45009E50D
:101F8000BFA2E4500375BFEFE0A2E55009E5BFA290
:101F9000E5500375BFDFE0A2E65009E5BFA2E650B9
:101FA0000375BFBFD083D0828088C0E0C0D0E8C0B6
:101FB000E0E9C0E0EAC0E0EBC0E0ECC0E0EDC0E08A
:101FC000C0F0E5A7A2E6500FE5A1A2E6500953A78D
:101FD000BF75A1BF12200FE5A7A2E5500CE5A1A295
:101FE000E5500653A7DF75A1DFE5A7A2E15009E59B
:101FF000A1A2E1500375A1FDE5A7A2E2500CE5A165
:10200000A2E2500653A7FB75A1FBD0F0021F20747B
:10201000F81217B875210190077BE064067015125D
:10202000106E8A828B83A3A3A3A3A3A3E0FAA3E0E9
:10203000FB1210C8A2AFE433FED2AF900781E06478
:102040000170187A207B0090077AE0F91204CE7AAA
:10205000207B0090077AE0F9120432906182E0D28E
:10206000E6F0900917E0602185C62280169007806F
:10207000E064017008E5C654F84405F5C653BEFC9B
:10208000121DE47401652160E4EEA2E092AF7F01CD
:10209000021864008E238F24858228858327851863
:1020A00082851983E0CEA3E0CF852882852783EB44
:1020B000C9EAC8EDCBECCA75F010C3E833C8E93300
:1020C000C9EA33CAEB33CBC3EA9EF526EB9FF5256D
:1020D000B35004AB25AA26EC33CCED33CDD5F0DAE2
:1020E000AE23AF242274EB1217B874FA1216F58AD5
:1020F000088B098C148D1590077BE024F7C3940599
:10210000500690843402224712106E8A0A8B0BAE5E
:102110000AAF0BEE4F7003022244AC08AD098518DC
:1021200082851983AA82AB831210F88E828F83A3D3
:10213000A378081215C5908400780812159F851899
:1021400082851983780C1215C5908400780C1215BD
:102150009F7808790C1213D7501F7808790C121544
:10216000779083FC78081213F7404785081085099B
:1021700011850A12850B138041850C10850D118580
:102180000E12850F13781079081215779083FC785A
:10219000101213F7501C75100075110075120075A0
:1021A00013017810790C1215777810790812153E02
:1021B000800890843478101215C5740978101215AF
:1021C0001F90840478081215C578107908121496A7
:1021D0008E828F83A3A3A3A3A3A3E0F8A3E0F97A3D
:1021E000D07B0312166A88088909E4F50AF50B7892
:1021F00010790812153E7404121740E0F8A3E0F9B4
:102200007AD07B0312166AE8FA8A08E4F509781096
:1022100079081213D75007781079081215779007AC
:102220007BE06408600AE064066005E06405701CF9
:1022300090840878101213F7501290840C781012C2
:10224000155180089083F878101215C58514828581
:10225000158378101215D4740612170B7F0E02180E
:102260006474F71217B812110A900915E06401702E
:1022700010906245E4F0A3F053F4F343FE0C539046
:10228000F31210B6E5C654804449F5C6E59E547F66
:10229000644970F8906185740FF0900913E0F47050
:1022A00002A3E0604E900914E0600814601B146003
:1022B0002E8040750801750900900913E078081216
:1022C00016E2E508F45280802A750801750900902D
:1022D0000913E078081216E2E508F45290801475AC
:1022E0000801750900900913E078081216E2E50864
:1022F000F452A079007F0202186474F71217B8E94B
:10230000FEEAFF74016E700C7A807B0090077AE021
:10231000F912042C902634E493F46008E493F91243
:102320000F0C800953C680E59E547F70FA1210BCD2
:10233000900915E064017003120F24900913E0F472
:102340007002A3E0604B900914E0600814601A1456
:10235000602C803D750801750900900913E078082C
:102360001216E2E508428080287508017509009080
:102370000913E078081216E2E50842908013750808
:1023800001750900900913E078081216E2E5084289
:10239000A012110A12106E8A088B09A808A909E870
:1023A000496015E5E170FCE82414F582E93400F594
:1023B00083E0F46003E0F5E174016F700A7A019044
:1023C000077AE0F91204980222F574F11217B88A1C
:1023D000088B098C0A8D0B740F121740780C12159C
:1023E000C5908400780812159F908400780C12150F
:1023F0009F7808790C1213D750157808790C1215AC
:10240000779083FC78081213F740157901801378D0
:102410000C79081215779083FC780C1213F740EBB7
:1024200079007F0802186474ED1217B88A088B09C6
:102430008C0A8D0B7413121740780C1215C59084FA
:1024400000780812159F908400780C12159F780C64
:1024500079081213D740117808790C121577AA0859
:10246000AB09AC0AAD0B8022751000751100751216
:10247000007513017810790C12157778107908120D
:10248000153EAA10AB11AC12AD137F0C021864906C
:10249000840078081215C58A828B8378081215B2D9
:1024A0007F0402186474F51217B88C828D83780843
:1024B0001215C58A828B83780812158BEA2404F8DA
:1024C000EB3400F98C828D83A3A3A3A3E0FCA3E0EB
:1024D000FD88828983C3E09CF0A3E09DF088828917
:1024E00083C3E09420A3E0944E4022908450780867
:1024F0001215C58A828B8378081215648A828B83B1
:10250000A3A3A3A3E02420F0A3E0344EF0808074C2
:10251000F51217B8E9FE9008CDE0FAA3E0FBEEC390
:1025200033F8E433F9748F28F582748239F583E047
:102530002AF508A3E03BF509780812195F9083D4C7
:102540001215E3122094740212170B8A088B098C5F
:102550000A8D0B74107808121506AA08AB097F04BF
:1025600002186474F11217B88A0C8B0D8C0E8D0F43
:10257000740F121740E0FAA3E0FB7411121740E049
:10258000F508A3E0F5097413121740E0FEA3E0FF7D
:10259000780812195FEA2401F508EB3400F509E424
:1025A000F50AF50B780C790812141690841C78083B
:1025B0001215C5780C7908121416AA0CAB0DAC0EC6
:1025C000AD0F122094740212170B8B09EA450960B3
:1025D000047A0180027A00EC2AFCED3400FDECF86C
:1025E000EDF97A717B0212166A88088909E4F50A06
:1025F000F50B8E828F8378081215D4ECF8EDF97AFA
:10260000717B0212166A8A088B0974057808121603
:10261000E28E828F83A3A3A3A3E508F0A3E509F0CC
:102620007F08021864C082C083E9906000F0D08304
:03263000D0822233
:10263400FFFFFFFFFFFFFFFFC082C083E9900D5043
:10264400F00228C074F712174CE9900699F07CD177
:102654007D067AFF7BFF120C4290069A74FFF0A36A
:10266400F0A3E4F0A3F07905120BCA900699E0F9FF
:10267400120AF27A607B0C120E220235CE74F41226
:10268400174C8A088B09EB54806030900699E0F966
:102694001204148A0A8B0BAE0AAF0BEE4F60138E32
:1026A400828F83E064B07003120BE2EEFAEFFB1248
:1026B4000402AA08E5096480FB80047A007B000216
:1026C400288F74F212174C74FC1216F5EAFEEBFF15
:1026D4007412121740123AB5EE4F70030227697450
:1026E40002121740EEF0A3EF122ACAECF0A3ED1287
:1026F4002ACAAA82AB83120AECE9F50A706AE508D1
:10270400450960648E828F83123A9BEE4F60567A3D
:10271400067B001204808A0C8B0DA80CA90DE849D5
:102724007005750A13804188828983E4122776EE46
:10273400F0A3EF123AC6E508F0A3E509F090069F6E
:102744001227FD90069F7005123578801B1235669E
:102754008003EAFCEBFD8C828D831227FD70F38CE1
:10276400828D8380E3750A02A90A740412170B028E
:102774003CB5F0A3123A6CA32274F212174C890AE6
:10278400E975F017A4FEAFF090069EE4F090069C65
:102794001227FD600A12048690069CE4F0A3F0EE72
:1027A400FAEFFB1204808A088B09EA4509602FEED0
:1027B400FCEFFD79001203EA90069CE508F0A3E51E
:1027C40009F07B0080081227E7E4F0A3F00BEBC3C9
:1027D400950A40F2E50A90069EF07900800279138A
:1027E400023CB5EB75F017A4F8A9F090069CE0281C
:1027F400FAA3E0398A82F5832212320AEA4B227460
:10280400F412174C740C121740123A90FEE9FF753B
:102814000800750900800CE5082401F508E5093471
:1028240000F509C3E5089CE5099D503285080A8531
:10283400090B7403780A1216E2EA250AF8EB350B41
:10284400F988828983A3A3A3A3A3A312364DEE65BB
:102854000A7003EF650B70BFE8FAE9FB80047A00A5
:102864007B00802774F412174C7900EAA2E0501B15
:1028740075088D750983780812195F7C047D007AC8
:10288400527B0D120BC4740212170B7F0402181E24
:10289400C082C08390069F1228C7601C88828983E7
:1028A400A3A3E06A7003A3E06B8882898370E8A322
:1028B400A3A3A312320680047A007B00D083D082C3
:1028C400020135123D9BE8492274EE12174C74FC48
:1028D4001216F5EAFEEBFF851882851983E4F0A34E
:1028E400F0EE2402123558EE2405123A73EE240455
:1028F400F50EEF122E7FE024FE603924FC6046249E
:10290400FE605224FE605E24FE70030229E024FE71
:102914007003022A4424FE7003022A5324FE700327
:10292400022A6224FC7003022A7124FE7003022A24
:1029340080022ABD9006B87417F0A3E4122AD212BA
:10294400086A022ABD851882851983AC82AD831278
:102954000BE8022A8D851882851983AC82AD831217
:102964000BEE022A8D850C08850D0974021217409E
:10297400AC82AD83850882850983123206120B105E
:102984008A0C8B0DAC0CAD0DEC4D603BE4F50CF5F5
:102994000D780C12195F750CB8750D06780C1219A8
:1029A4005F750CB9750D06780C12195F740812174F
:1029B40040121976123F1712170BE9F50C700B121F
:1029C40031FC120882800F750C0185088285098309
:1029D400122AC0123578850C08022A907402121744
:1029E40040AC82AD83850C82850D83122FD1603C6F
:1029F400850C82850D83A3A31219767510B8751101
:102A040006781012195F7510B9751106781012192D
:102A14005F7408121740121976123F1712170BE948
:102A2400F509700B1231FC120888800F75090185B5
:102A34000C82850D83122AC0123578850908804CD2
:102A4400851882851983AC82AD83120BF4803A8594
:102A54001882851983AC82AD83120BFA802B8518FA
:102A640082851983AC82AD83120C00801C85188288
:102A7400851983AC82AD83120C06800D851882857E
:102A84001983AC82AD83120C0CE9F508E5086029C2
:102A94008E828F83A3E06414601F850E82850F836A
:102AA400E09006B8122ACA123D979006B9123578FA
:102AB400E508A3122AD2120864023467123D9B85EA
:102AC400188285198322F085188285198322F07C67
:102AD400B87D06850A82850B8312320A2274EE12AF
:102AE400174C74FC1216F58A0A8B0B8C0E8D0FEAA8
:102AF4002405F508EB3400F5097C157D0079007A8E
:102B0400B87B061203EAE5082402F50CE509123A3B
:102B14007685188285198385821085831178101231
:102B2400195F850882850983A3A3A3A3122FC81262
:102B3400195FE5082405F510E5093400F51178104E
:102B440012195F850C82850D8312331D120B0A74D2
:102B54000612170B8A108B11AE10AF11E50A24026E
:102B6400F50AE50B12355BEE4F7003022C9F8017BC
:102B7400740212174012320688828983EAF0A3EBAA
:102B8400F09006B8E004F09006B8E0C39405400362
:102B9400022C9FE4F510F511781012195F7510A13D
:102BA400751106781012195F7510A2751106781048
:102BB40012195F74061217401219767910EEFCEFA1
:102BC400FD123F1912170BE9705E8508828509838F
:102BD400A3A3A3A3A3A3A3E0F89006A1E06870486D
:102BE400122FC812195F7CA27D06E5082408FAE5B5
:102BF400093400FB1203E4740212170BE960298EF6
:102C0400828F83A3A3A3A31232069006B8E0F51023
:102C1400740278101216E274B92510F58274063520
:102C240011F583EAF0A3EBF07402121740858210C9
:102C3400858311781012195F7402121740121976E5
:102C4400850C82850D8312322C12170B8A108B117E
:102C5400AE10AF119006B8E0F5107511007402784B
:102C6400101216E274B82510F874063511F988822A
:102C74008983A31227FD7003022B6BE82403080841
:102C840008E93400F9EE4F6003022B7488828983CB
:102C940074FFF0A3F09006B8E004F09006B8E0608A
:102CA4000A1231FC1208767900800B8508828509A6
:102CB4008312356F790A02346774EA12174C74FE72
:102CC4001216F58C128D13EA2405F50CEB123F0154
:102CD400123A9F750800750900EA2402F510EB34D6
:102CE40000F51185188285198385820A85830B78FE
:102CF4000A12195F850C82850D83A3A3A3A3122E48
:102D04009512195FE50C2405F50AE50D12355B787B
:102D14000A12195F850C82850D83122E99120B0AF3
:102D2400740612170B8A0A8B0BEA450B7003022EEA
:102D34003AEA2404F50EEB122E7F123A9F8A828B14
:102D440083A3A3A3E0F98510828511831232106056
:102D540003022E3AE4F514F515781412195F75146C
:102D6400A1751506781412195F7514A275150678E5
:102D74001412195F74061217401219767913AC0AEB
:102D8400AD0B851082851183123F1F12170BE9F5D5
:102D9400096003022E3A9006A1E0F8E5087009E004
:102DA40024029006B9F080149006B9E0FCE82402ED
:102DB400FAE43400FBEA6C7001EB707E850882AAA9
:102DC40082122FBF9414122FB7506B850E82850F79
:102DD40083E0C0E074BA2A122E76D0E0F0050885AC
:102DE4000E82850F83A3E0C0E085080A74BA250A21
:102DF400122E76D0E0F005089006A1122E95121935
:102E04005F7CA27D0685080A74BA250A122E8912EF
:102E1400170B9006A1E02508F50874FF6E70037483
:102E2400FF6F6012EE24010EEF3400FFE508C39437
:102E3400145003022CE7E508601312321A8510823D
:102E440085118312320612087C79008014E509701A
:102E54000375090A851282851383EEF0A3EFF0A9A6
:102E640009740212170B7F0E02181E85080C74BA1F
:102E7400250CF58274063400F583223400F50F85A1
:102E84000E82F58322FA74063400FB1203D2740214
:102E940022123AD522A3A3122E9F22123566FDEEEA
:102EA400FAEFFB2274EE12174C74FE1216F58C0E18
:102EB4008D0FEA2405F50CEB123A76750B0090069B
:102EC400B8E4F0F50AEA2402F508EB3400F50980C9
:102ED400449006B8E0FA9006A1E0F8122FBF9417C8
:102EE400122FB7400D9006B8E0F87416C3989006F8
:102EF400A1F0122FC812195F7CA27D0674B92AFAB8
:102F04007406122E8C12170B9006A1E0F89006B8E6
:102F1400E028F0050AE50C2416F582E50D122E7A58
:102F2400E0F8E50AC39850749006B8E0C3941650CC
:102F34006BE50AC333F8E433F9E50C28FEE50D39F3
:102F4400FF851882851983AC82AD838E828F8312AC
:102F54002FD17008750B0112356B8050E4F510F514
:102F640011781012195F7510A175110678101219D5
:102F74005F7510A2751106781012195F7406121786
:102F8400401219767916850882850983123F1F122B
:102F9400170BE9F50B7003022ED580BB7CB87D06B8
:102FA40085088285098312320612088EA90B7402E1
:102FB400023469E99400C365D03322EA28F8E43482
:102FC40000F9E822E0F51075110078102212345E41
:102FD4008A108B11AC10AD11EC4D2274EA12174C0F
:102FE40074FC1216F58A0C8B0D8C128D13EA2405D1
:102FF400F50AEB12355B750800750900E50A240231
:10300400F510E50B3400F511740212174085820E99
:1030140085830F780E12195F850A82850B83A3A31B
:10302400A3A3123A7B12195FE50A2405F50EE50BFA
:103034003400F50F780E12195F8510828511831202
:103044003561123200120B0A740612170B8A0E8BAA
:103054000FAE0EAF0FE50C2402F50EE50D3400F5AE
:103064000F80388882898374FFF00508122E6F74EC
:10307400FFF005089006A1E0F50C750D00780C1220
:10308400195F7CA27D0685080C74BA250C122E8962
:1030940012170B9006A1E02508F508EE4F60278E65
:1030A400828F83A3A3A3E0F9850E82850F83123256
:1030B40010EE2404123A73E96027850C82850D838F
:1030C4001231F2123578E50870030231D812321A3F
:1030D400850E82850F83123206120894790002311C
:1030E400EDE4F514F515781412195F7514A175152E
:1030F40006781412195F7514A2751506781412193E
:103104005F74081217401219767911EEFCEFFD85F1
:103114000E82850F83123F1F12170BE9F509709A6F
:10312400850882AA82EA9006A17009E02404900628
:10313400B9F08025E0F89006B9E0F514E82404FC21
:10314400E43400FDEC65147001ED7081122FBF941E
:1031540012122FB740030230D1850C82850D83E013
:10316400C0E074BA2A122E76D0E0F00508850C82ED
:10317400850D83A3E0C0E0122E6FD0E012323585B6
:10318400820C85830D780C12195F74041217401297
:10319400197685108285118312322C12170B8A0C32
:1031A4008B0DAE0CAF0D85080C74BA250CF87406A3
:1031B4003400F9EE4F700302306785188285198355
:1031C400E088828983123235A3E0C0E0122E6FD0EA
:1031D400E0023075E509700375090A850A82850BDA
:1031E400831231F2123578A9097404022E67123D54
:1031F4009B851282851383227CB87D06850A82858D
:103204000B8312320A22E0FAA3E0FB2212320A12E2
:103214000AF8E9F509229006B9E0F5F0E50884908A
:1032240006B8F07CB87D0622122E9F120B16740489
:1032340022F005088518828519832274EC12174C34
:1032440074FE1216F58A088B098C0E8D0FEA24057C
:10325400FEEB3400FF123448EE2418123A73EA45A8
:103264000B70030232EB12343150291233108A10DE
:103274008B11EA4511606B7912AC0AAD0B8508829B
:1032840085098312320685108285118312174AE953
:10329400F50A7058E4F50AF50B780A12195F8E8264
:1032A4008F83A3A3E0F50A780A12195FEE240312B0
:1032B4003558780A12195F8E828F8312331D120CCF
:1032C40030740612170BE9F50A7021850C82850DFE
:1032D40083E0701F85088285098312320612089ADA
:1032E4008011750A0E8009750A018004E50A6003DD
:1032F40012356B850C82850D83E0600479008002B1
:10330400A90A740212170B7F0C02181E85188285F5
:10331400198312320A120C1E22123566FD850882A8
:1033240085098312320A2274EE12174C74FE1216A7
:10333400F58A088B098C0C8D0DEA2405FEEB34000C
:10334400FF750E00123448EA450B700302340F1265
:103354003431502C1233108A0E8B0FEA450F604A19
:103364007912AC0AAD0B8508828509831232068571
:103374000E82850F8312174AE9F50E600302341298
:1033840085088285098312364DAA0AFB12342370FC
:10339400147AFF7BFF123423606C88828983E50AE8
:1033A400F0A3E50BF0750A008007750E0E805F052B
:1033B4000A90069EE0FAE50AC39A504AE50A75F0B7
:1033C40017A4FAABF088828983A3A3E02AFAA3E0C6
:1033D4003BFB8A828B83123561EC4D70D2750A17E0
:1033E400750B00780A12195FEEFCEFFD1203D2741C
:1033F4000212170BEEFCEFFD850882850983123259
:10340400061208A08014750E098003750E01123D82
:1034140093850C82850D83123578A90E022FB21282
:103424000C128A108B11A810A911E84922E508246E
:1034340002F508E5093400F5098A828B83A3A3A366
:10344400E0A2E522851882851983AC82AD838E8241
:103454008F8312345E8A0A8B0B22E0FAA3E0FB12FC
:103464000B1022740412170B7F0A02181E74EC123C
:10347400174C8C108D11EA2405F50CEB123A767575
:103484000F00EA2402F50AEB12355B850A82F58304
:10349400123206123FA5700302354D750E0080717D
:1034A400850C82850D83E06401704F8E828F83A327
:1034B400A31219768E828F83A3A3A3A3E0F51275BA
:1034C4001300781212195FEE2405F512EF3400F59B
:1034D40013781212195F123200120C30740612178C
:1034E4000BE9F50F6014850C82850D83E4F0123D21
:1034F400938510828511831235787C177D007900BD
:10350400EEFAEFFB1203EA8E828F83E4F0A3F00558
:103514000E90069EE0F8E50EC398501EE50E75F079
:1035240017A4F8A9F0850882850983A3A3123F0B89
:10353400123561EC4D60030234A485088285098349
:1035440074FFF0A3F0E50F70061232001208A6A96A
:103554000F02330BF50AEF3400F50B22A312356684
:10356400FD22E0FCA3E0228E828F83123D9B850E18
:1035740082850F83E8F0A3E9F022C082C08390061D
:103584009AE06A7003A3E06B70067A9A7B06800463
:103594007A007B000228C074F712174C7F00EF7585
:1035A400F003A4F8A9F0EC28F8ED39F988828983AE
:1035B400E06A7003A3E06B7006E8FAE9FB800B0F86
:1035C400EFC3940240D87A007B007F0102181E7476
:1035D400F612174C123B8470067A007B008007A316
:1035E400A3A3A3123206023C4574F212174CE9FE5F
:1035F400740E12174012364D7410121740123AB559
:103604008C828D83E06402703BA3123D978882898B
:1036140083E0F50CA3E0F9A80C7402687003742924
:10362400697021750C02750D00780C12195F780809
:1036340012195F780A12195FEEF9120C547406120B
:10364400170B80027901023CB5E0F50AA3E0F50B03
:103654002274E812174C74FB1216F5E9851882855A
:103664001983F08A168B178C0E8D0F741F12174056
:10367400123AB5742112174012364D7423121740B2
:10368400123A9F7510008C828D83A3A3A3E0A2E459
:10369400502A741D1217401233168A828B83E582D6
:1036A40045837003023761790AAC0EAD0FAA16ABDD
:1036B4001712174AE9F5106003023764850E8285F4
:1036C4000F83E064026003023A1AA3123D9785084F
:1036D40082850983A3858212858313E50E2406F56A
:1036E4000CE50F123A7688828983E0FAA3E0F9EABE
:1036F4002400F514E439F51578141219E9010000D1
:1037040028012829370700022800380328703700C9
:10371400292A39012952390229F93803292A390475
:1037240029BB391A3AEE4F703E850C82850D8312FF
:103734003A90FAE9FB8A828B83E0850A82850B83BF
:10374400123ACC12195F8A828B83A3123566FDAAC2
:1037540008AB091203D2740212170B800375100E02
:10376400A9107405023EF975100B80F4EE4F70F742
:10377400850A82850B837401F0123AA58508828537
:103784000983F07C007D00850E82850F83A3A3A3AB
:10379400A3E02401FAA3E03400FB120B10EA4B600F
:1037A400418A828B83E02402F8850A82850B83E0B8
:1037B40028F0EA2404F8EB3400F988828983E08550
:1037C4001282851383123ADE123ACC12195F8A826E
:1037D4008B83123560E5082403FAE5093400FB0203
:1037E4003757850A82850B83E02404F07C047D002E
:1037F4007900AA12AB131203EA023764EE4F600396
:1038040002376B123AA5FEA3E0FF850A82850B837B
:103814007404F0EE850882850983F0EF85128285B1
:103824001383F07403121740AC82AD83EEFAEFFBFE
:10383400123B7270030238D68A828B83A3A3123A96
:103844009B740112174085820E85830F780E12191E
:103854005F74051217401219767CFF7DFF120B1658
:10386400740412170B8B0FEA450F7033850C828595
:103874000D83123A7B12195F850C82850D83A31286
:1038840019767C027D007A897B84120942740412C1
:10389400170BE9700A740112174074FFF0A3F08E3D
:1038A400828F83E064027034750C02750D00780C0D
:1038B40012195F8E828F83123560E5082404FAE5BD
:1038C40009122E8C12170B850A82850B83E02402C1
:1038D40080097401121740EEF0A3EFF0740112177F
:1038E40040123A8CF07401121740A3123A84A3A335
:1038F400A3F0023764EE4F600302376B850C8285B8
:103904000D83123561AA16AB17120C48850A8285FD
:103914000B837402F0EA850882850983F08512829C
:10392400851383EB80CBEE4F600302376B123AA50D
:10393400F8A3E0F9850A82850B837402F0E8850810
:1039440082850983F0E985128285138380A3850C1F
:1039540082850D831232061203CCEAFC8C82A88283
:10396400C39EE49F404BE86E7001EF70047C0080BE
:103974001F851882851983E0FAEE2AFAEF3400FBDA
:10398400C3EA98EB94005003E08004EECCC39CFCA3
:10399400EC850A82850B83F08C0A750B00780A1279
:1039A400195F850C82850D83E02EFCA3E03F02376E
:1039B40052751007023764EE4F600302376B850CB3
:1039C40082850D83123D97850A82850B837407F0E7
:1039D40088828983123A84123A6CE08512828513B4
:1039E40083F0E82402FAE93400FB8A828B83123ADA
:1039F40084123ABD123A8CA3123AC6123A95F0E8F0
:103A04002405F8E93400F988828983123A95A312CF
:103A14003ADEA30238F2741D121740123B7D700384
:103A2400023761123D97880C890DE8450D70030239
:103A340037618E108F11781012195F780A12195F8E
:103A4400780812195F7406121740E0F9AC0EAD0F36
:103A5400AA16AB17850C82850D8312174A740612B9
:103A6400170BE9F510023764F088828983A322F5E5
:103A74000CEF3400F50D22E0F50E750F00780E22E0
:103A8400E085088285098322123AE522123D9BE8EB
:103A940022123AE5A3A322A3A3A3A3E0FEA3E0FF7B
:103AA40022850C82850D83E0F8A3E0F5838882E00B
:103AB40022E0F508A3E0F50922A3A3F08A828B8310
:103AC400A322122778A3A322F08A828B83123AD5E9
:103AD40022E0F50A750B00780A22123A6C123AE5D4
:103AE40022E0850882850983A3A32274EE12174C71
:103AF40074FE1216F58A0A8B0BECFAEDFB741412A1
:103B04001740E0F510A3E0F5117416121740E0FE1B
:103B14007418121740E0F50EA3E0F50F851882859E
:103B24001983AC82AD83123B72603E85188285197D
:103B340083123B7D602FA3A3123AB5E508450960C3
:103B440024780E12195F781012195FEEF9AC0CADDF
:103B54000DAA0AAB0B85088285098312174A7404DF
:103B640012170B8006790E80027901022FB2120B14
:103B7400108A0C8B0DEA450D2212320A123B842264
:103B8400120BDC8A828B83E58245832274F612173A
:103B94004C74FE1216F5740C121740123A908518E4
:103BA40082851983F07401121740E9F0E4F508F5F1
:103BB40009780812195F750802780812195F7404ED
:103BC400121740858208858309780812195F120C40
:103BD40030740612170B740212170B806474F712F8
:103BE400174CEAFEEBFF89087CD17D06120C48EAEB
:103BF4005402600BA908EEFAEFFB120B0480027961
:103C0400010235CE74F612174C74FF6A700374FF08
:103C14006B701C7B00EB75F003A4F8A9F0EC28F89A
:103C2400ED39F9123C4A0BEBC39402501480E612AE
:103C34000C188A088B09A808A909E8496003123CF2
:103C44004A7F0202181E8882898374FF122776E451
:103C5400F02274F612174C120C188A828B83E582B8
:103C640045836006A3A3E0FA80027A007B0080D13A
:103C740074F212174C8A088B09ECFEEDFF740E12D5
:103C84001740E0F50A123CBA701CEEFCEFFD7AFF17
:103C94007BFF123CBA70047911801688828983E50F
:103CA40008F0A3E509F088828983A3A3E50AF079E3
:103CB400007F0602181E120C188A0C8B0DA80CA982
:103CC4000DE8492274EE12174CEAFEEBFF8C088DC6
:103CD40009890C7412121740123D9774141217407C
:103CE4001235617416121740123206750D00EC4D30
:103CF4006003023D8B7402650C6003023D8688827A
:103D04008983123566F9EC2400F50EE439F50FEADF
:103D1400F4F8EBF4F9EC58F8E50F59F9E849705D5B
:103D2400E5082406F8E5093400F9880A890B888235
:103D3400F583122E9B120C488A108B11E50E651028
:103D44007004E50F65116042780E12195F850A82CE
:103D5400850B83122E9B120C4E740212170BE9F57D
:103D64000D7027780E12195F850882850983A3A335
:103D7400122E99120C66740212170B800D750D80A9
:103D84008008750D0D8003750D0BA90D02346C8E22
:103D9400828F83123D9B22E0F8A3E0F92274E8129B
:103DA400174C74E71216F5851882851983EAF0A377
:103DB400EBF08C168D17890E7431121740E0F51252
:103DC400A3E0F5137433121740E0F514A3E0F515DE
:103DD4007435121740E0F50F750800750900E50900
:103DE40075F003A4F8A9F0851882851983123F0B96
:103DF400E0F47003A3E0F47003023EE9EE2402F55C
:103E04000CEF123F01E07003023EE985160A8517A4
:103E14000B780A12195FAC14AD15AA12AB13120B6E
:103E2400D0740212170B8A0A8B0BEA450B7003023B
:103E34003EE9E4F510F511781012195F74061217B3
:103E440040858210858311781012195F7409121746
:103E540040858210858311781012195F851282853E
:103E64001383A3A3A3A31219767914AC0AAD0B8E02
:103E7400828F83123F1F12170BE97069850A8285AE
:103E84000B83A3A3A3A3123D977402121740123508
:103E940078850C82850D83E0A2E05018A90E740287
:103EA400121740AC82AD838E828F83123206120BBE
:103EB40028E94208850C82850D83E0A2E15026E5BD
:103EC4000FF50A780A121963A90E7403121740AC8D
:103ED40082AD838E828F83123206120B22740112FA
:103EE400170BE942080509E509C394025003023D92
:103EF400E2A908741912170B7F1002181E3400F57A
:103F04000D850C82F58322E028FEA3E039FF8E8222
:103F14008F83227916850A82850B8312320A120C4A
:103F24002A74082274F212174CEAFEEBFF890B7410
:103F340001650B600E7402650B70637901120E400B
:103F4400E9705BEEFAEFFB123FA56047750A00804B
:103F54000B7C177D0079001203EA050A90069EE0A7
:103F6400F8E50AC3985021E50A75F017A4F8A9F0FA
:103F7400850882850983A3A3E028FAA3E039FB8A94
:103F8400828B831228C770C985088285098374FFD0
:103F9400F0A3F07CD17D06EEFAEFFB120C42023C5A
:103FA400B5120C128A088B09EA45092274F2121719
:103FB4004C8A088B09ECFEEDFF740E121740123682
:103FC4004D900D50E0F4603D7A097B001203FCEA49
:103FD4004B60328A828B8374B1F0A3E4123ABFA39C
:103FE400123ABDA3E508F0A3E50912400CEEF0A3D4
:103FF400EF12400CA3A3E50AF0A3E50BF0900D50DB
:10400400E0F9120408023CB5F08A828B83A3A3A3CF
:10401400A3A322C082C0839061907404F0A3744867
:10402400F0A37402F09061807440F09061BC74035A
:10403400F09061877419F0906265741BF090619C34
:10404400740DF090619A7433F0A37455F09061A0EC
:10405400743AF0900915E064017009C29190077FE9
:104064007467800590077F7461F090263AE493901A
:104074006186F0902634E493F46027E493540FF8B7
:10408400906185E0686012E5C654804449F5C6E550
:104094009E547F644970F8E8F053C680E59E547FCF
:1040A40070FA7905121194024259C082C083E9540E
:1040B4000FF9906185E0696012E5C654804449F5C2
:1040C400C6E59E547F644970F8E9F053C680E59EC6
:1040D400547F70FA024259C082C083E5A8F853A8FD
:1040E4007E906181E4F0A3F0A3F0C2BA539AFEC2B9
:1040F40089759B00C2C275E90075910075BF007592
:10410400A91175B905906181F0A374C0F0A3E4F01E
:10411400D2BA439A0174805842A8024259C082C05C
:104124008374F81216F590077DE0F8A3E0F9E849E6
:10413400700302424F90077DE05440602379088564
:104144001882851983AA82AB83120FFC8518828595
:104154001983AA82AB83120CD290077DE054BFF07E
:10416400E054806010790C7A397B09120FFC9007B7
:104174007DE0547FF0E0A2E0503190619A7433F016
:10418400A37455F09061A0743AF0900915E06401AD
:104194007009C29190077F7467800590077F7461EE
:1041A400F0120CD890077DE054FEF0E05402603128
:1041B40090619A743FF0A3745AF09061A0747FF0F8
:1041C400900915E064017009D29190077F747180A1
:1041D4000590077F746AF0120CD890077DE054FDB7
:1041E400F0E054046013902638E493906186F01252
:1041F4000CDE90077DE054FBF0E054086013902639
:1042040039E493906186F0120CDE90077DE054F758
:10421400F0E05410601390263AE493906186F01213
:104224000CDE90077DE054EFF0E05420600A120C9D
:10423400DE90077DE054DFF0A3E05401600D120F1F
:1042440024120CE490077EE054FEF0740812170B5D
:104254008003F0A3F0D083D08202013574EC1217EE
:104264004C74F41216F5851882851983AC82AD83DB
:104274007583837582EC740412160890263893F4BF
:1042840060030243ED907808E0C3940250030243B4
:10429400CD7404121740AC82AD8375838375824E4E
:1042A40074081216088518828519838582128583FD
:1042B400137404121740AC82AD83750EFF750FFFA3
:1042C4007FFF7E00750C48750D78801574086E703C
:1042D4000302436074096E7003024360740A6E60E3
:1042E4007B850C82850D8378081215C58C828D839D
:1042F400A909E50AC9F8881074187808121506E5A2
:10430400104508F8C3E098A3E099850C82850D83D5
:1043140078081215C540188C828D83741878081299
:104324001506E5104508F8E0C398F8A3E0801C746E
:10433400187808121506E5104508FAE9FB8C828DF9
:1043440083E0F8A3E0F9EAC398F8EB99F9C3E89598
:104354000EE9950F5006880E890FEEFF0EE50C242A
:1043640004F50CE50D3400F50DEEC394135003026F
:1043740042D074FF650E700474FF650F60238F08CC
:10438400740278081216E274482508F582747835A8
:1043940009F58378081215C5851282851383E5080B
:1043A400F0EC24020C0CED3400FD8512828513839D
:1043B400A3858212858313740C121740E5826C70F6
:1043C40003E5836D60030242BE7508017509007838
:1043D4000812195F7402121740AC82AD837A8E7B87
:1043E40009120642740212170B740C12170B7F0C7D
:1043F40002181EC082C0839061AE7468F0A3746A10
:10440400F090624574FBF0A304F053F4FD43FE0204
:104414009009157401F09061A0E0643A90619A707B
:10442400237433F0A37455F09061A0743AF07401CE
:1044340064017009C29190077F7467802890077F98
:1044440074618021743FF0A3745AF09061A0747F6A
:10445400F0740164017009D29190077F7471800532
:1044640090077F746A0242587F0402181EC082C0FB
:10447400839008C7E06401700A9008CCE060047976
:104484000C80027900024259C082C08375E1F19028
:1044940008CAE060551460081460591460518059CA
:1044A400120F369008C0E0F97AC17B0812111690F9
:1044B40083E01215E312114C9084401215E312119B
:1044C400229008CBE0F912112E790112118890087C
:1044D400BEE02416F8A3E03400F988828983744E80
:1044E400F0A3740FF07900024259120F3C80B41209
:1044F4000F4280AF120F4880AA791280EA74F41236
:10450400174C75D90D9008AFE0A2E0E4331313F80B
:104514009008C0E0C4333354C0484401F5D978BE90
:10452400790888828983A3A3A3E0F5D98882898343
:10453400A3A882A983E864C47003E9640870E378DB
:10454400AF790888828983A3E0F5D988828983A317
:10455400A882A983E864B57003E9640870E575E18D
:10456400959008AFE0F97AB07B0812111C900D7297
:1045740074E2F0A3740EF0A37444F0A37410F0A3D7
:104584007444F0A37410F0A37444F0A37410F0A363
:1045940074E8F0A3740EF0A37444F0A37410F0A3B1
:1045A4007400F0A3740FF0900D807444F0A37410A1
:1045B400F0A37444F0A37410F0A37444F0A3741033
:1045C400F0A37444F0A37410F0A37444F0A3741023
:1045D400F0A37444F0A37410F09008BEE0F8A3E0D4
:1045E400F5838882A3A378081215C59083CC780834
:1045F400121551908400780812159F9008BEE0248B
:104604000EF8A3E03400F98882898378081215D45F
:104614009008BEE02414F8A3E03400F9888289836A
:104624007413F090077B7402F002446CC082C08360
:104634009008D0E02407F5D99008C0E0C43333547F
:10464400C0F5D978BE790888828983A3A3A3E0F54D
:10465400D988828983A3A882A983E864C47003E902
:10466400640870E39008D0E0601F78BE7908FAE827
:104674002413F582E93400F583E0F5D9888289832F
:10468400A3A882A9831AEA70E69008F0E02407F54B
:10469400D99008C0E0C4333354C04404F5D978BE7B
:1046A400790888828983A3A3A3E0F5D988828983C2
:1046B400A3A882A983E864C47003E9640870E39042
:1046C40008F0E0601F78BE7908FAE82433F582E93F
:1046D4003400F583E0F5D988828983A3A882A9836D
:1046E4001AEA70E675E195900D7274EEF0A3740EFB
:1046F400F0A37444F0A37410F0A37444F0A37410F2
:10470400F0A37444F0A37410F0A374E8F0A3740E3F
:10471400F0A37444F0A37410F0A37400F0A3740F16
:10472400F0900D807444F0A37410F0A37444F0A3CB
:104734007410F0A37444F0A37410F0A37444F0A3B1
:104744007410F0A37444F0A37410F0A37444F0A3A1
:104754007410F09084501215E39008BEE0240EF813
:10476400A3E03400F9888289831215EF9008BEE033
:104774002414F8A3E03400F9888289837412F09039
:10478400077B7401024258C082C0839008D0E024A1
:1047940007F5D99008C0E0C4333354C04402F5D9B6
:1047A40078BE790888828983A3A3A3E0F5D9888297
:1047B4008983A3A882A983E864C47003E9640870A8
:1047C400E39008D0E0601F78BE7908FAE82413F576
:1047D40082E93400F583E0F5D988828983A3A8822D
:1047E400A9831AEA70E675E195900D7274FAF0A344
:1047F400740EF0A374FAF0A3740EF0A374FAF0A389
:10480400740EF0A374FAF0A3740EF0A374FAF0A378
:10481400740EF0A374FAF0A3740EF0A37400F0A362
:10482400740FF0900D807444F0A37410F0A37444DA
:10483400F0A37410F0A37444F0A37410F0A37444B0
:10484400F0A37410F0A37444F0A37410F0A37444A0
:10485400F0A37410F09084501215E39008BEE02485
:104864000EF8A3E03400F9888289831215EF9008CA
:10487400BEE02414F8A3E03400F988828983741418
:10488400F090077B7404024258C082C0839008D021
:10489400E02407F5D99008C0E0C4333354C044067B
:1048A400F5D978BE790888828983A3A3A3E0F5D9D2
:1048B40088828983A3A882A983E864C47003E96415
:1048C4000870E39008D0E0601F78BE7908FAE82405
:1048D40013F582E93400F583E0F5D988828983A34E
:1048E400A882A9831AEA70E69008F0E02407F5D9B3
:1048F4009008C0E0C4333354C04404F5D978BE7979
:104904000888828983A3A3A3E0F5D988828983A335
:10491400A882A983E864C47003E9640870E390087A
:10492400F0E0601F78BE7908FAE82433F582E934B0
:1049340000F583E0F5D988828983A3A882A9831A24
:10494400EA70E675E195900D7274F4F0A3740EF0BC
:10495400A37444F0A37410F0A37444F0A37410F08F
:10496400A37444F0A37410F0A37444F0A37410F07F
:10497400A37444F0A37410F0A37400F0A3740FF0B4
:10498400900D807444F0A37410F0A37444F0A374E5
:1049940010F0A37444F0A37410F0A37444F0A3744F
:1049A40010F0A37444F0A37410F0A37444F0A3743F
:1049B40010F09084501215E39008BEE0240EF8A382
:1049C400E03400F9888289831215EF9008BEE02450
:1049D40014F8A3E03400F9888289837415F09007F1
:1049E4007B7403024258C082C0839008BEE0F8A3DF
:1049F400E0F5838882A3A3A3A3A3A3E4024256748D
:104A0400F712174C9007A9E0F875F004A4C8AAF0AF
:104A14002AF974AB28F8740739F9E82405FAE9345B
:104A240000FB8A828B83E0FCA3E0FD88828983A358
:104A3400A3A3A3A3A3A3A3A3ECF0A3EDF08882896B
:104A440083A3A3A3A3A3A3A3E024FFF8A3E034FFB9
:104A5400F98A828B83E8F0A3E9024CA874F7121751
:104A64004CEAFEEBFF9061D0E06003024B3D75D948
:104A74000E75D90375D904EE248CF582EF3400F554
:104A840083E5822408F8E5833400F9E0F5D9A3E846
:104A940065827003E9658370F2EE2484F582EF3455
:104AA40000F583E5822404F8E5833400F9E0F5D9C0
:104AB400A3E865827003E9658370F275E19579086E
:104AC400EE248CFAEF3400FB120FF07904EE248408
:104AD400FAEF3400FB120FF07C00EEF8EFF9ECFA79
:104AE400C3E49AFA95E0FBEE2AFAEF3BFBEA248B47
:104AF400F582EB3400F583E0C0E0E824ABF582E90D
:104B04003400F583D0E0F00C88828983A3A882A9BD
:104B140083ECC3940840C7EE2470F582EF3400F5AB
:104B240083E0F8A3E0F9EE2472F582EF3400F58314
:104B3400E8F0A3E9F0790180027900024CA9C0826F
:104B4400C08375D90275D90375D90575E195EA2431
:104B540070F582EB3400F583E0F8A3E0F9EA2472FF
:104B6400F582EB3400F583E8F0A3E9F07901024221
:104B74005974F612174CEAFEEBFF9009197406F00B
:104B8400750819750909780812195F7C01790312EF
:104B94001038740212170B75D90675D9037582196A
:104BA400758309E0F5D9A3E582641E7004E5836486
:104BB4000970F075E19590077BE06408701EEE249F
:104BC40070F582EF3400F583E0F8A3E0F9EE247287
:104BD400F582EF3400F583E8F0A3E9F07901024DA2
:104BE4007574F612174CEAFEEBFF9061D0E0706624
:104BF4007801900919740BF090077BE06407701931
:104C0400750819750909780812195F7C017903126E
:104C14001038740212170B7805740128F5D975D968
:104C240003758219758309E8FAE0F5D9A31AEA70C5
:104C3400F875E195EE2470F582EF3400F583E0F821
:104C4400A3E0F9EE2472F582EF3400F583E8F0A3D3
:104C5400E9F0790180027900024D7574F712174C5E
:104C6400EAFEEBFF75D90375D90375D90DEE24DE81
:104C7400F582EF3400F583E0F5D975E195790412F6
:104C84001152EE2470F582EF3400F583E0F8A3E0CE
:104C9400F9EE2472F582EF3400F583E8F0A3E9F02D
:104CA40079018001F07F0102181E74F612174CEA94
:104CB400FEEBFF9061D0E0F87480C398FAEE248391
:104CC400F582EF3400F583E0600478048002780014
:104CD400E8240BF8EAC3985003024D737D09900948
:104CE40019EDF0EE24E3F8EF3400F97A1A7B097C2D
:104CF4000888828983E08A828B83F088828983A3EF
:104D0400A882A9838A828B83A3AA82AB831CEC70BA
:104D1400E0EE2483F582EF3400F583E0601D75082E
:104D240019750909780812195F7C097903EEFAEFFD
:104D3400FB121038740212170B7D0D74012DF5D976
:104D440075D9037582197583098D08E0F5D9A31502
:104D540008E50870F675E1957904121152EE241DE8
:104D6400F582EF3400F583E4F0A3F0790180027951
:104D7400007F0202181E74F612174CEAFEEBFF9035
:104D840061D0E0F87480C398FAEE2483F582EF349E
:104D940000F583E06004780480027800E82408F8D1
:104DA400EAC3985003024E7A7D06900919740CF0F8
:104DB400900798E090091AF07A997B07781B790993
:104DC4007C028A828B83E088828983F08A828B8347
:104DD400A3AA82AB8388828983A3A882A9831CECBB
:104DE40070E07A9B7B077C028A828B83E0888289CD
:104DF40083F08A828B83A3AA82AB8388828983A36C
:104E0400A882A9831CEC70E0EE2483F582EF3400C1
:104E1400F583E0601D750819750909780812195F92
:104E24007C067903EEFAEFFB121038740212170BAA
:104E34007D0A74012DF5D975D90375821975830915
:104E44008D08E0F5D9A31508E50870F675E19579A4
:104E540004121152EE2470F582EF3400F583E0F869
:104E6400A3E0F9EE2472F582EF3400F583E8F0A3B1
:104E7400E9F0790180027900024D7574F612174C3D
:104E8400EAFEEBFF9061D0E0F87480C398FAEE2458
:104E940083F582EF3400F583E060047804800278BF
:104EA40000E82404F8EAC3985003024F59780290AA
:104EB4000919E8F0EE24F5F582EF3400F583E0906B
:104EC400091AF0EE2483F582EF3400F583E0601BC9
:104ED400750819750909780812195F7C027903EEBF
:104EE400FA121038740212170B7806740128F5D9D7
:104EF40075D9037582197583098808E0F5D9A31556
:104F040008E50870F675E195EE2474F582EF340037
:104F1400F583E4F0EE2480F582EF3400F583E4F0C9
:104F2400EE241DF582EF3400F583E4F0A3F0790458
:104F3400121152EE240DF582EF3400F583E0F8A34C
:104F4400E0F9EE2472F582EF3400F583E8F0A3E98A
:104F5400F0790180027900024D7574F612174C90B5
:104F640061D0E0F87480C398FCEA2483F582EB34C2
:104F740000F583E06004780480027800E82404F8F3
:104F8400ECC398405B79029009197407F0EA24F69F
:104F9400F582EB3400F583E090091AF0EA2483F5F6
:104FA40082EB3400F583E0601875081975090978F7
:104FB4000812195F7C0209121038740212170B7957
:104FC40006740129F5D975D903758219758309E920
:104FD400F8E0F5D9A318E870F875E1957901800235
:104FE4007900024D7574F512174CE9FCA2AFE43355
:104FF400F50AC2AF7D0080010DEA246FF582EB341F
:1050040000F583E0F8EDC398501A8D08EA2508F8F6
:10501400EB3400F9E8246BF582E93400F583E06CA5
:1050240070D68024EA246FF8EB3400F9E0FEEA2E0F
:10503400FAEB3400FBEA246BF582EB3400F583ECE5
:10504400F088828983E004F0E50AA2E092AF7F034E
:1050540002181E74F612174CA2AFE433FDC2AFEA75
:10506400246FF582EB3400F583E014F07C006036A5
:105074008C08EA2508F8EB3400F9E8246CF582E999
:105084003400F583E0C0E0E8246BF582E93400F5F0
:1050940083D0E0F00CEA246FF582EB3400F583E072
:1050A400F8ECC39840CAEA246EF582EB3400F58329
:1050B40074FFF0EA246AF582EB3400F583E4F0ED42
:1050C400A2E092AF024D75C082C083E5A8F8C2AFDA
:1050D400EA246BF582EB3400F583E9F0EA246AF5FF
:1050E40082EB3400F583E4F0E8A2E792AF02425980
:1050F40074F312174CEAFEEBFFECFAEDFB8A828B99
:1051040083A3A3A3A3E0541FF0EE2436F582EF3467
:1051140000F583E4F0F50AEEFCEFFD8A828B83E070
:10512400C0E0EC245DF582ED3400F583D0E0F07549
:105134000B00E50A33333354F8F50C8A828B83E091
:10514400F508750900E50B78081216C3E508A2E016
:10515400502FEE2436F8EF3400F988828983E0F585
:1051640008EE2508F508EF3400F509E5082438F5BC
:1051740082E5093400F583E50CF088828983E00434
:10518400F0050B050CE50BC3940840AF050A8A82B1
:105194008B83A3AA82AB838C828D83A3AC82AD83E1
:1051A400E50AC39405500302511F7F0502181E74BB
:1051B400F712174C9007A7E0640170077A007B0090
:1051C40002532A7E009007ADE070F17401F0A3E46D
:1051D400F0A3F090080D04F0900810E4F0A3F09010
:1051E400081304F09007B0E4F0A3F0A3F0A3F09048
:1051F40007BA04F09007E0E4F09083F81215E39006
:1052040007C31215EF9007C7E4F0A3F0A3F09008CA
:105214002BF090081FF09008147480F0A3E4F09031
:10522400081AF0900812F0900896F0A3F0A3F0A3E7
:10523400F0A3F0A3F0A3F0A3F090089FF090082E41
:10524400F090087EF0A3F09083F81215E3900880A4
:105254001215EF9083F81215E39008841215EF905D
:10526400088AE4F090088CF0900888F09008A2F086
:10527400A3F0A3F0A3F0A3F0A3F0A3F0A3F078A706
:105284007907E8246FF582E93400F58374FFF00EA2
:1052940088828983A3A882A983EEC3940440E37A15
:1052A400A77B0778B6790888828983E0C0E0EA247E
:1052B40061F582EB3400F583D0E0F088828983A322
:1052C400A882A9838A828B83A3AA82AB83E864BB66
:1052D4007003E9640870D07AA77B07788E79078811
:1052E400828983A3E0C0E0EA24E7F582EB3400F589
:1052F40083D0E0F088828983A3A882A9838A828BE1
:1053040083A3AA82AB83E864967003E9640770CF31
:105314009007A7E004F0640170089007AFE09007DD
:10532400A9F07AAB7B07024CA9C082C0839007AE78
:10533400E4F09007ADF09007A7F0A3F0A374FFF09A
:1053440075E1F1024259C082C08378007900900768
:10535400AEE0600478AB790788828983A3A3A3A312
:10536400E0F902425974F612174CEAFEEBFF8E8202
:105374008F83A3A3A3E0600F8E828F83A3A3A3E4F0
:10538400F09007A8E014F09007A7E014F0700690DE
:1053940007A974FFF08E828F83A3A3E4F09008BB67
:1053A400E0700D9007A8E0640170057900121134D3
:1053B400EE2465F582EF3400F583E0F8A3E0F9E824
:1053C400496029EE2465F8EF3400F98808890988D2
:1053D40082F583E0FCA3E0FD9007A9E0FA7B0012CC
:1053E4000D08850882850983E4F0A3F0EEFAEFFB4B
:1053F400121068024D7574F712174CEAFEEBFF8E1B
:10540400828F83A3A3A3A3E0FA7B00120D4AEEFAD2
:10541400EFFB120FBA121050024CA9C082C083785D
:105424008E790788828983A3E4F088828983A3A87C
:1054340082A983E864967003E9640770E690078F95
:1054440002478674F612174CEAFEEBFFEC2403F8CD
:10545400ED3400F988088909EC2407F8ED3400F9E3
:10546400E8FCE9FD8C828D83E0F8A3E0F9850882ED
:10547400850983E0FAA3E0FB12166AEE240DF58297
:10548400EF3400F583E8F0A3E9F08C828D83E0F833
:10549400A3E0F9850882850983E0FAA3E0FB1216EC
:1054A4006A8B09EA45096013EE240DF582EF340096
:1054B400F583E02401F0A3E03400F0024D7574F6A6
:1054C40012174CEAFEEBFFEE242EF582EF3400F5C2
:1054D40083E0FCA3E0FD780079FAECFAEDFB121608
:1054E4006AEE2470F582EF3400F583E8F0A3E9F066
:1054F400780079FAECFAEDFB12166A8B09EA450991
:105504006013EE2470F582EF3400F583E02401F09B
:10551400A3E03400F0024D7574F012174CEAFEEB70
:10552400FF741012174078081215C51210F28A0C75
:105534008B0D8C0E8D0F9083C8780C1215519084AE
:1055440000780C12159F780C12195B8E828F83E001
:10555400F8A3E0F5838882A3A31215E31223CA7487
:105564000412170BE960030256698E828F83E024CC
:1055740002F8A3E03400F9E8FAE9FB8A828B837825
:105584000812156490840078081215C58A828B83EA
:1055940078081215B2EE240BF582EF3400F583C0BF
:1055A40082C0838E828F83A3A3A3A3A3E02401F8E4
:1055B400A3E03400F9D083D082E0687003A3E069EB
:1055C4007005790102566B8E828F83A3A3A3A3A3D4
:1055D400A3A3E02401F0A3E03400F0EE2474F582E8
:1055E400EF3400F583E064017036EE2475F582EF44
:1055F4003400F583E0F8A3E0F98E828F83A3A3A39C
:10560400A3A3A3A3E0687003A3E0697013EE247559
:10561400F582EF3400F583E02401F0A3E03400F0D8
:10562400EE2480F582EF3400F583E064017036EEF9
:105634002481F582EF3400F583E0F8A3E0F98E824B
:105644008F83A3A3A3A3A3A3A3E0687003A3E06928
:105654007013EE2481F582EF3400F583E02401F029
:10566400A3E03400F079007F0802181E74F71217C3
:105674004C9007A9E0F875F004A4C8AAF02AF974BC
:10568400AB28FE740739FF8028EE2465F8EF340058
:10569400F988828983E0FCA3E0FD88828983E4F0B1
:1056A400A3F08E828F83A3A3A3A3E0FA7B00120D41
:1056B40008EE2465F582EF3400F583E0F8A3E0F901
:1056C400E849604FEE2464F582EF3400F583E0F599
:1056D400087808121963EE2463F582EF3400F58329
:1056E400E0F9EE2465F582EF3400F583E0FCA3E0F5
:1056F400FDEEFAEFFB120FE4740112170BE9608957
:10570400EE2465F582EF3400F583E0F8A3E0F9E8D0
:105714004970137C007D008E828F83A3A3A3A3E032
:10572400FA7B00120D08024CA974F212174CEAFE1F
:10573400EBFF890A740E121740E0FAEE2462F58238
:10574400EF3400F583E0640160030257F99061D0FF
:10575400E0F87480C398F50CEE2483F582EF3400EE
:10576400F583E060047804800278008908E928F869
:10577400E43400F9E824020808E93400F9E50C9857
:10578400E499A2D265D0334068EA7005750B0280B3
:1057940003750B01E06039750900780812195F7A06
:1057A400197B0912101A740212170B75081975095E
:1057B40009780812195FAC0AA90BEEFAEFFB121074
:1057C40038740212170B7404250AF50A7C197D0932
:1057D4007401250AF5D9850BD9E50A600D8C828DF3
:1057E40083F8E0F5D9A318E870F875E1957900809D
:1057F400067907800279FF7F0602181EC082C083E3
:10580400E960208C828D83E08A828B83F08C828D88
:1058140083A3AC82AD838A828B83A3AA82AB8319D0
:10582400E970E0ECFAEDFB02425974EA12174C906D
:105834007803E06442705E900918E014F07056C278
:10584400AF12584800782AD0E0F618D0E0F6E59F69
:105854005407F970059083C080039083BC780812C4
:1058640015C5E9C4C0E07829E65508F50808E655E9
:1058740009F509740B78081216D3D0E02508F890BE
:105884006270E0A2E740F8E8C333906272F090627D
:1058940070E0D2E0F09007A9E0F47003025C51E0FC
:1058A400F875F004A4C8AAF02AF974AB28FE7407AA
:1058B40039FFEE2402F582EF3401F583E0F8A3E02A
:1058C400F9E849601EEE2402F582EF3401F583E025
:1058D400FAA3E0FBEE2401F582EF3401F583E0F94D
:1058E40012042C8E828F83A3A3A3A3A3A3A3E0F803
:1058F400A3E0F98E828F83A3A3A3A3A3E8F0A3E973
:10590400F0906054E0900782F0906055E090078337
:10591400F0906056E0900784F0906057E09007851F
:10592400F0906058E0900786F0906059E090078707
:10593400F090605AE0900788F090605BE0900789EF
:10594400F090605CE0FC90078AF090605DE0FB9072
:10595400078BF090605EE0FD90078CF090605FE054
:10596400FA90078DF0900788E08C082508F8E43455
:1059740000F98D08E82508F8E93400F98B08E825D2
:1059840008F8E93400F98A08E82508FAE93400FB44
:10599400EE24F7F582EF3400F583E02AF0A3E03B30
:1059A400F08C08EE24F9F582EF3400F583E0250845
:1059B400F0A3E03400F0EE24FBF582EF3400F5832D
:1059C400E02401F0A3E03400F0EE24FFF582EF348C
:1059D40000F583E0F8A3E0F9E8496042906000E054
:1059E400C333FCE433FDE82CF582E93DF583E02A7A
:1059F400F0A3E03BF0906000E0FA90078AE0FCEA54
:105A0400C333FAE433FBE82AF8E93BF9E8244AF51E
:105A140082E93400F583E02CF0A3E03400F0900731
:105A240088E0701190078BE0700BA3E07007A3E08F
:105A34007003025B318E828F83A3A3A3A3A3E0F838
:105A4400A3E0F9EE240DF582EF3400F583E028F8A5
:105A5400A3E039F9EE240BF582EF3400F583E8F086
:105A6400A3E9F0EE240FF582EF3400F583E4F0EEC1
:105A7400241CF582EF3400F583E06401701EEE24EB
:105A840020F582EF3400F583E0F8A3E0F9EE241D5D
:105A9400F582EF3400F583E8F0A3E9F0900783E0A2
:105AA4006052EE241CF582EF3400F5837401F0EEAD
:105AB400246AF582EF3400F583E07038EE2474F53F
:105AC40082EF3400F583E0702BEE2480F582EF340E
:105AD40000F583E0701EEE2420F582EF3400F58398
:105AE400E0F8A3E0F9EE241DF582EF3400F583E835
:105AF400F0A3E9F0906062E07003025BE48E828FB1
:105B040083E0F8A3E0F9E82406FCE93400FDE82486
:105B140002FAE93400FB1210EC8E828F83E0241227
:105B2400F8A3E03400F988828983025BEE90078A47
