:020000040000FA
:0600000002011D021F3F7A
:03002B00021AD1E5
:03003B00021B1C89
:03004300021AA8F6
:03005300021FB2D7
:03006B00021AED89
:10008300021DF3E5C754F84401F5C77901220000C6
:100093000080FB120086B90003020107E47921788E
:1000A30008B800028004F709D8FCE479297802B87B
:1000B30000028004F709D8FCE490028178CF790C20
:1000C3008002F0A3D8FCD9FA781A90014D7A01BACC
:1000D30000028007E493A3F608DAF9900E4FAA8290
:1000E300AB8390014E787F79038015E493A3AC82B0
:1000F300AD838A828B83F0A3AA82AB838C828D83A8
:10010300D8E9D9E77582927583B9740312012F7503
:100113008291758300740012012F75D00075813FA1
:10012300751881751902759F00020096C09FF59F8F
:10013300E473D09F22D083D082C09FE493C0E07445
:100143000193C0E0740293F59F2201FFFF1101990F
:10015300010F12640401028B840100005D84028795
:1001630084010000560E026984010000570E0283C9
:1001730084030000A702027584010000580E01E801
:1001830003053F1012446F2053796E630000000093
:1001930000000000000008415050205365742043C4
:1001A3006C6F636B0000000012446174612048654A
:1001B3006164657200000000000002446174612004
:1001C300426F64790000000000000000028B84018C
:1001D30000006084028784010000880E027184039A
:1001E300000044050283840300004C05028584015A
:1001F3000000890E0287840100009A0E026F8402B8
:10020300000052050285840100009B0E02878401D1
:100213000000AC0E026D84030000560502838403C4
:1002230000005805028584010000AD0E0287840199
:100233000000BE0E026B840100005E05028584018E
:100243000000BF0E000000000000000000000000DE
:1002530000000000FF0001307503020106000000EA
:10026300000000000000000000000000000000008B
:10027300000000000000000000FFFF0600800CE803
:100283000305000A002C0101000100110941646407
:10029300696E672041312D303030303030051250D7
:1002A30000A000020A00020106050200230F184104
:1002B3006464696E672041312D3030303030300056
:1002C30000000000460800005208FF0000B40000D0
:1002D30028002800283075A000A000A000A000007E
:1002E300080008E001F000100010001000100010DA
:1002F30000100050005000500010001000D0070004
:1003030000000000000F0001000500307507001019
:1003130000010081FF0000FF740A920A7A0AFF02BB
:10032300020208025000A0000000E803028B8401CF
:100333000000578402878401000023100281840196
:100343000000A6090287840100002410027F8401B3
:100353000000BC090287840100002510027D84018E
:100363000000BE090287840100002610027B840876
:100373000000BF090287840100002710027984016D
:1003830000002810FF0100FF20028B8401000054AD
:10039300840287840100008C10027784000000002F
:1003A300000283840300000C0A4A104A104A104AD0
:1003B300104A104A104A104A104A104A104A104A6A
:1003C300104A10D812F012D212120138B9C4021214
:1003D3000138C3C40212013804C5021201384DC5E5
:1003E3000212013887C502120138DDC50212013835
:1003F300FEC502120138ADC802120138B6C8021296
:1004030001380AC90212013833C9021201383DC941
:1004130002120138ABC9021201383BCA0212013879
:1004230096CA02120138C4CA021201384CCB021216
:1004330001388BCB02120138C0CB02120138D2CB68
:1004430002120138F1CB02120138FACB0212013841
:10045300C1CC0212013867F6021201385EF70212AC
:10046300013878F70212013889F7021201389BF933
:1004730002120138BAF902120138D7A8031201385F
:100483000DA90312013841A9031201388EAA0312E0
:10049300013820B80312013836B80312013840B8C6
:1004A300031201388AB80312013833B90312013831
:1004B300C6F102120138D9F1021201389AF202127E
:1004C3000138D9F202120138F6F2021201382FF381
:1004D300021201387CF302120138AEF30212013822
:1004E300E5F302120138EEF5021201385AF6021250
:1004F3000138CCAF03120138EFAF031201381EB03D
:1005030003120138B6B003120138F8B003120138F0
:10051300E89B03120138189C031201382B9C031229
:1005230001385A9C03120138719C031201381D9D36
:1005330003120138B69D031201383F9E031201389E
:1005430084B20312013892B20312013895B2031236
:10055300013810B30312013860B303120138B6BA7D
:1005630003120138EAB903120138918401120138E8
:100573006F86011201380E8801120138B988011201
:100583000138398901120138BE8901120138E7891E
:1005930001120138C28D01120138398E011201385E
:1005A300508F011201388A8F01120138CB8F01124B
:1005B3000138129101120138689101120138B19189
:1005C300011201382092011201388C920112013874
:1005D300BD9201120138D59201120138EE93011236
:1005E3000138FE9301120138B49501120138CB95FD
:1005F30001120138FD95011201389F97011201384C
:1006030033980112013864B70312013875B7031226
:10061300013815B80312013840BA031201387FBA02
:100623000312013826BB031201389BB603120138AB
:10063300ABB603120138C3B60312013857B703121E
:100643000138C2B40312013847B503120138ABB500
:100653000312013841B10312013875B10312013895
:100663009EB10312013815B203120138EC7F001258
:100673000138BD8C03120138EA8C031201385C8DFA
:1006830003120138718D03120138928E031201385F
:10069300158F031201388E8F03120138AD8F0312A9
:1006A3000138D08F031201380D90031201382590C1
:1006B300031201387B9003120138A1880312013819
:1006C300B88803120138328903120138168A0312DB
:1006D3000138ED8B03120138528C03120138A98CB7
:1006E30003120138F87F00120138A3A60312013860
:1006F3002DA8031201388EA803120138D4A80312BF
:1007030001389C9403120138379503120138D595AB
:1007130003120138CD96031201387F970312013873
:10072300A79703120138B597031201382A980312C9
:1007330001383E980312013848980312013801FB2F
:10074300021201383BFB0212013858FB0212013836
:10075300EDFB021201384FFC0212013860FD021258
:10076300013890FE02120138B5FE02120138FAFE7A
:100773000212013834AE0312013886AE0312013877
:10078300F9AE0312013866AF031201385CA40312F9
:10079300013886A40312013855A50312013831A686
:1007A30003120138EFCC02120138BBCD021201381B
:1007B300FCCD0212013836CE0212013894CE021259
:1007C3000138E8CE0212013846CF02120138DCCFDD
:1007D30002120138E4D0021201386ED2021201383B
:1007E3000CD30212013873D30212013886D30212DA
:1007F30001387AD402120138C3D4021201388F8D22
:1008030002120138C19002120138529202120138C9
:10081300A99202120138C6920212013846930212BB
:100823000138C29402120138919502120138FE98E0
:1008330002120138E899021201387AD701120138FD
:10084300D4DA01120138A1DB01120138BCDC011238
:100853000138F3DC0112013862DE01120138E4DEF3
:100863000112013814E00112013885E20112013846
:1008730052E30112013881AC0312013898AC031220
:100883000138C7AC0312013800AD0312013828AD9B
:100893000312013856AD031201386DAD031201384E
:1008A30084AD031201389AAD03120138C1AD0312AE
:1008B3000138D4AD03120138EAAD03120138FDAD9E
:1008C3000312013822AE031201380DB202120138AD
:1008D3000CB30212013841B30212013862B302129F
:1008E300013872B30212013893B3021201389FB474
:1008F300021201386CB502120138DFB50212013859
:1009030065B602120138A8B602120138DFB6021228
:10091300013865B70212013837B80212013895B8A9
:1009230002120138ADB80212013827B90212013898
:100933002AB9021201382DB902120138D4B90212B0
:100943000138ECB9021201381CBA021201383CBA60
:10095300021201382ABB02120138E0BB021201382D
:100963001EED0212013846ED0212013874ED021237
:100973000138ABED0212013813EE021201385CEEBE
:1009830002120138A7EE02120138E5EE0212013815
:1009930022EF0212013850EF02120138F7EF021270
:1009A300013801F0021201380EF00212013841F051
:1009B3000212013803F1021201380FF10212013859
:1009C30027F10212013831F102120138C4B50312C2
:1009D3000138D2B503120138EAB50312013802B661
:1009E3000312013822AC01120138C0AC01120138E4
:1009F30038AD011201384DAE0112013887AE011234
:100A0300013830AF0112013805B00112013869B164
:100A130001120138C0B10112013847B20112013885
:100A23002EB3011201387BB30112013809B401124C
:100A330001382DB40112013802B60112013843B650
:100A43000112013865B601120138E6B60112013808
:100A5300D0B70112013896B80112013842DC0212F4
:100A6300013814DD02120138BDDD0212013800DE47
:100A7300021201388DDE0212013819DF0212013829
:100A8300FADF0212013829E00212013825E10212CD
:100A930001386DE1021201386FE202120138B3E24C
:100AA30002120138D9E2021201386FFF0212013833
:100AB3001B7C00120138317C00120138577C001274
:100AC30001387F7D00120138897D00120138E27EF2
:100AD30000120138E27F001201384EE3021201389E
:100AE30083E402120138B6E40212013800E502126F
:100AF3000138BEE602120138BE6C00120138216DC6
:100B030000120138666E00120138766E0012013849
:100B1300996E00120138E46E00120138896F0012D9
:100B230001387F7000120138497100120138C17217
:100B330000120138037300120138A1730012013847
:100B4300EE73001201381474001201380276001299
:100B53000138077600120138E877001201383C7833
:100B6300001201389E7800120138C678001201384D
:100B73006A79001201382C7A001201385D7A00126A
:100B83000138607A00120138A87A00120138EA7A33
:100B930000120138517B0012013806A203120138FA
:100BA30019A20312013832A2031201387DA20312E3
:100BB300013858A303120138E7A30312013832A402
:100BC300031201384426001201385026001201385E
:100BD300892600120138CE2600120138852700121B
:100BE30001380B2800120138372800120138702809
:100BF30000120138842A00120138602C00120138D7
:100C03004B2E00120138822F00120138E2310012FC
:100C13000138CE3200120138143400120138213564
:100C2300001201383E3500120138763500120138C2
:100C3300903500120138F83500120138923A00124B
:100C43000138333B00120138843B00120138AB3BBF
:100C530000120138F93B00120138173C0012013829
:100C63006B3C00120138733D00120138FB3D00124A
:100C7300013874E8021201387EE80212013849E9AA
:100C83000212013864E9021201388AE902120138BA
:100C9300CEE90212013806EA021201382FEA0212E3
:100CA3000138A8EA02120138BDEA02120138D2EA79
:100CB3000212013809EB021201381DEB021201384E
:100CC3004EEB0212013888EB02120138B4EB021228
:100CD30001380AEC021201385EEC02120138A7EC6B
:100CE30002120138D1EC02120138F6EC021201387B
:100CF300B090031201387A91031201385D92031206
:100D03000138D39203120138159303120138429428
:100D13000312013839F30112013862F30112013869
:100D23007BF301120138C0F4011201389EF5011260
:100D33000138BDF5011201384AF6011201388DF66A
:100D430001120138DAF70112013879F8011201387A
:100D5300F8FA011201388FFB0112013863FC01120A
:100D6300013845FD01120138B1FE0112013844FF7B
:100D730001120138ADB30312013816B4031201385E
:100D83006AB40312013891B40312013800800312CC
:100D930001386D8003120138B88003120138AD8128
:100DA30003120138A9820312013893830312013815
:100DB3004BBC021201388DBC0212013867BD02120E
:100DC300013840BE021201383BBF021201381AC07B
:100DD3000212013886C0021201384DC102120138D5
:100DE300B8C1021201381FC2021201384AC20212EC
:100DF3000138BBC2021201384EC302120138B7C315
:100E030002120138CCC30212013814C40212013891
:100E13002DC40212013892C40212013895C4021281
:100E230001380C9F03120138349F03120138729F5B
:100E33000312013830A0031201389BA003120138BA
:100E4300B7A003120138DFA0031201380FA1031268
:100E530001381EA10312013898A103120138BEA163
:100E63000312013849C90112013826CB0112013896
:100E730021CD01120138F4CD011201383FCE011208
:100E830001388ACE011201389CCE01120138DCCE22
:100E93000112013811CF011201385DCF011201385F
:100EA3008CCF01120138AFCF01120138FCCF0112F0
:100EB300013885D00112013892D2011201387DD454
:100EC30001120138C0D40112013825D601120138AC
:100ED30066D601120138D9D60112013825D701127D
:100EE300013850D7011201387E9A02120138A99AAB
:100EF3000212013890A102120138B4A30212013880
:100F03006FA502120138CCA602120138623E00120C
:100F13000138F93E00120138263F001201386C3FB8
:100F230000120138AB40001201384242001201386E
:100F3300BC4200120138D742001201384C43001260
:100F430001387B4400120138D64500120138D846D7
:100F5300001201383548001201384E48001201389A
:100F6300AB48001201388D4900120138C049001204
:100F73000138304A00120138AA4A00120138F94AEE
:100F830000120138C54B00120138CA4C0012013857
:100F9300A94D00120138344E00120138A24E00123E
:100FA3000138164F001201383F4F00120138FE4F2F
:100FB300001201387851001201389551001201389E
:100FC300B451001201384552001201386A5200121E
:100FD30001389252001201380D5300120138675341
:100FE30000120138BB540012013878550012013841
:100FF3004B56001201386AE501120138BAE50112B5
:101003000138C6E501120138A3E601120138D3E61F
:10101300011201380BE7011201388AE70112013886
:10102300C2E70112013814E80112013851E8011234
:10103300013876EA01120138A2EC011201389DEE63
:101043000112013878F001120138EF7F00120138E4
:10105300719801120138BB98011201389A9E01124E
:1010630001381BA0011201387AA60112013875A7B5
:1010730001120138B2A701120138D5A701120138B4
:1010830017A80112013820A8011201382AA8011259
:10109300013816A9011201380AAA0112013879563A
:1010A30000120138F16000120138F76000120138B4
:1010B3000368001201384B9803120138E1980312B8
:1010C3000138F79803120138719903120138C7994F
:1010D30003120138059A03120138629A0312013888
:1010E300DF9A03120138E89A03120138F49A0312C3
:1010F3000138079B03120138439B03120138599BA4
:1011030003120138B89B03120138558403120138C6
:101113006284031201387C8403120138BB840312F6
:101123000138F984031201385E850312013873858F
:10113300031201387E85031201388B8503120138AF
:10114300A28503120138B08503120138BB8503124F
:101153000138C78503120138D68503120138E185AA
:1011630003120138048603120138AD8603120138D5
:10117300BD8603120138D78603120138F4860312A1
:1011830001381087031201383587031201383F876E
:10119300031201385387031201387287031201388F
:1011A300D38703120138D98703120138DF8703126B
:1011B3000138E58703120138F187031201382488C7
:1011C30003120138058002120138878002120138A8
:1011D30030810212013878820212013886840212A9
:1011E30001386C8502120138A18502120138C385CA
:1011F300021201386C86021201383C88021201384F
:10120300658802120138DD88021201380F89021243
:1012130001381C89021201386789021201388B894F
:1012230002120138DC8B02120138E68C02120138FB
:10123300428D02120138CBBA01120138DCBB011214
:101243000138C0BC01120138CABC01120138ECBC20
:1012530001120138F8BC011201389CBE0112013899
:10126300C9BE01120138DFBF0112013834C00112B7
:10127300013883C10112013858C201120138B4C2C6
:10128300011201381FC30112013854C3011201387E
:1012930097C30112013861C60112013879C60112E0
:1012A30001380AC70112013818C70112013865C78E
:1012B3000112013873C701120138DFC70112013867
:1012C3005AC801120138B1C801120138EFA602123F
:1012D300013811A70212013822A902120138E1AB29
:1012E300021201380BAD02120138C9AD02120138E6
:1012F300B5AE02120138C8AA03120138EDAA0312CF
:10130300013863AB0312013825D5021201382ED5FB
:101313000212013837D5021201380FD602120138F2
:10132300C0D702120138F0D7021201381BD80212BB
:1013330001384BD80212013876D802120138AAD8E4
:1013430002120138D6D80212013819D90212013813
:1013530044D9021201388BD902120138E0D90212A2
:10136300013822DA021201387CDA02120138A7DAD4
:1013730002120138F6DA0212013826DB02120138B2
:1013830051DB021201387FDB02120138A2DB0212A9
:101393000138B6B803120138E2B8031201380FB9A5
:1013A3000312013819B90312013829B9031201389C
:1013B30089BA03120138BBFF01120138E0BA0312E4
:1013C300013808BB03E066701008A3E066700A08E2
:1013D300A3E066700408A3E06622C3E7960809E762
:1013E300960809E7960809E79622C3E09608A3E062
:1013F3009608A3E09608A3E09622C008C3E096F5FA
:101403000808A3E096420808A3E096420808A3E070
:101413009645087001D3D00822080808EAC0E0EB1B
:10142300C0E086F0E7A4FA180986F0E7A42AFA18C0
:101433000986F0E7A42AFA180986F0E7A42AFA191C
:1014430086F0E7A4FBE5F02AFA190886F0E7A42B57
:10145300FBE5F03AFA190886F0E7A42BFBE5F03A2E
:10146300FA18180986F0E7A4C5F02BFBE43AFA1939
:1014730008E7C5F0C6A426F6E5F03BFBE43AFA1804
:1014830086F0E7A4F6E5F00826F6E43B08F6E43A2E
:1014930008F6D0E0FBD0E0FA22E4CFC0E0E4CEC00F
:1014A300E0E4CDC0E0E4CCC0E075F020C3E633F661
:1014B30008E633F608E633F608E633F6181818ECB0
:1014C30033FCED33FDEE33FEEF33FFC3EC9709ED51
:1014D3009709EE9709EF97191919400FFFEC97FC3D
:1014E30009ED97FD09EE97FE191906D5F0BEECF745
:1014F30009EDF709EEF709EFF7191919D0E0FCD058
:10150300E0FDD0E0FED0E0FF226016080808C6C365
:1015130013C618C613C618C613C618C613C6D5E015
:10152300EA227009080808226016181818C6C3337F
:10153300C608C633C608C633C608C633C6D5E0EAEE
:1015430022E627F60809E637F60809E637F608091A
:10155300E637F622E026F608A3E036F608A3E036DF
:10156300F608A3E036F622E026F008A3E036F008FA
:10157300A3E036F008A3E036F022C3E697F60809A5
:10158300E697F60809E697F60809E697F622C3E018
:1015930096F008A3E096F008A3E096F008A3E0967F
:1015A300F022E056F608A3E056F608A3E056F60844
:1015B300A3E056F622E056F008A3E056F008A3E0B5
:1015C30056F008A3E056F022E0F608A3E0F608A3DD
:1015D300E0F608A3E0F622E6F008A3E6F008A3E6A7
:1015E300F008A3E6F022E0FAA3E0FBA3E0FCA3E00B
:1015F300FD22EAF0A3EBF0A3ECF0A3EDF022CAC0C6
:10160300E0E6F0A308DAFAD0E0FA22CAC0E0E0A3E9
:10161300C582CCC582C583CDC583F0A3C582CCC5A5
:1016230082C583CDC583DAE6D0E0CA22C3E498F845
:10163300E499F91216708026C3E49AFAE49BFBE955
:1016430020E7E9121670E498F8E499F922C3E498C4
:10165300F8E499F9121670E498F8E499F9C3E49A56
:10166300FAE49BFB22EB20E7CFE920E7E0B9001087
:10167300BB0008E88AF084F8AAF022E4FBC8FA2247
:10168300EB70227B10C833C8C933C9335007C39AE0
:10169300C3DBF280069A50012ADBEAC833F4C8C9D7
:1016A30033F4C9FA2275F008E4C833C8C933C9331F
:1016B300C99AC99B5004C92AC93BD5F0ECFBC8336E
:1016C300F4C8E4C9FA22600D08C6A2E713C618C617
:1016D30013C6D5E0F322600C08C6C313C618C6139D
:1016E300C6D5E0F422700422600D18C6C333C608C1
:1016F300C633C6D5E0F41822251810AF08F51840F4
:101703000215198008F51840021519D2AF22C0D06E
:10171300251810AF08F518500205198008F5185060
:10172300020519D2AFD0D0222518F58210AF08F5E3
:1017330018400215198008F51840021519D2AF8513
:101743001983222518F582E43519F58322E47325DC
:1017530018C582C0E0E51934FFC583C0E0E518C3AE
:10176300958224F810AF088583198582188008852F
:101773008319858218D2AFCEF0A3E520F0A37808B1
:10178300E608F0A3DEFAEFF0A3E58124FAF8E60811
:10179300F0A3E608F0A3E608F0A30808E608F0A320
:1017A300E608F0A315811581D0E0FED0E0F815819D
:1017B30015811581E8C0E0EEC0E0222518C582C07E
:1017C300E0E51934FFC583C0E0E518C3958224F929
:1017D30010AF08858319858218800885831985824F
:1017E30018D2AFCEF0A3E520F0A37808E608F0A363
:1017F300DEFAEFF0A3E58124FBF8E608F0A3E608A0
:10180300F0A30808E608F0A3E608F0A31581158104
:10181300D0E0FED0E0F815811581E8C0E0EEC0E02D
:1018230022851983851882E0A3FEE0A3F5207808BA
:10183300E0A3F608DFFAE0A3FFE0A3C0E0E0A3C063
:10184300E0E0A3C0E0E0A3C0E0E0A3C0E010AF0885
:101853008582188583198008858218858319D2AFFC
:10186300D083D082020135851983851882E0A3FED7
:10187300E0A3F5207808E0A3F608DFFAE0A3FFE091
:10188300A3C0E0E0A3C0E0E0A3C0E0E0A3C0E01099
:10189300AF08858218858319800885821885831986
:1018A300D2AFD083D08222C0D02518C582C0E0E554
:1018B3001934FFC583C0E0E518C3958224F310AF44
:1018C300088583198582188008858319858218D233
:1018D300AFC8F0A3E9F0A3EAF0A3EBF0A37908E71C
:1018E30009F0A3D8FAECF0A3EDF0A3EEF0A3EFF028
:1018F300A3D0E0F0A3D0E0F0A3D0E0F0A3E520F084
:10190300A3E5F0F0A322851983851882E0C0E0A344
:10191300E0F9A3E0FAA3E0FBA37808E0F608A3DF6D
:10192300FAE0FCA3E0FDA3E0FEA3E0FFA3E0C0E038
:10193300A3E0C0E0A3E0F5D0A3E0F520A3E0A3F586
:10194300F010AF088583198582188008858319856F
:101953008218D2AFD082D083D0E0F8D0E0327404C2
:101963008006740280027401C0E0F40412172BD0C5
:10197300E0121601227404800474028000CCC0E0DB
:10198300EDC0E0E518C39CCCAD1950011D10AF06A6
:101993008C188D1980068C188D19D2AF12160ED0A3
:1019A300E0FDD0E0FC22D083D082E9C0E0E493A341
:1019B300C386F0C5F095F0F908E493A386F0C5F06B
:1019C30095F0700BE493A3C3994005E9048002A347
:1019D300E475F002A42582F582E5F03583F583D022
:1019E300E0F9E493A3C0E0E493C0E022D083D08283
:1019F300ECC0E0EDC0E0E493A3FCE493A3FDED4C65
:101A0300600D121A3BEC24FFFCED34FFFD80EFE484
:101A130093A3FCE493A3FDED4C600D121A7AEC241E
:101A2300FFFCED34FFFD80EFD0E0FDD0E0FCE4935C
:101A3300A3C0E0E493C0E022C0E0C3E4939608743B
:101A430001939618400FE493667008087401936637
:101A53001870007019A3A3C3E493960874019396B6
:101A630018A3A3400DD0E0D0E0D0E0021A2BA3A32B
:101A7300A3A3A3A3D0E022C0E0C0F088F0E4936660
:101A830070080874019366187000A8F0A3A3700B84
:101A9300D0F0D0E0D0E0D0E0021A2BA3A3D0F0D056
:021AA300E0223F
:101AA800C0E074F21218AAA2AFE433FED2AFC2C0EB
:101AB800E5D1A2E4500653D1EF120738751A00EEAB
:101AC800A2E092AF7F01021909C0E0C0D0E8C0E0EF
:101AD800E5A8D2AFC2C7751A00A2E792AFD0E0F866
:101AE800D0D0D0E032C0E0C0D0E8C0E0C082C0832F
:101AF800E5A8F8D2AF758900C2C59003B87401F0A3
:101B0800751A00E8A2E792AFD083D082D0E0F8D06F
:101B1800D0D0E032C0E0C0D0E8C0E0E9C0E0C00802
:101B2800C009C082C083A2AFE433F9D2AF90053CAC
:101B3800E0F8A3E0687008539AFBA374018026C2FA
:101B4800E990053CE0F50874012508F074BC250807
:101B5800F58274043400F583E0F5C190053CE0C3D8
:101B680094804002E4F0E9A2E092AFD083D082D022
:101B780009D008D0E0F9809474F51217BEEAFEEB9C
:101B8800FFEE2434F8EF3400F988088909EE24358B
:101B9800F582EF3400F583E0F8EE2437F582EF3470
:101BA80000F583E0F50AEC850AF0A4FCAAF0850AA2
:101BB800F0EDA42AFDE82CF8E43DF97A257B001223
:101BC8001670EA850882850983F05407F87401B80D
:101BD80000028004C333D8FCC0E0E0131313541F81
:101BE800F8EE28F8EF3400F9E8245DF582E93400CE
:101BF800F583D0E0F8E0586008EE2434F582EF80F1
:101C08001EEE2436F582EF3400F583E0F5F0EA8421
:101C1800A8F0EE28F8EF3400F9E82438F582E93422
:101C280000F583E0F97F0402186A74F51217BEEA1A
:101C3800FEEBFFEE2434F582EF3400F583E0C0E0DC
:101C4800EE2435F582EF3400F583D0E0F08E828FF4
:101C580083A3A3A3A3A3A3A3C082C0838E828F83DD
:101C6800A3A3A3A3A3E0F8A3E0F9D083D082E0C3A1
:101C780098F508A3E099F509EE2480F582EF340081
:101C8800F583E064017069EE2481F582EF3400F594
:101C980083E0F8A3E0F98E828F83A3A3A3A3A3A371
:101CA800A3E0FCA3E0FD8E828F83A3A3A3A3A3E0FC
:101CB800FAA3E0FBC3EA9CEB9D5027C3EC98ED998F
:101CC800402EC3EA98EB9950277CF17D0BEEFAEF92
:101CD800FB120FA8EE2480F582EF3400F583E4F0C0
:101CE800800EC3EA98EB9940E0C3EC98ED9950D97F
:101CF800EE2434F8EF3400F9E8FCE9FDEE2435F57C
:101D080082EF3400F583E0F8EE2437F582EF3400F3
:101D1800F583E0F50AE508850AF0A4F508AAF08538
:101D28000AF0E509A42AF509E82508F8E43509F9CF
:101D38007A257B00121670EA8C828D83F05407F89E
:101D48007401B800028004C333D8FCC0E0E0131368
:101D580013541FF8EE28F8EF3400F9E8245DF582F3
:101D6800E93400F583D0E0F8E0586008EE2434F553
:101D780082EF801EEE2436F582EF3400F583E0F51D
:101D8800F0EA84A8F0EE28F8EF3400F9E82438F5F2
:101D980082E93400F583E0F912262D021C2DC08259
:101DA800C083851882851983E0F8A3E0F9C3EA9C0B
:101DB800EB9D5012C3EC98ED994019C3EA98EB9942
:101DC800501279018010C3EA98EB9940F5C3EC985A
:101DD800ED9950EE7900D083D08222EAC39CFAEBC9
:101DE8009DFB22008521878522C622C0E0C0D0E85D
:101DF800C0E0E9C0E0EAC0E0EBC0E0ECC0E0EDC064
:101E0800E0C008C009C00AC00BC082C083C0F0751A
:101E18009B00906182E0A2E64003021ED1E591A2F8
:101E2800E64003021ED17591BF900AB6E0640570C2
:101E3800081210E01210EC80031210E6752100124F
:101E48001146E9900AB7F0790012113A120F1E7A7A
:101E5800017B00900AB5E0F912042C907803E06445
:101E6800426003021F1A900C53E014F06003021F33
:101E78001AC2AF121E7E00782AD0E0F618D0E0F61B
:101E8800E59F5407F970059083C080039083BC7860
:101E9800081215CBE9C4C0E07829E65508F508080A
:101EA800E65509F509740B78081216D9D0E025080B
:101EB800F8906270E0A2E740F8E8C333906272F0ED
:101EC800906270E0D2E0F08049E0A2E55024E5910C
:101ED800A2E5501E7591DF900AB6E0640D7013906C
:101EE8000AD8E004F064287002E4F07A00E0F912FD
:101EF80011B8906181E0A2E35009E5E9A2E350033B
:101F080075E9F7A3E0A2E75009E591A2E750037548
:101F1800917FD0F0D083D082D00BD00AD009D008DE
:101F2800D0E0FDD0E0FCD0E0FBD0E0FAD0E0F9D082
:101F3800E0F8D0D0D0E032C0E0C0D0C082C08390FA
:101F48006183E0A2E05009E5BFA2E0500375BFFE3F
:101F5800E0A2E15009E5BFA2E1500375BFFDE0A290
:101F6800E25009E5BFA2E2500375BFFBE0A2E350CF
:101F780009E5BFA2E3500375BFF7E0A2E45009E505
:101F8800BFA2E4500375BFEFE0A2E55009E5BFA288
:101F9800E5500375BFDFE0A2E65009E5BFA2E650B1
:101FA8000375BFBFD083D0828088C0E0C0D0E8C0AE
:101FB800E0E9C0E0EAC0E0EBC0E0ECC0E0EDC0E082
:101FC800C0F0E5A7A2E6500FE5A1A2E6500953A785
:101FD800BF75A1BF122017E5A7A2E5500CE5A1A285
:101FE800E5500653A7DF75A1DFE5A7A2E15009E593
:101FF800A1A2E1500375A1FDE5A7A2E2500CE5A15D
:10200800A2E2500653A7FB75A1FBD0F0021F28746B
:10201800F81217BE752101900AB6E0640670151211
:1020280010748A828B83A3A3A3A3A3A3E0FAA3E0DB
:10203800FB1210CEA2AFE433FED2AF900ABCE0642C
:102048000170187A207B00900AB5E0F91204D47A5E
:10205800207B00900AB5E0F9120432906182E0D248
:10206800E6F0900C52E0602185C6228016900ABBEB
:10207800E064017008E5C654F84405F5C653BEFC93
:10208800121DEC7401652160E4EEA2E092AF7F01BD
:1020980002186A008E238F24858228858327851855
:1020A80082851983E0CEA3E0CF852882852783EB3C
:1020B800C9EAC8EDCBECCA75F010C3E833C8E933F8
:1020C800C9EA33CAEB33CBC3EA9EF526EB9FF52565
:1020D800B35004AB25AA26EC33CCED33CDD5F0DADA
:1020E800AE23AF242274EB1217BE74FA1216FB8AC1
:1020F800088B098C148D15900AB6E024F7C3940553
:10210800500690843402224F1210748A0A8B0BAE48
:102118000AAF0BEE4F700302224CAC08AD098518CC
:1021280082851983AA82AB831210FE8E828F83A3C5
:10213800A378081215CB90840078081215A5851885
:1021480082851983780C1215CB908400780C1215AF
:10215800A57808790C1213DD501F7808790C121530
:102168007D90840478081213FD404785081085097E
:1021780011850A12850B138041850C10850D118578
:102188000E12850F137810790812157D9084047843
:10219800101213FD501C7510007511007512007592
:1021A80013017810790C12157D78107908121544EE
:1021B800800890843478101215CB740978101215A1
:1021C8002590840878081215CB7810790812149C89
:1021D8008E828F83A3A3A3A3A3A3E0F8A3E0F97A35
:1021E800D07B0312167088088909E4F50AF50B7884
:1021F8001079081215447404121746E0F8A3E0F9A0
:102208007AD07B03121670E8FA8A08E4F509781088
:1022180079081213DD50077810790812157D900A95
:10222800B6E06408600AE064066005E06405701CB6
:1022380090840C78101213FD5012908414781012A8
:10224800155780089083F878101215CB851482856D
:10225800158378101215DA74061217117F0E0218FA
:102268006A74F71217BE121110900C50E0640170D6
:1022780010906245E4F0A3F053F4F343FE0C53903E
:10228800F31210BCE5C654804449F5C6E59E547F58
:10229800644970F8906185740FF0900C4EE0F4700A
:1022A80002A3E0604E900C4FE0600814601B1460BD
:1022B8002E8040750801750900900C4EE0780812D0
:1022C80016E8E508F45280802A750801750900901F
:1022D8000C4EE078081216E8E508F4529080147560
:1022E8000801750900900C4EE078081216E8E50818
:1022F800F452A079007F0202186A74F71217BEE937
:10230800FEEAFF74016E700C7A807B00900AB5E0DB
:10231800F912042C90263CE493F46008E493F91233
:102328000F12800953C680E59E547F70FA1210C2BE
:10233800900C50E064017003120F2A900C4EE0F4E8
:102348007002A3E0604B900C4FE0600814601A1410
:10235800602C803D750801750900900C4EE07808E6
:102368001216E8E508428080287508017509009072
:102378000C4EE078081216E8E508429080137508BC
:1023880001750900900C4EE078081216E8E508423D
:10239800A01211101210748A088B09A808A909E85C
:1023A800496015E5E170FCE82414F582E93400F58C
:1023B80083E0F46003E0F5E174016F700A7A01903C
:1023C8000AB5E0F912049E0222FD74F11217BE8AC2
:1023D800088B098C0A8D0B740F121746780C12158E
:1023E800CB90840078081215A5908400780C1215FB
:1023F800A57808790C1213DD50157808790C121598
:102408007D90840478081213FD40157901801378B3
:102418000C790812157D908404780C1213FD40EB9A
:1024280079007F0802186A74ED1217BE8A088B09B2
:102438008C0A8D0B7413121746780C1215CB9084E6
:102448000078081215A5908400780C1215A5780C50
:1024580079081213DD40117808790C12157DAA0845
:10246800AB09AC0AAD0B802275100075110075120E
:10247800007513017810790C12157D7810790812FF
:102488001544AA10AB11AC12AD137F0C02186A9058
:10249800840078081215CB8A828B8378081215B8C5
:1024A8007F0402186A74F51217BE8C828D8378082F
:1024B8001215CB8A828B837808121591EA2404F8C6
:1024C800EB3400F98C828D83A3A3A3A3E0FCA3E0E3
:1024D800FD88828983C3E09CF0A3E09DF08882890F
:1024E80083C3E09420A3E0944E40229083D07808E0
:1024F8001215CB8A828B83780812156A8A828B839D
:10250800A3A3A3A3E02420F0A3E0344EF0808074BA
:10251800F51217BEE9FE900C08E0FAA3E0FBEEC343
:1025280033F8E433F9748F28F582748239F583E03F
:102538002AF508A3E03BF50978081219659084503C
:102548001215E912209C74021217118A088B098C43
:102558000A8D0B7410780812150CAA08AB097F04B1
:1025680002186A74F11217BE8A0C8B0D8C0E8D0F2F
:10257800740F121746E0FAA3E0FB7411121746E035
:10258800F508A3E0F5097413121746E0FEA3E0FF6F
:102598007808121965EA2401F508EB3400F509E416
:1025A800F50AF50B780C790812141C908420780829
:1025B8001215CB780C790812141CAA0CAB0DAC0EB2
:1025C800AD0F12209C74021217118B09EA4509609D
:1025D800047A0180027A00EC2AFCED3400FDECF864
:1025E800EDF97A717B0212167088088909E4F50AF8
:1025F800F50B8E828F8378081215DAECF8EDF97AEC
:10260800717B021216708A088B09740578081216F5
:10261800E88E828F83A3A3A3A3E508F0A3E509F0BE
:102628007F0802186AC082C083E9906000F0D083F6
:03263800D082222B
:10263C00FFFFFFFFFFFFFFFFC082C083E990108BFD
:10264C00F002286374F7121752E99009D4F07C0C4D
:10265C007D0A7AFF7BFF120C4E9009D574FFF0A314
:10266C00F0A3E4F0A3F07905120BDC9009D4E0F9A7
:10267C00120B047A667B0C120E2802357174F4125C
:10268C0017528A088B09EB548060309009D4E0F91A
:10269C001204148A0A8B0BAE0AAF0BEE4F60138E2A
:1026AC00828F83E064B07003120BEEEEFAEFFB1234
:1026BC000402AA08E5096480FB80047A007B00020E
:1026CC00283274F212175274FC1216FBEAFEEBFF5E
:1026DC007412121746123A58EE4F70030227717497
:1026EC0002121746EEF0A3EF122A6DECF0A3ED12D6
:1026FC002A6DAA82AB83120AFEE9F50A706AE50814
:10270C00450960648E828F83123A3EEE4F60567A92
:10271C00067B001204868A0C8B0DA80CA90DE849C7
:10272C007005750A13804188828983E412277EEE36
:10273C00F0A3EF123A69E508F0A3E509F09009DA85
:10274C001228059009DA700512351B801B12350909
:10275C008003EAFCEBFD8C828D8312280570F38CD0
:10276C00828D8380E3750A02A90A74041217110280
:10277C003C58F0A3123A0FA32274F2121752890A92
:10278C00E975F017A4FEAFF09009D9E4F09009D7E1
:10279C00122805600A12048C9009D7E4F0A3F0EE1D
:1027AC00FAEFFB1204868A088B09EA4509602FEEC2
:1027BC00FCEFFD79001203EA9009D7E508F0A3E5D8
:1027CC0009F07B0080081227EFE4F0A3F00BEBC3B9
:1027DC00950A40F2E50A9009D9F079008002791344
:1027EC00023C58EB75F017A4F8A9F09009D7E02833
:1027FC00FAA3E0398A82F583221231ADEA4B2274B6
:10280C00F41217527900EAA2E0501B75088775097B
:10281C008378081219657C047D007A8D7B10120B6D
:10282C00D674021217117F04021824C082C0839040
:10283C0009DA12286A601C88828983A3A3E06A7073
:10284C0003A3E06B8882898370E8A3A3A3A312314E
:10285C00A980047A007B00D083D082020135123D1E
:10286C003EE8492274EE12175274FC1216FBEAFE73
:10287C00EBFF851882851983E4F0A3F0EE24021295
:10288C0034FBEE2405123A16EE2404F50EEF122E4C
:10289C0022E024FE603924FC604624FE605224FEB3
:1028AC00605E24FE700302298324FE70030229E774
:1028BC0024FE70030229F624FE7003022A0524FC70
:1028CC007003022A1424FE7003022A23022A609049
:1028DC0009F37417F0A3E4122A7512087C022A601B
:1028EC00851882851983AC82AD83120BF4022A30D1
:1028FC00851882851983AC82AD83120BFA022A30BB
:10290C00850C08850D097402121746AC82AD8385BF
:10291C0008828509831231A9120B228A0C8B0DAC0B
:10292C000CAD0DEC4D603BE4F50CF50D780C12196B
:10293C0065750CF3750D09780C121965750CF47529
:10294C000D09780C121965740812174612197C12AD
:10295C003D62121711E9F50C700B12319F1208949D
:10296C00800F750C01850882850983122A63123544
:10297C001B850C08022A337402121746AC82AD83F5
:10298C00850C82850D83122F74603C850C82850D1D
:10299C0083A3A312197C7510F37511097810121901
:1029AC00657510F4751109781012196574081217F1
:1029BC004612197C123D62121711E9F509700B12BF
:1029CC00319F12089A800F750901850C82850D8341
:1029DC00122A6312351B850908804C8518828519CB
:1029EC0083AC82AD83120C00803A851882851983E2
:1029FC00AC82AD83120C06802B851882851983ACB2
:102A0C0082AD83120C0C801C851882851983AC82D4
:102A1C00AD83120C12800D851882851983AC82ADA2
:102A2C0083120C18E9F508E50860298E828F83A3C0
:102A3C00E06414601F850E82850F83E09009F31209
:102A4C002A6D123D3A9009F412351BE508A3122A9F
:102A5C007512087602340A123D3E85188285198358
:102A6C0022F085188285198322F07CF37D09850A72
:102A7C0082850B831231AD2274EE12175274FC1244
:102A8C0016FB8A0A8B0B8C0E8D0FEA2405F508EBCE
:102A9C003400F5097C157D0079007AF37B0912036B
:102AAC00EAE5082402F50CE509123A198518828525
:102ABC001983858210858311781012196585088217
:102ACC00850983A3A3A3A3122F6B121965E5082410
:102ADC0005F510E5093400F5117810121965850C0F
:102AEC0082850D831232C0120B1C74061217118AC8
:102AFC00108B11AE10AF11E50A2402F50AE50B128A
:102B0C0034FEEE4F7003022C4280177402121746EB
:102B1C001231A988828983EAF0A3EBF09009F3E0E3
:102B2C0004F09009F3E0C394054003022C42E4F551
:102B3C0010F51178101219657510DC7511097810E3
:102B4C001219657510DD7511097810121965740666
:102B5C0012174612197C7910EEFCEFFD123D64122F
:102B6C001711E9705E850882850983A3A3A3A3A32B
:102B7C00A3A3E0F89009DCE0687048122F6B1219DF
:102B8C00657CDD7D09E5082408FAE5093400FB12B3
:102B9C0003E47402121711E960298E828F83A3A3B8
:102BAC00A3A31231A99009F3E0F510740278101266
:102BBC0016E874F42510F58274093511F583EAF0E2
:102BCC00A3EBF074021217468582108583117810DE
:102BDC00121965740212174612197C850C82850D28
:102BEC00831231CF1217118A108B11AE10AF1190C6
:102BFC0009F3E0F510751100740278101216E874E0
:102C0C00F32510F874093511F988828983A31228E9
:102C1C00057003022B0EE82403080808E93400F9B8
:102C2C00EE4F6003022B178882898374FFF0A3F0A8
:102C3C009009F3E004F09009F3E0600A12319F125E
:102C4C0008887900800B85088285098312351279F2
:102C5C000A02340A74EA12175274FE1216FB8C1212
:102C6C008D13EA2405F50CEB123D4C123A42750813
:102C7C0000750900EA2402F510EB3400F5118518F3
:102C8C008285198385820A85830B780A12196585DA
:102C9C000C82850D83A3A3A3A3122E38121965E50C
:102CAC000C2405F50AE50D1234FE780A1219658517
:102CBC000C82850D83122E3C120B1C7406121711FC
:102CCC008A0A8B0BEA450B7003022DDDEA2404F50E
:102CDC000EEB122E22123A428A828B83A3A3A3E01C
:102CEC00F98510828511831231B36003022DDDE466
:102CFC00F514F51578141219657514DC7515097829
:102D0C00141219657514DD7515097814121965748A
:102D1C000612174612197C7913AC0AAD0B8510827A
:102D2C00851183123D6A121711E9F5096003022D12
:102D3C00DD9009DCE0F8E5087009E024029009F464
:102D4C00F080149009F4E0FCE82402FAE43400FB6F
:102D5C00EA6C7001EB707E850882AA82122F629455
:102D6C0014122F5A506B850E82850F83E0C0E074CD
:102D7C00F52A122E19D0E0F00508850E82850F83F6
:102D8C00A3E0C0E085080A74F5250A122E19D0E0DC
:102D9C00F005089009DC122E381219657CDD7D09CE
:102DAC0085080A74F5250A122E2C1217119009DCCD
:102DBC00E02508F50874FF6E700374FF6F6012EE67
:102DCC0024010EEF3400FFE508C394145003022CC9
:102DDC008AE50860131231BD85108285118312318A
:102DEC00A912088E79008014E509700375090A850B
:102DFC001282851383EEF0A3EFF0A9097402121767
:102E0C00117F0E02182485080C74F5250CF58274BC
:102E1C00093400F583223400F50F850E82F58322E8
:102E2C00FA74093400FB1203D2740222123A78228B
:102E3C00A3A3122E4222123509FDEEFAEFFB2274E7
:102E4C00EE12175274FE1216FB8C0E8D0FEA24052F
:102E5C00F50CEB123A19750B009009F3E4F0F50A36
:102E6C00EA2402F508EB3400F50980449009F3E0FC
:102E7C00FA9009DCE0F8122F629417122F5A400DC9
:102E8C009009F3E0F87416C3989009DCF0122F6BDC
:102E9C001219657CDD7D0974F42AFA7409122E2F3F
:102EAC001217119009DCE0F89009F3E028F0050AFC
:102EBC00E50C2416F582E50D122E1DE0F8E50AC38B
:102ECC009850749009F3E0C39416506BE50AC33321
:102EDC00F8E433F9E50C28FEE50D39FF85188285F9
:102EEC001983AC82AD838E828F83122F7470087518
:102EFC000B0112350E8050E4F510F51178101219F3
:102F0C00657510DC75110978101219657510DD7571
:102F1C0011097810121965740612174612197C796A
:102F2C0016850882850983123D6A121711E9F50B83
:102F3C007003022E7880BB7CF37D0985088285099D
:102F4C00831231A91208A0A90B740202340CE99463
:102F5C0000C365D03322EA28F8E43400F9E822E013
:102F6C00F5107511007810221234018A108B11ACF7
:102F7C0010AD11EC4D2274EA12175274FC1216FBB0
:102F8C008A0C8B0D8C128D13EA2405F50AEB123486
:102F9C00FE750800750900E50A2402F510E50B34EE
:102FAC0000F511740212174685820E85830F780E78
:102FBC00121965850A82850B83A3A3A3A3123A1E5B
:102FCC00121965E50A2405F50EE50B3400F50F78AA
:102FDC000E1219658510828511831235041231A3E6
:102FEC00120B1C74061217118A0E8B0FAE0EAF0F3C
:102FFC00E50C2402F50EE50D3400F50F80388882BF
:10300C00898374FFF00508122E1274FFF0050890E6
:10301C0009DCE0F50C750D00780C1219657CDD7D72
:10302C000985080C74F5250C122E2C121711900919
:10303C00DCE02508F508EE4F60278E828F83A3A372
:10304C00A3E0F9850E82850F831231B3EE240412AE
:10305C003A16E96027850C82850D8312319512355D
:10306C001BE508700302317B1231BD850E82850F82
:10307C00831231A91208A67900023190E4F514F5F7
:10308C001578141219657514DC7515097814121954
:10309C00657514DD75150978141219657408121705
:1030AC004612197C7911EEFCEFFD850E82850F839B
:1030BC00123D6A121711E9F509709A850882AA82E5
:1030CC00EA9009DC7009E024049009F4F08025E012
:1030DC00F89009F4E0F514E82404FCE43400FDEC69
:1030EC0065147001ED7081122F629412122F5A40E8
:1030FC0003023074850C82850D83E0C0E074F52AE0
:10310C00122E19D0E0F00508850C82850D83A3E002
:10311C00C0E0122E12D0E01231D885820C85830DBE
:10312C00780C121965740412174612197C851082DA
:10313C008511831231CF1217118A0C8B0DAE0CAF87
:10314C000D85080C74F5250CF874093400F9EE4F54
:10315C00700302300A851882851983E0888289837E
:10316C001231D8A3E0C0E0122E12D0E0023018E5E4
:10317C0009700375090A850A82850B831231951231
:10318C00351BA9097404022E0A123D3E8512828554
:10319C001383227CF37D09850A82850B831231AD62
:1031AC0022E0FAA3E0FB221231AD120B0AE9F50979
:1031BC00229009F4E0F5F0E508849009F3F07CF333
:1031CC007D0922122E42120B28740422F005088568
:1031DC0018828519832274EC12175274FE1216FB96
:1031EC008A088B098C0E8D0FEA2405FEEB3400FF48
:1031FC001233EBEE2418123A16EA450B7003023226
:10320C008E1233D450291232B38A108B11EA451125
:10321C00606B7912AC0AAD0B85088285098312317B
:10322C00A9851082851183121750E9F50A7058E4AC
:10323C00F50AF50B780A1219658E828F83A3A3E029
:10324C00F50A780A121965EE24031234FB780A1277
:10325C0019658E828F831232C0120C3C74061217C1
:10326C0011E9F50A7021850C82850D83E0701F85AC
:10327C0008828509831231A91208AC8011750A0ED7
:10328C008009750A018004E50A600312350E850C6D
:10329C0082850D83E0600479008002A90A74021211
:1032AC0017117F0C0218248518828519831231ADF1
:1032BC00120C2A22123509FD8508828509831231E8
:1032CC00AD2274EE12175274FE1216FB8A088B098B
:1032DC008C0C8D0DEA2405FEEB3400FF750E0012EC
:1032EC0033EBEA450B70030233B21233D4502C1279
:1032FC0032B38A0E8B0FEA450F604A7912AC0AADD5
:10330C000B8508828509831231A9850E82850F836E
:10331C00121750E9F50E60030233B5850882850952
:10332C00831235F0AA0AFB1233C670147AFF7BFFA6
:10333C001233C6606C88828983E50AF0A3E50BF032
:10334C00750A008007750E0E805F050A9009D9E09A
:10335C00FAE50AC39A504AE50A75F017A4FAABF0DD
:10336C0088828983A3A3E02AFAA3E03BFB8A828BA1
:10337C0083123504EC4D70D2750A17750B00780A60
:10338C00121965EEFCEFFD1203D27402121711EE46
:10339C00FCEFFD8508828509831231A91208B280E1
:1033AC0014750E098003750E01123D36850C82854D
:1033BC000D8312351BA90E022F55120C1E8A108B71
:1033CC0011A810A911E84922E5082402F508E5091D
:1033DC003400F5098A828B83A3A3A3E0A2E522859E
:1033EC001882851983AC82AD838E828F831234014F
:1033FC008A0A8B0B22E0FAA3E0FB120B2222740444
:10340C001217117F0A02182474EC1217528C108DAB
:10341C0011EA2405F50CEB123A19750F00EA240297
:10342C00F50AEB1234FE850A82F5831231A9123D9E
:10343C00F070030234F0750E008071850C82850DDE
:10344C0083E06401704F8E828F83A3A312197C8E4C
:10345C00828F83A3A3A3A3E0F51275130078121235
:10346C001965EE2405F512EF3400F51378121219D4
:10347C00651231A3120C3C7406121711E9F50F609A
:10348C0014850C82850D83E4F0123D3685108285FF
:10349C00118312351B7C177D007900EEFAEFFB12BD
:1034AC0003EA8E828F83E4F0A3F0050E9009D9E035
:1034BC00F8E50EC398501EE50E75F017A4F8A9F0A8
:1034CC00850882850983A3A3123D56123504EC4D61
:1034DC00600302344785088285098374FFF0A3F0EA
:1034EC00E50F70061231A31208B8A90F0232AEF51F
:1034FC000AEF3400F50B22A3123509FD22E0FCA3E0
:10350C00E0228E828F83123D3E850E82850F83E8EA
:10351C00F0A3E9F022C082C0839009D5E06A700361
:10352C00A3E06B70067AD57B0980047A007B0002DD
:10353C00286374F71217527F00EF75F003A4F8A9F3
:10354C00F0EC28F8ED39F988828983E06A7003A3DE
:10355C00E06B7006E8FAE9FB800B0FEFC3940240B6
:10356C00D87A007B007F0102182474F612175212CD
:10357C003B2770067A007B008007A3A3A3A312311C
:10358C00A9023BE874F2121752E9FE740E121746A8
:10359C001235F07410121746123A588C828D83E053
:1035AC006402703BA3123D3A88828983E0F50CA338
:1035BC00E0F9A80C74026870037429697021750C09
:1035CC0002750D00780C1219657808121965780AC5
:1035DC00121965EEF9120C6074061217118002793B
:1035EC0001023C58E0F50AA3E0F50B2274E812172F
:1035FC005274FB1216FBE9851882851983F08A1622
:10360C008B178C0E8D0F741F121746123A5874219B
:10361C001217461235F07423121746123A427510DF
:10362C00008C828D83A3A3A3E0A2E4502A741D1204
:10363C0017461232B98A828B83E582458370030266
:10364C003704790AAC0EAD0FAA16AB17121750E956
:10365C00F5106003023707850E82850F83E0640244
:10366C0060030239BDA3123D3A850882850983A304
:10367C00858212858313E50E2406F50CE50F123AAC
:10368C001988828983E0FAA3E0F9EA2400F514E4AE
:10369C0039F51578141219EF010000280128CC36E1
:1036AC0007000228A337032813370029CD38012936
:1036BC00F53802299C380329CD3804295E39BD39E7
:1036CC00EE4F703E850C82850D83123A33FAE9FB7E
:1036DC008A828B83E0850A82850B83123A6F1219DA
:1036EC00658A828B83A3123509FDAA08AB091203E4
:1036FC00D27402121711800375100EA910740502F2
:10370C003D4475100B80F4EE4F70F7850A82850BE3
:10371C00837401F0123A48850882850983F07C0095
:10372C007D00850E82850F83A3A3A3A3E02401FA59
:10373C00A3E03400FB120B22EA4B60418A828B839C
:10374C00E02402F8850A82850B83E028F0EA240441
:10375C00F8EB3400F988828983E085128285138323
:10376C00123A81123A6F1219658A828B83123503D1
:10377C00E5082403FAE5093400FB0236FA850A82CF
:10378C00850B83E02404F07C047D007900AA12AB45
:10379C00131203EA023707EE4F600302370E123A98
:1037AC0048FEA3E0FF850A82850B837404F0EE8546
:1037BC000882850983F0EF851282851383F07403E8
:1037CC00121746AC82AD83EEFAEFFB123B15700379
:1037DC000238798A828B83A3A3123A3E74011217A2
:1037EC004685820E85830F780E12196574051217A3
:1037FC004612197C7CFF7DFF120B287404121711E2
:10380C008B0FEA450F7033850C82850D83123A1E9F
:10381C00121965850C82850D83A312197C7C027D9F
:10382C00007A897B841209547404121711E9700A06
:10383C00740112174674FFF0A3F08E828F83E0643C
:10384C00027034750C02750D00780C1219658E829D
:10385C008F83123503E5082404FAE509122E2F1282
:10386C001711850A82850B83E024028009740112EA
:10387C001746EEF0A3EFF07401121746123A2FF030
:10388C007401121746A3123A27A3A3A3F002370719
:10389C00EE4F600302370E850C82850D83123504C2
:1038AC00AA16AB17120C54850A82850B837402F08E
:1038BC00EA850882850983F0851282851383EB8063
:1038CC00CBEE4F600302370E123A48F8A3E0F985AD
:1038DC000A82850B837402F0E8850882850983F0DF
:1038EC00E985128285138380A3850C82850D831252
:1038FC0031A91203CCEAFC8C82A882C39EE49F40BF
:10390C004BE86E7001EF70047C00801F8518828577
:10391C001983E0FAEE2AFAEF3400FBC3EA98EB9431
:10392C00005003E08004EECCC39CFCEC850A82853D
:10393C000B83F08C0A750B00780A121965850C82C2
:10394C00850D83E02EFCA3E03F0236F575100702CF
:10395C003707EE4F600302370E850C82850D8312FC
:10396C003D3A850A82850B837407F088828983121D
:10397C003A27123A0FE0851282851383F0E824026D
:10398C00FAE93400FB8A828B83123A27123A6012CE
:10399C003A2FA3123A69123A38F0E82405F8E934C0
:1039AC0000F988828983123A38A3123A81A302382B
:1039BC0095741D121746123B207003023704123DFA
:1039CC003A880C890DE8450D70030237048E108F70
:1039DC00117810121965780A121965780812196590
:1039EC007406121746E0F9AC0EAD0FAA16AB17858C
:1039FC000C82850D831217507406121711E9F510FD
:103A0C00023707F088828983A322F50CEF3400F586
:103A1C000D22E0F50E750F00780E22E085088285E8
:103A2C00098322123A8822123D3EE822123A88A3D8
:103A3C00A322A3A3A3A3E0FEA3E0FF22850C82850F
:103A4C000D83E0F8A3E0F5838882E022E0F508A37B
:103A5C00E0F50922A3A3F08A828B83A3221227808C
:103A6C00A3A322F08A828B83123A7822E0F50A759E
:103A7C000B00780A22123A0F123A8822E08508824B
:103A8C00850983A3A32274EE12175274FE1216FB3F
:103A9C008A0A8B0BECFAEDFB7414121746E0F51046
:103AAC00A3E0F5117416121746E0FE7418121746AF
:103ABC00E0F50EA3E0F50F851882851983AC82AD75
:103ACC0083123B15603E851882851983123B20605A
:103ADC002FA3A3123A58E50845096024780E121951
:103AEC00657810121965EEF9AC0CAD0DAA0AAB0B8A
:103AFC0085088285098312175074041217118006E9
:103B0C00790E80027901022F55120B228A0C8B0D33
:103B1C00EA450D221231AD123B2722120BE88A82A4
:103B2C008B83E58245832274F612175274FE1216AB
:103B3C00FB740C121746123A33851882851983F0E0
:103B4C007401121746E9F0E4F508F5097808121922
:103B5C006575080278081219657404121746858277
:103B6C00088583097808121965120C3C7406121723
:103B7C00117402121711806474F7121752EAFEEBDB
:103B8C00FF89087C0C7D0A120C54EA5402600BA9C4
:103B9C0008EEFAEFFB120B168002790102357174F4
:103BAC00F612175274FF6A700374FF6B701C7B0063
:103BBC00EB75F003A4F8A9F0EC28F8ED39F9123BF9
:103BCC00ED0BEBC39402501480E6120C248A088B84
:103BDC0009A808A909E8496003123BED7F02021805
:103BEC00248882898374FF12277EE4F02274F612F3
:103BFC001752120C248A828B83E58245836006A3BC
:103C0C00A3E0FA80027A007B0080D174F212175282
:103C1C008A088B09ECFEEDFF740E121746E0F50ACC
:103C2C00123C5D701CEEFCEFFD7AFF7BFF123C5DDD
:103C3C0070047911801688828983E508F0A3E50960
:103C4C00F088828983A3A3E50AF079007F06021825
:103C5C0024120C248A0C8B0DA80CA90DE849227493
:103C6C00EE121752EAFEEBFF8C088D09890C7412C8
:103C7C00121746123D3A7414121746123504741674
:103C8C001217461231A9750D00EC4D6003023D2E42
:103C9C007402650C6003023D298882898312350900
:103CAC00F9EC2400F50EE439F50FEAF4F8EBF4F92D
:103CBC00EC58F8E50F59F9E849705DE5082406F869
:103CCC00E5093400F9880A890B8882F583122E3EA7
:103CDC00120C548A108B11E50E65107004E50F65FB
:103CEC00116042780E121965850A82850B83122E9B
:103CFC003E120C5A7402121711E9F50D7027780E4A
:103D0C00121965850882850983A3A3122E3C120C17
:103D1C006C7402121711800D750D808008750D0DD5
:103D2C008003750D0BA90D02340F8E828F83123D0B
:103D3C003E22E0F8A3E0F9221217117F100218249A
:103D4C003400F50D850C82F58322E028FEA3E039C2
:103D5C00FF8E828F83227916850A82850B8312311E
:103D6C00AD120C3674082274F2121752EAFEEBFFF5
:103D7C00890B7401650B600E7402650B706379011D
:103D8C00120E46E9705BEEFAEFFB123DF0604775E0
:103D9C000A00800B7C177D0079001203EA050A905B
:103DAC0009D9E0F8E50AC3985021E50A75F017A483
:103DBC00F8A9F0850882850983A3A3E028FAA3E07B
:103DCC0039FB8A828B8312286A70C985088285091F
:103DDC008374FFF0A3F07C0C7D0AEEFAEFFB120C5F
:103DEC004E023C58120C1E8A088B09EA45092274B3
:103DFC00F21217528A088B09ECFEEDFF740E1217A3
:103E0C00461235F090108BE0F4603D7A097B00127D
:103E1C0003FCEA4B60328A828B8374B1F0A3E41208
:103E2C003A62A3123A60A3E508F0A3E509123E57E3
:103E3C00EEF0A3EF123E57A3A3E50AF0A3E50BF0B7
:103E4C0090108BE0F9120408023C58F08A828B83A4
:103E5C00A3A3A3A3A322C082C0839061907404F097
:103E6C00A37448F0A37402F09061807440F09061E8
:103E7C00BC7403F09061877419F0906265741BF048
:103E8C0090619C740DF090619A7433F0A37455F0AA
:103E9C009061A0743AF0900C50E064017009C291EA
:103EAC00900ABA74678005900ABA7461F090264241
:103EBC00E493906186F090263CE493F46027E493BD
:103ECC00540FF8906185E0686012E5C6548044494F
:103EDC00F5C6E59E547F644970F8E8F053C680E55A
:103EEC009E547F70FA790512119A0240A4C082C0C8
:103EFC0083E9540FF9906185E0696012E5C654803E
:103F0C004449F5C6E59E547F644970F8E9F053C600
:103F1C0080E59E547F70FA0240A4C082C083E5A85D
:103F2C00F853A87E906181E4F0A3F0A3F0C2BA53D9
:103F3C009AFEC289759B00C2C275E9007591007525
:103F4C00BF0075A91175B905906181F0A374C0F01B
:103F5C00A3E4F0D2BA439A0174805842A80240A458
:103F6C00C082C08374F81216FB900AB8E0F8A3E084
:103F7C00F9E849700302409A900AB8E05440602373
:103F8C007908851882851983AA82AB831210028561
:103F9C001882851983AA82AB83120CD8900AB8E0D8
:103FAC0054BFF0E054806010790C7A747B0C1210C2
:103FBC0002900AB8E0547FF0E0A2E0503190619A90
:103FCC007433F0A37455F09061A0743AF0900C50D7
:103FDC00E064017009C291900ABA74678005900A76
:103FEC00BA7461F0120CDE900AB8E054FEF0E054A2
:103FFC0002603190619A743FF0A3745AF09061A002
:10400C00747FF0900C50E064017009D291900ABA60
:10401C0074718005900ABA746AF0120CDE900AB8BA
:10402C00E054FDF0E054046013902640E49390615A
:10403C0086F0120CE4900AB8E054FBF0E0540860EF
:10404C0013902641E493906186F0120CE4900AB828
:10405C00E054F7F0E054106013902642E493906122
:10406C0086F0120CE4900AB8E054EFF0E0542060B3
:10407C000A120CE4900AB8E054DFF0A3E05401609B
:10408C000D120F2A120CEA900AB9E054FEF07408D3
:10409C001217118003F0A3F0D083D0820201357483
:1040AC00EC12175274F41216FB851882851983AC26
:1040BC0082AD837583837582EC740412160E902680
:1040CC004093F46003024238907808E0C3940250A5
:1040DC00030242187404121746AC82AD83758383B5
:1040EC00758238740812160E85188285198385829C
:1040FC00128583137404121746AC82AD83750EFFC0
:10410C00750FFF7FFF7E00750C48750D7880157458
:10411C00086E70030241AB74096E70030241AB74FC
:10412C000A6E607B850C82850D8378081215CB8C0A
:10413C00828D83A909E50AC9F888107418780812C9
:10414C00150CE5104508F8C3E098A3E099850C829E
:10415C00850D8378081215CB40188C828D837418CA
:10416C00780812150CE5104508F8E0C398F8A3E0A0
:10417C00801C7418780812150CE5104508FAE9FB38
:10418C008C828D83E0F8A3E0F9EAC398F8EB99F9F7
:10419C00C3E8950EE9950F5006880E890FEEFF0EB9
:1041AC00E50C2404F50CE50D3400F50DEEC3941369
:1041BC00500302411B74FF650E700474FF650F60A1
:1041CC00238F08740278081216E874482508F582C3
:1041DC0074783509F58378081215CB85128285130E
:1041EC0083E508F0EC24020C0CED3400FD85128202
:1041FC00851383A3858212858313740C121746E5ED
:10420C00826C7003E5836D600302410975080175CA
:10421C00090078081219657402121746AC82AD8336
:10422C007A907B091206487402121711740C12173B
:10423C00117F0C021824C082C0839061AE7468F0A8
:10424C00A3746AF090624574FBF0A304F053F4FD80
:10425C0043FE02900C507401F09061A0E0643A901F
:10426C00619A70237433F0A37455F09061A0743A82
:10427C00F0740164017009C291900ABA74678028C5
:10428C00900ABA74618021743FF0A3745AF0906163
:10429C00A0747FF0740164017009D291900ABA7411
:1042AC00718005900ABA746A0240A37F0402182434
:1042BC00C082C083900C02E06401700A900C07E08D
:1042CC006004790C800279000240A4C082C083751E
:1042DC00E1F1900C05E0605514600814605914600D
:1042EC00518059120F3C900BFBE0F97AFC7B0B12BE
:1042FC00111C9083E01215E9121152908440121592
:10430C00E9121128900C06E0F912113479011211FE
:10431C008E900BF9E02416F8A3E03400F98882891A
:10432C00837454F0A3740FF079000240A4120F426E
:10433C0080B4120F4880AF120F4E80AA791280EA17
:10434C0074F412175275D90D900BEAE0A2E0E43325
:10435C001313F8900BFBE0C4333354C0484401F5FD
:10436C00D978F9790B88828983A3A3A3E0F5D9883E
:10437C00828983A3A882A983E864FF7003E9640B94
:10438C0070E378EA790B88828983A3E0F5D9888277
:10439C008983A3A882A983E864F07003E9640B7095
:1043AC00E575E195900BEAE0F97AEB7B0B121122A3
:1043BC009010AD74E8F0A3740EF0A3744AF0A374DB
:1043CC0010F0A3744AF0A37410F0A3744AF0A37411
:1043DC0010F0A374EEF0A3740EF0A3744AF0A3745F
:1043EC0010F0A37406F0A3740FF09010BB744AF095
:1043FC00A37410F0A3744AF0A37410F0A3744AF0E1
:10440C00A37410F0A3744AF0A37410F0A3744AF0D0
:10441C00A37410F0A3744AF0A37410F0900BF9E09D
:10442C00F8A3E0F5838882A3A378081215CB9083B8
:10443C00CC780812155790840078081215A5900BAB
:10444C00F9E0240EF8A3E03400F988828983780817
:10445C001215DA900BF9E02414F8A3E03400F98873
:10446C008289837413F0900AB67402F00242B7C0CA
:10447C0082C083900C0BE02407F5D9900BFBE0C4B1
:10448C00333354C0F5D978F9790B88828983A3A387
:10449C00A3E0F5D988828983A3A882A983E864FF65
:1044AC007003E9640B70E3900C0BE0601F78F979F2
:1044BC000BFAE82413F582E93400F583E0F5D9888A
:1044CC00828983A3A882A9831AEA70E6900C2BE058
:1044DC002407F5D9900BFBE0C4333354C04404F5E6
:1044EC00D978F9790B88828983A3A3A3E0F5D988BD
:1044FC00828983A3A882A983E864FF7003E9640B13
:10450C0070E3900C2BE0601F78F9790BFAE82433F8
:10451C00F582E93400F583E0F5D988828983A3A874
:10452C0082A9831AEA70E675E1959010AD74F4F0E7
:10453C00A3740EF0A3744AF0A37410F0A3744AF0A1
:10454C00A37410F0A3744AF0A37410F0A374EEF0EB
:10455C00A3740EF0A3744AF0A37410F0A37406F0C5
:10456C00A3740FF09010BB744AF0A37410F0A374F2
:10457C004AF0A37410F0A3744AF0A37410F0A3745F
:10458C004AF0A37410F0A3744AF0A37410F0A3744F
:10459C004AF0A37410F09083D01215E9900BF9E057
:1045AC00240EF8A3E03400F9888289831215F59063
:1045BC000BF9E02414F8A3E03400F98882898374A1
:1045CC0012F0900AB674010240A3C082C083900C12
:1045DC000BE02407F5D9900BFBE0C4333354C044F3
:1045EC0002F5D978F9790B88828983A3A3A3E0F526
:1045FC00D988828983A3A882A983E864FF7003E920
:10460C00640B70E3900C0BE0601F78F9790BFAE8FF
:10461C002413F582E93400F583E0F5D98882898387
:10462C00A3A882A9831AEA70E675E1959010AD747F
:10463C0000F0A3740FF0A37400F0A3740FF0A37434
:10464C0000F0A3740FF0A37400F0A3740FF0A37424
:10465C0000F0A3740FF0A37400F0A3740FF0A37414
:10466C0006F0A3740FF09010BB744AF0A37410F012
:10467C00A3744AF0A37410F0A3744AF0A37410F05E
:10468C00A3744AF0A37410F0A3744AF0A37410F04E
:10469C00A3744AF0A37410F09083D01215E9900B18
:1046AC00F9E0240EF8A3E03400F98882898312150E
:1046BC00F5900BF9E02414F8A3E03400F988828912
:1046CC00837414F0900AB674040240A3C082C083B1
:1046DC00900C0BE02407F5D9900BFBE0C43333545A
:1046EC00C04406F5D978F9790B88828983A3A3A3F2
:1046FC00E0F5D988828983A3A882A983E864FF7036
:10470C0003E9640B70E3900C0BE0601F78F9790BF4
:10471C00FAE82413F582E93400F583E0F5D98882B0
:10472C008983A3A882A9831AEA70E6900C2BE02453
:10473C0007F5D9900BFBE0C4333354C04404F5D9CE
:10474C0078F9790B88828983A3A3A3E0F5D98882B1
:10475C008983A3A882A983E864FF7003E9640B70C2
:10476C00E3900C2BE0601F78F9790BFAE82433F511
:10477C0082E93400F583E0F5D988828983A3A88285
:10478C00A9831AEA70E675E1959010AD74FAF0A35E
:10479C00740EF0A3744AF0A37410F0A3744AF0A33F
:1047AC007410F0A3744AF0A37410F0A3744AF0A32D
:1047BC007410F0A3744AF0A37410F0A37406F0A361
:1047CC00740FF09010BB744AF0A37410F0A3744AE9
:1047DC00F0A37410F0A3744AF0A37410F0A3744AFD
:1047EC00F0A37410F0A3744AF0A37410F0A3744AED
:1047FC00F0A37410F09083D01215E9900BF9E0241B
:10480C000EF8A3E03400F9888289831215F5900B19
:10481C00F9E02414F8A3E03400F988828983741534
:10482C00F0900AB674030240A3C082C083900BF9C7
:10483C00E0F8A3E0F5838882A3A3A3A3A3A3E402D7
:10484C0040A174F7121752900AE4E0F875F004A432
:10485C00C8AAF02AF974E628F8740A39F9E824058C
:10486C00FAE93400FB8A828B83E0FCA3E0FD8882AA
:10487C008983A3A3A3A3A3A3A3A3A3ECF0A3EDF009
:10488C0088828983A3A3A3A3A3A3A3E024FFF8A3F3
:10489C00E034FFF98A828B83E8F0A3E9024AF374CF
:1048AC00F7121752EAFEEBFF9061D0E06003024969
:1048BC008875D90E75D90375D904EE248CF582EF61
:1048CC003400F583E5822408F8E5833400F9E0F53B
:1048DC00D9A3E865827003E9658370F2EE2484F550
:1048EC0082EF3400F583E5822404F8E5833400F983
:1048FC00E0F5D9A3E865827003E9658370F275E190
:10490C00957908EE248CFAEF3400FB120FF679043B
:10491C00EE2484FAEF3400FB120FF67C00EEF8EF75
:10492C00F9ECFAC3E49AFA95E0FBEE2AFAEF3BFBBA
:10493C00EA248BF582EB3400F583E0C0E0E824AB8D
:10494C00F582E93400F583D0E0F00C88828983A3EA
:10495C00A882A983ECC3940840C7EE2470F582EFBB
:10496C003400F583E0F8A3E0F9EE2472F582EF341D
:10497C0000F583E8F0A3E9F0790180027900024A9E
:10498C00F4C082C08375D90275D90375D90575E158
:10499C0095EA2470F582EB3400F583E0F8A3E0F996
:1049AC00EA2472F582EB3400F583E8F0A3E9F079A0
:1049BC00010240A474F6121752EAFEEBFF900C545D
:1049CC007406F075085475090C78081219657C0189
:1049DC00790312103E740212171175D90675D9039A
:1049EC0075825475830CE0F5D9A3E5826459700483
:1049FC00E583640C70F075E195900AB6E06408707C
:104A0C001EEE2470F582EF3400F583E0F8A3E0F994
:104A1C00EE2472F582EF3400F583E8F0A3E9F07927
:104A2C0001024BC074F6121752EAFEEBFF9061D0F4
:104A3C00E070667801900C54740BF0900AB6E06448
:104A4C0007701975085475090C78081219657C01E2
:104A5C00790312103E74021217117805740128F5AF
:104A6C00D975D90375825475830CE8FAE0F5D9A38E
:104A7C001AEA70F875E195EE2470F582EF3400F5C2
:104A8C0083E0F8A3E0F9EE2472F582EF3400F583AD
:104A9C00E8F0A3E9F0790180027900024BC074F7C9
:104AAC00121752EAFEEBFF75D90375D90375D90DB0
:104ABC00EE24DEF582EF3400F583E0F5D975E1954F
:104ACC007904121158EE2470F582EF3400F583E06E
:104ADC00F8A3E0F9EE2472F582EF3400F583E8F0E8
:104AEC00A3E9F079018001F07F0102182474F61219
:104AFC001752EAFEEBFF9061D0E0F87480C398FA8D
:104B0C00EE2483F582EF3400F583E06004780480B2
:104B1C00027800E8240BF8EAC3985003024BBE7DE0
:104B2C0009900C54EDF0EE24E3F8EF3400F97A55CB
:104B3C007B0C7C0888828983E08A828B83F0888254
:104B4C008983A3A882A9838A828B83A3AA82AB833D
:104B5C001CEC70E0EE2483F582EF3400F583E0600A
:104B6C001D75085475090C78081219657C097903B0
:104B7C00EEFAEFFB12103E74021217117D0D740148
:104B8C002DF5D975D90375825475830C8D08E0F514
:104B9C00D9A31508E50870F675E19579041211583A
:104BAC00EE241DF582EF3400F583E4F0A3F07901D7
:104BBC00800279007F0202182474F6121752EAFE62
:104BCC00EBFF9061D0E0F87480C398FAEE2483F583
:104BDC0082EF3400F583E06004780480027800E80A
:104BEC002408F8EAC3985003024CC57D06900C5477
:104BFC00740CF0900AD3E0900C55F07AD47B0A78C0
:104C0C0056790C7C028A828B83E088828983F08AB5
:104C1C00828B83A3AA82AB8388828983A3A882A96F
:104C2C00831CEC70E07AD67B0A7C028A828B83E050
:104C3C0088828983F08A828B83A3AA82AB83888241
:104C4C008983A3A882A9831CEC70E0EE2483F582EF
:104C5C00EF3400F583E0601D75085475090C780875
:104C6C001219657C067903EEFAEFFB12103E740202
:104C7C001217117D0A74012DF5D975D9037582545B
:104C8C0075830C8D08E0F5D9A31508E50870F67549
:104C9C00E1957904121158EE2470F582EF3400F589
:104CAC0083E0F8A3E0F9EE2472F582EF3400F5838B
:104CBC00E8F0A3E9F0790180027900024BC074F6A8
:104CCC00121752EAFEEBFF9061D0E0F87480C398A3
:104CDC00FAEE2483F582EF3400F583E06004780467
:104CEC0080027800E82404F8EAC3985003024DA42B
:104CFC007802900C54E8F0EE24F5F582EF3400F5D0
:104D0C0083E0900C55F0EE2483F582EF3400F583AC
:104D1C00E0601B75085475090C78081219657C0243
:104D2C007903EEFA12103E74021217117806740110
:104D3C0028F5D975D90375825475830C8808E0F56C
:104D4C00D9A31508E50870F675E195EE2474F58283
:104D5C00EF3400F583E4F0EE2480F582EF3400F5B7
:104D6C0083E4F0EE241DF582EF3400F583E4F0A328
:104D7C00F07904121158EE240DF582EF3400F5830E
:104D8C00E0F8A3E0F9EE2472F582EF3400F583E845
:104D9C00F0A3E9F0790180027900024BC074F6129D
:104DAC0017529061D0E0F87480C398FCEA2483F524
:104DBC0082EB3400F583E06004780480027800E82C
:104DCC002404F8ECC398405B7902900C547407F0FF
:104DDC00EA24F6F582EB3400F583E0900C55F0EA0A
:104DEC002483F582EB3400F583E060187508547564
:104DFC00090C78081219657C020912103E74021213
:104E0C0017117906740129F5D975D9037582547572
:104E1C00830CE9F8E0F5D9A318E870F875E19579F9
:104E2C000180027900024BC074F5121752E9FCA202
:104E3C00AFE433F50AC2AF7D0080010DEA246FF5B3
:104E4C0082EB3400F583E0F8EDC398501A8D08EA34
:104E5C002508F8EB3400F9E8246BF582E93400F509
:104E6C0083E06C70D68024EA246FF8EB3400F9E010
:104E7C00FEEA2EFAEB3400FBEA246BF582EB3400ED
:104E8C00F583ECF088828983E004F0E50AA2E092D5
:104E9C00AF7F0302182474F6121752A2AFE433FD4D
:104EAC00C2AFEA246FF582EB3400F583E014F07C9A
:104EBC000060368C08EA2508F8EB3400F9E8246C1D
:104ECC00F582E93400F583E0C0E0E8246BF582E973
:104EDC003400F583D0E0F00CEA246FF582EB34005B
:104EEC00F583E0F8ECC39840CAEA246EF582EB3403
:104EFC0000F58374FFF0EA246AF582EB3400F58345
:104F0C00E4F0EDA2E092AF024BC0C082C083E5A8F2
:104F1C00F8C2AFEA246BF582EB3400F583E9F0EAD2
:104F2C00246AF582EB3400F583E4F0E8A2E792AF53
:104F3C000240A474F3121752EAFEEBFFECFAEDFBFD
:104F4C008A828B83A3A3A3A3E0541FF0EE2436F52F
:104F5C0082EF3400F583E4F0F50AEEFCEFFD8A8273
:104F6C008B83E0C0E0EC245DF582ED3400F583D05A
:104F7C00E0F0750B00E50A33333354F8F50C8A82F4
:104F8C008B83E0F508750900E50B78081216C9E566
:104F9C0008A2E0502FEE2436F8EF3400F98882890D
:104FAC0083E0F508EE2508F508EF3400F509E5086F
:104FBC002438F582E5093400F583E50CF088828904
:104FCC0083E004F0050B050CE50BC3940840AF051A
:104FDC000A8A828B83A3AA82AB838C828D83A3AC37
:104FEC0082AD83E50AC394055003024F6A7F050224
:104FFC00182474F7121752900AE2E0640170077AD1
:10500C00007B000251757E00900AE8E070F174019B
:10501C00F0A3E4F0A3F0900B4804F0900B4BE4F0F9
:10502C00A3F0900B4E04F0900AEBE4F0A3F0A3F085
:10503C00A3F0900AF504F0900B1BE4F09083F812A7
:10504C0015E9900AFE1215F5900B02E4F0A3F0A3FB
:10505C00F0900B66F0900B5AF0900B4F7480F0A30D
:10506C00E4F0900B55F0900B4DF0900BD1F0A3F0B9
:10507C00A3F0A3F0A3F0A3F0A3F0A3F0900BDAF04D
:10508C00900B69F0900BB9F0A3F09083F81215E92E
:10509C00900BBB1215F59083F81215E9900BBF120B
:1050AC0015F5900BC5E4F0900BC7F0900BC3F09086
:1050BC000BDDF0A3F0A3F0A3F0A3F0A3F0A3F0A3F7
:1050CC00F078E2790AE8246FF582E93400F583740C
:1050DC00FFF00E88828983A3A882A983EEC394046F
:1050EC0040E37AE27B0A78F1790B88828983E0C00D
:1050FC00E0EA2461F582EB3400F583D0E0F088829D
:10510C008983A3A882A9838A828B83A3AA82AB8377
:10511C00E864F67003E9640B70D07AE27B0A78C914
:10512C00790A88828983A3E0C0E0EA24E7F582EB60
:10513C003400F583D0E0F088828983A3A882A98308
:10514C008A828B83A3AA82AB83E864D17003E9645F
:10515C000A70CF900AE2E004F064017008900AEA49
:10516C00E0900AE4F07AE67B0A024AF4C082C0833B
:10517C00900AE9E4F0900AE8F0900AE2F0A3F0A3B8
:10518C0074FFF075E1F10240A4C082C0837800790D
:10519C0000900AE9E0600478E6790A88828983A3A2
:1051AC00A3A3A3E0F90240A474F6121752EAFEEB93
:1051BC00FF8E828F83A3A3A3E0600F8E828F83A3C5
:1051CC00A3A3E4F0900AE3E014F0900AE2E014F0F8
:1051DC007006900AE474FFF08E828F83A3A3E4F030
:1051EC00900BF6E0700D900AE3E064017005790015
:1051FC0012113AEE2465F582EF3400F583E0F8A342
:10520C00E0F9E8496029EE2465F8EF3400F98808E4
:10521C0089098882F583E0FCA3E0FD900AE4E0FABA
:10522C007B00120D0E850882850983E4F0A3F0EE55
:10523C00FAEFFB12106E024BC074F7121752EAFE13
:10524C00EBFF8E828F83A3A3A3A3E0FA7B00120D46
:10525C0050EEFAEFFB120FC0121056024AF4C08245
:10526C00C08378C9790A88828983A3E4F08882890B
:10527C0083A3A882A983E864D17003E9640A70E669
:10528C00900ACA0245D174F6121752EAFEEBFFECF3
:10529C002403F8ED3400F988088909EC2407F8EDAB
:1052AC003400F9E8FCE9FD8C828D83E0F8A3E0F989
:1052BC00850882850983E0FAA3E0FB121670EE24C0
:1052CC000DF582EF3400F583E8F0A3E9F08C828DC4
:1052DC0083E0F8A3E0F9850882850983E0FAA3E06E
:1052EC00FB1216708B09EA45096013EE240DF5824A
:1052FC00EF3400F583E02401F0A3E03400F0024B1E
:10530C00C074F6121752EAFEEBFFEE242EF582EF74
:10531C003400F583E0FCA3E0FD780079FAECFAEDBB
:10532C00FB121670EE2470F582EF3400F583E8F072
:10533C00A3E9F0780079FAECFAEDFB1216708B0900
:10534C00EA45096013EE2470F582EF3400F583E032
:10535C002401F0A3E03400F0024BC074F012175299
:10536C00EAFEEBFF741012174678081215CB1210D8
:10537C00F88A0C8B0D8C0E8D0F9083C8780C12153F
:10538C0057908400780C1215A5780C1219618E8236
:10539C008F83E0F8A3E0F5838882A3A31215E912AA
:1053AC0023D27404121711E960030254B48E828F55
:1053BC0083E02402F8A3E03400F9E8FAE9FB8A82DE
:1053CC008B83780812156A90840078081215CB8AA2
:1053DC00828B8378081215B8EE240BF582EF34001B
:1053EC00F583C082C0838E828F83A3A3A3A3A3E083
:1053FC002401F8A3E03400F9D083D082E068700374
:10540C00A3E069700579010254B68E828F83A3A341
:10541C00A3A3A3A3A3E02401F0A3E03400F0EE24A3
:10542C0074F582EF3400F583E064017036EE247578
:10543C00F582EF3400F583E0F8A3E0F98E828F83D8
:10544C00A3A3A3A3A3A3A3E0687003A3E0697013B1
:10545C00EE2475F582EF3400F583E02401F0A3E02F
:10546C003400F0EE2480F582EF3400F583E0640123
:10547C007036EE2481F582EF3400F583E0F8A3E07A
:10548C00F98E828F83A3A3A3A3A3A3A3E0687003C5
:10549C00A3E0697013EE2481F582EF3400F583E00C
:1054AC002401F0A3E03400F079007F080218247482
:1054BC00F7121752900AE4E0F875F004A4C8AAF0A9
:1054CC002AF974E628FE740A39FF8028EE2465F860
:1054DC00EF3400F988828983E0FCA3E0FD8882899F
:1054EC0083E4F0A3F08E828F83A3A3A3A3E0FA7BC3
:1054FC0000120D0EEE2465F582EF3400F583E0F812
:10550C00A3E0F9E849604FEE2464F582EF3400F52E
:10551C0083E0F5087808121969EE2463F582EF34FC
:10552C0000F583E0F9EE2465F582EF3400F583E0B5
:10553C00FCA3E0FDEEFAEFFB120FEA740112171157
:10554C00E96089EE2465F582EF3400F583E0F8A379
:10555C00E0F9E84970137C007D008E828F83A3A351
:10556C00A3A3E0FA7B00120D0E024AF474F2121798
:10557C0052EAFEEBFF890A740E121746E0FAEE248B
:10558C0062F582EF3400F583E06401600302564457
:10559C009061D0E0F87480C398F50CEE2483F5820A
:1055AC00EF3400F583E06004780480027800890809
:1055BC00E928F8E43400F9E824020808E93400F991
:1055CC00E50C98E499A2D265D0334068EA70057571
:1055DC000B028003750B01E0603975090078081225
:1055EC0019657A547B0C121020740212171175086D
:1055FC005475090C7808121965AC0AA90BEEFAEF70
:10560C00FB12103E74021217117404250AF50A7C61
:10561C00547D0C7401250AF5D9850BD9E50A600D6A
:10562C008C828D83F8E0F5D9A318E870F875E195B4
:10563C00790080067907800279FF7F06021824C062
:10564C0082C083E960208C828D83E08A828B83F018
:10565C008C828D83A3AC82AD838A828B83A3AA8236
:10566C00AB8319E970E0ECFAEDFB0240A474EA128A
:10567C001752907803E06442705E900C53E014F083
:10568C007056C2AF12569300782AD0E0F618D0E0CC
:10569C00F6E59F5407F970059083C080039083BC96
:1056AC0078081215CBE9C4C0E07829E65508F5084E
:1056BC0008E65509F509740B78081216D9D0E025BF
:1056CC0008F8906270E0A2E740F8E8C33390627289
:1056DC00F0906270E0D2E0F0900AE4E0F470030223
:1056EC005A9CE0F875F004A4C8AAF02AF974E628CC
:1056FC00FE740A39FFEE2402F582EF3401F583E0E3
:10570C00F8A3E0F9E849601EEE2402F582EF3401BB
:10571C00F583E0FAA3E0FBEE2401F582EF3401F50A
:10572C0083E0F912042C8E828F83A3A3A3A3A3A3DB
:10573C00A3E0F8A3E0F98E828F83A3A3A3A3A3E82D
:10574C00F0A3E9F0906054E0900ABDF0906055E051
:10575C00900ABEF0906056E0900ABFF0906057E05F
:10576C00900AC0F0906058E0900AC1F0906059E047
:10577C00900AC2F090605AE0900AC3F090605BE02F
:10578C00900AC4F090605CE0FC900AC5F090605DFB
:10579C00E0FB900AC6F090605EE0FD900AC7F090C6
:1057AC00605FE0FA900AC8F0900AC3E08C08250804
:1057BC00F8E43400F98D08E82508F8E93400F98B91
:1057CC0008E82508F8E93400F98A08E82508FAE918
:1057DC003400FBEE24F7F582EF3400F583E02AF079
:1057EC00A3E03BF08C08EE24F9F582EF3400F5834E
:1057FC00E02508F0A3E03400F0EE24FBF582EF3452
:10580C0000F583E02401F0A3E03400F0EE24FFF572
:10581C0082EF3400F583E0F8A3E0F9E849604290A8
:10582C006000E0C333FCE433FDE82CF582E93DF580
:10583C0083E02AF0A3E03BF0906000E0FA900AC508
:10584C00E0FCEAC333FAE433FBE82AF8E93BF9E875
:10585C00244AF582E93400F583E02CF0A3E034000F
:10586C00F0900AC3E07011900AC6E0700BA3E070D0
:10587C0007A3E0700302597C8E828F83A3A3A3A39A
:10588C00A3E0F8A3E0F9EE240DF582EF3400F583E4
:10589C00E028F8A3E039F9EE240BF582EF3400F59B
:1058AC0083E8F0A3E9F0EE240FF582EF3400F583E2
:1058BC00E4F0EE241CF582EF3400F583E064017013
:1058CC001EEE2420F582EF3400F583E0F8A3E0F916
:1058DC00EE241DF582EF3400F583E8F0A3E9F09097
:1058EC000ABEE06052EE241CF582EF3400F583749E
:1058FC0001F0EE246AF582EF3400F583E07038EEA7
:10590C002474F582EF3400F583E0702BEE2480F5DF
:10591C0082EF3400F583E0701EEE2420F582EF3424
:10592C0000F583E0F8A3E0F9EE241DF582EF3400D6
:10593C00F583E8F0A3E9F0906062E07003025A2F5F
:10594C008E828F83E0F8A3E0F9E82406FCE93400AA
:10595C00FDE82402FAE93400FB1210F28E828F83E8
:10596C00E02412F8A3E03400F988828983025A39C2
:10597C00900AC5E0603AEE240FF582EF3400F5830F
:10598C00E4F0EE241CF582EF3400F583E064017042
:10599C0040EE2420F582EF3400F583E0F8A3E0F923
:1059AC00EE241DF582EF3400F583E8F0A3E98020A6
:1059BC00EE24FDF582EF3400F583E02401F0A3E042
:1059CC003400F0EE241DF582EF3400F583E4F0A3EF
:1059DC00F0EE240BF582EF3400F583E0F8A3E0F948
:1059EC008E828F83A3A3A3A3A3E0687003A3E069B3
:1059FC0060030258EBEE240FF582EF3400F583E0E0
:105A0C0060128E828F83A3A3A3A3A3E0640570020C
:105A1C00A3E0600B7908EEFAEFFB120FC6807179E8
:105A2C003E80F3EE241DF582EF3400F583E4F0A301
:105A3C00F0906060E0C0E0EE2469F582EF3400F590
:105A4C0083D0E0F0900AC3E0F8EE2467F582EF34DF
:105A5C0000F583E028025B9C900C51E064017035EA
:105A6C001211A6EE2467F582EF3400F583E0700680
:105A7C009060607480F0EEFAEFFB1210B0E96401F4
:105A8C00600E120FE41210AAE964016003121056A2
:105A9C007F0E021824EE2483F582EF3400F583E0A8
:105AAC006004780480027800E50CC398F9120D02AA
:105ABC008A0A8B0BEA450B60A7EE2483F582EF3440
:105ACC0000F583E070048A088B09E50C60128508E8
:105ADC0082850983F512E5D9F0A31512E51270F64B
:105AEC00EE2483F582EF3400F583E0603774FC25F7
:105AFC000CF50C7808121965AC0CA90DEEFAEFFB3D
:105B0C001210447402121711E970197403650D70A8
:105B1C0003025BDCE50A24FBFAE50B34FFFB120401
