:020000040000FA
:0600000002011D021EB703
:03002B00021A496D
:03003B00021A9412
:03004300021A207E
:03005300021F2A5F
:03006B00021A6511
:10008300021D6BE5C754F84401F5C779012200004E
:100093000080FB120086B90003020107E47921788E
:1000A30008B800028004F709D8FCE479297802B87B
:1000B30000028004F709D8FCE490028178487909AA
:1000C3008002F0A3D8FCD9FA781A90014D7A01BACC
:1000D30000028007E493A3F608DAF9900AC8AA821B
:1000E300AB8390014E788879038015E493A3AC82A7
:1000F300AD838A828B83F0A3AA82AB838C828D83A8
:10010300D8E9D9E77582E07583A6740312012F75C8
:100113008291758300740012012F75D00075813FA1
:10012300751881751902759F00020096C09FF59F8F
:10013300E473D09F22D083D082C09FE493C0E07445
:100143000193C0E0740293F59F2201FFFF1101990F
:10015300010F126404010229840100001B84022D93
:1001630084010000CF0A022184010000D00A023179
:1001730084030000A602024D84010000D10A01E8B5
:1001830003053F100A4368617261637465726973A2
:10019300746963203100024368617261637465723C
:1001A3006973746963203200084368617261637420
:1001B3006572697374696320330010436861726107
:1001C3006374657269737469632034000243686100
:1001D30072616374657269737469632035000229FF
:1001E300840100001E84022D84010000010B024BD8
:1001F300840300001B05022F84010000020B022D63
:1002030084010000130B0249840100001C05022F26
:1002130084010000140B022D84010000250B02450C
:10022300840200001D05022F84010000260B022D0D
:1002330084010000370B0243840000001E050231D5
:10024300840300001F05022F84010000380B022DD8
:1002530084010000490B0241840400002505022F9C
:10026300840100004A0BFF00013075030201060000
:10027300000000000000000000000000000000007B
:100283000000000000000000000000FFFF060080E7
:100293000CE803140953696D706C65424C45506555
:1002A300726970686572616C05125000A000020AE1
:1002B300000201060302002353696D706C6520423E
:1002C3004C45205065726970686572616CD1070096
:1002D30000D707FF0000B40000280028002830756D
:1002E300A000A000A000A00000080008E001F000AA
:1002F30010001000100010001000100050005000FB
:10030300500010001000D0070000000000000F0094
:1003130001000500307507001000010081FF000097
:10032300FFE109FF09E709FF02020208025000A0EA
:10033300000000E8030229840100001884022D84D0
:10034300010000A50C0233840100001F06022D8466
:10035300010000A60C0235840100003506022D843D
:10036300010000A70C0237840100003706022D8428
:10037300010000A80C0239840800003806022D840D
:10038300010000A90C023B84010000AA0CFF01003C
:10039300FF200229840100001584022D840100003E
:1003A3000E0D023D840000000000023184030000B2
:1003B3008506C30FC30FC30FC30FC30FC30FC30FF1
:1003C300C30FC30FC30FC30FC30FC30F5112691260
:1003D3004B12120138BDB602120138C7B602120120
:1003E3003808B70212013851B7021201388BB7022D
:1003F300120138E1B70212013802B802120138B112
:10040300BA02120138BABA021201380EBB02120143
:100413003837BB0212013841BB02120138AFBB02AD
:100423001201383FBC021201389ABC02120138C8CB
:10043300BC0212013850BD021201388FBD021201F5
:1004430038C4BD02120138D6BD02120138F5BD020F
:10045300120138FEBD02120138C5BE02120138571F
:10046300A1031201388F9803120138C598031201B2
:1004730038F99803120138469A0312013844A50348
:100483001201385AA50312013864A503120138AECC
:10049300A50312013887FF01120138FFE802120198
:1004A3003812E902120138D3E90212013812EA02C2
:1004B3001201382FEA0212013868EA02120138B534
:1004C300EA02120138E7EA021201381EEB021201B6
:1004D3003827ED02120138CB9D03120138EE9D033C
:1004E3001201381D9E03120138B59E03120138F71D
:1004F3009E03120138C59103120138F591031201CD
:1005030038A19203120138479303120138A4A403BC
:10051300120138B2A403120138B5A403120138261C
:10052300A503120138C4A70312013838A703120127
:10053300385184011201382F8601120138CE870108
:10054300120138798801120138F988011201387EC5
:100553008901120138A78901120138828D01120124
:1005630038F98D01120138108F011201384A8F01B9
:100573001201388B8F01120138D2900112013828F1
:100583009101120138719101120138E091011201B8
:10059300384C92011201387D920112013895920173
:1005A300120138AE9301120138BE9301120138745F
:1005B30095011201388B9501120138BD9501120185
:1005C300385F9701120138F39701120138E8A3034A
:1005D300120138F9A30312013899A403120138A6B2
:1005E3007F00120138E57F0012013834A80312019D
:1005F3003825A30312013835A3031201384AA30394
:10060300120138DBA30312013855A003120138DAB3
:10061300A0031201383EA103120138F27F00120138
:100623003834F60212013861F602120138D3F602A9
:10063300120138E8F60212013809F8021201388C67
:10064300F80212013805F90212013824F9021201E5
:100653003847F90212013884F9021201389CF90271
:10066300120138F2F902120138E6FF01120138F6DD
:10067300FF01120138F9FF01120138F87F0012015E
:10068300385B9603120138E5970312013846980345
:100693001201388C9803120138D183031201386C8C
:1006A30084031201380A85031201380286031201FA
:1006B30038B48603120138DC8603120138EA860354
:1006C3001201385F87031201387387031201387DE3
:1006D3008703120138808703120138C5870312018B
:1006E30038E28703120138988803120138EB880334
:1006F300120138DF8903120138F58A0312013833F6
:100703009C03120138859C03120138F89C031201E3
:1007130038659D031201381494031201383E940383
:100723001201380D9503120138E99503120138F3CC
:10073300BE02120138BFBF0212013800C00212010B
:10074300383AC00212013898C002120138ECC002D4
:100753001201384AC102120138E0C102120138E81D
:10076300C20212013872C40212013810C50212010A
:100773003877C5021201388AC5021201387EC602D3
:10078300120138C7C60212013898F201120138CAA1
:10079300F5011201385BF701120138B2F7011201BA
:1007A30038CFF7011201384FF801120138CBF901A4
:1007B3001201389AFA0112013807FE01120138F1C9
:1007C300FE0112013852D502120138D1D7021201AB
:1007D300387FD80212013894D90212013806DA029E
:1007E300120138809A03120138979A03120138C60E
:1007F3009A03120138FF9A03120138279B0312014F
:1008030038559B031201386C9B03120138839B03F9
:10081300120138999B03120138C09B03120138D38C
:100823009B03120138E99B03120138FC9B0312015D
:1008330038219C0312013811A40212013810A502B9
:1008430012013845A50212013866A5021201387655
:10085300A50212013897A502120138A3A6021201BC
:100863003870A702120138E3A70212013869A802FF
:10087300120138ACA802120138E3A8021201386948
:10088300A9021201383BAA0212013899AA021201E5
:1008930038B1AA021201382BAB021201382EAB0277
:1008A30012013831AB02120138D8AB02120138F011
:1008B300AB0212013820AC0212013840AC02120123
:1008C300382EAD02120138E4AD0212013857E402AA
:1008D3001201387FE402120138ADE402120138E458
:1008E300E4021201384CE50212013895E5021201C7
:1008F30038E0E5021201381EE6021201385BE60217
:1009030012013889E60212013830E7021201383A3F
:10091300E70212013847E7021201387AE7021201AF
:10092300383CE80212013848E80212013860E80254
:100933001201386AE8021201384EA2031201385C30
:10094300A20312013874A2031201388CA20312010C
:1009530038E2AB0112013880AC01120138F8AC0166
:100963001201380DAE0112013847AE01120138F001
:10097300AE01120138C5AF0112013829B1011201CC
:100983003880B10112013807B201120138EEB20109
:100993001201383BB301120138C9B301120138ED1A
:1009A300B301120138C2B50112013803B6011201B5
:1009B3003825B601120138A6B60112013890B701E5
:1009C30012013856B80112013846CE021201381806
:1009D300CF02120138C1CF0212013804D002120132
:1009E3003891D0021201381DD102120138FED10212
:1009F3001201382DD20212013829D30212013871A3
:100A0300D30212013873D402120138B7D40212018F
:100A130038DDD402120138DAA5031201380080034D
:100A23001201381680031201383C80031201386426
:100A330081031201386E8103120138C78203120148
:100A430038C7830312013887DA02120138BCDB028C
:100A5300120138EFDB0212013839DC02120138F7D8
:100A6300DD02120138F36D00120138566E001201D7
:100A7300389B6F00120138AB6F00120138CE6F0044
:100A8300120138197000120138BE7000120138B417
:100A930071001201387E7200120138F673001201E0
:100AA30038387400120138D67400120138237500E7
:100AB3001201384975001201383777001201383CAA
:100AC30077001201381D7900120138717900120183
:100AD30038D37900120138FB79001201389F7A006C
:100AE300120138617B00120138927B0012013895A4
:100AF3007B00120138DD7B001201381F7C001201DC
:100B030038867C00120138507D00120138637D0065
:100B13001201387C7D00120138C77D00120138A212
:100B23007E00120138317F001201387C7F001201F0
:100B330038BC2500120138C82500120138012600EF
:100B4300120138462600120138FD260012013883AF
:100B53002700120138E82700120138142800120177
:100B6300384D2800120138612A001201383D2C004B
:100B7300120138282E001201385F2F00120138BFEE
:100B83003100120138AB3200120138F13300120187
:100B930038FE34001201381B35001201385335007A
:100BA3001201386D3500120138D535001201386F46
:100BB3003A00120138103B00120138613B00120168
:100BC30038883B00120138D63B00120138F43B0051
:100BD300120138483C00120138213D00120138A8A7
:100BE3003E00120138303F00120138ADDF0212011E
:100BF30038B7DF0212013882E0021201389DE002A9
:100C0300120138C3E00212013807E1021201383F32
:100C1300E10212013868E102120138E1E102120136
:100C230038F6E1021201380BE20212013842E20205
:100C330012013856E20212013887E202120138C16A
:100C4300E202120138EDE20212013843E30212011B
:100C53003897E302120138E0E3021201380AE40292
:100C63001201382FE40212013827FA02120138F177
:100C7300FA02120138D4FB021201384AFC021201B3
:100C8300388CFC02120138B9FD02120138008002CF
:100C9300120138298002120138428002120138877A
:100CA3008102120138658202120138848202120124
:100CB30038118302120138548302120138A18402CD
:100CC300120138408502120138BF870212013856DB
:100CD30088021201382A89021201380C8A02120191
:100CE30038788B021201380B8C02120138409F03B3
:100CF300120138A99F03120138FD9F031201382402
:100D0300A00312013893ED0212013800EE02120122
:100D1300384BEE0212013840EF021201383CF00268
:100D230012013826F1021201384FAE021201389136
:100D3300AE021201386BAF0212013844B002120145
:100D4300383FB1021201381EB2021201388AB202D0
:100D530012013851B302120138BCB3021201382315
:100D6300B4021201384EB402120138BFB4021201A8
:100D73003852B502120138BBB502120138D0B502A0
:100D830012013818B60212013831B6021201389630
:100D9300B60212013899B602120138CB8E03120142
:100DA30038F38E03120138318F03120138EF8F03AA
:100DB3001201385A90031201387690031201389EBB
:100DC3009003120138CE9003120138DD9003120113
:100DD300385791031201387D910312013809C90173
:100DE300120138E6CA01120138E1CC01120138B40C
:100DF300CD01120138FFCD011201384ACE01120193
:100E0300385CCE011201389CCE01120138D1CE01DB
:100E13001201381DCF011201384CCF011201386F76
:100E2300CF01120138BCCF0112013845D0011201A4
:100E33003852D2011201383DD40112013880D40155
:100E4300120138E5D50112013826D601120138996D
:100E5300D601120138E5D60112013810D70112016B
:100E630038828C02120138AD8C021201389493023D
:100E7300120138B89502120138739702120138D063
:100E83009802120138973F001201382E40001201D8
:100E9300385B4000120138A14000120138E04100E4
:100EA300120138774300120138F143001201380C64
:100EB3004400120138814400120138B04500120188
:100EC300380B47001201380D48001201386A4900F7
:100ED300120138834900120138E04900120138C277
:100EE3004A00120138F54A00120138654B0012011D
:100EF30038DF4B001201382E4C00120138FA4C0037
:100F0300120138FF4D00120138DE4E00120138691C
:100F13004F00120138D74F001201384B5000120115
:100F230038745000120138335100120138AD5200A9
:100F3300120138CA5200120138E952001201387AFC
:100F430053001201389F5300120138C75300120196
:100F5300384254001201389C5400120138F05500F5
:100F6300120138AD56001201388057001201383A89
:100F7300D7011201388AD70112013896D70112011D
:100F83003873D801120138A3D801120138DBD80114
:100F93001201385AD90112013892D901120138E4E9
:100FA300D90112013821DA0112013846DC0112019C
:100FB3003872DE011201386DE00112013848E20196
:100FC300120138EF7F001201383198011201387B8A
:100FD30098011201385A9E01120138DB9F01120158
:100FE300383AA60112013835A70112013872A70158
:100FF30012013895A701120138D7A701120138E071
:10100300A701120138EAA701120138D6A80112017B
:1010130038CAA901120138AE5700120138266200FE
:101023001201382C62001201383869001201382E7F
:101033008B03120138C48B03120138DA8B031201BC
:1010430038548C03120138AA8C03120138E88C033C
:10105300120138458D03120138C28D03120138CBBA
:101063008D03120138D78D03120138EA8D03120163
:1010730038268E031201383C8E031201389B8E03EF
:10108300120138E8F102120138F5F1021201380FAA
:10109300F2021201384EF2021201388CF2021201EE
:1010A30038F1F20212013806F30212013811F30289
:1010B3001201381EF30212013835F30212013843CC
:1010C300F3021201384EF3021201385AF3021201ED
:1010D3003869F30212013874F30212013897F302EC
:1010E30012013840F40212013850F4021201386A36
:1010F300F40212013887F402120138A3F402120138
:1011030038C8F402120138D2F402120138E6F402AC
:1011130012013805F50212013866F5021201386C26
:10112300F50212013872F50212013878F502120144
:101133003884F502120138B7F5021201380EE501C1
:1011430012013890E50112013839E60112013881A4
:10115300E7011201388FE90112013875EA01120122
:1011630038AAEA01120138CCEA0112013875EB0101
:1011730012013845ED011201386EED01120138E616
:10118300ED0112013818EE0112013825EE011201AA
:101193003870EE0112013894EE01120138E5F001C6
:1011A300120138EFF1011201384BF2011201388BB1
:1011B300BA011201389CBB0112013880BC01120133
:1011C300388ABC01120138ACBC01120138B8BC0129
:1011D3001201385CBE0112013889BE011201389F29
:1011E300BF01120138F4BF0112013843C1011201DA
:1011F3003818C20112013874C201120138DFC2016A
:1012030012013814C30112013857C30112013821E6
:10121300C60112013839C601120138CAC6011201CA
:1012230038D8C60112013825C70112013833C70166
:101233001201389FC7011201381AC801120138710F
:10124300C801120138F398021201381599021201EC
:1012530038269B02120138E59D021201380F9F02C6
:10126300120138CD9F02120138B9A00212013813BE
:10127300FE0212013838FE02120138AEFE021201DC
:101283003829C70212013832C7021201383BC7029C
:1012930012013813C802120138C4C902120138F40A
:1012A300C9021201381FCA021201384FCA021201C1
:1012B300387ACA02120138AECA02120138DACA02F7
:1012C3001201381DCB0212013848CB021201388FAC
:1012D300CB02120138E4CB0212013826CC021201F0
:1012E3003880CC02120138ABCC02120138FACC029E
:1012F3001201382ACD0212013855CD02120138836A
:10130300CD02120138A6CD0212013863A6031201E1
:10131300388FA603120138BCA603120138C6A603F0
:10132300120138D6A603120138CCFF021201388EFF
:10133300A703120138EEA70312013816A803E066CB
:10134300701008A3E066700A08A3E066700408A39F
:10135300E06622C3E7960809E7960809E7960809B5
:10136300E79622C3E09608A3E09608A3E09608A3B5
:10137300E09622C008C3E096F50808A3E096420869
:1013830008A3E096420808A3E09645087001D3D06D
:101393000822080808EAC0E0EBC0E086F0E7A4FAF8
:1013A300180986F0E7A42AFA180986F0E7A42AFAAE
:1013B300180986F0E7A42AFA1986F0E7A4FBE5F0FA
:1013C3002AFA190886F0E7A42BFBE5F03AFA190884
:1013D30086F0E7A42BFBE5F03AFA18180986F0E744
:1013E300A4C5F02BFBE43AFA1908E7C5F0C6A42616
:1013F300F6E5F03BFBE43AFA1886F0E7A4F6E5F0ED
:101403000826F6E43B08F6E43A08F6D0E0FBD0E021
:10141300FA22E4CFC0E0E4CEC0E0E4CDC0E0E4CC07
:10142300C0E075F020C3E633F608E633F608E6338A
:10143300F608E633F6181818EC33FCED33FDEE33FB
:10144300FEEF33FFC3EC9709ED9709EE9709EF978A
:10145300191919400FFFEC97FC09ED97FD09EE9759
:10146300FE191906D5F0BEECF709EDF709EEF709F9
:10147300EFF7191919D0E0FCD0E0FDD0E0FED0E081
:10148300FF226016080808C6C313C618C613C61879
:10149300C613C618C613C6D5E0EA227009080808A1
:1014A300226016181818C6C333C608C633C608C642
:1014B30033C608C633C6D5E0EA22E627F60809E6AE
:1014C30037F60809E637F60809E637F622E026F686
:1014D30008A3E036F608A3E036F608A3E036F622C2
:1014E300E026F008A3E036F008A3E036F008A3E016
:1014F30036F022C3E697F60809E697F60809E69759
:10150300F60809E697F622C3E096F008A3E096F002
:1015130008A3E096F008A3E096F022E056F608A3AD
:10152300E056F608A3E056F608A3E056F622E05686
:10153300F008A3E056F008A3E056F008A3E056F045
:1015430022E0F608A3E0F608A3E0F608A3E0F622FB
:10155300E6F008A3E6F008A3E6F008A3E6F022E02D
:10156300FAA3E0FBA3E0FCA3E0FD22EAF0A3EBF087
:10157300A3ECF0A3EDF022CAC0E0E6F0A308DAFA88
:10158300D0E0FA22CAC0E0E0A3C582CCC582C583FD
:10159300CDC583F0A3C582CCC582C583CDC583DA0F
:1015A300E6D0E0CA22C3E498F8E499F91215E98079
:1015B30026C3E49AFAE49BFBE920E7E91215E9E480
:1015C30098F8E499F922C3E498F8E499F91215E933
:1015D300E498F8E499F9C3E49AFAE49BFB22EB203C
:1015E300E7CFE920E7E0B90010BB0008E88AF08400
:1015F300F8AAF022E4FBC8FA22EB70227B10C8336E
:10160300C8C933C9335007C39AC3DBF280069A5063
:10161300012ADBEAC833F4C8C933F4C9FA2275F0E6
:1016230008E4C833C8C933C933C99AC99B5004C92C
:101633002AC93BD5F0ECFBC833F4C8E4C9FA2260ED
:101643000D08C6A2E713C618C613C6D5E0F3226079
:101653000C08C6C313C618C613C6D5E0F42270041B
:1016630022600D18C6C333C608C633C6D5E0F418C6
:1016730022251810AF08F518400215198008F5182F
:1016830040021519D2AF22C0D0251810AF08F518A3
:10169300500205198008F51850020519D2AFD0D0B1
:1016A300222518F58210AF08F51840021519800895
:1016B300F51840021519D2AF851983222518F58232
:1016C300E43519F58322E4732518C582C0E0E519D2
:1016D30034FFC583C0E0E518C3958224F810AF0832
:1016E3008583198582188008858319858218D2AF6E
:1016F300CEF0A3E520F0A37808E608F0A3DEFAEF26
:10170300F0A3E58124FAF8E608F0A3E608F0A3E6DF
:1017130008F0A30808E608F0A3E608F0A31581156E
:1017230081D0E0FED0E0F8158115811581E8C0E095
:10173300EEC0E0222518C582C0E0E51934FFC58359
:10174300C0E0E518C3958224F910AF088583198595
:1017530082188008858319858218D2AFCEF0A3E55D
:1017630020F0A37808E608F0A3DEFAEFF0A3E58102
:1017730024FBF8E608F0A3E608F0A30808E608F05F
:10178300A3E608F0A315811581D0E0FED0E0F8159B
:10179300811581E8C0E0EEC0E022851983851882B7
:1017A300E0A3FEE0A3F5207808E0A3F608DFFAE063
:1017B300A3FFE0A3C0E0E0A3C0E0E0A3C0E0E0A398
:1017C300C0E0E0A3C0E010AF0885821885831980CC
:1017D30008858218858319D2AFD083D08202013560
:1017E300851983851882E0A3FEE0A3F5207808E03D
:1017F300A3F608DFFAE0A3FFE0A3C0E0E0A3C0E0A4
:10180300E0A3C0E0E0A3C0E010AF088582188583A1
:10181300198008858218858319D2AFD083D082229C
:10182300C0D02518C582C0E0E51934FFC583C0E0E8
:10183300E518C3958224F310AF08858319858218B0
:101843008008858319858218D2AFC8F0A3E9F0A375
:10185300EAF0A3EBF0A37908E709F0A3D8FAECF0D8
:10186300A3EDF0A3EEF0A3EFF0A3D0E0F0A3D0E05C
:10187300F0A3D0E0F0A3E520F0A3E5F0F0A32285E8
:101883001983851882E0C0E0A3E0F9A3E0FAA3E09E
:10189300FBA37808E0F608A3DFFAE0FCA3E0FDA3CE
:1018A300E0FEA3E0FFA3E0C0E0A3E0C0E0A3E0F517
:1018B300D0A3E0F520A3E0A3F5F010AF08858319CA
:1018C3008582188008858319858218D2AFD082D08B
:1018D30083D0E0F8D0E0327404800674028002748E
:1018E30001C0E0F4041216A4D0E012157A227404A5
:1018F300800474028000CCC0E0EDC0E0E518C39C16
:10190300CCAD1950011D10AF068C188D1980068CB3
:10191300188D19D2AF121587D0E0FDD0E0FC22D08C
:1019230083D082E9C0E0E493A3C386F0C5F095F0C9
:10193300F908E493A386F0C5F095F0700BE493A344
:10194300C3994005E9048002A3E475F002A425824B
:10195300F582E5F03583F583D0E0F9E493A3C0E0A5
:10196300E493C0E022D083D082ECC0E0EDC0E0E499
:1019730093A3FCE493A3FDED4C600D1219B4EC2486
:10198300FFFCED34FFFD80EFE493A3FCE493A3FDA0
:10199300ED4C600D1219F3EC24FFFCED34FFFD80D8
:1019A300EFD0E0FDD0E0FCE493A3C0E0E493C0E01B
:1019B30022C0E0C3E49396087401939618400FE4A1
:1019C3009366700808740193661870007019A3A3D6
:1019D300C3E49396087401939618A3A3400DD0E033
:1019E300D0E0D0E00219A4A3A3A3A3A3A3D0E02231
:1019F300C0E0C0F088F0E493667008087401936651
:101A0300187000A8F0A3A3700BD0F0D0E0D0E0D002
:0B1A1300E00219A4A3A3D0F0D0E02251
:101A2000C0E074F2121823A2AFE433FED2AFC2C0FA
:101A3000E5D1A2E4500653D1EF1206CF751A00EE9D
:101A4000A2E092AF7F01021882C0E0C0D0E8C0E0FF
:101A5000E5A8D2AFC2C7751A00A2E792AFD0E0F8EE
:101A6000D0D0D0E032C0E0C0D0E8C0E0C082C083B7
:101A7000E5A8F8D2AF758900C2C590038F7401F054
:101A8000751A00E8A2E792AFD083D082D0E0F8D0F8
:101A9000D0D0E032C0E0C0D0E8C0E0E9C0E0C0088B
:101AA000C009C082C083A2AFE433F9D2AF9005135E
:101AB000E0F8A3E0687008539AFBA374018026C283
:101AC000E9900513E0F50874012508F074932508E2
:101AD000F58274043400F583E0F5C1900513E0C38A
:101AE00094804002E4F0E9A2E092AFD083D082D0AB
:101AF00009D008D0E0F9809474F5121737EAFEEBAC
:101B0000FFEE2434F8EF3400F988088909EE243513
:101B1000F582EF3400F583E0F8EE2437F582EF34F8
:101B200000F583E0F50AEC850AF0A4FCAAF0850A2A
:101B3000F0EDA42AFDE82CF8E43DF97A257B0012AB
:101B400015E9EA850882850983F05407F87401B81D
:101B500000028004C333D8FCC0E0E0131313541F09
:101B6000F8EE28F8EF3400F9E8245DF582E9340056
:101B7000F583D0E0F8E0586008EE2434F582EF8079
:101B80001EEE2436F582EF3400F583E0F5F0EA84AA
:101B9000A8F0EE28F8EF3400F9E82438F582E934AB
:101BA00000F583E0F97F040217E374F5121737EAB2
:101BB000FEEBFFEE2434F582EF3400F583E0C0E065
:101BC000EE2435F582EF3400F583D0E0F08E828F7D
:101BD00083A3A3A3A3A3A3A3C082C0838E828F8366
:101BE000A3A3A3A3A3E0F8A3E0F9D083D082E0C32A
:101BF00098F508A3E099F509EE2480F582EF34000A
:101C0000F583E064017069EE2481F582EF3400F51C
:101C100083E0F8A3E0F98E828F83A3A3A3A3A3A3F9
:101C2000A3E0FCA3E0FD8E828F83A3A3A3A3A3E084
:101C3000FAA3E0FBC3EA9CEB9D5027C3EC98ED9917
:101C4000402EC3EA98EB9950277C6A7D08EEFAEFA4
:101C5000FB120F21EE2480F582EF3400F583E4F0CF
:101C6000800EC3EA98EB9940E0C3EC98ED9950D907
:101C7000EE2434F8EF3400F9E8FCE9FDEE2435F504
:101C800082EF3400F583E0F8EE2437F582EF34007C
:101C9000F583E0F50AE508850AF0A4F508AAF085C1
:101CA0000AF0E509A42AF509E82508F8E43509F958
:101CB0007A257B001215E9EA8C828D83F05407F8AF
:101CC0007401B800028004C333D8FCC0E0E01313F1
:101CD00013541FF8EE28F8EF3400F9E8245DF5827C
:101CE000E93400F583D0E0F8E0586008EE2434F5DC
:101CF00082EF801EEE2436F582EF3400F583E0F5A6
:101D0000F0EA84A8F0EE28F8EF3400F9E82438F57A
:101D100082E93400F583E0F91225A5021BA5C082F3
:101D2000C083851882851983E0F8A3E0F9C3EA9C93
:101D3000EB9D5012C3EC98ED994019C3EA98EB99CA
:101D4000501279018010C3EA98EB9940F5C3EC98E2
:101D5000ED9950EE7900D083D08222EAC39CFAEB51
:101D60009DFB22008521878522C622C0E0C0D0E8E5
:101D7000C0E0E9C0E0EAC0E0EBC0E0ECC0E0EDC0EC
:101D8000E0C008C009C00AC00BC082C083C0F075A3
:101D90009B00906182E0A2E64003021E49E591A209
:101DA000E64003021E497591BF90072FE06405705D
:101DB00008121059121065800312105F752100126D
:101DC00010BFE9900730F079001210B3120E977A25
:101DD000017B0090072EE0F9120435907803E0644F
:101DE000426003021E929008CCE014F06003021ED1
:101DF00092C2AF121DF600782AD0E0F618D0E0F6B5
:101E0000E59F5407F970059083C980039083C578D6
:101E100008121544E9C4C0E07829E65508F5080819
:101E2000E65509F509740B7808121652D0E025081A
:101E3000F8906270E0A2E740F8E8C333906272F075
:101E4000906270E0D2E0F08049E0A2E55024E59194
:101E5000A2E5501E7591DF90072FE0640D7013907E
:101E60000751E004F064287002E4F07A00E0F9120F
:101E70001131906181E0A2E35009E5E9A2E350034A
:101E800075E9F7A3E0A2E75009E591A2E7500375D1
:101E9000917FD0F0D083D082D00BD00AD009D00867
:101EA000D0E0FDD0E0FCD0E0FBD0E0FAD0E0F9D00B
:101EB000E0F8D0D0D0E032C0E0C0D0C082C0839083
:101EC0006183E0A2E05009E5BFA2E0500375BFFEC8
:101ED000E0A2E15009E5BFA2E1500375BFFDE0A219
:101EE000E25009E5BFA2E2500375BFFBE0A2E35058
:101EF00009E5BFA2E3500375BFF7E0A2E45009E58E
:101F0000BFA2E4500375BFEFE0A2E55009E5BFA210
:101F1000E5500375BFDFE0A2E65009E5BFA2E65039
:101F20000375BFBFD083D0828088C0E0C0D0E8C036
:101F3000E0E9C0E0EAC0E0EBC0E0ECC0E0EDC0E00A
:101F4000C0F0E5A7A2E6500FE5A1A2E6500953A70D
:101F5000BF75A1BF121F8FE5A7A2E5500CE5A1A296
:101F6000E5500653A7DF75A1DFE5A7A2E15009E51B
:101F7000A1A2E1500375A1FDE5A7A2E2500CE5A1E5
:101F8000A2E2500653A7FB75A1FBD0F0021EA0747D
:101F9000F812173775210190072FE06406701512AB
:101FA0000FED8A828B83A3A3A3A3A3A3E0FAA3E0EC
:101FB000FB121047A2AFE433FED2AF900735E064C6
:101FC0000170187A207B0090072EE0F91204BF7A86
:101FD000207B0090072EE0F912043B906182E0D252
:101FE000E6F09008CBE0602185C622801690073489
:101FF000E064017008E5C654F84405F5C653BEFC1C
:10200000121D647401652160E4EEA2E092AF7F01CD
:102010000217E3008E238F24858228858327851865
:1020200082851983E0CEA3E0CF852882852783EBC4
:10203000C9EAC8EDCBECCA75F010C3E833C8E93380
:10204000C9EA33CAEB33CBC3EA9EF526EB9FF525ED
:10205000B35004AB25AA26EC33CCED33CDD5F0DA62
:10206000AE23AF242274EB12173774FA1216748A57
:10207000088B098C148D1590072FE024F7C3940565
:1020800050069083F50221C7120FED8A0A8B0BAE22
:102090000AAF0BEE4F70030221C4AC08AD098518DE
:1020A00082851983AA82AB831210778E828F83A3D5
:1020B000A37808121544908405780812151E851817
:1020C00082851983780C121544908405780C1215BA
:1020D0001E7808790C121356501F7808790C1214C8
:1020E000F69083A178081213764047850810850979
:1020F00011850A12850B138041850C10850D118501
:102100000E12850F13781079081214F69083A178B7
:1021100010121376501C75100075110075120075A1
:1021200013017810790C1214F6781079081214BD86
:1021300080089083F57810121544740978101214F1
:102140009E90839D78081215447810790812141512
:102150008E828F83A3A3A3A3A3A3E0F8A3E0F97ABD
:10216000D07B031215E988088909E4F50AF50B7894
:102170001079081214BD74041216BFE0F8A3E0F938
:102180007AD07B031215E9E8FA8A08E4F509781099
:1021900079081213565007781079081214F6900730
:1021A0002FE06408600AE064066005E06405701CC6
:1021B00090839978101213765012908395781012AC
:1021C00014D080089083CD78101215448514828530
:1021D00015837810121553740612168A7F0E021793
:1021E000E374F71217371210899008C9E064017080
:1021F00010906245E4F0A3F053F4F343FE0C5390C7
:10220000F3121035E5C654804449F5C6E59E547F67
:10221000644970F8906185740FF09008C7E0F4701D
:1022200002A3E0604E9008C8E0600814601B1460D0
:102230002E80407508017509009008C7E0780812E3
:102240001661E508F45280802A750801750900902E
:1022500008C7E07808121661E508F45290801475FA
:1022600008017509009008C7E07808121661E508B2
:10227000F452A079007F020217E374F7121737E9CE
:10228000FEEAFF74016E700C7A807B0090072EE0EE
:10229000F91204359025B4E493F46008E493F9123C
:1022A0000E8B800953C680E59E547F70FA12103B56
:1022B0009008C9E064017003120EA39008C7E0F40F
:1022C0007002A3E0604B9008C8E0600814601A1424
:1022D000602C803D7508017509009008C7E07808FA
:1022E000121661E508428080287508017509009082
:1022F00008C7E07808121661E50842908013750857
:10230000017509009008C7E07808121661E50842D7
:10231000A0121089120FED8A088B09A808A909E8F4
:10232000496015E5E170FCE82414F582E93400F514
:1023300083E0F46003E0F5E174016F700A7A0190C4
:10234000072EE0F912048902227574F11217378AF8
:10235000088B098C0A8D0B740F1216BF780C12159E
:1023600044908405780812151E908405780C121587
:102370001E7808790C12135650157808790C12142F
:10238000F69083A1780812137640157901801378AE
:102390000C79081214F69083A1780C12137640EB96
:1023A00079007F080217E374ED1217378A088B094A
:1023B0008C0A8D0B74131216BF780C12154490847E
:1023C00005780812151E908405780C12151E780CDD
:1023D000790812135640117808790C1214F6AA08DD
:1023E000AB09AC0AAD0B8022751000751100751297
:1023F000007513017810790C1214F6781079081210
:1024000014BDAA10AB11AC12AD137F0C0217E390F0
:10241000840578081215448A828B83780812153156
:102420007F040217E374F51217378C828D837808C6
:102430001215448A828B83780812150AEA2404F85C
:10244000EB3400F98C828D83A3A3A3A3E0FCA3E06B
:10245000FD88828983C3E09CF0A3E09DF088828997
:1024600083C3E09420A3E0944E40229083E5780853
:102470001215448A828B8378081214E38A828B8334
:10248000A3A3A3A3E02420F0A3E0344EF080807443
:10249000F5121737E9FE900881E0FAA3E0FBEEC3DE
:1024A00033F8E433F9747E28F582748239F583E0D9
:1024B0002AF508A3E03BF50978081218DE9083EDB1
:1024C000121562122014740212168A8A088B098C63
:1024D0000A8D0B74107808121485AA08AB097F04C2
:1024E0000217E374F11217378A0C8B0D8C0E8D0FC7
:1024F000740F1216BFE0FAA3E0FB74111216BFE0CE
:10250000F508A3E0F50974131216BFE0FEA3E0FF7F
:1025100078081218DEEA2401F508EB3400F509E426
:10252000F50AF50B780C790812139590838D7808CD
:10253000121544780C7908121395AA0CAB0DAC0E49
:10254000AD0F122014740212168A8B09EA45096035
:10255000047A0180027A00EC2AFCED3400FDECF8EC
:10256000EDF97A717B021215E988088909E4F50A08
:10257000F50B8E828F837808121553ECF8EDF97AFB
:10258000717B021215E98A088B0974057808121606
:10259000618E828F83A3A3A3A3E508F0A3E509F0CE
:1025A0007F080217E3C082C083E9906000F0D08307
:0325B000D08222B4
:1025B400FFFFFFFFFFFFFFFFC082C083E9900D0D07
:1025C400F002284074F71216CBE990064DF07C8592
:1025D4007D067AFF7BFF120BC190064E74FFF0A3B9
:1025E400F0A3E4F0A3F07905120B4990064DE0F94D
:1025F400120A717ADF7B0B120DA102354E74F412AC
:1026040016CB8A088B09EB5480603090064DE0F9B4
:1026140012041D8A0A8B0BAE0AAF0BEE4F60138EA9
:10262400828F83E064B07003120B61EEFAEFFB1249
:10263400040BAA08E5096480FB80047A007B00028D
:10264400280F74F21216CB74FC121674EAFEEBFF18
:1026540074121216BF123A35EE4F70030226E97453
:10266400021216BFEEF0A3EF122A4AECF0A3ED1209
:102674002A4AAA82AB83120A6BE9F50A706AE50852
:10268400450960648E828F83123A1BEE4F60567A3E
:10269400067B001204718A0C8B0DA80CA90DE84965
:1026A4007005750A13804188828983E41226F6EE48
:1026B400F0A3EF123A46E508F0A3E509F0900653BB
:1026C40012277D90065370051234F8801B1234E6ED
:1026D4008003EAFCEBFD8C828D8312277D70F38CE2
:1026E400828D8380E3750A02A90A740412168A0291
:1026F4003C35F0A31239ECA32274F21216CB890AEA
:10270400E975F017A4FEAFF0900652E4F09006507D
:1027140012277D600A120477900650E4F0A3F0EECD
:10272400FAEFFB1204718A088B09EA4509602FEE5F
:10273400FCEFFD79001203F3900650E508F0A3E5E1
:1027440009F07B008008122767E4F0A3F00BEBC3C9
:10275400950A40F2E50A900652F079008002791356
:10276400023C35EB75F017A4F8A9F0900650E02868
:10277400FAA3E0398A82F5832212318AEA4B227461
:10278400F41216CB740C1216BF123A10FEE9FF7540
:102794000800750900800CE5082401F508E50934F2
:1027A40000F509C3E5089CE5099D503285080A85B2
:1027B400090B7403780A121661EA250AF8EB350B43
:1027C400F988828983A3A3A3A3A3A31235CDEE65BD
:1027D4000A7003EF650B70BFE8FAE9FB80047A0026
:1027E4007B00802774F41216CB7900EAA2E0501B18
:1027F40075085E75098378081218DE7C047D007AFA
:102804000F7B0D120B43740212168A7F0402179D6C
:10281400C082C083900653122847601C8882898333
:10282400A3A3E06A7003A3E06B8882898370E8A3A2
:10283400A3A3A312318680047A007B00D083D082C4
:10284400020135123D1BE8492274EE1216CB74FCCA
:10285400121674EAFEEBFF851882851983E4F0A34F
:10286400F0EE24021234D8EE24051239F3EE2404D7
:10287400F50EEF122DFFE024FE603924FC6046249F
:10288400FE605224FE605E24FE700302296024FE72
:1028940070030229C424FE70030229D324FE7003AA
:1028A4000229E224FC70030229F124FE7003022AA7
:1028B40000022A3D90066C7417F0A3E4122A521207
:1028C40007E9022A3D851882851983AC82AD8312FB
:1028D4000B67022A0D851882851983AC82AD831299
:1028E4000B6D022A0D850C08850D0974021216BFA2
:1028F400AC82AD83850882850983123186120A8FE2
:102904008A0C8B0DAC0CAD0DEC4D603BE4F50CF575
:102914000D780C1218DE750C6C750D06780C1218F7
:10292400DE750C6D750D06780C1218DE740812161F
:10293400BF1218F5123E9712168AE9F50C700B12A5
:10294400317C120801800F750C018508828509838A
:10295400122A401234F8850C08022A107402121646
:10296400BFAC82AD83850C82850D83122F51603CF0
:10297400850C82850D83A3A31218F575106C75114F
:102984000678101218DE75106D751106781012187D
:10299400DE74081216BF1218F5123E9712168AE951
:1029A400F509700B12317C120807800F7509018537
:1029B4000C82850D83122A401234F8850908804C54
:1029C400851882851983AC82AD83120B73803A8596
:1029D4001882851983AC82AD83120B79802B8518FC
:1029E40082851983AC82AD83120B7F801C8518828B
:1029F400851983AC82AD83120B85800D8518828581
:102A04001983AC82AD83120B8BE9F508E5086029C4
:102A14008E828F83A3E06414601F850E82850F83EA
:102A2400E090066C122A4A123D1790066D1234F893
:102A3400E508A3122A521207E30233E7123D1B856D
:102A4400188285198322F085188285198322F07CE7
:102A54006C7D06850A82850B8312318A2274EE12FC
:102A640016CB74FC1216748A0A8B0B8C0E8D0FEA2B
:102A74002405F508EB3400F5097C157D0079007A0E
:102A84006C7B061203F3E5082402F50CE509123900
:102A9400F685188285198385821085831178101232
:102AA40018DE850882850983A3A3A3A3122F4812E5
:102AB40018DEE5082405F510E5093400F511781051
:102AC4001218DE850C82850D8312329D120A8974D8
:102AD4000612168A8A108B11AE10AF11E50A240271
:102AE400F50AE50B1234DBEE4F7003022C1F80173E
:102AF40074021216BF12318688828983EAF0A3EB2E
:102B0400F090066CE004F090066CE0C3940540037A
:102B1400022C1FE4F510F51178101218DE7510550B
:102B240075110678101218DE751056751106781096
:102B34001218DE74061216BF1218F57910EEFCEFA7
:102B4400FD123E9912168AE9705E85088285098312
:102B5400A3A3A3A3A3A3A3E0F8900655E068704839
:102B6400122F481218DE7C567D06E5082408FAE583
:102B7400093400FB1203ED740212168AE960298EEF
:102B8400828F83A3A3A3A312318690066CE0F51071
:102B940074027810121661746D2510F5827406356E
:102BA40011F583EAF0A3EBF074021216BF858210CC
:102BB40085831178101218DE74021216BF1218F5EC
:102BC400850C82850D831231AC12168A8A108B1102
:102BD400AE10AF1190066CE0F51075110074027818
:102BE40010121661746C2510F874063511F9888278
:102BF4008983A312277D7003022AEBE824030808C3
:102C040008E93400F9EE4F6003022AF488828983CC
:102C140074FFF0A3F090066CE004F090066CE060A2
:102C24000A12317C1207F57900800B850882850928
:102C3400831234EF790A0233E774EA1216CB74FE76
:102C44001216748C128D13EA2405F50CEB123E81D6
:102C5400123A1F750800750900EA2402F510EB34D6
:102C640000F51185188285198385820A85830B787E
:102C74000A1218DE850C82850D83A3A3A3A3122E4A
:102C8400151218DEE50C2405F50AE50D1234DB787F
:102C94000A1218DE850C82850D83122E19120A89F8
:102CA400740612168A8A0A8B0BEA450B7003022DEE
:102CB400BAEA2404F50EEB122DFF123A1F8A828B16
:102CC40083A3A3A3E0F98510828511831231906058
:102CD40003022DBAE4F514F51578141218DE7514F0
:102CE4005575150678141218DE7514567515067880
:102CF400141218DE74061216BF1218F57913AC0AF2
:102D0400AD0B851082851183123E9F12168AE9F558
:102D1400096003022DBA900655E0F8E5087009E051
:102D2400240290066DF0801490066DE0FCE8240205
:102D3400FAE43400FBEA6C7001EB707E850882AA29
:102D440082122F3F9414122F37506B850E82850FF9
:102D540083E0C0E0746E2A122DF6D0E0F0050885F9
:102D64000E82850F83A3E0C0E085080A746E250AED
:102D7400122DF6D0E0F00508900655122E15121803
:102D8400DE7C567D0685080A746E250A122E091209
:102D9400168A900655E02508F50874FF6E700374D2
:102DA400FF6F6012EE24010EEF3400FFE508C394B8
:102DB400145003022C67E508601312319A851082BF
:102DC4008511831231861207FB79008014E509709E
:102DD4000375090A851282851383EEF0A3EFF0A927
:102DE40009740212168A7F0E02179D85080C746EF0
:102DF400250CF58274063400F583223400F50F8522
:102E04000E82F58322FA74063400FB1203DB74028B
:102E140022123A5522A3A3122E1F221234E6FDEEEB
:102E2400FAEFFB2274EE1216CB74FE1216748C0E9B
:102E34008D0FEA2405F50CEB1239F6750B0090069C
:102E44006CE4F0F50AEA2402F508EB3400F5098095
:102E54004490066CE0FA900655E0F8122F3F941760
:102E6400122F37400D90066CE0F87416C398900644
:102E740055F0122F481218DE7C567D06746D2AFA1E
:102E84007406122E0C12168A900655E0F890066C01
:102E9400E028F0050AE50C2416F582E50D122DFA5A
:102EA400E0F8E50AC398507490066CE0C394165099
:102EB4006BE50AC333F8E433F9E50C28FEE50D3974
:102EC400FF851882851983AC82AD838E828F83122D
:102ED4002F517008750B011234EB8050E4F510F596
:102EE4001178101218DE7510557511067810121825
:102EF400DE75105675110678101218DE7406121657
:102F0400BF1218F57916850882850983123E9F122F
:102F1400168AE9F50B7003022E5580BB7C6C7D0686
:102F240085088285098312318612080DA90B740263
:102F34000233E9E99400C365D03322EA28F8E43483
:102F440000F9E822E0F5107511007810221233DE42
:102F54008A108B11AC10AD11EC4D2274EA1216CB11
:102F640074FC1216748A0C8B0D8C128D13EA2405D2
:102F7400F50AEB1234DB750800750900E50A240232
:102F8400F510E50B3400F51174021216BF85820E9C
:102F940085830F780E1218DE850A82850B83A3A31E
:102FA400A3A31239FB1218DEE50A2405F50EE50B7E
:102FB4003400F50F780E1218DE8510828511831205
:102FC40034E1123180120A89740612168A8A0E8B31
:102FD4000FAE0EAF0FE50C2402F50EE50D3400F52F
:102FE4000F80388882898374FFF00508122DEF74EE
:102FF400FFF00508900655E0F50C750D00780C12ED
:1030040018DE7C567D0685080C746E250C122E097C
:1030140012168A900655E02508F508EE4F60278EB3
:10302400828F83A3A3A3E0F9850E82850F831231D7
:1030340090EE24041239F3E96027850C82850D8310
:103044001231721234F8E508700302315812319AC1
:10305400850E82850F83123186120813790002319E
:103064006DE4F514F51578141218DE7514557515FC
:103074000678141218DE751456751506781412188D
:10308400DE74081216BF1218F57911EEFCEFFD85F7
:103094000E82850F83123E9F12168AE9F509709AF3
:1030A400850882AA82EA9006557009E024049006F5
:1030B4006DF08025E0F890066DE0F514E82404FC3A
:1030C400E43400FDEC65147001ED7081122F3F941F
:1030D40012122F374003023051850C82850D83E094
:1030E400C0E0746E2A122DF6D0E0F00508850C823B
:1030F400850D83A3E0C0E0122DEFD0E01231B58539
:10310400820C85830D780C1218DE74041216BF121B
:1031140018F58510828511831231AC12168A8A0C37
:103124008B0DAE0CAF0D85080C746E250CF874066F
:103134003400F9EE4F7003022FE785188285198356
:10314400E0888289831231B5A3E0C0E0122DEFD06C
:10315400E0022FF5E509700375090A850A82850BDB
:10316400831231721234F8A9097404022DE7123D56
:103174001B851282851383227C6C7D06850A8285D9
:103184000B8312318A22E0FAA3E0FB2212318A1265
:103194000A77E9F5092290066DE0F5F0E5088490D8
:1031A400066CF07C6C7D0622122E1F120A957404A4
:1031B40022F005088518828519832274EC1216CB37
:1031C40074FE1216748A088B098C0E8D0FEA24057E
:1031D400FEEB3400FF1233C8EE24181239F3EA452B
:1031E4000B700302326B1233B150291232908A10E1
:1031F4008B11EA4511606B7912AC0AAD0B8508821C
:103204008509831231868510828511831216C9E9D6
:10321400F50A7058E4F50AF50B780A1218DE8E8266
:103224008F83A3A3E0F50A780A1218DEEE240312B2
:1032340034D8780A1218DE8E828F8312329D120BD4
:10324400AF740612168AE9F50A7021850C82850D81
:1032540083E0701F8508828509831231861208195C
:103264008011750A0E8009750A018004E50A60035D
:103274001234EB850C82850D83E0600479008002B2
:10328400A90A740212168A7F0C02179D851882857A
:10329400198312318A120B9D221234E6FD850882AD
:1032A40085098312318A2274EE1216CB74FE12162B
:1032B400748A088B098C0C8D0DEA2405FEEB34000E
:1032C400FF750E001233C8EA450B700302338F12E8
:1032D40033B1502C1232908A0E8B0FEA450F604A9C
:1032E4007912AC0AAD0B8508828509831231868573
:1032F4000E82850F831216C9E9F50E60030233921C
:103304008508828509831235CDAA0AFB1233A3707E
:10331400147AFF7BFF1233A3606C88828983E50AE9
:10332400F0A3E50BF0750A008007750E0E805F05AB
:103334000A900652E0FAE50AC39A504AE50A75F083
:1033440017A4FAABF088828983A3A3E02AFAA3E046
:103354003BFB8A828B831234E1EC4D70D2750A17E1
:10336400750B00780A1218DEEEFCEFFD1203DB7415
:103374000212168AEEFCEFFD85088285098312315C
:103384008612081F8014750E098003750E01123D04
:1033940013850C82850D831234F8A90E022F321284
:1033A4000B918A108B11A810A911E84922E5082471
:1033B40002F508E5093400F5098A828B83A3A3A3E7
:1033C400E0A2E522851882851983AC82AD838E82C2
:1033D4008F831233DE8A0A8B0B22E0FAA3E0FB12FE
:1033E4000A8F22740412168A7F0A02179D74EC1243
:1033F40016CB8C108D11EA2405F50CEB1239F675F9
:103404000F00EA2402F50AEB1234DB850A82F58305
:10341400123186123F2570030234CD750E0080717F
:10342400850C82850D83E06401704F8E828F83A3A7
:10343400A31218F58E828F83A3A3A3A3E0F51275BC
:10344400130078121218DEEE2405F512EF3400F59D
:103454001378121218DE123180120BAF7406121692
:103464008AE9F50F6014850C82850D83E4F0123D22
:10347400138510828511831234F87C177D0079003E
:10348400EEFAEFFB1203F38E828F83E4F0A3F005D0
:103494000E900652E0F8E50EC398501EE50E75F046
:1034A40017A4F8A9F0850882850983A3A3123E8B8B
:1034B4001234E1EC4D6003023424850882850983CB
:1034C40074FFF0A3F0E50F7006123180120825A9ED
:1034D4000F02328BF50AEF3400F50B22A31234E607
:1034E400FD22E0FCA3E0228E828F83123D1B850E19
:1034F40082850F83E8F0A3E9F022C082C08390069E
:103504004EE06A7003A3E06B70067A4E7B0680047B
:103514007A007B0002284074F71216CB7F00EF7507
:10352400F003A4F8A9F0EC28F8ED39F9888289832E
:10353400E06A7003A3E06B7006E8FAE9FB800B0F06
:10354400EFC3940240D87A007B007F0102179D7478
:10355400F61216CB123B0470067A007B008007A398
:10356400A3A3A3123186023BC574F21216CBE9FE63
:10357400740E1216BF1235CD74101216BF123A35DE
:103584008C828D83E06402703BA3123D178882898C
:1035940083E0F50CA3E0F9A80C74026870037429A5
:1035A400697021750C02750D00780C1218DE78080C
:1035B4001218DE780A1218DEEEF9120BD374061212
:1035C400168A80027901023C35E0F50AA3E0F50B86
:1035D4002274E81216CB74FB121674E985188285DE
:1035E4001983F08A168B178C0E8D0F741F1216BF59
:1035F400123A3574211216BF1235CD74231216BF38
:10360400123A1F7510008C828D83A3A3A3E0A2E459
:10361400502A741D1216BF1232968A828B83E58259
:10362400458370030236E1790AAC0EAD0FAA16ABDE
:10363400171216C9E9F51060030236E4850E828577
:103644000F83E06402600302399AA3123D178508D0
:1036540082850983A3858212858313E50E2406F5EA
:103664000CE50F1239F688828983E0FAA3E0F9EABF
:103674002400F514E439F5157814121968010000D2
:10368400280128A9360700022880370328F03600CD
:1036940029AA380129D238022979380329AA3804F9
:1036A400293B399A39EE4F703E850C82850D831281
:1036B4003A10FAE9FB8A828B83E0850A82850B83C0
:1036C400123A4C1218DE8A828B83A31234E6FDAAC6
:1036D40008AB091203DB740212168A800375100EFC
:1036E400A9107405023E7975100B80F4EE4F70F743
:1036F400850A82850B837401F0123A258508828538
:103704000983F07C007D00850E82850F83A3A3A32B
:10371400A3E02401FAA3E03400FB120A8FEA4B6011
:10372400418A828B83E02402F8850A82850B83E038
:1037340028F0EA2404F8EB3400F988828983E085D0
:103744001282851383123A5E123A4C1218DE8A8270
:103754008B831234E0E5082403FAE5093400FB0204
:1037640036D7850A82850B83E02404F07C047D002F
:103774007900AA12AB131203F30236E4EE4F60038E
:103784000236EB123A25FEA3E0FF850A82850B83FD
:103794007404F0EE850882850983F0EF8512828532
:1037A4001383F074031216BFAC82AD83EEFAEFFB01
:1037B400123AF270030238568A828B83A3A3123A18
:1037C4001B74011216BF85820E85830F780E1218A2
:1037D400DE74051216BF1218F57CFF7DFF120A95E0
:1037E400740412168A8B0FEA450F7033850C828598
:1037F4000D831239FB1218DE850C82850D83A3120A
:1038040018F57C027D007A2B7B841208C1740412A3
:10381400168AE9700A74011216BF74FFF0A3F08EC1
:10382400828F83E064027034750C02750D00780C8D
:103834001218DE8E828F831234E0E5082404FAE540
:1038440009122E0C12168A850A82850B83E0240243
:10385400800974011216BFEEF0A3EFF07401121682
:10386400BF123A0CF074011216BFA3123A04A3A3B8
:10387400A3F00236E4EE4F60030236EB850C82853A
:103884000D831234E1AA16AB17120BC7850A828581
:103894000B837402F0EA850882850983F08512821D
:1038A400851383EB80CBEE4F60030236EB123A258F
:1038B400F8A3E0F9850A82850B837402F0E8850891
:1038C40082850983F0E985128285138380A3850CA0
:1038D40082850D831231861203D5EAFC8C82A8827C
:1038E400C39EE49F404BE86E7001EF70047C00803F
:1038F4001F851882851983E0FAEE2AFAEF3400FB5B
:10390400C3EA98EB94005003E08004EECCC39CFC23
:10391400EC850A82850B83F08C0A750B00780A12F9
:1039240018DE850C82850D83E02EFCA3E03F023671
:10393400D27510070236E4EE4F60030236EB850CB5
:1039440082850D83123D17850A82850B837407F0E7
:1039540088828983123A041239ECE0851282851335
:1039640083F0E82402FAE93400FB8A828B83123A5A
:1039740004123A3D123A0CA3123A46123A15F0E8F0
:103984002405F8E93400F988828983123A15A312D0
:103994003A5EA3023872741D1216BF123AFD700308
:1039A4000236E1123D17880C890DE8450D700302BB
:1039B40036E18E108F1178101218DE780A1218DE94
:1039C40078081218DE74061216BFE0F9AC0EAD0FBB
:1039D400AA16AB17850C82850D831216C9740612BC
:1039E400168AE9F5100236E4F088828983A322F569
:1039F4000CEF3400F50D22E0F50E750F00780E2261
:103A0400E085088285098322123A6522123D1BE86B
:103A140022123A65A3A322A3A3A3A3E0FEA3E0FF7B
:103A240022850C82850D83E0F8A3E0F5838882E08B
:103A340022E0F508A3E0F50922A3A3F08A828B8390
:103A4400A3221226F8A3A322F08A828B83123A556A
:103A540022E0F50A750B00780A221239EC123A6555
:103A640022E0850882850983A3A32274EE1216CB73
:103A740074FE1216748A0A8B0BECFAEDFB741412A2
:103A840016BFE0F510A3E0F51174161216BFE0FEA0
:103A940074181216BFE0F50EA3E0F50F85188285A1
:103AA4001983AC82AD83123AF2603E85188285197F
:103AB40083123AFD602FA3A3123A35E50845096045
:103AC40024780E1218DE78101218DEEEF9AC0CAD64
:103AD4000DAA0AAB0B8508828509831216C97404E2
:103AE40012168A8006790E80027901022F32120A98
:103AF4008F8A0C8B0DEA450D2212318A123B042267
:103B0400120B5B8A828B83E58245832274F612163C
:103B1400CB74FE121674740C1216BF123A10851868
:103B240082851983F074011216BFE9F0E4F508F5F3
:103B34000978081218DE75080278081218DE740471
:103B44001216BF85820885830978081218DE120BC5
:103B5400AF740612168A740212168A806474F712FD
:103B640016CBEAFEEBFF89087C857D06120BC7EABB
:103B74005402600BA908EEFAEFFB120A8380027963
:103B84000102354E74F61216CB74FF6A700374FF8B
:103B94006B701C7B00EB75F003A4F8A9F0EC28F81B
:103BA400ED39F9123BCA0BEBC39402501480E612B0
:103BB4000B978A088B09A808A909E8496003123BF6
:103BC400CA7F0202179D8882898374FF1226F6E455
:103BD400F02274F61216CB120B978A828B83E5823D
:103BE40045836006A3A3E0FA80027A007B0080D1BB
:103BF40074F21216CB8A088B09ECFEEDFF740E12D8
:103C040016BFE0F50A123C3A701CEEFCEFFD7AFF99
:103C14007BFF123C3A70047911801688828983E50F
:103C240008F0A3E509F088828983A3A3E50AF07963
:103C3400007F0602179D120B978A0C8B0DA80CA906
:103C44000DE8492274EE1216CBEAFEEBFF8C088DC8
:103C540009890C74121216BF123D1774141216BF80
:103C64001234E174161216BF123186750D00EC4D34
:103C74006003023D0B7402650C6003023D068882FA
:103C840089831234E6F9EC2400F50EE439F50FEAE1
:103C9400F4F8EBF4F9EC58F8E50F59F9E849705DDC
:103CA400E5082406F8E5093400F9880A890B8882B6
:103CB400F583122E1B120BC78A108B11E50E6510AB
:103CC4007004E50F65116042780E1218DE850A82D1
:103CD400850B83122E1B120BCD740212168AE9F582
:103CE4000D7027780E1218DE850882850983A3A338
:103CF400122E19120BE5740212168A800D750D80AE
:103D04008008750D0D8003750D0BA90D0233EC8E23
:103D1400828F83123D1B22E0F8A3E0F92274E8129B
:103D240016CB74E7121674851882851983EAF0A3FA
:103D3400EBF08C168D17890E74311216BFE0F51254
:103D4400A3E0F51374331216BFE0F514A3E0F515E0
:103D540074351216BFE0F50F750800750900E50902
:103D640075F003A4F8A9F0851882851983123E8B97
:103D7400E0F47003A3E0F47003023E69EE2402F55C
:103D84000CEF123E81E07003023E6985160A851726
:103D94000B780A1218DEAC14AD15AA12AB13120B71
:103DA4004F740212168A8A0A8B0BEA450B700302BF
:103DB4003E69E4F510F51178101218DE7406121637
:103DC400BF85821085831178101218DE74091216CB
:103DD400BF85821085831178101218DE85128285C2
:103DE4001383A3A3A3A31218F57914AC0AAD0B8E05
:103DF400828F83123E9F12168AE97069850A828532
:103E04000B83A3A3A3A3123D1774021216BF12348B
:103E1400F8850C82850D83E0A2E05018A90E740287
:103E24001216BFAC82AD838E828F83123186120A42
:103E3400A7E94208850C82850D83E0A2E15026E5BE
:103E44000FF50A780A1218E2A90E74031216BFAC11
:103E540082AD838E828F83123186120AA17401127D
:103E6400168AE942080509E509C394025003023D94
:103E740062A908741912168A7F1002179D3400F57E
:103E84000D850C82F58322E028FEA3E039FF8E82A3
:103E94008F83227916850A82850B8312318A120B4D
:103EA400A974082274F21216CBEAFEEBFF890B7494
:103EB40001650B600E7402650B70637901120DBF0E
:103EC400E9705BEEFAEFFB123F256047750A00804C
:103ED4000B7C177D0079001203F3050A900652E06B
:103EE400F8E50AC3985021E50A75F017A4F8A9F07B
:103EF400850882850983A3A3E028FAA3E039FB8A15
:103F0400828B8312284770C985088285098374FFD0
:103F1400F0A3F07C857D06EEFAEFFB120BC1023CA8
:103F240035120B918A088B09EA45092274F212169C
:103F3400CB8A088B09ECFEEDFF740E1216BF123506
:103F4400CD900D0DE0F4603D7A097B00120405EA82
:103F54004B60328A828B8374B1F0A3E4123A3FA39C
:103F6400123A3DA3E508F0A3E509123F8CEEF0A355
:103F7400EF123F8CA3A3E50AF0A3E50BF0900D0D1F
:103F8400E0F9120411023C35F08A828B83A3A3A3C7
:103F9400A3A322C082C0839061907404F0A37448E8
:103FA400F0A37402F09061807440F09061BC7403DB
:103FB400F09061877419F0906265741BF090619CB5
:103FC400740DF090619A7433F0A37455F09061A06D
:103FD400743AF09008C9E064017009C29190073303
:103FE400746780059007337461F09025BAE4939068
:103FF4006186F09025B4E493F46027E493540FF8B9
:10400400906185E0686012E5C654804449F5C6E5D0
:104014009E547F644970F8E8F053C680E59E547F4F
:1040240070FA79051211130241D9C082C083E95490
:104034000FF9906185E0696012E5C654804449F542
:10404400C6E59E547F644970F8E9F053C680E59E46
:10405400547F70FA0241D9C082C083E5A8F853A8FE
:104064007E906181E4F0A3F0A3F0C2BA539AFEC239
:1040740089759B00C2C275E90075910075BF007512
:10408400A91175B905906181F0A374C0F0A3E4F09F
:10409400D2BA439A0174805842A80241D9C082C05E
:1040A4008374F8121674900731E0F8A3E0F9E84934
:1040B40070030241CF900731E054406023790885B2
:1040C4001882851983AA82AB83120F7B8518828597
:1040D4001983AA82AB83120C51900731E054BFF0CC
:1040E400E054806010790C7AED7B08120F7B900706
:1040F40031E0547FF0E0A2E0503190619A7433F0E3
:10410400A37455F09061A0743AF09008C9E064017A
:104114007009C29190073374678005900733746106
:10412400F0120C57900731E054FEF0E05402603175
:1041340090619A743FF0A3745AF09061A0747FF078
:104144009008C9E064017009D291900733747180BA
:1041540005900733746AF0120C57900731E054FD50
:10416400F0E0540460139025B8E493906186F01253
:104174000C5D900731E054FBF0E054086013902587
:10418400B9E493906186F0120C5D900731E054F726
:10419400F0E0541060139025BAE493906186F01215
:1041A4000C5D900731E054EFF0E05420600A120CEB
:1041B4005D900731E054DFF0A3E05401600D120E6E
:1041C400A3120C63900732E054FEF0740812168AAE
:1041D4008003F0A3F0D083D08202013574EC121670
:1041E400CB74F4121674851882851983AC82AD835E
:1041F4007583837582E174041215879025B893F44E
:10420400600302436D907808E0C3940250030243B4
:104214004D74041216BFAC82AD83758383758232EC
:1042240074081215878518828519838582128583FF
:104234001374041216BFAC82AD83750EFF750FFFA5
:104244007FFF7E00750C48750D78801574086E70BC
:10425400030242E074096E70030242E0740A6E6065
:104264007B850C82850D8378081215448C828D839E
:10427400A909E50AC9F8881074187808121485E5A4
:10428400104508F8C3E098A3E099850C82850D8356
:10429400780812154440188C828D8374187808129B
:1042A4001485E5104508F8E0C398F8A3E0801C7471
:1042B400187808121485E5104508FAE9FB8C828DFC
:1042C40083E0F8A3E0F9EAC398F8EB99F9C3E89519
:1042D4000EE9950F5006880E890FEEFF0EE50C24AB
:1042E40004F50CE50D3400F50DEEC39413500302F0
:1042F400425074FF650E700474FF650F60238F08CD
:104304007402780812166174482508F582747835A9
:1043140009F5837808121544851282851383E5080C
:10432400F0EC24020C0CED3400FD8512828513831D
:10433400A3858212858313740C1216BFE5826C70F8
:1043440003E5836D600302423E7508017509007838
:10435400081218DE74021216BFAC82AD837A6E7B2B
:104364000912060F740212168A740C12168A7F0C34
:1043740002179DC082C0839061AE7468F0A3746A12
:10438400F090624574FBF0A304F053F4FD43FE0285
:104394009008C97401F09061A0E0643A90619A7049
:1043A400237433F0A37455F09061A0743AF074014F
:1043B40064017009C29190073374678028900733B1
:1043C40074618021743FF0A3745AF09061A0747FEB
:1043D400F0740164017009D29190073374718005FF
:1043E400900733746A0241D87F0402179DC082C0CB
:1043F4008390087BE06401700A900880E06004798F
:104404000C800279000241D9C082C08375E1F19029
:10441400087EE06055146008146059146051805996
:10442400120EB5900874E0F97A757B081210959015
:1044340083D91215621210CB90840D1215621210DA
:10444400A190087FE0F91210AD79011211079008CC
:1044540072E02416F8A3E03400F98882898374CDCD
:10446400F0A3740EF079000241D9120EBB80B4128D
:104474000EC180AF120EC780AA791280EA74F412BA
:1044840016CB75D90D900863E0A2E0E4331313F85A
:10449400900874E0C4333354C0484401F5D97872A9
:1044A400790888828983A3A3A3E0F5D988828983C4
:1044B400A3A882A983E864787003E9640870E378A8
:1044C40063790888828983A3E0F5D988828983A3E4
:1044D400A882A983E864697003E9640870E575E15A
:1044E40095900863E0F97A647B0812109B900D2F75
:1044F4007461F0A3740EF0A374C3F0A3740FF0A35B
:1045040074C3F0A3740FF0A374C3F0A3740FF0A3E7
:104514007467F0A3740EF0A374C3F0A3740FF0A334
:10452400747FF0A3740EF0900D3D74C3F0A3740F68
:10453400F0A374C3F0A3740FF0A374C3F0A3740FB7
:10454400F0A374C3F0A3740FF0A374C3F0A3740FA7
:10455400F0A374C3F0A3740FF0900872E0F8A3E022
:10456400F5838882A3A378081215449083D578082C
:104574001214D0908405780812151E900872E02455
:104584000EF8A3E03400F988828983780812155361
:10459400900872E02414F8A3E03400F98882898337
:1045A4007413F090072F7402F00243ECC082C083AE
:1045B400900884E02407F5D9900874E0C433335498
:1045C400C0F5D97872790888828983A3A3A3E0F51A
:1045D400D988828983A3A882A983E864787003E9CF
:1045E400640870E3900884E0601F78727908FAE840
:1045F4002413F582E93400F583E0F5D988828983B0
:10460400A3A882A9831AEA70E69008A4E02407F517
:10461400D9900874E0C4333354C04404F5D9787293
:10462400790888828983A3A3A3E0F5D98882898342
:10463400A3A882A983E864787003E9640870E3900E
:1046440008A4E0601F78727908FAE82433F582E957
:104654003400F583E0F5D988828983A3A882A983ED
:104664001AEA70E675E195900D2F746DF0A3740E3F
:10467400F0A374C3F0A3740FF0A374C3F0A3740F76
:10468400F0A374C3F0A3740FF0A37467F0A3740EC3
:10469400F0A374C3F0A3740FF0A3747FF0A3740E9B
:1046A400F0900D3D74C3F0A3740FF0A374C3F0A392
:1046B400740FF0A374C3F0A3740FF0A374C3F0A336
:1046C400740FF0A374C3F0A3740FF0A374C3F0A326
:1046D400740FF09083E5121562900872E0240EF8CE
:1046E400A3E03400F98882898312156E900872E081
:1046F4002414F8A3E03400F9888289837412F090BA
:10470400072F74010241D8C082C083900884E0243A
:1047140007F5D9900874E0C4333354C04402F5D982
:104724007872790888828983A3A3A3E0F5D9888263
:104734008983A3A882A983E864787003E964087074
:10474400E3900884E0601F78727908FAE82413F58E
:1047540082E93400F583E0F5D988828983A3A882AD
:10476400A9831AEA70E675E195900D2F7479F0A388
:10477400740EF0A37479F0A3740EF0A37479F0A30B
:10478400740EF0A37479F0A3740EF0A37479F0A3FB
:10479400740EF0A37479F0A3740EF0A3747FF0A3E5
:1047A400740EF0900D3D74C3F0A3740FF0A374C3A2
:1047B400F0A3740FF0A374C3F0A3740FF0A374C335
:1047C400F0A3740FF0A374C3F0A3740FF0A374C325
:1047D400F0A3740FF09083E5121562900872E02440
:1047E4000EF8A3E03400F98882898312156E9008CC
:1047F40072E02414F8A3E03400F9888289837414E5
:10480400F090072F74040241D8C082C083900884BA
:10481400E02407F5D9900874E0C4333354C0440647
:10482400F5D97872790888828983A3A3A3E0F5D99E
:1048340088828983A3A882A983E864787003E964E1
:104844000870E3900884E0601F78727908FAE8241D
:1048540013F582E93400F583E0F5D988828983A3CE
:10486400A882A9831AEA70E69008A4E02407F5D97F
:10487400900874E0C4333354C04404F5D978727991
:104884000888828983A3A3A3E0F5D988828983A3B6
:10489400A882A983E864787003E9640870E3900847
:1048A400A4E0601F78727908FAE82433F582E934C9
:1048B40000F583E0F5D988828983A3A882A9831AA5
:1048C400EA70E675E195900D2F7473F0A3740EF001
:1048D400A374C3F0A3740FF0A374C3F0A3740FF014
:1048E400A374C3F0A3740FF0A374C3F0A3740FF004
:1048F400A374C3F0A3740FF0A3747FF0A3740EF039
:10490400900D3D74C3F0A3740FF0A374C3F0A374AB
:104914000FF0A374C3F0A3740FF0A374C3F0A374D3
:104924000FF0A374C3F0A3740FF0A374C3F0A374C3
:104934000FF09083E5121562900872E0240EF8A33C
:10494400E03400F98882898312156E900872E0249D
:1049540014F8A3E03400F9888289837415F0900771
:104964002F74030241D8C082C083900872E0F8A378
:10497400E0F5838882A3A3A3A3A3A3E40241D6748E
:10498400F71216CB90075DE0F875F004A4C8AAF0FE
:104994002AF9745F28F8740739F9E82405FAE93428
:1049A40000FB8A828B83E0FCA3E0FD88828983A3D9
:1049B400A3A3A3A3A3A3A3A3ECF0A3EDF0888289EC
:1049C40083A3A3A3A3A3A3A3E024FFF8A3E034FF3A
:1049D400F98A828B83E8F0A3E9024C2874F7121653
:1049E400CBEAFEEBFF9061D0E06003024ABD75D9CB
:1049F4000E75D90375D904EE248CF582EF3400F5D5
:104A040083E5822408F8E5833400F9E0F5D9A3E8C6
:104A140065827003E9658370F2EE2484F582EF34D5
:104A240000F583E5822404F8E5833400F9E0F5D940
:104A3400A3E865827003E9658370F275E1957908EE
:104A4400EE248CFAEF3400FB120F6F7904EE248409
:104A5400FAEF3400FB120F6F7C00EEF8EFF9ECFA7A
:104A6400C3E49AFA95E0FBEE2AFAEF3BFBEA248BC7
:104A7400F582EB3400F583E0C0E0E824ABF582E98D
:104A84003400F583D0E0F00C88828983A3A882A93E
:104A940083ECC3940840C7EE2470F582EF3400F52C
:104AA40083E0F8A3E0F9EE2472F582EF3400F58395
:104AB400E8F0A3E9F0790180027900024C29C08270
:104AC400C08375D90275D90375D90575E195EA24B2
:104AD40070F582EB3400F583E0F8A3E0F9EA247280
:104AE400F582EB3400F583E8F0A3E9F079010241A3
:104AF400D974F61216CBEAFEEBFF9008CD7406F0DB
:104B04007508CD75090878081218DE7C017903123E
:104B14000FB7740212168A75D90675D9037582CD3A
:104B2400758308E0F5D9A3E58264D27004E5836453
:104B34000870F075E19590072FE06408701EEE246C
:104B440070F582EF3400F583E0F8A3E0F9EE247207
:104B5400F582EF3400F583E8F0A3E9F07901024C23
:104B6400F574F61216CBEAFEEBFF9061D0E07066A6
:104B740078019008CD740BF090072FE0640770194A
:104B84007508CD75090878081218DE7C01790312BE
:104B94000FB7740212168A7805740128F5D975D9ED
:104BA400037582CD758308E8FAE0F5D9A31AEA7093
:104BB400F875E195EE2470F582EF3400F583E0F8A2
:104BC400A3E0F9EE2472F582EF3400F583E8F0A354
:104BD400E9F0790180027900024CF574F71216CBE2
:104BE400EAFEEBFF75D90375D90375D90DEE24DE02
:104BF400F582EF3400F583E0F5D975E19579041277
:104C040010D1EE2470F582EF3400F583E0F8A3E0D0
:104C1400F9EE2472F582EF3400F583E8F0A3E9F0AD
:104C240079018001F07F0102179D74F61216CBEA18
:104C3400FEEBFF9061D0E0F87480C398FAEE248311
:104C4400F582EF3400F583E0600478048002780094
:104C5400E8240BF8EAC3985003024CF37D0990084A
:104C6400CDEDF0EE24E3F8EF3400F97ACE7B087C46
:104C74000888828983E08A828B83F088828983A36F
:104C8400A882A9838A828B83A3AA82AB831CEC703B
:104C9400E0EE2483F582EF3400F583E0601D7508AF
:104CA400CD75090878081218DE7C097903EEFAEF4D
:104CB400FB120FB7740212168A7D0D74012DF5D9FB
:104CC40075D9037582CD7583088D08E0F5D9A315D0
:104CD40008E50870F675E19579041210D1EE241DEB
:104CE400F582EF3400F583E4F0A3F07901800279D2
:104CF400007F0202179D74F61216CBEAFEEBFF90BA
:104D040061D0E0F87480C398FAEE2483F582EF341E
:104D140000F583E06004780480027800E82408F851
:104D2400EAC3985003024DFA7D069008CD740CF046
:104D340090074CE09008CEF07A4D7B0778CF790845
:104D44007C028A828B83E088828983F08A828B83C7
:104D5400A3AA82AB8388828983A3A882A9831CEC3B
:104D640070E07A4F7B077C028A828B83E088828999
:104D740083F08A828B83A3AA82AB8388828983A3EC
:104D8400A882A9831CEC70E0EE2483F582EF340042
:104D9400F583E0601D7508CD75090878081218DEE2
:104DA4007C067903EEFAEFFB120FB7740212168A2F
:104DB4007D0A74012DF5D975D9037582CD758308E3
:104DC4008D08E0F5D9A31508E50870F675E1957925
:104DD400041210D1EE2470F582EF3400F583E0F86C
:104DE400A3E0F9EE2472F582EF3400F583E8F0A332
:104DF400E9F0790180027900024CF574F61216CBC1
:104E0400EAFEEBFF9061D0E0F87480C398FAEE24D8
:104E140083F582EF3400F583E0600478048002783F
:104E240000E82404F8EAC3985003024ED9780290AB
:104E340008CDE8F0EE24F5F582EF3400F583E09038
:104E440008CEF0EE2483F582EF3400F583E0601B96
:104E54007508CD75090878081218DE7C027903EE0E
:104E6400FA120FB7740212168A7806740128F5D95B
:104E740075D9037582CD7583088808E0F5D9A31523
:104E840008E50870F675E195EE2474F582EF3400B8
:104E9400F583E4F0EE2480F582EF3400F583E4F04A
:104EA400EE241DF582EF3400F583E4F0A3F07904D9
:104EB4001210D1EE240DF582EF3400F583E0F8A34F
:104EC400E0F9EE2472F582EF3400F583E8F0A3E90B
:104ED400F0790180027900024CF574F61216CB9039
:104EE40061D0E0F87480C398FCEA2483F582EB3443
:104EF40000F583E06004780480027800E82404F874
:104F0400ECC398405B79029008CD7407F0EA24F66C
:104F1400F582EB3400F583E09008CEF0EA2483F5C3
:104F240082EB3400F583E060187508CD75090878C4
:104F3400081218DE7C0209120FB7740212168A795D
:104F440006740129F5D975D9037582CD758308E9ED
:104F5400F8E0F5D9A318E870F875E19579018002B5
:104F64007900024CF574F51216CBE9FCA2AFE433D8
:104F7400F50AC2AF7D0080010DEA246FF582EB349F
:104F840000F583E0F8EDC398501A8D08EA2508F877
:104F9400EB3400F9E8246BF582E93400F583E06C26
:104FA40070D68024EA246FF8EB3400F9E0FEEA2E90
:104FB400FAEB3400FBEA246BF582EB3400F583EC66
:104FC400F088828983E004F0E50AA2E092AF7F03CF
:104FD40002179D74F61216CBA2AFE433FDC2AFEAFA
:104FE400246FF582EB3400F583E014F07C00603626
:104FF4008C08EA2508F8EB3400F9E8246CF582E91A
:105004003400F583E0C0E0E8246BF582E93400F570
:1050140083D0E0F00CEA246FF582EB3400F583E0F2
:10502400F8ECC39840CAEA246EF582EB3400F583A9
:1050340074FFF0EA246AF582EB3400F583E4F0EDC2
:10504400A2E092AF024CF5C082C083E5A8F8C2AFDB
:10505400EA246BF582EB3400F583E9F0EA246AF57F
:1050640082EB3400F583E4F0E8A2E792AF0241D981
:1050740074F31216CBEAFEEBFFECFAEDFB8A828B9B
:1050840083A3A3A3A3E0541FF0EE2436F582EF34E8
:1050940000F583E4F0F50AEEFCEFFD8A828B83E0F1
:1050A400C0E0EC245DF582ED3400F583D0E0F075CA
:1050B4000B00E50A33333354F8F50C8A828B83E012
:1050C400F508750900E50B7808121642E508A2E018
:1050D400502FEE2436F8EF3400F988828983E0F506
:1050E40008EE2508F508EF3400F509E5082438F53D
:1050F40082E5093400F583E50CF088828983E004B5
:10510400F0050B050CE50BC3940840AF050A8A8231
:105114008B83A3AA82AB838C828D83A3AC82AD8361
:10512400E50AC39405500302509F7F0502179D743E
:10513400F71216CB90075BE0640170077A007B00DE
:105144000252AA7E00900761E070F17401F0A3E4BA
:10515400F0A3F09007C104F09007C4E4F0A3F0902A
:1051640007C704F0900764E4F0A3F0A3F0A3F09061
:10517400076E04F0900794E4F09083CD12156290CA
:10518400077712156E90077BE4F0A3F0A3F0900765
:10519400DFF09007D3F09007C87480F0A3E4F09098
:1051A40007CEF09007C6F090084AF0A3F0A3F0A34E
:1051B400F0A3F0A3F0A3F0A3F0900853F09007E25B
:1051C400F0900832F0A3F09083CD12156290083469
:1051D40012156E9083CD12156290083812156E90D8
:1051E400083EE4F0900840F090083CF0900856F037
:1051F400A3F0A3F0A3F0A3F0A3F0A3F0A3F0785BD3
:105204007907E8246FF582E93400F58374FFF00E22
:1052140088828983A3A882A983EEC3940440E37A95
:105224005B7B07786A790888828983E0C0E0EA2496
:1052340061F582EB3400F583D0E0F088828983A3A2
:10524400A882A9838A828B83A3AA82AB83E8646F32
:105254007003E9640870D07A5B7B07784279078829
:10526400828983A3E0C0E0EA24E7F582EB3400F509
:1052740083D0E0F088828983A3A882A9838A828B61
:1052840083A3AA82AB83E8644A7003E9640770CFFE
:1052940090075BE004F064017008900763E09007F6
:1052A4005DF07A5F7B07024C29C082C0839007625D
:1052B400E4F0900761F090075BF0A3F0A374FFF0B3
:1052C40075E1F10241D9C082C0837800790090076A
:1052D40062E06004785F790788828983A3A3A3A32B
:1052E400E0F90241D974F61216CBEAFEEBFF8E8286
:1052F4008F83A3A3A3E0600F8E828F83A3A3A3E471
:10530400F090075CE014F090075BE014F0700690F6
:10531400075D74FFF08E828F83A3A3E4F090086F7F
:10532400E0700D90075CE06401700579001210B321
:10533400EE2465F582EF3400F583E0F8A3E0F9E8A4
:10534400496029EE2465F8EF3400F9880889098852
:1053540082F583E0FCA3E0FD90075DE0FA7B001298
:105364000C87850882850983E4F0A3F0EEFAEFFB4D
:10537400120FE7024CF574F71216CBEAFEEBFF8E20
:10538400828F83A3A3A3A3E0FA7B00120CC9EEFAD5
:10539400EFFB120F39120FCF024C29C082C0837861
:1053A40042790788828983A3E4F088828983A3A849
:1053B40082A983E8644A7003E9640770E6900743AE
:1053C40002470674F61216CBEAFEEBFFEC2403F850
:1053D400ED3400F988088909EC2407F8ED3400F964
:1053E400E8FCE9FD8C828D83E0F8A3E0F98508826E
:1053F400850983E0FAA3E0FB1215E9EE240DF5829A
:10540400EF3400F583E8F0A3E9F08C828D83E0F8B3
:10541400A3E0F9850882850983E0FAA3E0FB12156D
:10542400E98B09EA45096013EE240DF582EF340097
:10543400F583E02401F0A3E03400F0024CF574F6A7
:105444001216CBEAFEEBFFEE242EF582EF3400F5C4
:1054540083E0FCA3E0FD780079FAECFAEDFB121589
:10546400E9EE2470F582EF3400F583E8F0A3E9F067
:10547400780079FAECFAEDFB1215E98B09EA450993
:105484006013EE2470F582EF3400F583E02401F01C
:10549400A3E03400F0024CF574F01216CBEAFEEBF4
:1054A400FF74101216BF78081215441210718A0C7A
:1054B4008B0D8C0E8D0F9083D1780C1214D09084A8
:1054C40005780C12151E780C1218DA8E828F83E080
:1054D400F8A3E0F5838882A3A312156212234A7409
:1054E4000412168AE960030255E98E828F83E02450
:1054F40002F8A3E03400F9E8FAE9FB8A828B8378A6
:10550400081214E390840578081215448A828B8368
:105514007808121531EE240BF582EF3400F583C0C0
:1055240082C0838E828F83A3A3A3A3A3E02401F864
:10553400A3E03400F9D083D082E0687003A3E0696B
:10554400700579010255EB8E828F83A3A3A3A3A3D5
:10555400A3A3E02401F0A3E03400F0EE2474F58268
:10556400EF3400F583E064017036EE2475F582EFC4
:105574003400F583E0F8A3E0F98E828F83A3A3A31C
:10558400A3A3A3A3E0687003A3E0697013EE2475DA
:10559400F582EF3400F583E02401F0A3E03400F059
:1055A400EE2480F582EF3400F583E064017036EE7A
:1055B4002481F582EF3400F583E0F8A3E0F98E82CC
:1055C4008F83A3A3A3A3A3A3A3E0687003A3E069A9
:1055D4007013EE2481F582EF3400F583E02401F0AA
:1055E400A3E03400F079007F0802179D74F71216C7
:1055F400CB90075DE0F875F004A4C8AAF02AF9740A
:105604005F28FE740739FF8028EE2465F8EF340024
:10561400F988828983E0FCA3E0FD88828983E4F031
:10562400A3F08E828F83A3A3A3A3E0FA7B00120CC2
:1056340087EE2465F582EF3400F583E0F8A3E0F902
:10564400E849604FEE2464F582EF3400F583E0F519
:105654000878081218E2EE2463F582EF3400F5832B
:10566400E0F9EE2465F582EF3400F583E0FCA3E075
:10567400FDEEFAEFFB120F63740112168AE96089DA
:10568400EE2465F582EF3400F583E0F8A3E0F9E851
:105694004970137C007D008E828F83A3A3A3A3E0B3
:1056A400FA7B00120C87024C2974F21216CBEAFE24
:1056B400EBFF890A740E1216BFE0FAEE2462F5823B
:1056C400EF3400F583E0640160030257799061D000
:1056D400E0F87480C398F50CEE2483F582EF34006F
:1056E400F583E060047804800278008908E928F8EA
:1056F400E43400F9E824020808E93400F9E50C98D8
:10570400E499A2D265D0334068EA7005750B028033
:1057140003750B01E0603975090078081218DE7A08
:10572400CD7B08120F99740212168A7508CD75097B
:105734000878081218DEAC0AA90BEEFAEFFB120F78
:10574400B7740212168A7404250AF50A7CCD7D0802
:105754007401250AF5D9850BD9E50A600D8C828D73
:1057640083F8E0F5D9A318E870F875E1957900801D
:10577400067907800279FF7F0602179DC082C083E5
:10578400E960208C828D83E08A828B83F08C828D09
:1057940083A3AC82AD838A828B83A3AA82AB831951
:1057A400E970E0ECFAEDFB0241D974EA1216CB90F1
:1057B4007803E06442705E9008CCE014F07056C246
:1057C400AF1257C800782AD0E0F618D0E0F6E59F6B
:1057D4005407F970059083C980039083C578081233
:1057E4001544E9C4C0E07829E65508F50808E655EB
:1057F40009F509740B7808121652D0E02508F890C0
:105804006270E0A2E740F8E8C333906272F09062FD
:1058140070E0D2E0F090075DE0F47003025BD1E049
:10582400F875F004A4C8AAF02AF9745F28FE740776
:1058340039FFEE2402F582EF3401F583E0F8A3E0AA
:10584400F9E849601EEE2402F582EF3401F583E0A5
:10585400FAA3E0FBEE2401F582EF3401F583E0F9CD
:105864001204358E828F83A3A3A3A3A3A3A3E0F87A
:10587400A3E0F98E828F83A3A3A3A3A3E8F0A3E9F3
:10588400F0906054E0900736F0906055E090073750
:10589400F0906056E0900738F0906057E090073938
:1058A400F0906058E090073AF0906059E090073B20
:1058B400F090605AE090073CF090605BE090073D08
:1058C400F090605CE0FC90073EF090605DE0FB903F
:1058D400073FF090605EE0FD900740F090605FE06D
:1058E400FA900741F090073CE08C082508F8E4346E
:1058F40000F98D08E82508F8E93400F98B08E82553
:1059040008F8E93400F98A08E82508FAE93400FBC4
:10591400EE24F7F582EF3400F583E02AF0A3E03BB0
:10592400F08C08EE24F9F582EF3400F583E02508C5
:10593400F0A3E03400F0EE24FBF582EF3400F583AD
:10594400E02401F0A3E03400F0EE24FFF582EF340C
:1059540000F583E0F8A3E0F9E8496042906000E0D4
:10596400C333FCE433FDE82CF582E93DF583E02AFA
:10597400F0A3E03BF0906000E0FA90073EE0FCEA20
:10598400C333FAE433FBE82AF8E93BF9E8244AF59F
:1059940082E93400F583E02CF0A3E03400F09007B2
:1059A4003CE0701190073FE0700BA3E07007A3E0A8
:1059B4007003025AB18E828F83A3A3A3A3A3E0F83A
:1059C400A3E0F9EE240DF582EF3400F583E028F826
:1059D400A3E039F9EE240BF582EF3400F583E8F007
:1059E400A3E9F0EE240FF582EF3400F583E4F0EE42
:1059F400241CF582EF3400F583E06401701EEE246C
:105A040020F582EF3400F583E0F8A3E0F9EE241DDD
:105A1400F582EF3400F583E8F0A3E9F0900737E06E
:105A24006052EE241CF582EF3400F5837401F0EE2D
:105A3400246AF582EF3400F583E07038EE2474F5BF
:105A440082EF3400F583E0702BEE2480F582EF348E
:105A540000F583E0701EEE2420F582EF3400F58318
:105A6400E0F8A3E0F9EE241DF582EF3400F583E8B5
:105A7400F0A3E9F0906062E07003025B648E828FB1
:105A840083E0F8A3E0F9E82406FCE93400FDE82407
:105A940002FAE93400FB12106B8E828F83E0241229
:105AA400F8A3E03400F988828983025B6E90073E94
:105AB400E0603AEE240FF582EF3400F583E4F0EE73
:105AC400241CF582EF3400F583E064017040EE2479
:105AD40020F582EF3400F583E0F8A3E0F9EE241D0D
:105AE400F582EF3400F583E8F0A3E98020EE24FD8D
:105AF400F582EF3400F583E02401F0A3E03400F0F4
:105B0400EE241DF582EF3400F583E4F0A3F0EE24D7
:105B14000BF582EF3400F583E0F8A3E0F98E828F71
:105B240083A3A3A3A3A3E0687003A3E069600302B3
