:020000040000FA
:0600000002011D021EF7C3
:03002B00021A892D
:03003B00021AD4D2
:03004300021A603E
:03005300021F6A1F
:03006B00021AA5D1
:10008300021DABE5C754F84401F5C779012200000E
:100093000080FB120086B90003020107E47921788E
:1000A30008B800028004F709D8FCE479297802B87B
:1000B30000028004F709D8FCE4900281786F790983
:1000C3008002F0A3D8FCD9FA781A90014D7A01BACC
:1000D30000028007E493A3F608DAF9900AEFAA82F4
:1000E300AB8390014E787579038015E493A3AC82BA
:1000F300AD838A828B83F0A3AA82AB838C828D83A8
:10010300D8E9D9E77582047583B1740312012F7599
:100113008291758300740012012F75D00075813FA1
:10012300751881751902759F00020096C09FF59F8F
:10013300E473D09F22D083D082C09FE493C0E07445
:100143000193C0E0740293F59F2201FFFF1101990F
:10015300010F12640401028B840100005D84028795
:1001630084010000F60A026984010000F70A028391
:1001730084030000A702027584010000F80A01E865
:1001830003053F1012446F2053796E630000000093
:1001930000000000000008415050205365742043C4
:1001A3006C6F636B0000000002446174612048655A
:1001B3006164657200000000000002446174612004
:1001C300426F64790000000000000000028B84018C
:1001D30000006084028784010000280B02718403FD
:1001E30000004305028584010000290B0287840176
:1001F30000003A0B026F840200004405028584016B
:1002030000003B0B0287840100004C0B026D84014C
:10021300000048050285840100004D0B028784011C
:1002230000005E0B026B840100004A050283840315
:1002330000004B050285840100005F0B00000000F5
:1002430000000000000000000000000000000000AB
:1002530000000000FF0001307503020106000000EA
:10026300000000000000000000000000000000008B
:10027300000000000000000000FFFF0600800CE803
:10028300031109416464696E672041312D303030B8
:1002930030303005125000A000020A0002010603AC
:1002A3000200230F18416464696E672041312D30C9
:1002B300303030303000000000000C080000180817
:1002C300FF0000B4000028002800283075A000A01B
:1002D30000A000A00000080008E001F000100010DA
:1002E30000100010001000100050005000500010CB
:1002F300001000D0070000000000000F00010005FF
:1003030000307507001000010081FF0000FF220A82
:10031300400A280AFF02020208025000A00000005F
:10032300E803028B840100005784028784010000E4
:10033300B90C028184010000460602878401000093
:10034300BA0C027F840100005C060287840100006E
:10035300BB0C027D840100005E060287840100005D
:10036300BC0C027B840800005F0602878401000046
:10037300BD0C027984010000BE0CFF0100FF2002C6
:100383008B840100005484028784010000220D0243
:1003930077840000000000028384030000AC06049D
:1003A30010041004100410041004100410041004AA
:1003B3001004100410041004109212AA128C1212CA
:1003C3000138BDB602120138C7B60212013808B7A8
:1003D3000212013851B7021201388BB702120138E9
:1003E300E1B70212013802B802120138B1BA02129F
:1003F3000138BABA021201380EBB0212013837BBF8
:100403000212013841BB02120138AFBB021201389C
:100413003FBC021201389ABC02120138C8BC021256
:10042300013850BD021201388FBD02120138C4BD1C
:1004330002120138D6BD02120138F5BD021201388D
:10044300FEBD02120138C5BE0212013891FC021230
:10045300013888FD02120138A2FD02120138B3FDF2
:1004630002120138C5FF0212013843A103120138F9
:1004730079A103120138ADA103120138FAA20312C4
:10048300013809AF031201381FAF0312013829AF36
:100493000312013873AF03120138A5B003120138F8
:1004A30033EB0212013846EB0212013807EC021259
:1004B300013846EC0212013863EC021201389CEC5D
:1004C30002120138E9EC021201381BED0212013865
:1004D30052ED021201385BEF02120138C7EF02122C
:1004E300013838A8031201385BA8031201388AA81F
:1004F3000312013822A90312013864A90312013837
:10050300AA9603120138DA9603120138ED96031204
:1005130001381C9703120138339703120138DF9710
:100523000312013878980312013801990312013834
:10053300C4AB03120138D2AB03120138D5AB03129B
:10054300013850AC0312013828B2031201385CB1F0
:10055300031201389184011201386F8601120138A8
:100563000E8801120138B988011201383989011244
:100573000138BE8901120138E78901120138C28DA1
:1005830001120138398E01120138508F01120138DE
:100593008A8F01120138CB8F011201381291011297
:1005A3000138689101120138B1910112013820928A
:1005B300011201388C9201120138BD9201120138E7
:1005C300D59201120138EE9301120138FE93011204
:1005D3000138B49501120138CB9501120138FD950C
:1005E300011201389F970112013833980112013823
:1005F3004DAE031201385EAE03120138FEAE031294
:100603000138B2B103120138F1B103120138E4FF2A
:100613000212013884AD0312013894AD031201387C
:10062300ACAD0312013840AE03120138C2AA031263
:10063300013847AB03120138ABAB03120138E67F35
:10064300001201380080031201382D800312013893
:100653009F8003120138B48003120138D58103123D
:100663000138588203120138D18203120138F08213
:100673000312013813830312013850830312013824
:10068300688303120138BE830312013875F802121E
:1006930001388CF80212013806F902120138EAF91E
:1006A30002120138C1FB0212013826FC0212013882
:1006B3007DFC02120138F87F001201380F9F0312EC
:1006C300013899A003120138FAA00312013840A19E
:1006D30003120138B08B031201384B8C031201381B
:1006E300E98C03120138E18D03120138938E031252
:1006F3000138BB8E03120138C98E031201383E8FB5
:1007030003120138528F031201385C8F0312013830
:100713005F8F03120138A48F03120138C18F0312B4
:100723000138659003120138B99003120138AC9176
:1007330003120138D49203120138A0A60312013820
:10074300F2A60312013865A703120138D2A70312D8
:100753000138C89C03120138F29C03120138C19D71
:10076300031201389D9E03120138F3BE02120138B1
:10077300BFBF0212013800C0021201383AC0021290
:10078300013898C002120138ECC0021201384AC184
:1007930002120138E0C102120138E8C20212013824
:1007A30072C40212013810C50212013877C5021251
:1007B30001388AC5021201387EC602120138C7C643
:1007C30002120138D8F2011201380AF60112013877
:1007D3009BF701120138F2F7011201380FF80112E9
:1007E30001388FF8011201380BFA01120138DAFAD5
:1007F3000112013847FE0112013831FF011201389D
:1008030029C702120138B1CA0212013865CB02129C
:10081300013880CC02120138C6CC0212013810CE46
:1008230002120138EDA40312013804A503120138A2
:1008330033A5031201386CA50312013894A50312E2
:100843000138C2A503120138D9A503120138F0A556
:100853000312013806A6031201382DA6031201382C
:1008630040A60312013856A60312013869A60312E3
:1008730001388EA60312013811A40212013810A503
:100883000212013845A50212013866A50212013889
:1008930076A50212013897A502120138A3A6021207
:1008A300013870A702120138E3A70212013869A8C0
:1008B30002120138ACA802120138E3A8021201386F
:1008C30069A9021201383BAA0212013899AA02123D
:1008D3000138B1AA021201382BAB021201382EAB38
:1008E3000212013831AB02120138D8AB02120138BF
:1008F300F0AB0212013820AC0212013840AC0212F4
:1009030001382EAD02120138E4AD021201388BE634
:1009130002120138B3E602120138E1E6021201388D
:1009230018E70212013880E702120138C9E7021200
:10093300013814E80212013852E8021201388FE834
:1009430002120138BDE80212013864E902120138CB
:100953006EE9021201387BE902120138AEE9021294
:10096300013870EA021201387CEA0212013894EA73
:10097300021201389EEA02120138ADAC03120138AB
:10098300BBAC03120138D3AC03120138EBAC031236
:10099300013822AC01120138C0AC0112013838AD64
:1009A300011201384DAE0112013887AE0112013830
:1009B30030AF0112013805B00112013869B10112DB
:1009C3000138C0B10112013847B2011201382EB308
:1009D300011201387BB30112013809B40112013845
:1009E3002DB40112013802B60112013843B60112C7
:1009F300013865B601120138E6B601120138D0B7E5
:100A03000112013896B801120138AFD5021201382C
:100A130081D6021201382AD7021201386DD7021289
:100A23000138FAD70212013886D80212013867D981
:100A33000212013896D90212013892DA02120138F1
:100A4300DADA02120138DCDB0212013820DC02128E
:100A5300013846DC021201389FAF03120138DF87E9
:100A630003120138F587031201381B88031201387A
:100A73004389031201384D8903120138A68A0312F0
:100A83000138A68B03120138BBDC02120138F0DDFA
:100A93000212013823DE021201386DDE0212013820
:100AA3002BE002120138336E00120138966E0012E9
:100AB3000138DB6F00120138EB6F001201380E7042
:100AC30000120138597000120138FE70001201380B
:100AD300F47100120138BE7200120138367400122C
:100AE30001387874001201381675001201386375E5
:100AF3000012013889750012013877770012013826
:100B03007C77001201385D7900120138B179001247
:100B13000138137A001201383B7A00120138DF7A68
:100B230000120138A17B00120138D27B0012013878
:100B3300D57B001201381D7C001201385F7C001246
:100B43000138C67C00120138907D00120138A37D64
:100B530000120138BC7D00120138077E00120138F3
:100B6300E27E00120138717F00120138BC7F00124F
:100B73000138FC25001201380826001201384126ED
:100B8300001201388626001201383D270012013871
:100B9300C3270012013828280012013854280012F4
:100BA30001388D2800120138A12A001201387D2C4A
:100BB30000120138682E001201389F2F00120138ED
:100BC300FF3100120138EB320012013831340012C8
:100BD30001383E35001201385B3500120138933578
:100BE30000120138AD3500120138153600120138F4
:100BF300AF3A00120138503B00120138A13B0012FA
:100C03000138C83B00120138163C00120138343C4D
:100C130000120138883C00120138613D001201388E
:100C2300E83E00120138703F00120138E1E1021280
:100C33000138EBE102120138B6E202120138D1E2C7
:100C430002120138F7E2021201383BE302120138C3
:100C530073E3021201389CE30212013815E4021215
:100C630001382AE4021201383FE40212013876E423
:100C7300021201388AE402120138BBE4021201387D
:100C8300F5E40212013821E50212013877E5021278
:100C93000138CBE50212013814E6021201383EE6B0
:100CA3000212013863E602120138F383031201389A
:100CB300BD8403120138A08503120138168603127E
:100CC30001385886031201388587031201380080E2
:100CD30002120138298002120138428002120138BF
:100CE300878102120138658202120138848202125E
:100CF3000138118302120138548302120138A1848E
:100D030002120138408502120138BF8702120138EE
:100D13005688021201382A89021201380C8A0212FB
:100D23000138788B021201380B8C02120138ADA9FD
:100D33000312013816AA031201386AAA03120138F2
:100D430091AA03120138D4EF0212013841F00212C2
:100D530001388CF00212013881F1021201387DF260
:100D63000212013867F3021201384FAE0212013842
:100D730091AE021201386BAF0212013844B0021275
:100D830001383FB1021201381EB2021201388AB291
:100D93000212013851B302120138BCB302120138F6
:100DA30023B4021201384EB402120138BFB4021246
:100DB300013852B502120138BBB502120138D0B561
:100DC3000212013818B60212013831B60212013884
:100DD30096B60212013899B602120138CE9903125F
:100DE3000138F69903120138349A03120138F29A42
:100DF300031201385D9B03120138799B03120138FA
:100E0300A19B03120138D19B03120138E09B03120B
:100E130001385A9C03120138809C0312013849C9D6
:100E23000112013826CB0112013821CD01120138FC
:100E3300F4CD011201383FCE011201388ACE0112DE
:100E430001389CCE01120138DCCE0112013811CFDA
:100E5300011201385DCF011201388CCF0112013824
:100E6300AFCF01120138FCCF0112013885D0011236
:100E7300013892D2011201387DD401120138C0D455
:100E83000112013825D60112013866D60112013844
:100E9300D9D60112013825D70112013850D70112D2
:100EA3000138828C02120138AD8C021201389493FE
:100EB30002120138B89502120138739702120138F1
:100EC300D09802120138D73F001201386E40001249
:100ED30001389B4000120138E140001201382042E2
:100EE30000120138B74300120138314400120138AF
:100EF3004C4400120138C14400120138F04500127D
:100F030001384B47001201384D4800120138AA49F5
:100F130000120138C34900120138204A0012013877
:100F2300024B00120138354B00120138A54B001259
:100F330001381F4C001201386E4C001201383A4D33
:100F4300001201383F4E001201381E4F00120138C3
:100F5300A94F001201381750001201388B500012AC
:100F63000138B45000120138735100120138ED52A8
:100F7300001201380A5300120138295300120138B4
:100F8300BA5300120138DF5300120138075400121C
:100F93000138825400120138DC54001201383056F3
:100FA30000120138ED5600120138C0570012013803
:100FB3007AD701120138CAD701120138D6D70112E4
:100FC3000138B3D801120138E3D8011201381BD913
:100FD300011201389AD901120138D2D9011201380C
:100FE30024DA0112013861DA0112013886DC0112B8
:100FF3000138B2DE01120138ADE00112013888E296
:1010030001120138E97F0012013871980112013889
:10101300BB98011201389A9E011201381BA00112DC
:1010230001387AA60112013875A701120138B2A757
:1010330001120138D5A70112013817A8011201388E
:1010430020A8011201382AA80112013816A9011299
:1010530001380AAA01120138EE57001201386662FC
:10106300001201386C6200120138786900120138ED
:101073000D9303120138A39303120138B99303129A
:101083000138339403120138899403120138C79449
:1010930003120138249503120138A1950312013874
:1010A300AA9503120138B69503120138C9950312A4
:1010B30001380596031201381B96031201387A96FC
:1010C3000312013829F40212013836F402120138EE
:1010D30050F4021201388FF402120138CDF40212D7
:1010E300013832F50212013847F50212013852F580
:1010F300021201385FF50212013876F50212013847
:1011030084F5021201388FF5021201389BF50212A1
:101113000138AAF502120138B5F502120138D8F5E3
:101123000212013881F60212013891F602120138D7
:10113300ABF602120138C8F602120138E4F60212C5
:10114300013809F70212013813F70212013827F7A1
:101153000212013846F702120138A7F702120138CA
:10116300ADF702120138B3F702120138B9F70212D0
:101173000138C5F702120138F8F7021201384EE5BB
:1011830001120138D0E50112013879E60112013864
:10119300C1E701120138CFE901120138B5EA0112A2
:1011A3000138EAEA011201380CEB01120138B5EB00
:1011B3000112013885ED01120138AEED011201383B
:1011C30026EE0112013858EE0112013865EE0112C4
:1011D3000138B0EE01120138D4EE0112013825F1C5
:1011E300011201382FF2011201388BF2011201387A
:1011F300CBBA01120138DCBB01120138C0BC0112A9
:101203000138CABC01120138ECBC01120138F8BC28
:10121300011201389CBE01120138C9BE0112013806
:10122300DFBF0112013834C00112013883C101123A
:10123300013858C201120138B4C2011201381FC368
:101243000112013854C30112013897C30112013846
:1012530061C60112013879C6011201380AC70112A9
:10126300013818C70112013865C70112013873C765
:1012730001120138DFC7011201385AC801120138BF
:10128300B1C801120138F3980212013815990212FC
:101293000138269B02120138E59D021201380F9F87
:1012A30002120138CD9F02120138B9A0021201388F
:1012B30034A30312013859A303120138CFA3031235
:1012C300013892CE021201389BCE02120138A4CE0D
:1012D300021201387CCF021201382DD102120138DB
:1012E3005DD10212013888D102120138B8D102123D
:1012F3000138E3D10212013817D20212013843D266
:101303000212013886D202120138B1D20212013818
:10131300F8D2021201384DD3021201388FD30212D0
:101323000138E9D30212013814D40212013863D40C
:101333000212013893D402120138BED402120138CA
:10134300ECD4021201380FD50212013828B003126F
:10135300013854B00312013881B0031201388BB045
:10136300031201389BB003120138FBB10312013899
:10137300C7FF0112013852B2031201387AB203E0F7
:1013830066701008A3E066700A08A3E0667004089C
:10139300A3E06622C3E7960809E7960809E79608DB
:1013A30009E79622C3E09608A3E09608A3E096080F
:1013B300A3E09622C008C3E096F50808A3E096428E
:1013C3000808A3E096420808A3E09645087001D3F5
:1013D300D00822080808EAC0E0EBC0E086F0E7A4E2
:1013E300FA180986F0E7A42AFA180986F0E7A42A6E
:1013F300FA180986F0E7A42AFA1986F0E7A4FBE5B0
:10140300F02AFA190886F0E7A42BFBE5F03AFA195B
:101413000886F0E7A42BFBE5F03AFA18180986F0E2
:10142300E7A4C5F02BFBE43AFA1908E7C5F0C6A414
:1014330026F6E5F03BFBE43AFA1886F0E7A4F6E576
:10144300F00826F6E43B08F6E43A08F6D0E0FBD0D1
:10145300E0FA22E4CFC0E0E4CEC0E0E4CDC0E0E4B3
:10146300CCC0E075F020C3E633F608E633F608E6B1
:1014730033F608E633F6181818EC33FCED33FDEEBB
:1014830033FEEF33FFC3EC9709ED9709EE9709EFAE
:1014930097191919400FFFEC97FC09ED97FD09EE19
:1014A30097FE191906D5F0BEECF709EDF709EEF72B
:1014B30009EFF7191919D0E0FCD0E0FDD0E0FED018
:1014C300E0FF226016080808C6C313C618C613C671
:1014D30018C613C618C613C6D5E0EA227009080851
:1014E30008226016181818C6C333C608C633C608C0
:1014F300C633C608C633C6D5E0EA22E627F608098E
:10150300E637F60809E637F60809E637F622E02655
:10151300F608A3E036F608A3E036F608A3E036F6AD
:1015230022E026F008A3E036F008A3E036F008A393
:10153300E036F022C3E697F60809E697F60809E6CF
:1015430097F60809E697F622C3E096F008A3E0961B
:10155300F008A3E096F008A3E096F022E056F60820
:10156300A3E056F608A3E056F608A3E056F622E0F9
:1015730056F008A3E056F008A3E056F008A3E0569F
:10158300F022E0F608A3E0F608A3E0F608A3E0F6ED
:1015930022E6F008A3E6F008A3E6F008A3E6F022AB
:1015A300E0FAA3E0FBA3E0FCA3E0FD22EAF0A3EB57
:1015B300F0A3ECF0A3EDF022CAC0E0E6F0A308DA52
:1015C300FAD0E0FA22CAC0E0E0A3C582CCC582C546
:1015D30083CDC583F0A3C582CCC582C583CDC58326
:1015E300DAE6D0E0CA22C3E498F8E499F912162A9D
:1015F3008026C3E49AFAE49BFBE920E7E912162A62
:10160300E498F8E499F922C3E498F8E499F91216F6
:101613002AE498F8E499F9C3E49AFAE49BFB22EBF1
:1016230020E7CFE920E7E0B90010BB0008E88AF023
:1016330084F8AAF022E4FBC8FA22EB70227B10C8DC
:1016430033C8C933C9335007C39AC3DBF280069A40
:1016530050012ADBEAC833F4C8C933F4C9FA227546
:10166300F008E4C833C8C933C933C99AC99B5004C5
:10167300C92AC93BD5F0ECFBC833F4C8E4C9FA2244
:10168300600D08C6A2E713C618C613C6D5E0F32239
:10169300600C08C6C313C618C613C6D5E0F422707F
:1016A3000422600D18C6C333C608C633C6D5E0F49A
:1016B3001822251810AF08F518400215198008F5EF
:1016C3001840021519D2AF22C0D0251810AF08F563
:1016D30018500205198008F51850020519D2AFD029
:1016E300D0222518F58210AF08F51840021519808D
:1016F30008F51840021519D2AF851983222518F56C
:1017030082E43519F58322E4732518C582C0E0E528
:101713001934FFC583C0E0E518C3958224F810AFE0
:10172300088583198582188008858319858218D2D4
:10173300AFCEF0A3E520F0A37808E608F0A3DEFA25
:10174300EFF0A3E58124FAF8E608F0A3E608F0A396
:10175300E608F0A30808E608F0A3E608F0A315815D
:101763001581D0E0FED0E0F8158115811581E8C020
:10177300E0EEC0E0222518C582C0E0E51934FFC5BC
:1017830083C0E0E518C3958224F910AF0885831957
:101793008582188008858319858218D2AFCEF0A37D
:1017A300E520F0A37808E608F0A3DEFAEFF0A3E55E
:1017B3008124FBF8E608F0A3E608F0A30808E6088E
:1017C300F0A3E608F0A315811581D0E0FED0E0F880
:1017D30015811581E8C0E0EEC0E0228519838518E4
:1017E30082E0A3FEE0A3F5207808E0A3F608DFFA81
:1017F300E0A3FFE0A3C0E0E0A3C0E0E0A3C0E0E01B
:10180300A3C0E0E0A3C0E010AF0885821885831968
:101813008008858218858319D2AFD083D0820201D4
:1018230035851983851882E0A3FEE0A3F5207808A7
:10183300E0A3F608DFFAE0A3FFE0A3C0E0E0A3C063
:10184300E0E0A3C0E0E0A3C0E010AF088582188504
:1018530083198008858218858319D2AFD083D082FB
:1018630022C0D02518C582C0E0E51934FFC583C066
:10187300E0E518C3958224F310AF088583198582A8
:10188300188008858319858218D2AFC8F0A3E9F0C0
:10189300A3EAF0A3EBF0A37908E709F0A3D8FAECE5
:1018A300F0A3EDF0A3EEF0A3EFF0A3D0E0F0A3D00C
:1018B300E0F0A3D0E0F0A3E520F0A3E5F0F0A3224D
:1018C300851983851882E0C0E0A3E0F9A3E0FAA3B9
:1018D300E0FBA37808E0F608A3DFFAE0FCA3E0FD51
:1018E300A3E0FEA3E0FFA3E0C0E0A3E0C0E0A3E029
:1018F300F5D0A3E0F520A3E0A3F5F010AF088583AE
:10190300198582188008858319858218D2AFD08201
:10191300D083D0E0F8D0E0327404800674028002F1
:101923007401C0E0F4041216E5D0E01215BB227472
:1019330004800474028000CCC0E0EDC0E0E518C36D
:101943009CCCAD1950011D10AF068C188D19800663
:101953008C188D19D2AF1215C8D0E0FDD0E0FC224F
:10196300D083D082E9C0E0E493A3C386F0C5F095A9
:10197300F0F908E493A386F0C5F095F0700BE493B7
:10198300A3C3994005E9048002A3E475F002A425EA
:1019930082F582E5F03583F583D0E0F9E493A3C0C3
:1019A300E0E493C0E022D083D082ECC0E0EDC0E05D
:1019B300E493A3FCE493A3FDED4C600D1219F5EC45
:1019C30024FFFCED34FFFD80EFE493A3FCE493A339
:1019D300FDED4C600D121A34EC24FFFCED34FFFDD9
:1019E30080EFD0E0FDD0E0FCE493A3C0E0E493C03B
:1019F300E022C0E0C3E49396087401939618400F65
:101A0300E49366700808740193661870007019A354
:101A1300A3C3E49396087401939618A3A3400DD02F
:101A2300E0D0E0D0E00219E5A3A3A3A3A3A3D0E0F1
:101A330022C0E0C0F088F0E4936670080874019354
:101A430066187000A8F0A3A3700BD0F0D0E0D0E02C
:0C1A5300D0E00219E5A3A3D0F0D0E022FF
:101A6000C0E074F2121864A2AFE433FED2AFC2C079
:101A7000E5D1A2E4500653D1EF12070A751A00EE21
:101A8000A2E092AF7F010218C3C0E0C0D0E8C0E07E
:101A9000E5A8D2AFC2C7751A00A2E792AFD0E0F8AE
:101AA000D0D0D0E032C0E0C0D0E8C0E0C082C08377
:101AB000E5A8F8D2AF758900C2C59003B77401F0EC
:101AC000751A00E8A2E792AFD083D082D0E0F8D0B8
:101AD000D0D0E032C0E0C0D0E8C0E0E9C0E0C0084B
:101AE000C009C082C083A2AFE433F9D2AF90053BF6
:101AF000E0F8A3E0687008539AFBA374018026C243
:101B0000E990053BE0F50874012508F074BB250851
:101B1000F58274043400F583E0F5C190053BE0C321
:101B200094804002E4F0E9A2E092AFD083D082D06A
:101B300009D008D0E0F9809474F5121778EAFEEB2A
:101B4000FFEE2434F8EF3400F988088909EE2435D3
:101B5000F582EF3400F583E0F8EE2437F582EF34B8
:101B600000F583E0F50AEC850AF0A4FCAAF0850AEA
:101B7000F0EDA42AFDE82CF8E43DF97A257B00126B
:101B8000162AEA850882850983F05407F87401B89B
:101B900000028004C333D8FCC0E0E0131313541FC9
:101BA000F8EE28F8EF3400F9E8245DF582E9340016
:101BB000F583D0E0F8E0586008EE2434F582EF8039
:101BC0001EEE2436F582EF3400F583E0F5F0EA846A
:101BD000A8F0EE28F8EF3400F9E82438F582E9346B
:101BE00000F583E0F97F0402182474F5121778EAEF
:101BF000FEEBFFEE2434F582EF3400F583E0C0E025
:101C0000EE2435F582EF3400F583D0E0F08E828F3C
:101C100083A3A3A3A3A3A3A3C082C0838E828F8325
:101C2000A3A3A3A3A3E0F8A3E0F9D083D082E0C3E9
:101C300098F508A3E099F509EE2480F582EF3400C9
:101C4000F583E064017069EE2481F582EF3400F5DC
:101C500083E0F8A3E0F98E828F83A3A3A3A3A3A3B9
:101C6000A3E0FCA3E0FD8E828F83A3A3A3A3A3E044
:101C7000FAA3E0FBC3EA9CEB9D5027C3EC98ED99D7
:101C8000402EC3EA98EB9950277C917D08EEFAEF3D
:101C9000FB120F62EE2480F582EF3400F583E4F04E
:101CA000800EC3EA98EB9940E0C3EC98ED9950D9C7
:101CB000EE2434F8EF3400F9E8FCE9FDEE2435F5C4
:101CC00082EF3400F583E0F8EE2437F582EF34003C
:101CD000F583E0F50AE508850AF0A4F508AAF08581
:101CE0000AF0E509A42AF509E82508F8E43509F918
:101CF0007A257B0012162AEA8C828D83F05407F82D
:101D00007401B800028004C333D8FCC0E0E01313B0
:101D100013541FF8EE28F8EF3400F9E8245DF5823B
:101D2000E93400F583D0E0F8E0586008EE2434F59B
:101D300082EF801EEE2436F582EF3400F583E0F565
:101D4000F0EA84A8F0EE28F8EF3400F9E82438F53A
:101D500082E93400F583E0F91225E5021BE5C08233
:101D6000C083851882851983E0F8A3E0F9C3EA9C53
:101D7000EB9D5012C3EC98ED994019C3EA98EB998A
:101D8000501279018010C3EA98EB9940F5C3EC98A2
:101D9000ED9950EE7900D083D08222EAC39CFAEB11
:101DA0009DFB22008521878522C622C0E0C0D0E8A5
:101DB000C0E0E9C0E0EAC0E0EBC0E0ECC0E0EDC0AC
:101DC000E0C008C009C00AC00BC082C083C0F07563
:101DD0009B00906182E0A2E64003021E89E591A289
:101DE000E64003021E897591BF900756E0640570B6
:101DF0000812109A1210A680031210A0752100126A
:101E00001100E9900757F079001210F4120ED87AF9
:101E1000017B00900755E0F9120422907803E064FA
:101E2000426003021ED29008F3E014F06003021E29
:101E3000D2C2AF121E3600782AD0E0F618D0E0F6F3
:101E4000E59F5407F970059083C080039083BC78A8
:101E500008121585E9C4C0E07829E65508F5080898
:101E6000E65509F509740B7808121693D0E0250899
:101E7000F8906270E0A2E740F8E8C333906272F035
:101E8000906270E0D2E0F08049E0A2E55024E59154
:101E9000A2E5501E7591DF900756E0640D70139017
:101EA0000778E004F064287002E4F07A00E0F912A8
:101EB0001172906181E0A2E35009E5E9A2E35003C9
:101EC00075E9F7A3E0A2E75009E591A2E750037591
:101ED000917FD0F0D083D082D00BD00AD009D00827
:101EE000D0E0FDD0E0FCD0E0FBD0E0FAD0E0F9D0CB
:101EF000E0F8D0D0D0E032C0E0C0D0C082C0839043
:101F00006183E0A2E05009E5BFA2E0500375BFFE87
:101F1000E0A2E15009E5BFA2E1500375BFFDE0A2D8
:101F2000E25009E5BFA2E2500375BFFBE0A2E35017
:101F300009E5BFA2E3500375BFF7E0A2E45009E54D
:101F4000BFA2E4500375BFEFE0A2E55009E5BFA2D0
:101F5000E5500375BFDFE0A2E65009E5BFA2E650F9
:101F60000375BFBFD083D0828088C0E0C0D0E8C0F6
:101F7000E0E9C0E0EAC0E0EBC0E0ECC0E0EDC0E0CA
:101F8000C0F0E5A7A2E6500FE5A1A2E6500953A7CD
:101F9000BF75A1BF121FCFE5A7A2E5500CE5A1A216
:101FA000E5500653A7DF75A1DFE5A7A2E15009E5DB
:101FB000A1A2E1500375A1FDE5A7A2E2500CE5A1A5
:101FC000A2E2500653A7FB75A1FBD0F0021EE074FD
:101FD000F8121778752101900756E0640670151203
:101FE000102E8A828B83A3A3A3A3A3A3E0FAA3E06A
:101FF000FB121088A2AFE433FED2AF90075CE0641E
:102000000170187A207B00900755E0F91204C47A19
:10201000207B00900755E0F9120428906182E0D2FD
:10202000E6F09008F2E0602185C622801690075BFA
:10203000E064017008E5C654F84405F5C653BEFCDB
:10204000121DA47401652160E4EEA2E092AF7F014D
:10205000021824008E238F248582288583278518E3
:1020600082851983E0CEA3E0CF852882852783EB84
:10207000C9EAC8EDCBECCA75F010C3E833C8E93340
:10208000C9EA33CAEB33CBC3EA9EF526EB9FF525AD
:10209000B35004AB25AA26EC33CCED33CDD5F0DA22
:1020A000AE23AF242274EB12177874FA1216B58A95
:1020B000088B098C148D15900756E024F7C39405FE
:1020C000500690843402220712102E8A0A8B0BAE1F
:1020D0000AAF0BEE4F7003022204AC08AD0985185D
:1020E00082851983AA82AB831210B88E828F83A354
:1020F000A37808121585908400780812155F85185A
:1021000082851983780C121585908400780C12153D
:102110005F7808790C121397501F7808790C121504
:10212000379083FC78081213B7404785081085095B
:1021300011850A12850B138041850C10850D1185C0
:102140000E12850F13781079081215379083FC78DA
:10215000101213B7501C7510007511007512007520
:1021600013017810790C121537781079081214FEC3
:102170008008908434781012158574097810121430
:10218000DF908404780812158578107908121456A7
:102190008E828F83A3A3A3A3A3A3E0F8A3E0F97A7D
:1021A000D07B0312162A88088909E4F50AF50B7812
:1021B0001079081214FE7404121700E0F8A3E0F975
:1021C0007AD07B0312162AE8FA8A08E4F509781017
:1021D000790812139750077810790812153790076D
:1021E00056E06408600AE064066005E06405701C5F
:1021F00090840878101213B7501290840C78101243
:10220000151180089083F878101215858514828541
:102210001583781012159474061216CB7F0E0218CF
:102220002474F71217781210CA9008F0E064017055
:1022300010906245E4F0A3F053F4F343FE0C539086
:10224000F3121076E5C654804449F5C6E59E547FE6
:10225000644970F8906185740FF09008EEE0F470B6
:1022600002A3E0604E9008EFE0600814601B146069
:102270002E80407508017509009008EEE07808127C
:1022800016A2E508F45280802A75080175090090AD
:1022900008EEE078081216A2E508F4529080147552
:1022A00008017509009008EEE078081216A2E5080A
:1022B000F452A079007F0202182474F7121778E90B
:1022C000FEEAFF74016E700C7A807B00900755E087
:1022D000F91204229025F4E493F46008E493F912CF
:1022E0000ECC800953C680E59E547F70FA12107C94
:1022F0009008F0E064017003120EE49008EEE0F440
:102300007002A3E0604B9008EFE0600814601A14BC
:10231000602C803D7508017509009008EEE0780892
:102320001216A2E508428080287508017509009000
:1023300008EEE078081216A2E508429080137508AE
:10234000017509009008EEE078081216A2E508422F
:10235000A01210CA12102E8A088B09A808A909E831
:10236000496015E5E170FCE82414F582E93400F5D4
:1023700083E0F46003E0F5E174016F700A7A019084
:102380000755E0F912048E0222B574F11217788A0B
:10239000088B098C0A8D0B740F121700780C12151C
:1023A00085908400780812155F908400780C1215CF
:1023B0005F7808790C12139750157808790C12156C
:1023C000379083FC78081213B74015790180137891
:1023D0000C79081215379083FC780C1213B740EB78
:1023E00079007F0802182474ED1217788A088B0987
:1023F0008C0A8D0B7413121700780C1215859084BB
:1024000000780812155F908400780C12155F780C24
:10241000790812139740117808790C121537AA0819
:10242000AB09AC0AAD0B8022751000751100751256
:10243000007513017810790C12153778107908128D
:1024400014FEAA10AB11AC12AD137F0C021824902D
:10245000840078081215858A828B83780812157299
:102460007F0402182474F51217788C828D83780803
:102470001215858A828B83780812154BEA2404F89A
:10248000EB3400F98C828D83A3A3A3A3E0FCA3E02B
:10249000FD88828983C3E09CF0A3E09DF088828957
:1024A00083C3E09420A3E0944E40229084507808A7
:1024B0001215858A828B8378081215248A828B8371
:1024C000A3A3A3A3E02420F0A3E0344EF080807403
:1024D000F5121778E9FE9008A8E0FAA3E0FBEEC336
:1024E00033F8E433F9748F28F582748239F583E088
:1024F0002AF508A3E03BF509780812191F9083D448
:102500001215A312205474021216CB8A088B098C60
:102510000A8D0B741078081214C6AA08AB097F0440
:1025200002182474F11217788A0C8B0D8C0E8D0F03
:10253000740F121700E0FAA3E0FB7411121700E009
:10254000F508A3E0F5097413121700E0FEA3E0FFFD
:10255000780812191FEA2401F508EB3400F509E4A4
:10256000F50AF50B780C79081213D690841C7808BC
:10257000121585780C79081213D6AA0CAB0DAC0E87
:10258000AD0F12205474021216CB8B09EA45096074
:10259000047A0180027A00EC2AFCED3400FDECF8AC
:1025A000EDF97A717B0212162A88088909E4F50A86
:1025B000F50B8E828F837808121594ECF8EDF97A7A
:1025C000717B0212162A8A088B0974057808121684
:1025D000A28E828F83A3A3A3A3E508F0A3E509F04D
:1025E0007F08021824C082C083E9906000F0D08385
:0325F000D0822274
:1025F400FFFFFFFFFFFFFFFFC082C083E9900D21B3
:10260400F002288074F712170CE9900674F07CAC81
:102614007D067AFF7BFF120C0290067574FFF0A30F
:10262400F0A3E4F0A3F07905120B8A900674E0F9A4
:10263400120AB27A207B0C120DE202358E74F41267
:10264400170C8A088B09EB54806030900674E0F90B
:1026540012040A8A0A8B0BAE0AAF0BEE4F60138E7C
:10266400828F83E064B07003120BA2EEFAEFFB12C8
:1026740003F8AA08E5096480FB80047A007B000261
:10268400284F74F212170C74FC1216B5EAFEEBFF15
:102694007412121700123A75EE4F70030227297450
:1026A40002121700EEF0A3EF122A8AECF0A3ED1247
:1026B4002A8AAA82AB83120AACE9F50A706AE50891
:1026C400450960648E828F83123A5BEE4F60567ABE
:1026D400067B001204768A0C8B0DA80CA90DE84920
:1026E4007005750A13804188828983E4122736EEC7
:1026F400F0A3EF123A86E508F0A3E509F090067A14
:102704001227BD90067A7005123538801B123526C3
:102714008003EAFCEBFD8C828D831227BD70F38C61
:10272400828D8380E3750A02A90A74041216CB020F
:102734003C75F0A3123A2CA32274F212170C890AE6
:10274400E975F017A4FEAFF0900679E4F0900677EF
:102754001227BD600A12047C900677E4F0A3F0EE21
:10276400FAEFFB1204768A088B09EA4509602FEE1A
:10277400FCEFFD79001203E0900677E508F0A3E58D
:1027840009F07B0080081227A7E4F0A3F00BEBC349
:10279400950A40F2E50A900679F0790080027913EF
:1027A400023C75EB75F017A4F8A9F0900677E028C1
:1027B400FAA3E0398A82F583221231CAEA4B2274E1
:1027C400F412170C740C121700123A50FEE9FF753C
:1027D4000800750900800CE5082401F508E50934B2
:1027E40000F509C3E5089CE5099D503285080A8572
:1027F400090B7403780A1216A2EA250AF8EB350BC2
:10280400F988828983A3A3A3A3A3A312360DEE653B
:102814000A7003EF650B70BFE8FAE9FB80047A00E5
:102824007B00802774F412170C7900EAA2E0501B95
:1028340075088D750983780812191F7C047D007A48
:10284400237B0D120B8474021216CB7F040217DE55
:10285400C082C08390067A122887601C888289838C
:10286400A3A3E06A7003A3E06B8882898370E8A362
:10287400A3A3A31231C680047A007B00D083D08244
:10288400020135123D5BE8492274EE12170C74FC08
:102894001216B5EAFEEBFF851882851983E4F0A3CE
:1028A400F0EE2402123518EE2405123A33EE240415
:1028B400F50EEF122E3FE024FE603924FC6046241E
:1028C400FE605224FE605E24FE70030229A024FEF2
:1028D4007003022A0424FE7003022A1324FE7003E8
:1028E400022A2224FC7003022A3124FE7003022AE5
:1028F40040022A7D9006937417F0A3E4122A9212E0
:10290400082A022A7D851882851983AC82AD831238
:102914000BA8022A4D851882851983AC82AD8312D7
:102924000BAE022A4D850C08850D0974021217009E
:10293400AC82AD838508828509831231C6120AD020
:102944008A0C8B0DAC0CAD0DEC4D603BE4F50CF535
:102954000D780C12191F750C93750D06780C12194D
:102964001F750C94750D06780C12191F7408121734
:1029740000121936123ED71216CBE9F50C700B1261
:1029840031BC120842800F750C01850882850983C9
:10299400122A80123538850C08022A507402121744
:1029A40000AC82AD83850C82850D83122F91603C2F
:1029B400850C82850D83A3A31219367510937511A6
:1029C40006781012191F75109475110678101219D3
:1029D4001F7408121700121936123ED71216CBE9CB
:1029E400F509700B1231BC120848800F7509018576
:1029F4000C82850D83122A80123538850908804C93
:102A0400851882851983AC82AD83120BB4803A8514
:102A14001882851983AC82AD83120BBA802B85187A
:102A240082851983AC82AD83120BC0801C85188209
:102A3400851983AC82AD83120BC6800D85188285FF
:102A44001983AC82AD83120BCCE9F508E508602943
:102A54008E828F83A3E06414601F850E82850F83AA
:102A6400E0900693122A8A123D5790069412353844
:102A7400E508A3122A92120824023427123D5B852A
:102A8400188285198322F085188285198322F07CA7
:102A9400937D06850A82850B831231CA2274EE1255
:102AA400170C74FC1216B58A0A8B0B8C0E8D0FEA68
:102AB4002405F508EB3400F5097C157D0079007ACE
:102AC400937B061203E0E5082402F50CE509123AAB
:102AD40036851882851983858210858311781012B2
:102AE400191F850882850983A3A3A3A3122F881223
:102AF400191FE5082405F510E5093400F5117810CF
:102B040012191F850C82850D831232DD120ACA74D4
:102B1400061216CB8A108B11AE10AF11E50A2402EF
:102B2400F50AE50B12351BEE4F7003022C5F80177C
:102B340074021217001231C688828983EAF0A3EB6B
:102B4400F0900693E004F0900693E0C394054003EC
:102B5400022C5FE4F510F511781012191F75107C22
:102B6400751106781012191F75107D7511067810ED
:102B740012191F74061217001219367910EEFCEFA1
:102B8400FD123ED91216CBE9705E85088285098351
:102B9400A3A3A3A3A3A3A3E0F890067CE0687048D2
:102BA400122F8812191F7C7D7D06E5082408FAE59A
:102BB400093400FB1203DA74021216CBE960298E81
:102BC400828F83A3A3A3A31231C6900693E0F510CA
:102BD400740278101216A274942510F582740635C6
:102BE40011F583EAF0A3EBF074021217008582104A
:102BF400858311781012191F7402121700121936E6
:102C0400850C82850D831231EC1216CB8A108B1140
:102C1400AE10AF11900693E0F510751100740278B0
:102C2400101216A274932510F874063511F98882CF
:102C34008983A31227BD7003022B2BE82403080801
:102C440008E93400F9EE4F6003022B34888289834B
:102C540074FFF0A3F0900693E004F0900693E06014
:102C64000A1231BC1208367900800B850882850966
:102C74008312352F790A02342774EA12170C74FE72
:102C84001216B58C128D13EA2405F50CEB123EC115
:102C9400123A5F750800750900EA2402F510EB3456
:102CA40000F51185188285198385820A85830B783E
:102CB4000A12191F850C82850D83A3A3A3A3122EC8
:102CC4005512191FE50C2405F50AE50D12351B787C
:102CD4000A12191F850C82850D83122E59120ACAF5
:102CE40074061216CB8A0A8B0BEA450B7003022D6D
:102CF400FAEA2404F50EEB122E3F123A5F8A828B15
:102D040083A3A3A3E0F98510828511831231D060D7
:102D140003022DFAE4F514F515781412191F75142D
:102D24007C751506781412191F75147D75150678AF
:102D34001412191F74061217001219367913AC0AEB
:102D4400AD0B851082851183123EDF1216CBE9F597
:102D5400096003022DFA90067CE0F8E5087009E0AA
:102D64002402900694F08014900694E0FCE8240277
:102D7400FAE43400FBEA6C7001EB707E850882AAE9
:102D840082122F7F9414122F77506B850E82850F39
:102D940083E0C0E074952A122E36D0E0F005088551
:102DA4000E82850F83A3E0C0E085080A7495250A86
:102DB400122E36D0E0F0050890067C122E5512191A
:102DC4001F7C7D7D0685080A7495250A122E4912FA
:102DD40016CB90067CE02508F50874FF6E7003742A
:102DE400FF6F6012EE24010EEF3400FFE508C39478
:102DF400145003022CA7E50860131231DA851082FF
:102E04008511831231C612083C79008014E50970DB
:102E14000375090A851282851383EEF0A3EFF0A9E6
:102E24000974021216CB7F0E0217DE85080C749506
:102E3400250CF58274063400F583223400F50F85E1
:102E44000E82F58322FA74063400FB1203C874025E
:102E540022123A9522A3A3122E5F22123526FDEEEA
:102E6400FAEFFB2274EE12170C74FE1216B58C0ED8
:102E74008D0FEA2405F50CEB123A36750B0090061B
:102E840093E4F0F50AEA2402F508EB3400F509802E
:102E940044900693E0FA90067CE0F8122F7F941792
:102EA400122F77400D900693E0F87416C39890069D
:102EB4007CF0122F8812191F7C7D7D0674942AFAE7
:102EC4007406122E4C1216CB90067CE0F8900693F2
:102ED400E028F0050AE50C2416F582E50D122E3AD9
:102EE400E0F8E50AC3985074900693E0C394165032
:102EF4006BE50AC333F8E433F9E50C28FEE50D3934
:102F0400FF851882851983AC82AD838E828F8312EC
:102F14002F917008750B0112352B8050E4F510F5D4
:102F240011781012191F75107C751106781012197A
:102F34001F75107D751106781012191F740612176B
:102F4400001219367916850882850983123EDF122C
:102F540016CBE9F50B7003022E9580BB7C937D069E
:102F64008508828509831231C612084EA90B7402A2
:102F7400023429E99400C365D03322EA28F8E43402
:102F840000F9E822E0F51075110078102212341EC1
:102F94008A108B11AC10AD11EC4D2274EA12170C8F
:102FA40074FC1216B58A0C8B0D8C128D13EA240551
:102FB400F50AEB12351B750800750900E50A2402B1
:102FC400F510E50B3400F511740212170085820E1A
:102FD40085830F780E12191F850A82850B83A3A39C
:102FE400A3A3123A3B12191FE50A2405F50EE50BBB
:102FF4003400F50F780E12191F8510828511831283
:1030040035211231C0120ACA74061216CB8A0E8BED
:103014000FAE0EAF0FE50C2402F50EE50D3400F5EE
:103024000F80388882898374FFF00508122E2F746C
:10303400FFF0050890067CE0F50C750D00780C1285
:10304400191F7C7D7D0685080C7495250C122E496C
:103054001216CB90067CE02508F508EE4F60278E0B
:10306400828F83A3A3A3E0F9850E82850F83123197
:10307400D0EE2404123A33E96027850C82850D834F
:103084001231B2123538E50870030231981231DA80
:10309400850E82850F831231C612085479000231DD
:1030A400ADE4F514F515781412191F75147C751513
:1030B40006781412191F75147D75150678141219E3
:1030C4001F74081217001219367911EEFCEFFD85F2
:1030D4000E82850F83123EDF1216CBE9F509709A32
:1030E400850882AA82EA90067C7009E0240490068E
:1030F40094F08025E0F8900694E0F514E82404FCAC
:10310400E43400FDEC65147001ED7081122F7F949E
:1031140012122F774003023091850C82850D83E0D3
:10312400C0E074952A122E36D0E0F00508850C8292
:10313400850D83A3E0C0E0122E2FD0E01231F58577
:10314400820C85830D780C12191F74041217001257
:1031540019368510828511831231EC1216CB8A0C34
:103164008B0DAE0CAF0D85080C7495250CF8740608
:103174003400F9EE4F7003023027851882851983D5
:10318400E0888289831231F5A3E0C0E0122E2FD0AB
:10319400E0023035E509700375090A850A82850B5A
:1031A400831231B2123538A9097404022E27123D54
:1031B4005B851282851383227C937D06850A828532
:1031C4000B831231CA22E0FAA3E0FB221231CA12A5
:1031D4000AB8E9F50922900694E0F5F0E508849030
:1031E4000693F07C937D0622122E5F120AD6740495
:1031F40022F005088518828519832274EC12170CB5
:1032040074FE1216B58A088B098C0E8D0FEA2405FC
:10321400FEEB3400FF123408EE2418123A33EA4568
:103224000B70030232AB1233F150291232D08A10E0
:103234008B11EA4511606B7912AC0AAD0B850882DB
:103244008509831231C685108285118312170AE914
:10325400F50A7058E4F50AF50B780A12191F8E82E4
:103264008F83A3A3E0F50A780A12191FEE24031230
:103274003518780A12191F8E828F831232DD120BD1
:10328400F074061216CBE9F50A7021850C82850DBF
:1032940083E0701F8508828509831231C612085A9B
:1032A4008011750A0E8009750A018004E50A60031D
:1032B40012352B850C82850D83E060047900800231
:1032C400A90A74021216CB7F0C0217DE85188285B8
:1032D40019831231CA120BDE22123526FD850882AB
:1032E4008509831231CA2274EE12170C74FE121669
:1032F400B58A088B098C0C8D0DEA2405FEEB34008D
:10330400FF750E00123408EA450B70030233CF1226
:1033140033F1502C1232D08A0E8B0FEA450F604ADB
:103324007912AC0AAD0B8508828509831231C685F2
:103334000E82850F8312170AE9F50E60030233D259
:1033440085088285098312360DAA0AFB1233E370BD
:10335400147AFF7BFF1233E3606C88828983E50A69
:10336400F0A3E50BF0750A008007750E0E805F056B
:103374000A900679E0FAE50AC39A504AE50A75F01C
:1033840017A4FAABF088828983A3A3E02AFAA3E006
:103394003BFB8A828B83123521EC4D70D2750A1760
:1033A400750B00780A12191FEEFCEFFD1203C874A6
:1033B400021216CBEEFCEFFD8508828509831231DB
:1033C400C61208608014750E098003750E01123D43
:1033D40053850C82850D83123538A90E022F721283
:1033E4000BD28A108B11A810A911E84922E50824F0
:1033F40002F508E5093400F5098A828B83A3A3A3A7
:10340400E0A2E522851882851983AC82AD838E8281
:103414008F8312341E8A0A8B0B22E0FAA3E0FB127C
:103424000AD02274041216CB7F0A0217DE74EC123F
:10343400170C8C108D11EA2405F50CEB123A367535
:103444000F00EA2402F50AEB12351B850A82F58384
:103454001231C6123F65700302350D750E0080717E
:10346400850C82850D83E06401704F8E828F83A367
:10347400A31219368E828F83A3A3A3A3E0F512753A
:103484001300781212191FEE2405F512EF3400F51B
:1034940013781212191F1231C0120BF0740612168F
:1034A400CBE9F50F6014850C82850D83E4F0123DA1
:1034B400538510828511831235387C177D0079007D
:1034C400EEFAEFFB1203E08E828F83E4F0A3F005A3
:1034D4000E900679E0F8E50EC398501EE50E75F0DF
:1034E40017A4F8A9F0850882850983A3A3123ECB0B
:1034F400123521EC4D60030234648508828509830A
:1035040074FFF0A3F0E50F70061231C0120866A92B
:103514000F0232CBF50AEF3400F50B22A312352645
:10352400FD22E0FCA3E0228E828F83123D5B850E98
:1035340082850F83E8F0A3E9F022C082C08390065D
:1035440075E06A7003A3E06B70067A757B068004ED
:103554007A007B0002288074F712170C7F00EF7545
:10356400F003A4F8A9F0EC28F8ED39F988828983EE
:10357400E06A7003A3E06B7006E8FAE9FB800B0FC6
:10358400EFC3940240D87A007B007F010217DE74F7
:10359400F612170C123B4470067A007B008007A3D6
:1035A400A3A3A31231C6023C0574F212170CE9FE60
:1035B400740E12170012360D7410121700123A7599
:1035C4008C828D83E06402703BA3123D578882890C
:1035D40083E0F50CA3E0F9A80C7402687003742965
:1035E400697021750C02750D00780C12191F78088A
:1035F40012191F780A12191FEEF9120C147406120C
:1036040016CB80027901023C75E0F50AA3E0F50BC4
:103614002274E812170C74FB1216B5E9851882851A
:103624001983F08A168B178C0E8D0F741F121700D6
:10363400123A75742112170012360D7423121700F2
:10364400123A5F7510008C828D83A3A3A3E0A2E4D9
:10365400502A741D1217001232D68A828B83E58297
:1036640045837003023721790AAC0EAD0FAA16AB5D
:103674001712170AE9F5106003023724850E8285B4
:103684000F83E0640260030239DAA3123D57850810
:1036940082850983A3858212858313E50E2406F5AA
:1036A4000CE50F123A3688828983E0FAA3E0F9EA3E
:1036B4002400F514E439F51578141219A901000051
:1036C400280128E93607000228C0370328303700CC
:1036D40029EA38012912390229B9380329EA3804B8
:1036E400297B39DA39EE4F703E850C82850D8312C1
:1036F4003A50FAE9FB8A828B83E0850A82850B8340
:10370400123A8C12191F8A828B83A3123526FDAAC2
:1037140008AB091203C874021216CB800375100E8D
:10372400A9107405023EB975100B80F4EE4F70F7C2
:10373400850A82850B837401F0123A6585088285B7
:103744000983F07C007D00850E82850F83A3A3A3EB
:10375400A3E02401FAA3E03400FB120AD0EA4B6090
:10376400418A828B83E02402F8850A82850B83E0F8
:1037740028F0EA2404F8EB3400F988828983E08590
:103784001282851383123A9E123A8C12191F8A826E
:103794008B83123520E5082403FAE5093400FB0283
:1037A4003717850A82850B83E02404F07C047D00AE
:1037B4007900AA12AB131203E0023724EE4F600320
:1037C40002372B123A65FEA3E0FF850A82850B833C
:1037D4007404F0EE850882850983F0EF85128285F2
:1037E4001383F07403121700AC82AD83EEFAEFFB7F
:1037F400123B3270030238968A828B83A3A3123A57
:103804005B740112170085820E85830F780E1219DE
:103814001F74051217001219367CFF7DFF120AD699
:1038240074041216CB8B0FEA450F7033850C828516
:103834000D83123A3B12191F850C82850D83A31246
:1038440019367C027D007A897B8412090274041281
:1038540016CBE9700A740112170074FFF0A3F08EFE
:10386400828F83E064027034750C02750D00780C4D
:1038740012191F8E828F83123520E5082404FAE57D
:1038840009122E4C1216CB850A82850B83E0240282
:1038940080097401121700EEF0A3EFF074011217FF
:1038A40000123A4CF07401121700A3123A44A3A375
:1038B400A3F0023724EE4F600302372B850C828578
:1038C4000D83123521AA16AB17120C08850A8285BE
:1038D4000B837402F0EA850882850983F0851282DD
:1038E400851383EB80CBEE4F600302372B123A65CE
:1038F400F8A3E0F9850A82850B837402F0E8850851
:1039040082850983F0E985128285138380A3850C5F
:1039140082850D831231C61203C2EAFC8C82A8820E
:10392400C39EE49F404BE86E7001EF70047C0080FE
:103934001F851882851983E0FAEE2AFAEF3400FB1A
:10394400C3EA98EB94005003E08004EECCC39CFCE3
:10395400EC850A82850B83F08C0A750B00780A12B9
:10396400191F850C82850D83E02EFCA3E03F0237EE
:1039740012751007023724EE4F600302372B850CB3
:1039840082850D83123D57850A82850B837407F067
:1039940088828983123A44123A2CE0851282851374
:1039A40083F0E82402FAE93400FB8A828B83123A1A
:1039B40044123A7D123A4CA3123A86123A55F0E870
:1039C4002405F8E93400F988828983123A55A31250
:1039D4003A9EA30238B2741D121700123B3D7003C5
:1039E400023721123D57880C890DE8450D700302FA
:1039F40037218E108F11781012191F780A12191F8F
:103A0400780812191F7406121700E0F9AC0EAD0FF6
:103A1400AA16AB17850C82850D8312170A74061239
:103A240016CBE9F510023724F088828983A322F5A6
:103A34000CEF3400F50D22E0F50E750F00780E2220
:103A4400E085088285098322123AA522123D5BE8AB
:103A540022123AA5A3A322A3A3A3A3E0FEA3E0FFFB
:103A640022850C82850D83E0F8A3E0F5838882E04B
:103A740022E0F508A3E0F50922A3A3F08A828B8350
:103A8400A322122738A3A322F08A828B83123A95A9
:103A940022E0F50A750B00780A22123A2C123AA594
:103AA40022E0850882850983A3A32274EE12170CF1
:103AB40074FE1216B58A0A8B0BECFAEDFB74141221
:103AC4001700E0F510A3E0F5117416121700E0FEDC
:103AD4007418121700E0F50EA3E0F50F851882851F
:103AE4001983AC82AD83123B32603E8518828519FE
:103AF40083123B3D602FA3A3123A75E50845096084
:103B040024780E12191F781012191FEEF9AC0CAD9F
:103B14000DAA0AAB0B85088285098312170A74045F
:103B24001216CB8006790E80027901022F72120AD6
:103B3400D08A0C8B0DEA450D221231CA123B442265
:103B4400120B9C8A828B83E58245832274F61217BA
:103B54000C74FE1216B5740C121700123A50851824
:103B640082851983F07401121700E9F0E4F508F571
:103B740009780812191F750802780812191F7404AD
:103B8400121700858208858309780812191F120B01
:103B9400F074061216CB74021216CB806474F712FA
:103BA400170CEAFEEBFF89087CAC7D06120C08EAD0
:103BB4005402600BA908EEFAEFFB120AC4800279E2
:103BC4000102358E74F612170C74FF6A700374FFC9
:103BD4006B701C7B00EB75F003A4F8A9F0EC28F8DB
:103BE400ED39F9123C0A0BEBC39402501480E6122F
:103BF4000BD88A088B09A808A909E8496003123C74
:103C04000A7F020217DE8882898374FF122736E452
:103C1400F02274F612170C120BD88A828B83E58279
:103C240045836006A3A3E0FA80027A007B0080D17A
:103C340074F212170C8A088B09ECFEEDFF740E1255
:103C44001700E0F50A123C7A701CEEFCEFFD7AFFD7
:103C54007BFF123C7A70047911801688828983E58F
:103C640008F0A3E509F088828983A3A3E50AF07923
:103C7400007F060217DE120BD88A0C8B0DA80CA944
:103C84000DE8492274EE12170CEAFEEBFF8C088D46
:103C940009890C7412121700123D5774141217007C
:103CA40012352174161217001231C6750D00EC4D31
:103CB4006003023D4B7402650C6003023D4688823A
:103CC4008983123526F9EC2400F50EE439F50FEA60
:103CD400F4F8EBF4F9EC58F8E50F59F9E849705D9C
:103CE400E5082406F8E5093400F9880A890B888276
:103CF400F583122E5B120C088A108B11E50E6510E9
:103D04007004E50F65116042780E12191F850A824E
:103D1400850B83122E5B120C0E74021216CBE9F57E
:103D24000D7027780E12191F850882850983A3A3B5
:103D3400122E59120C2674021216CB800D750D80AA
:103D44008008750D0D8003750D0BA90D02342C8EA2
:103D5400828F83123D5B22E0F8A3E0F92274E8121B
:103D6400170C74E71216B5851882851983EAF0A337
:103D7400EBF08C168D17890E7431121700E0F512D2
:103D8400A3E0F5137433121700E0F514A3E0F5155E
:103D94007435121700E0F50F750800750900E50980
:103DA40075F003A4F8A9F0851882851983123ECB17
:103DB400E0F47003A3E0F47003023EA9EE2402F5DC
:103DC4000CEF123EC1E07003023EA985160A851766
:103DD4000B780A12191FAC14AD15AA12AB13120BEF
:103DE4009074021216CB8A0A8B0BEA450B700302FD
:103DF4003EA9E4F510F511781012191F7406121774
:103E040000858210858311781012191F7409121706
:103E140000858210858311781012191F85128285FE
:103E24001383A3A3A3A31219367914AC0AAD0B8E82
:103E3400828F83123EDF1216CBE97069850A828570
:103E44000B83A3A3A3A3123D5774021217001235C8
:103E540038850C82850D83E0A2E05018A90E740207
:103E6400121700AC82AD838E828F831231C6120A80
:103E7400E8E94208850C82850D83E0A2E15026E53D
:103E84000FF50A780A121923A90E7403121700AC4D
:103E940082AD838E828F831231C6120AE2740112BC
:103EA40016CBE942080509E509C394025003023D13
:103EB400A2A90874191216CB7F100217DE3400F57C
:103EC4000D850C82F58322E028FEA3E039FF8E8263
:103ED4008F83227916850A82850B831231CA120BCD
:103EE400EA74082274F212170CEAFEEBFF890B74D1
:103EF40001650B600E7402650B70637901120E008C
:103F0400E9705BEEFAEFFB123F656047750A0080CB
:103F14000B7C177D0079001203E0050A900679E016
:103F2400F8E50AC3985021E50A75F017A4F8A9F03A
:103F3400850882850983A3A3E028FAA3E039FB8AD4
:103F4400828B8312288770C985088285098374FF50
:103F5400F0A3F07CAC7D06EEFAEFFB120C02023CFF
:103F640075120BD28A088B09EA45092274F21217DA
:103F74000C8A088B09ECFEEDFF740E121700123642
:103F84000D900D21E0F4603D7A097B001203F2EA02
:103F94004B60328A828B8374B1F0A3E4123A7FA31C
:103FA400123A7DA3E508F0A3E509123FCCEEF0A395
:103FB400EF123FCCA3A3E50AF0A3E50BF0900D218B
:103FC400E0F91203FE023C75F08A828B83A3A3A35B
:103FD400A3A322C082C0839061907404F0A37448A8
:103FE400F0A37402F09061807440F09061BC74039B
:103FF400F09061877419F0906265741BF090619C75
:10400400740DF090619A7433F0A37455F09061A02C
:10401400743AF09008F0E064017009C29190075A74
:104024007467800590075A7461F09025FAE49390C0
:104034006186F09025F4E493F46027E493540FF838
:10404400906185E0686012E5C654804449F5C6E590
:104054009E547F644970F8E8F053C680E59E547F0F
:1040640070FA7905121154024219C082C083E954CE
:104074000FF9906185E0696012E5C654804449F502
:10408400C6E59E547F644970F8E9F053C680E59E06
:10409400547F70FA024219C082C083E5A8F853A87D
:1040A4007E906181E4F0A3F0A3F0C2BA539AFEC2F9
:1040B40089759B00C2C275E90075910075BF0075D2
:1040C400A91175B905906181F0A374C0F0A3E4F05F
:1040D400D2BA439A0174805842A8024219C082C0DD
:1040E4008374F81216B5900758E0F8A3E0F9E8498C
:1040F400700302420F900758E0544060237908850A
:104104001882851983AA82AB83120FBC8518828515
:104114001983AA82AB83120C92900758E054BFF023
:10412400E054806010790C7A147B09120FBC90075C
:1041340058E0547FF0E0A2E0503190619A7433F07B
:10414400A37455F09061A0743AF09008F0E0640113
:104154007009C29190075A7467800590075A746178
:10416400F0120C98900758E054FEF0E054026031CD
:1041740090619A743FF0A3745AF09061A0747FF038
:104184009008F0E064017009D29190075A7471802C
:104194000590075A746AF0120C98900758E054FD81
:1041A400F0E0540460139025F8E493906186F012D3
:1041B4000C9E900758E054FBF0E0540860139025DF
:1041C400F9E493906186F0120C9E900758E054F73E
:1041D400F0E0541060139025FAE493906186F01295
:1041E4000C9E900758E054EFF0E05420600A120C43
:1041F4009E900758E054DFF0A3E05401600D120EC6
:10420400E4120CA4900759E054FEF074081216CB83
:104214008003F0A3F0D083D08202013574EC12172E
:104224000C74F41216B5851882851983AC82AD839B
:104234007583837582EC74041215C89025F893F481
:1042440060030243AD907808E0C394025003024334
:104254008D7404121700AC82AD8375838375824E0E
:1042640074081215C885188285198385821285837E
:10427400137404121700AC82AD83750EFF750FFF23
:104284007FFF7E00750C48750D78801574086E707C
:104294000302432074096E7003024320740A6E60A3
:1042A4007B850C82850D8378081215858C828D831D
:1042B400A909E50AC9F88810741878081214C6E523
:1042C400104508F8C3E098A3E099850C82850D8316
:1042D400780812158540188C828D8374187808121A
:1042E40014C6E5104508F8E0C398F8A3E0801C74F0
:1042F4001878081214C6E5104508FAE9FB8C828D7B
:1043040083E0F8A3E0F9EAC398F8EB99F9C3E895D8
:104314000EE9950F5006880E890FEEFF0EE50C246A
:1043240004F50CE50D3400F50DEEC39413500302AF
:10433400429074FF650E700474FF650F60238F084C
:10434400740278081216A274482508F58274783528
:1043540009F5837808121585851282851383E5088B
:10436400F0EC24020C0CED3400FD851282851383DD
:10437400A3858212858313740C121700E5826C7076
:1043840003E5836D600302427E75080175090078B8
:104394000812191F7402121700AC82AD837A7E7B57
:1043A4000912063274021216CB740C1216CB7F0C4F
:1043B4000217DEC082C0839061AE7468F0A3746A91
:1043C400F090624574FBF0A304F053F4FD43FE0245
:1043D4009008F07401F09061A0E0643A90619A70E2
:1043E400237433F0A37455F09061A0743AF074010F
:1043F40064017009C29190075A7467802890075A23
:1044040074618021743FF0A3745AF09061A0747FAA
:10441400F0740164017009D29190075A7471800597
:1044240090075A746A0242187F040217DEC082C0E1
:10443400839008A2E06401700A9008A7E060047900
:104444000C80027900024219C082C08375E1F190A8
:1044540008A5E0605514600814605914605180592F
:10446400120EF690089BE0F97A9C7B081210D69005
:1044740083E01215A312110C9084401215A312109C
:10448400E29008A6E0F91210EE79011211489008A2
:1044940099E02416F8A3E03400F988828983740E25
:1044A400F0A3740FF07900024219120EFC80B412CA
:1044B4000F0280AF120F0880AA791280EA74F412F6
:1044C400170C75D90D90088AE0A2E0E4331313F8B1
:1044D40090089BE0C4333354C0484401F5D978991B
:1044E400790888828983A3A3A3E0F5D98882898384
:1044F400A3A882A983E8649F7003E9640870E37841
:104504008A790888828983A3E0F5D988828983A37C
:10451400A882A983E864907003E9640870E575E1F2
:104524009590088AE0F97A8B7B081210DC900D4391
:1045340074A2F0A3740EF0A37404F0A37410F0A397
:104544007404F0A37410F0A37404F0A37410F0A323
:1045540074A8F0A3740EF0A37404F0A37410F0A371
:1045640074C0F0A3740EF0900D517404F0A3741091
:10457400F0A37404F0A37410F0A37404F0A37410F3
:10458400F0A37404F0A37410F0A37404F0A37410E3
:10459400F0A37404F0A37410F0900899E0F8A3E079
:1045A400F5838882A3A378081215859083CC7808B4
:1045B400121511908400780812155F900899E02470
:1045C4000EF8A3E03400F9888289837808121594E0
:1045D400900899E02414F8A3E03400F988828983D0
:1045E4007413F09007567402F002442CC082C08306
:1045F4009008ABE02407F5D990089BE0C43333540A
:10460400C0F5D97899790888828983A3A3A3E0F5B2
:10461400D988828983A3A882A983E8649F7003E967
:10462400640870E39008ABE0601F78997908FAE8B1
:104634002413F582E93400F583E0F5D9888289836F
:10464400A3A882A9831AEA70E69008CBE02407F5B0
:10465400D990089BE0C4333354C04404F5D9789905
:10466400790888828983A3A3A3E0F5D98882898302
:10467400A3A882A983E8649F7003E9640870E390A7
:1046840008CBE0601F78997908FAE82433F582E9C9
:104694003400F583E0F5D988828983A3A882A983AD
:1046A4001AEA70E675E195900D4374AEF0A3740EAA
:1046B400F0A37404F0A37410F0A37404F0A37410B2
:1046C400F0A37404F0A37410F0A374A8F0A3740E00
:1046D400F0A37404F0A37410F0A374C0F0A3740ED8
:1046E400F0900D517404F0A37410F0A37404F0A3BB
:1046F4007410F0A37404F0A37410F0A37404F0A372
:104704007410F0A37404F0A37410F0A37404F0A361
:104714007410F09084501215A3900899E0240EF8B8
:10472400A3E03400F9888289831215AF900899E0D8
:104734002414F8A3E03400F9888289837412F09079
:1047440007567401024218C082C0839008ABE0246B
:1047540007F5D990089BE0C4333354C04402F5D91B
:104764007899790888828983A3A3A3E0F5D98882FC
:104774008983A3A882A983E8649F7003E96408700D
:10478400E39008ABE0601F78997908FAE82413F500
:1047940082E93400F583E0F5D988828983A3A8826D
:1047A400A9831AEA70E675E195900D4374BAF0A3F3
:1047B400740EF0A374BAF0A3740EF0A374BAF0A349
:1047C400740EF0A374BAF0A3740EF0A374BAF0A339
:1047D400740EF0A374BAF0A3740EF0A374C0F0A323
:1047E400740EF0900D517404F0A37410F0A37404CB
:1047F400F0A37410F0A37404F0A37410F0A3740471
:10480400F0A37410F0A37404F0A37410F0A3740460
:10481400F0A37410F09084501215A3900899E0242A
:104824000EF8A3E03400F9888289831215AF90084A
:1048340099E02414F8A3E03400F98882898374147D
:10484400F09007567404024218C082C0839008ABEB
:10485400E02407F5D990089BE0C4333354C04406E0
:10486400F5D97899790888828983A3A3A3E0F5D937
:1048740088828983A3A882A983E8649F7003E9647A
:104884000870E39008ABE0601F78997908FAE8248F
:1048940013F582E93400F583E0F5D988828983A38E
:1048A400A882A9831AEA70E69008CBE02407F5D918
:1048B40090089BE0C4333354C04404F5D978997903
:1048C4000888828983A3A3A3E0F5D988828983A376
:1048D400A882A983E8649F7003E9640870E39008E0
:1048E400CBE0601F78997908FAE82433F582E9343B
:1048F40000F583E0F5D988828983A3A882A9831A65
:10490400EA70E675E195900D4374B4F0A3740EF06B
:10491400A37404F0A37410F0A37404F0A37410F04F
:10492400A37404F0A37410F0A37404F0A37410F03F
:10493400A37404F0A37410F0A374C0F0A3740EF075
:10494400900D517404F0A37410F0A37404F0A374D4
:1049540010F0A37404F0A37410F0A37404F0A3740F
:1049640010F0A37404F0A37410F0A37404F0A374FF
:1049740010F09084501215A3900899E0240EF8A327
:10498400E03400F9888289831215AF900899E024F5
:1049940014F8A3E03400F9888289837415F0900731
:1049A400567403024218C082C083900899E0F8A3A9
:1049B400E0F5838882A3A3A3A3A3A3E4024216740D
:1049C400F712170C900784E0F875F004A4C8AAF055
:1049D4002AF9748628F8740739F9E82405FAE934C1
:1049E40000FB8A828B83E0FCA3E0FD88828983A399
:1049F400A3A3A3A3A3A3A3A3ECF0A3EDF0888289AC
:104A040083A3A3A3A3A3A3A3E024FFF8A3E034FFF9
:104A1400F98A828B83E8F0A3E9024C6874F71217D1
:104A24000CEAFEEBFF9061D0E06003024AFD75D909
:104A34000E75D90375D904EE248CF582EF3400F594
:104A440083E5822408F8E5833400F9E0F5D9A3E886
:104A540065827003E9658370F2EE2484F582EF3495
:104A640000F583E5822404F8E5833400F9E0F5D900
:104A7400A3E865827003E9658370F275E1957908AE
:104A8400EE248CFAEF3400FB120FB07904EE248488
:104A9400FAEF3400FB120FB07C00EEF8EFF9ECFAF9
:104AA400C3E49AFA95E0FBEE2AFAEF3BFBEA248B87
:104AB400F582EB3400F583E0C0E0E824ABF582E94D
:104AC4003400F583D0E0F00C88828983A3A882A9FE
:104AD40083ECC3940840C7EE2470F582EF3400F5EC
:104AE40083E0F8A3E0F9EE2472F582EF3400F58355
:104AF400E8F0A3E9F0790180027900024C69C082F0
:104B0400C08375D90275D90375D90575E195EA2471
:104B140070F582EB3400F583E0F8A3E0F9EA24723F
:104B2400F582EB3400F583E8F0A3E9F07901024261
:104B34001974F612170CEAFEEBFF9008F47406F0F1
:104B44007508F4750908780812191F7C0179031295
:104B54000FF874021216CB75D90675D9037582F451
:104B6400758308E0F5D9A3E58264F97004E58364EC
:104B74000870F075E195900756E06408701EEE2405
:104B840070F582EF3400F583E0F8A3E0F9EE2472C7
:104B9400F582EF3400F583E8F0A3E9F07901024DE2
:104BA4003574F612170CEAFEEBFF9061D0E07066E4
:104BB40078019008F4740BF0900756E064077019BC
:104BC4007508F4750908780812191F7C0179031215
:104BD4000FF874021216CB7805740128F5D975D92B
:104BE400037582F4758308E8FAE0F5D9A31AEA702C
:104BF400F875E195EE2470F582EF3400F583E0F862
:104C0400A3E0F9EE2472F582EF3400F583E8F0A313
:104C1400E9F0790180027900024D3574F712170C1E
:104C2400EAFEEBFF75D90375D90375D90DEE24DEC1
:104C3400F582EF3400F583E0F5D975E19579041236
:104C44001112EE2470F582EF3400F583E0F8A3E04E
:104C5400F9EE2472F582EF3400F583E8F0A3E9F06D
:104C640079018001F07F010217DE74F612170CEA55
:104C7400FEEBFF9061D0E0F87480C398FAEE2483D1
:104C8400F582EF3400F583E0600478048002780054
:104C9400E8240BF8EAC3985003024D337D099008C9
:104CA400F4EDF0EE24E3F8EF3400F97AF57B087CB8
:104CB4000888828983E08A828B83F088828983A32F
:104CC400A882A9838A828B83A3AA82AB831CEC70FB
:104CD400E0EE2483F582EF3400F583E0601D75086F
:104CE400F4750908780812191F7C097903EEFAEFA4
:104CF400FB120FF874021216CB7D0D74012DF5D939
:104D040075D9037582F47583088D08E0F5D9A31568
:104D140008E50870F675E1957904121112EE241D68
:104D2400F582EF3400F583E4F0A3F0790180027991
:104D3400007F020217DE74F612170CEAFEEBFF90F6
:104D440061D0E0F87480C398FAEE2483F582EF34DE
:104D540000F583E06004780480027800E82408F811
:104D6400EAC3985003024E3A7D069008F4740CF09E
:104D7400900773E09008F5F07A747B0778F6790869
:104D84007C028A828B83E088828983F08A828B8387
:104D9400A3AA82AB8388828983A3A882A9831CECFB
:104DA40070E07A767B077C028A828B83E088828932
:104DB40083F08A828B83A3AA82AB8388828983A3AC
:104DC400A882A9831CEC70E0EE2483F582EF340002
:104DD400F583E0601D7508F4750908780812191F39
:104DE4007C067903EEFAEFFB120FF874021216CB6D
:104DF4007D0A74012DF5D975D9037582F47583087C
:104E04008D08E0F5D9A31508E50870F675E19579E4
:104E140004121112EE2470F582EF3400F583E0F8E9
:104E2400A3E0F9EE2472F582EF3400F583E8F0A3F1
:104E3400E9F0790180027900024D3574F612170CFD
:104E4400EAFEEBFF9061D0E0F87480C398FAEE2498
:104E540083F582EF3400F583E060047804800278FF
:104E640000E82404F8EAC3985003024F197802902A
:104E740008F4E8F0EE24F5F582EF3400F583E090D1
:104E840008F5F0EE2483F582EF3400F583E0601B2F
:104E94007508F4750908780812191F7C027903EE65
:104EA400FA120FF874021216CB7806740128F5D999
:104EB40075D9037582F47583088808E0F5D9A315BC
:104EC40008E50870F675E195EE2474F582EF340078
:104ED400F583E4F0EE2480F582EF3400F583E4F00A
:104EE400EE241DF582EF3400F583E4F0A3F0790499
:104EF400121112EE240DF582EF3400F583E0F8A3CD
:104F0400E0F9EE2472F582EF3400F583E8F0A3E9CA
:104F1400F0790180027900024D3574F612170C9075
:104F240061D0E0F87480C398FCEA2483F582EB3402
:104F340000F583E06004780480027800E82404F833
:104F4400ECC398405B79029008F47407F0EA24F605
:104F5400F582EB3400F583E09008F5F0EA2483F55C
:104F640082EB3400F583E060187508F4750908785D
:104F74000812191F7C0209120FF874021216CB7959
:104F840006740129F5D975D9037582F4758308E986
:104F9400F8E0F5D9A318E870F875E1957901800275
:104FA4007900024D3574F512170CE9FCA2AFE43315
:104FB400F50AC2AF7D0080010DEA246FF582EB345F
:104FC40000F583E0F8EDC398501A8D08EA2508F837
:104FD400EB3400F9E8246BF582E93400F583E06CE6
:104FE40070D68024EA246FF8EB3400F9E0FEEA2E50
:104FF400FAEB3400FBEA246BF582EB3400F583EC26
:10500400F088828983E004F0E50AA2E092AF7F038E
:105014000217DE74F612170CA2AFE433FDC2AFEA36
:10502400246FF582EB3400F583E014F07C006036E5
:105034008C08EA2508F8EB3400F9E8246CF582E9D9
:105044003400F583E0C0E0E8246BF582E93400F530
:1050540083D0E0F00CEA246FF582EB3400F583E0B2
:10506400F8ECC39840CAEA246EF582EB3400F58369
:1050740074FFF0EA246AF582EB3400F583E4F0ED82
:10508400A2E092AF024D35C082C083E5A8F8C2AF5A
:10509400EA246BF582EB3400F583E9F0EA246AF53F
:1050A40082EB3400F583E4F0E8A2E792AF02421900
:1050B40074F312170CEAFEEBFFECFAEDFB8A828B19
:1050C40083A3A3A3A3E0541FF0EE2436F582EF34A8
:1050D40000F583E4F0F50AEEFCEFFD8A828B83E0B1
:1050E400C0E0EC245DF582ED3400F583D0E0F0758A
:1050F4000B00E50A33333354F8F50C8A828B83E0D2
:10510400F508750900E50B7808121683E508A2E096
:10511400502FEE2436F8EF3400F988828983E0F5C5
:1051240008EE2508F508EF3400F509E5082438F5FC
:1051340082E5093400F583E50CF088828983E00474
:10514400F0050B050CE50BC3940840AF050A8A82F1
:105154008B83A3AA82AB838C828D83A3AC82AD8321
:10516400E50AC3940550030250DF7F050217DE747D
:10517400F712170C900782E0640170077A007B0035
:105184000252EA7E00900788E070F17401F0A3E413
:10519400F0A3F09007E804F09007EBE4F0A3F0909C
:1051A40007EE04F090078BE4F0A3F0A3F0A3F090D3
:1051B400079504F09007BBE4F09083F81215A390D0
:1051C400079E1215AF9007A2E4F0A3F0A3F0900895
:1051D40006F09007FAF09007EF7480F0A3E4F090E3
:1051E40007F5F09007EDF0900871F0A3F0A3F0A399
:1051F400F0A3F0A3F0A3F0A3F090087AF0900809CC
:10520400F0900859F0A3F09083F81215A390085B6E
:105214001215AF9083F81215A390085F1215AF9082
:105224000865E4F0900867F0900863F090087DF05A
:10523400A3F0A3F0A3F0A3F0A3F0A3F0A3F078826B
:105244007907E8246FF582E93400F58374FFF00EE2
:1052540088828983A3A882A983EEC3940440E37A55
:10526400827B077891790888828983E0C0E0EA2408
:1052740061F582EB3400F583D0E0F088828983A362
:10528400A882A9838A828B83A3AA82AB83E86496CB
:105294007003E9640870D07A827B0778697907889B
:1052A400828983A3E0C0E0EA24E7F582EB3400F5C9
:1052B40083D0E0F088828983A3A882A9838A828B21
:1052C40083A3AA82AB83E864717003E9640770CF97
:1052D400900782E004F06401700890078AE0900768
:1052E40084F07A867B07024C69C082C08390078968
:1052F400E4F0900788F0900782F0A3F0A374FFF025
:1053040075E1F1024219C082C083780079009007E8
:1053140089E060047886790788828983A3A3A3A39C
:10532400E0F902421974F612170CEAFEEBFF8E82C2
:105334008F83A3A3A3E0600F8E828F83A3A3A3E430
:10534400F0900783E014F0900782E014F070069068
:10535400078474FFF08E828F83A3A3E4F0900896F1
:10536400E0700D900783E06401700579001210F479
:10537400EE2465F582EF3400F583E0F8A3E0F9E864
:10538400496029EE2465F8EF3400F9880889098812
:1053940082F583E0FCA3E0FD900784E0FA7B001231
:1053A4000CC8850882850983E4F0A3F0EEFAEFFBCC
:1053B400121028024D3574F712170CEAFEEBFF8E1B
:1053C400828F83A3A3A3A3E0FA7B00120D0AEEFA53
:1053D400EFFB120F7A121010024C69C082C083785E
:1053E40069790788828983A3E4F088828983A3A8E2
:1053F40082A983E864717003E9640770E690076A20
:1054040002474674F612170CEAFEEBFFEC2403F88D
:10541400ED3400F988088909EC2407F8ED3400F923
:10542400E8FCE9FD8C828D83E0F8A3E0F98508822D
:10543400850983E0FAA3E0FB12162AEE240DF58217
:10544400EF3400F583E8F0A3E9F08C828D83E0F873
:10545400A3E0F9850882850983E0FAA3E0FB12162C
:105464002A8B09EA45096013EE240DF582EF340016
:10547400F583E02401F0A3E03400F0024D3574F626
:1054840012170CEAFEEBFFEE242EF582EF3400F542
:1054940083E0FCA3E0FD780079FAECFAEDFB121648
:1054A4002AEE2470F582EF3400F583E8F0A3E9F0E6
:1054B400780079FAECFAEDFB12162A8B09EA450911
:1054C4006013EE2470F582EF3400F583E02401F0DC
:1054D400A3E03400F0024D3574F012170CEAFEEB31
:1054E400FF741012170078081215851210B28A0C76
:1054F4008B0D8C0E8D0F9083C8780C12151190842F
:1055040000780C12155F780C12191B8E828F83E0C1
:10551400F8A3E0F5838882A3A31215A312238A7447
:10552400041216CBE960030256298E828F83E0248D
:1055340002F8A3E03400F9E8FAE9FB8A828B837865
:105544000812152490840078081215858A828B83AA
:105554007808121572EE240BF582EF3400F583C03F
:1055640082C0838E828F83A3A3A3A3A3E02401F824
:10557400A3E03400F9D083D082E0687003A3E0692B
:105584007005790102562B8E828F83A3A3A3A3A354
:10559400A3A3E02401F0A3E03400F0EE2474F58228
:1055A400EF3400F583E064017036EE2475F582EF84
:1055B4003400F583E0F8A3E0F98E828F83A3A3A3DC
:1055C400A3A3A3A3E0687003A3E0697013EE24759A
:1055D400F582EF3400F583E02401F0A3E03400F019
:1055E400EE2480F582EF3400F583E064017036EE3A
:1055F4002481F582EF3400F583E0F8A3E0F98E828C
:105604008F83A3A3A3A3A3A3A3E0687003A3E06968
:105614007013EE2481F582EF3400F583E02401F069
:10562400A3E03400F079007F080217DE74F7121744
:105634000C900784E0F875F004A4C8AAF02AF97461
:105644008628FE740739FF8028EE2465F8EF3400BD
:10565400F988828983E0FCA3E0FD88828983E4F0F1
:10566400A3F08E828F83A3A3A3A3E0FA7B00120C82
:10567400C8EE2465F582EF3400F583E0F8A3E0F981
:10568400E849604FEE2464F582EF3400F583E0F5D9
:10569400087808121923EE2463F582EF3400F583A9
:1056A400E0F9EE2465F582EF3400F583E0FCA3E035
:1056B400FDEEFAEFFB120FA474011216CBE9608918
:1056C400EE2465F582EF3400F583E0F8A3E0F9E811
:1056D4004970137C007D008E828F83A3A3A3A3E073
:1056E400FA7B00120CC8024C6974F212170CEAFE21
:1056F400EBFF890A740E121700E0FAEE2462F582B9
:10570400EF3400F583E0640160030257B99061D07F
:10571400E0F87480C398F50CEE2483F582EF34002E
:10572400F583E060047804800278008908E928F8A9
:10573400E43400F9E824020808E93400F9E50C9897
:10574400E499A2D265D0334068EA7005750B0280F3
:1057540003750B01E06039750900780812191F7A86
:10576400F47B08120FDA74021216CB7508F475096B
:1057740008780812191FAC0AA90BEEFAEFFB120FF6
:10578400F874021216CB7404250AF50A7CF47D0819
:105794007401250AF5D9850BD9E50A600D8C828D33
:1057A40083F8E0F5D9A318E870F875E195790080DD
:1057B400067907800279FF7F060217DEC082C08364
:1057C400E960208C828D83E08A828B83F08C828DC9
:1057D40083A3AC82AD838A828B83A3AA82AB831911
:1057E400E970E0ECFAEDFB02421974EA12170C902E
:1057F4007803E06442705E9008F3E014F07056C2DF
:10580400AF12580800782AD0E0F618D0E0F6E59FE9
:105814005407F970059083C080039083BC78081204
:105824001585E9C4C0E07829E65508F50808E65569
:1058340009F509740B7808121693D0E02508F8903E
:105844006270E0A2E740F8E8C333906272F09062BD
:1058540070E0D2E0F0900784E0F47003025C11E0A1
:10586400F875F004A4C8AAF02AF9748628FE74070F
:1058740039FFEE2402F582EF3401F583E0F8A3E06A
:10588400F9E849601EEE2402F582EF3401F583E065
:10589400FAA3E0FBEE2401F582EF3401F583E0F98D
:1058A4001204228E828F83A3A3A3A3A3A3A3E0F84D
:1058B400A3E0F98E828F83A3A3A3A3A3E8F0A3E9B3
:1058C400F0906054E090075DF0906055E090075EC2
:1058D400F0906056E090075FF0906057E0900760AA
:1058E400F0906058E0900761F0906059E090076292
:1058F400F090605AE0900763F090605BE09007647A
:10590400F090605CE0FC900765F090605DE0FB90D7
:105914000766F090605EE0FD900767F090605FE0DE
:10592400FA900768F0900763E08C082508F8E434DF
:1059340000F98D08E82508F8E93400F98B08E82512
:1059440008F8E93400F98A08E82508FAE93400FB84
:10595400EE24F7F582EF3400F583E02AF0A3E03B70
:10596400F08C08EE24F9F582EF3400F583E0250885
:10597400F0A3E03400F0EE24FBF582EF3400F5836D
:10598400E02401F0A3E03400F0EE24FFF582EF34CC
:1059940000F583E0F8A3E0F9E8496042906000E094
:1059A400C333FCE433FDE82CF582E93DF583E02ABA
:1059B400F0A3E03BF0906000E0FA900765E0FCEAB9
:1059C400C333FAE433FBE82AF8E93BF9E8244AF55F
:1059D40082E93400F583E02CF0A3E03400F0900772
:1059E40063E07011900766E0700BA3E07007A3E01A
:1059F4007003025AF18E828F83A3A3A3A3A3E0F8BA
:105A0400A3E0F9EE240DF582EF3400F583E028F8E5
:105A1400A3E039F9EE240BF582EF3400F583E8F0C6
:105A2400A3E9F0EE240FF582EF3400F583E4F0EE01
:105A3400241CF582EF3400F583E06401701EEE242B
:105A440020F582EF3400F583E0F8A3E0F9EE241D9D
:105A5400F582EF3400F583E8F0A3E9F090075EE007
:105A64006052EE241CF582EF3400F5837401F0EEED
:105A7400246AF582EF3400F583E07038EE2474F57F
:105A840082EF3400F583E0702BEE2480F582EF344E
:105A940000F583E0701EEE2420F582EF3400F583D8
:105AA400E0F8A3E0F9EE241DF582EF3400F583E875
:105AB400F0A3E9F0906062E07003025BA48E828F31
:105AC40083E0F8A3E0F9E82406FCE93400FDE824C7
:105AD40002FAE93400FB1210AC8E828F83E02412A8
:105AE400F8A3E03400F988828983025BAE900765ED
:105AF400E0603AEE240FF582EF3400F583E4F0EE33
:105B0400241CF582EF3400F583E064017040EE2438
:105B140020F582EF3400F583E0F8A3E0F9EE241DCC
:105B2400F582EF3400F583E8F0A3E98020EE24FD4C
