:020000040000FA
:0600000002011D021F4772
:03002B00021AD9DD
:03003B00021B2481
:03004300021AB0EE
:03005300021FBACF
:03006B00021AF581
:10008300021DFBE5C754F84401F5C77901220000BE
:100093000080FB120086B90003020107E47921788E
:1000A30008B800028004F709D8FCE479297802B87B
:1000B30000028004F709D8FCE490028178AB790947
:1000C3008002F0A3D8FCD9FA781A90014D7A01BACC
:1000D30000028007E493A3F608DAF9900B2BAA82B7
:1000E300AB8390014E788379038015E493A3AC82AC
:1000F300AD838A828B83F0A3AA82AB838C828D83A8
:10010300D8E9D9E77582897583FF740212012F75C7
:100113008291758300740012012F75D00075813FA1
:10012300751881751902759F00020096C09FF59F8F
:10013300E473D09F22D083D082C09FE493C0E07445
:100143000193C0E0740293F59F2201FFFF1101990F
:10015300010F126404010283840100005D84027FA5
:1001630084010000320B028D84010000330B027BFB
:1001730084030000A702026D84010000340B01E830
:1001830003053F1012446F2053796E630000000093
:1001930000000000000008415050205365742043C4
:1001A3006C6F636B0000000012446174612048654A
:1001B3006164657200000000000002446174612004
:1001C300426F647900000000000000000283840194
:1001D30000006084027F84010000640B02698403D1
:1001E30000004405027B840300004C05027D84016A
:1001F3000000650B027F84010000760B0267840216
:1002030000005205027D84010000770B027F840108
:100213000000880B0265840300005605027B8403FB
:1002230000005805027D84010000890B027F8401D0
:1002330000009A0B0263840100005E05027D8401C5
:1002430000009B0B00000000000000000000000005
:1002530000000000FF0001307503020106000000EA
:10026300000000000000000000000000000000008B
:10027300000000000000000000FFFF0600800CE803
:100283000305000A002C0101000100110941646407
:10029300696E672041312D303030303030051250D7
:1002A30000A000020A00020106050200230F184104
:1002B3006464696E672041312D3030303030300056
:1002C30000000000640064004A0800005608FF00B4
:1002D30000B4000028002800283075A000A000A06A
:1002E30000A00000080008E001F00010001000105A
:1002F30000100010001000500050005000100010BB
:1003030000D0070000000000000F000100050030CE
:100313007507001000010081FF0000FF7E0A9C0AA0
:10032300840AFF02020208025000A0000000E80352
:100333000283840100005784027F84010000030DBF
:100343000279840100008206027F84010000040D0B
:100353000277840100009806027F84010000050DE6
:100363000275840100009A06027F84010000060DD5
:10037300028B840800009B06027F84010000070DA6
:10038300027184010000080DFF0100FF2002838435
:100393000100005484027F840100006C0D026F840D
:1003A3000000000000027B84030000E806541054A0
:1003B300105410541054105410541054105410541A
:1003C30010541054105410E212FA12DC12120138B5
:1003D3001DC60212013827C60212013868C602126E
:1003E3000138B1C602120138EBC60212013841C707
:1003F3000212013862C70212013811CA021201380F
:100403001ACA021201386ECA0212013897CA0212BE
:100413000138A1CA021201380FCB021201389FCB57
:1004230002120138FACB0212013828CC0212013829
:10043300B0CC02120138EFCC0212013824CD0212E3
:10044300013836CD0212013855CD021201385ECD86
:100453000212013825CE02120138CBF702120138FD
:10046300C2F802120138DCF802120138EDF8021268
:100473000138FFFA021201381EFB0212013821AAC9
:100483000312013857AA031201388BAA0312013849
:10049300D8AB031201386AB90312013880B90312C9
:1004A30001388AB903120138D4B90312013887FF1E
:1004B300011201382AF3021201383DF30212013806
:1004C300FEF3021201383DF4021201385AF402120B
:1004D300013893F402120138E0F40212013812F5E4
:1004E3000212013849F50212013852F7021201389B
:1004F300BEF70212013816B10312013839B10312E3
:10050300013868B10312013800B20312013842B254
:100513000312013865FC0212013895FC02120138FE
:10052300A8FC02120138D7FC02120138EEFC0212B9
:1005330001389AFD0212013833FE02120138BCFE63
:1005430002120138CEB303120138DCB303120138AF
:10055300DFB3031201385AB403120138AAB40312E9
:10056300013808BC0312013806BB03120138958415
:100573000112013873860112013812880112013801
:10058300BD88011201383D8901120138C289011267
:100593000138EB8901120138C68D011201383D8EF5
:1005A30001120138548F011201388E8F0112013864
:1005B300CF8F011201381691011201386C9101128B
:1005C3000138B59101120138249201120138909239
:1005D30001120138C19201120138D9920112013876
:1005E300F29301120138029401120138B8950112F5
:1005F3000138CF9501120138019601120138A397F2
:1006030001120138379801120138AEB803120138CC
:10061300BFB8031201385FB9031201385CBB031280
:1006230001389BBB03120138E6FF01120138E5B71D
:1006330003120138F5B7031201380DB8031201385C
:10064300A1B8031201380CB60312013891B6031294
:100653000138F5B6031201388BB203120138BFB269
:1006630003120138E8B2031201385FB303120138F1
:10067300F47F001201382B910312013858910312B1
:100683000138CA9103120138DF9103120138009334
:1006930003120138839303120138FC9303120138C8
:1006A3001B94031201383E94031201387B94031206
:1006B3000138939403120138E994031201380F8D22
:1006C30003120138268D03120138A08D031201385D
:1006D300848E031201385B9003120138C090031219
:1006E3000138179103120138F87F00120138EDA782
:1006F3000312013877A903120138D8A9031201386C
:100703001EAA031201380A9903120138A59903128C
:100713000138439A031201383B9B03120138ED9BC6
:1007230003120138159C03120138239C031201386C
:10073300989C03120138AC9C03120138B69C031237
:1007430001380080031201383A80031201385780C0
:1007530003120138EC80031201384E810312013871
:100763005F82031201388F8303120138B4830312AB
:100773000138F983031201387EAF03120138D0AF79
:100783000312013843B003120138B0B00312013829
:10079300A6A503120138D0A5031201389FA60312A0
:1007A30001387BA70312013853CE021201381FCF41
:1007B3000212013860CF021201389ACF02120138B7
:1007C300F8CF021201384CD002120138AAD002121B
:1007D300013840D10212013848D202120138D2D373
:1007E3000212013870D402120138D7D40212013830
:1007F300EAD402120138DED50212013827D60212DA
:1008030001388F8D02120138C190021201385292C1
:1008130002120138A99202120138C692021201385B
:10082300469302120138C2940212013891950212C2
:100833000138FE9802120138E8990212013826ACF9
:100843000112013882AF01120138D2B0011201380E
:10085300E8B1011201382FB20112013851B301126C
:100863000138D3B301120138F6B4011201387CB751
:10087300011201384DB80112013883BA011201384F
:10088300CBAD03120138E2AD0312013811AE0312EE
:1008930001384AAE0312013872AE03120138A0AE1A
:1008A30003120138B7AE03120138CEAE031201387A
:1008B300E4AE031201380BAF031201381EAF03126B
:1008C300013834AF0312013847AF031201386CAF5C
:1008D3000312013871B30212013870B402120138E5
:1008E300A5B402120138C6B402120138D6B40212FA
:1008F3000138F7B40212013803B602120138D0B638
:100903000212013843B702120138C9B70212013883
:100913000CB80212013843B802120138C9B80212E6
:1009230001389BB902120138F9B90212013811BA20
:10093300021201388BBA021201388EBA0212013840
:1009430091BA0212013838BB0212013850BB0212AD
:10095300013880BB02120138A0BB021201388EBCE1
:100963000212013844BD0212013882EE021201382C
:10097300AAEE02120138D8EE021201380FEF02126A
:10098300013877EF02120138C0EF021201380BF081
:100993000212013849F00212013886F002120138BE
:1009A300B4F0021201385BF10212013865F1021250
:1009B300013872F102120138A5F10212013867F20F
:1009C3000212013873F2021201388BF2021201385B
:1009D30095F2021201380EB7031201381CB7031245
:1009E300013834B7031201384CB70312013842BB44
:1009F30001120138E0BB0112013858BC0112013861
:100A03006DBD01120138A7BD0112013850BE01129C
:100A1300013825BF0112013889C001120138E0C035
:100A23000112013867C1011201384EC201120138A7
:100A33009BC20112013829C3011201384DC30112AF
:100A4300013822C50112013863C50112013885C579
:100A53000112013806C601120138F0C6011201382D
:100A6300B6C701120138A6DD0212013878DE021280
:100A7300013821DF0212013864DF02120138F1DF8D
:100A8300021201387DE0021201385EE102120138E0
:100A93008DE10212013889E202120138D1E2021219
:100AA3000138D3E30212013817E4021201383DE49E
:100AB3000212013800BA03120138237C00120138F4
:100AC300397C001201385F7C00120138877D0012E7
:100AD3000138917D00120138EA7E00120138EA7F65
:100AE30000120138B2E402120138E7E502120138BC
:100AF3001AE60212013864E60212013822E80212F1
:100B03000138C66C00120138296D001201386E6E6F
:100B1300001201387E6E00120138A16E00120138F6
:100B2300EC6E00120138916F0012013887700012C9
:100B33000138517100120138C972001201380B7368
:100B430000120138A97300120138F673001201383C
:100B53001C74001201380A76001201380F76001255
:100B63000138F07700120138447800120138A67872
:100B730000120138CE780012013872790012013860
:100B8300347A00120138657A00120138687A00124B
:100B93000138B07A00120138F27A00120138597B19
:100BA3000012013850A30312013863A30312013862
:100BB3007CA303120138C7A303120138A2A40312B2
:100BC300013831A5031201387CA5031201384C26E4
:100BD30000120138582600120138912600120138FC
:100BE300D626001201388D2700120138132800126F
:100BF30001383F28001201387828001201388C2A66
:100C030000120138682C00120138532E00120138EB
:100C13008A2F00120138EA3100120138D63200124D
:100C230001381C34001201382935001201384635C9
:100C3300001201387E350012013898350012013850
:100C43000036001201389A3A001201383B3B001279
:100C530001388C3B00120138B33B00120138013CD0
:100C6300001201381F3C00120138733C0012013896
:100C73007B3D00120138033E00120138D8E902120D
:100C83000138E2E902120138ADEA02120138C8EA7A
:100C930002120138EEEA0212013832EB0212013875
:100CA3006AEB0212013893EB021201380CEC0212C8
:100CB300013821EC0212013836EC021201386DECD6
:100CC3000212013881EC02120138B2EC021201382F
:100CD300ECEC0212013818ED021201386EED02122B
:100CE3000138C2ED021201380BEE0212013835EE63
:100CF300021201385AEE021201381E95031201380E
:100D0300E89503120138CB96031201384197031279
:100D13000138839703120138B098031201387E9A81
:100D230002120138A79A02120138C09A021201383E
:100D3300059C02120138E39C02120138029D021243
:100D430001388F9D02120138D29D021201381F9F74
:100D530002120138BE9F021201383DA2021201386D
:100D6300D4A202120138A8A3021201388AA40212E3
:100D73000138F6A50212013889A602120138F7B428
:100D83000312013860B503120138B4B503120138F8
:100D9300DBB5031201386E8403120138DB840312BE
:100DA30001382685031201381B8603120138178781
:100DB30003120138018803120138AFBD0212013852
:100DC300F1BD02120138CBBE02120138A4BF0212D8
:100DD30001389FC0021201387EC102120138EAC1F4
:100DE30002120138B1C2021201381CC302120138C7
:100DF30083C302120138AEC3021201381FC40212A8
:100E03000138B2C4021201381BC50212013830C5C1
:100E13000212013878C50212013891C50212013855
:100E2300F6C502120138F9C50212013856A00312A1
:100E330001387EA003120138BCA0031201387AA145
:100E430003120138E5A10312013801A2031201388C
:100E530029A20312013859A20312013868A203120E
:100E63000138E2A20312013808A30312013869D83A
:100E73000112013846DA0112013841DC011201384E
:100E830014DD011201385FDD01120138AADD011200
:100E93000138BCDD01120138FCDD0112013831DEFD
:100EA300011201387DDE01120138ACDE0112013876
:100EB300CFDE011201381CDF01120138A5DF011258
:100EC3000138B2E1011201389DE301120138E0E378
:100ED3000112013845E50112013886E50112013896
:100EE300F9E50112013845E60112013870E60112F5
:100EF300013800A7021201382BA70212013812AEE3
:100F03000212013836B002120138F1B1021201386F
:100F13004EB3021201386A3E00120138013F00123B
:100F230001382E3F00120138743F00120138B340DC
:100F3300001201384A4200120138C442001201383B
:100F4300DF42001201385443001201388344001277
:100F53000138DE4500120138E046001201383D48F1
:100F630000120138564800120138B3480012013804
:100F7300954900120138C84900120138384A001255
:100F83000138B24A00120138014B00120138CD4B2F
:100F930000120138D24C00120138B14D0012013851
:100FA3003C4E00120138AA4E001201381E4F0012A7
:100FB3000138474F001201380650001201388051A2
:100FC300001201389D5100120138BC510012013842
:100FD3004D52001201387252001201389A52001217
:100FE30001381553001201386F5300120138C354EE
:100FF300001201388055001201385356001201388F
:101003009AE601120138EAE601120138F6E6011206
:101013000138D3E70112013803E8011201383BE834
:1010230001120138BAE801120138F2E8011201385D
:1010330044E90112013881E901120138A6EB0112DA
:101043000138D2ED01120138CDEF01120138A8F1B8
:1010530001120138F9FF01120138759801120138A4
:10106300BF98011201389E9E011201381FA0011280
:1010730001387EA60112013879A701120138B6A7FB
:1010830001120138D9A7011201381BA80112013836
:1010930024A8011201382EA8011201381AA901123D
:1010A30001380EAA01120138815600120138F96085
:1010B30000120138FF60001201380B68001201387A
:1010C300B99C031201384F9D03120138659D031229
:1010D3000138DF9D03120138359E03120138739ED8
:1010E30003120138D09E031201384D9F03120138B9
:1010F300569F03120138629F03120138759F031232
:101103000138B19F03120138C79F0312013826A08B
:1011130003120138C38803120138D088031201383F
:10112300EA880312013829890312013867890312F7
:101133000138CC8903120138E18903120138EC89A3
:1011430003120138F98903120138108A0312013896
:101153001E8A03120138298A03120138358A0312C1
:101163000138448A031201384F8A03120138728A04
:10117300031201381B8B031201382B8B0312013826
:10118300458B03120138628B031201387E8B0312E5
:101193000138A38B03120138AD8B03120138C18BC5
:1011A30003120138E08B03120138418C031201381A
:1011B300478C031201384D8C03120138538C0312F0
:1011C30001385F8C03120138928C031201380580B9
:1011D300021201388780021201383081021201386D
:1011E3007882021201388684021201386C85021259
:1011F3000138A18502120138C385021201386C86B9
:10120300021201383C880212013865880212013843
:10121300DD88021201380F89021201381C8902127B
:1012230001386789021201388B8902120138DC8B7D
:1012330002120138E68C02120138428D0212013883
:10124300EBC901120138FCCA01120138E0CB0112CB
:101253000138EACB011201380CCC0112013818CC49
:1012630001120138BCCD01120138E9CD0112013858
:10127300FFCE0112013854CF01120138A3D001125D
:10128300013878D101120138D4D1011201383FD28B
:101293000112013874D201120138B7D20112013898
:1012A30081D50112013899D5011201382AD60112CC
:1012B300013838D60112013885D60112013893D688
:1012C30001120138FFD6011201387AD70112013811
:1012D300D1D70112013869F4011201388BF40112DC
:1012E30001389CF6011201385BF90112013885FAC5
:1012F3000112013843FB011201382FFC011201389E
:1013030012AC0312013837AC03120138ADAC03122F
:10131300013889D60212013892D6021201389BD6BF
:101323000212013873D70212013824D9021201388C
:1013330054D9021201387FD902120138AFD90212EF
:101343000138DAD9021201380EDA021201383ADA18
:10135300021201387DDA02120138A8DA02120138CA
:10136300EFDA0212013844DB0212013886DB021283
:101373000138E0DB021201380BDC021201385ADCBF
:10138300021201388ADC02120138B5DC021201387C
:10139300E3DC0212013806DD0212013889BA0312B6
:1013A3000138B5BA03120138E2BA03120138ECBAB4
:1013B30003120138FCBA03120138DBBB03120138F4
:1013C300A5BB0312013832BC03120138E1FF02E06E
:1013D30066701008A3E066700A08A3E0667004084C
:1013E300A3E06622C3E7960809E7960809E796088B
:1013F30009E79622C3E09608A3E09608A3E09608BF
:10140300A3E09622C008C3E096F50808A3E096423D
:101413000808A3E096420808A3E09645087001D3A4
:10142300D00822080808EAC0E0EBC0E086F0E7A491
:10143300FA180986F0E7A42AFA180986F0E7A42A1D
:10144300FA180986F0E7A42AFA1986F0E7A4FBE55F
:10145300F02AFA190886F0E7A42BFBE5F03AFA190B
:101463000886F0E7A42BFBE5F03AFA18180986F092
:10147300E7A4C5F02BFBE43AFA1908E7C5F0C6A4C4
:1014830026F6E5F03BFBE43AFA1886F0E7A4F6E526
:10149300F00826F6E43B08F6E43A08F6D0E0FBD081
:1014A300E0FA22E4CFC0E0E4CEC0E0E4CDC0E0E463
:1014B300CCC0E075F020C3E633F608E633F608E661
:1014C30033F608E633F6181818EC33FCED33FDEE6B
:1014D30033FEEF33FFC3EC9709ED9709EE9709EF5E
:1014E30097191919400FFFEC97FC09ED97FD09EEC9
:1014F30097FE191906D5F0BEECF709EDF709EEF7DB
:1015030009EFF7191919D0E0FCD0E0FDD0E0FED0C7
:10151300E0FF226016080808C6C313C618C613C620
:1015230018C613C618C613C6D5E0EA227009080800
:1015330008226016181818C6C333C608C633C6086F
:10154300C633C608C633C6D5E0EA22E627F608093D
:10155300E637F60809E637F60809E637F622E02605
:10156300F608A3E036F608A3E036F608A3E036F65D
:1015730022E026F008A3E036F008A3E036F008A343
:10158300E036F022C3E697F60809E697F60809E67F
:1015930097F60809E697F622C3E096F008A3E096CB
:1015A300F008A3E096F008A3E096F022E056F608D0
:1015B300A3E056F608A3E056F608A3E056F622E0A9
:1015C30056F008A3E056F008A3E056F008A3E0564F
:1015D300F022E0F608A3E0F608A3E0F608A3E0F69D
:1015E30022E6F008A3E6F008A3E6F008A3E6F0225B
:1015F300E0FAA3E0FBA3E0FCA3E0FD22EAF0A3EB07
:10160300F0A3ECF0A3EDF022CAC0E0E6F0A308DA01
:10161300FAD0E0FA22CAC0E0E0A3C582CCC582C5F5
:1016230083CDC583F0A3C582CCC582C583CDC583D5
:10163300DAE6D0E0CA22C3E498F8E499F912167AFC
:101643008026C3E49AFAE49BFBE920E7E912167AC1
:10165300E498F8E499F922C3E498F8E499F91216A6
:101663007AE498F8E499F9C3E49AFAE49BFB22EB51
:1016730020E7CFE920E7E0B90010BB0008E88AF0D3
:1016830084F8AAF022E4FBC8FA22EB70227B10C88C
:1016930033C8C933C9335007C39AC3DBF280069AF0
:1016A30050012ADBEAC833F4C8C933F4C9FA2275F6
:1016B300F008E4C833C8C933C933C99AC99B500475
:1016C300C92AC93BD5F0ECFBC833F4C8E4C9FA22F4
:1016D300600D08C6A2E713C618C613C6D5E0F322E9
:1016E300600C08C6C313C618C613C6D5E0F422702F
:1016F3000422600D18C6C333C608C633C6D5E0F44A
:101703001822251810AF08F518400215198008F59E
:101713001840021519D2AF22C0D0251810AF08F512
:1017230018500205198008F51850020519D2AFD0D8
:10173300D0222518F58210AF08F51840021519803C
:1017430008F51840021519D2AF851983222518F51B
:1017530082E43519F58322E4732518C582C0E0E5D8
:101763001934FFC583C0E0E518C3958224F810AF90
:10177300088583198582188008858319858218D284
:10178300AFCEF0A3E520F0A37808E608F0A3DEFAD5
:10179300EFF0A3E58124FAF8E608F0A3E608F0A346
:1017A300E608F0A30808E608F0A3E608F0A315810D
:1017B3001581D0E0FED0E0F8158115811581E8C0D0
:1017C300E0EEC0E0222518C582C0E0E51934FFC56C
:1017D30083C0E0E518C3958224F910AF0885831907
:1017E3008582188008858319858218D2AFCEF0A32D
:1017F300E520F0A37808E608F0A3DEFAEFF0A3E50E
:101803008124FBF8E608F0A3E608F0A30808E6083D
:10181300F0A3E608F0A315811581D0E0FED0E0F82F
:1018230015811581E8C0E0EEC0E022851983851893
:1018330082E0A3FEE0A3F5207808E0A3F608DFFA30
:10184300E0A3FFE0A3C0E0E0A3C0E0E0A3C0E0E0CA
:10185300A3C0E0E0A3C0E010AF0885821885831918
:101863008008858218858319D2AFD083D082020184
:1018730035851983851882E0A3FEE0A3F520780857
:10188300E0A3F608DFFAE0A3FFE0A3C0E0E0A3C013
:10189300E0E0A3C0E0E0A3C0E010AF0885821885B4
:1018A30083198008858218858319D2AFD083D082AB
:1018B30022C0D02518C582C0E0E51934FFC583C016
:1018C300E0E518C3958224F310AF08858319858258
:1018D300188008858319858218D2AFC8F0A3E9F070
:1018E300A3EAF0A3EBF0A37908E709F0A3D8FAEC95
:1018F300F0A3EDF0A3EEF0A3EFF0A3D0E0F0A3D0BC
:10190300E0F0A3D0E0F0A3E520F0A3E5F0F0A322FC
:10191300851983851882E0C0E0A3E0F9A3E0FAA368
:10192300E0FBA37808E0F608A3DFFAE0FCA3E0FD00
:10193300A3E0FEA3E0FFA3E0C0E0A3E0C0E0A3E0D8
:10194300F5D0A3E0F520A3E0A3F5F010AF0885835D
:10195300198582188008858319858218D2AFD082B1
:10196300D083D0E0F8D0E0327404800674028002A1
:101973007401C0E0F404121735D0E012160B227480
:1019830004800474028000CCC0E0EDC0E0E518C31D
:101993009CCCAD1950011D10AF068C188D19800613
:1019A3008C188D19D2AF121618D0E0FDD0E0FC22AE
:1019B300D083D082E9C0E0E493A3C386F0C5F09559
:1019C300F0F908E493A386F0C5F095F0700BE49367
:1019D300A3C3994005E9048002A3E475F002A4259A
:1019E30082F582E5F03583F583D0E0F9E493A3C073
:1019F300E0E493C0E022D083D082ECC0E0EDC0E00D
:101A0300E493A3FCE493A3FDED4C600D121A45ECA3
:101A130024FFFCED34FFFD80EFE493A3FCE493A3E8
:101A2300FDED4C600D121A84EC24FFFCED34FFFD38
:101A330080EFD0E0FDD0E0FCE493A3C0E0E493C0EA
:101A4300E022C0E0C3E49396087401939618400F14
:101A5300E49366700808740193661870007019A304
:101A6300A3C3E49396087401939618A3A3400DD0DF
:101A7300E0D0E0D0E0021A35A3A3A3A3A3A3D0E050
:101A830022C0E0C0F088F0E4936670080874019304
:101A930066187000A8F0A3A3700BD0F0D0E0D0E0DC
:0C1AA300D0E0021A35A3A3D0F0D0E0225E
:101AB000C0E074F21218B4A2AFE433FED2AFC2C0D9
:101AC000E5D1A2E4500653D1EF12073C751A00EE9F
:101AD000A2E092AF7F01021913C0E0C0D0E8C0E0DD
:101AE000E5A8D2AFC2C7751A00A2E792AFD0E0F85E
:101AF000D0D0D0E032C0E0C0D0E8C0E0C082C08327
:101B0000E5A8F8D2AF758900C2C59003B87401F09A
:101B1000751A00E8A2E792AFD083D082D0E0F8D067
:101B2000D0D0E032C0E0C0D0E8C0E0E9C0E0C008FA
:101B3000C009C082C083A2AFE433F9D2AF90053CA4
:101B4000E0F8A3E0687008539AFBA374018026C2F2
:101B5000E990053CE0F50874012508F074BC2508FF
:101B6000F58274043400F583E0F5C190053CE0C3D0
:101B700094804002E4F0E9A2E092AFD083D082D01A
:101B800009D008D0E0F9809474F51217C8EAFEEB8A
:101B9000FFEE2434F8EF3400F988088909EE243583
:101BA000F582EF3400F583E0F8EE2437F582EF3468
:101BB00000F583E0F50AEC850AF0A4FCAAF0850A9A
:101BC000F0EDA42AFDE82CF8E43DF97A257B00121B
:101BD000167AEA850882850983F05407F87401B8FB
:101BE00000028004C333D8FCC0E0E0131313541F79
:101BF000F8EE28F8EF3400F9E8245DF582E93400C6
:101C0000F583D0E0F8E0586008EE2434F582EF80E8
:101C10001EEE2436F582EF3400F583E0F5F0EA8419
:101C2000A8F0EE28F8EF3400F9E82438F582E9341A
:101C300000F583E0F97F0402187474F51217C8EAFE
:101C4000FEEBFFEE2434F582EF3400F583E0C0E0D4
:101C5000EE2435F582EF3400F583D0E0F08E828FEC
:101C600083A3A3A3A3A3A3A3C082C0838E828F83D5
:101C7000A3A3A3A3A3E0F8A3E0F9D083D082E0C399
:101C800098F508A3E099F509EE2480F582EF340079
:101C9000F583E064017069EE2481F582EF3400F58C
:101CA00083E0F8A3E0F98E828F83A3A3A3A3A3A369
:101CB000A3E0FCA3E0FD8E828F83A3A3A3A3A3E0F4
:101CC000FAA3E0FBC3EA9CEB9D5027C3EC98ED9987
:101CD000402EC3EA98EB9950277CCD7D08EEFAEFB1
:101CE000FB120FB2EE2480F582EF3400F583E4F0AE
:101CF000800EC3EA98EB9940E0C3EC98ED9950D977
:101D0000EE2434F8EF3400F9E8FCE9FDEE2435F573
:101D100082EF3400F583E0F8EE2437F582EF3400EB
:101D2000F583E0F50AE508850AF0A4F508AAF08530
:101D30000AF0E509A42AF509E82508F8E43509F9C7
:101D40007A257B0012167AEA8C828D83F05407F88C
:101D50007401B800028004C333D8FCC0E0E0131360
:101D600013541FF8EE28F8EF3400F9E8245DF582EB
:101D7000E93400F583D0E0F8E0586008EE2434F54B
:101D800082EF801EEE2436F582EF3400F583E0F515
:101D9000F0EA84A8F0EE28F8EF3400F9E82438F5EA
:101DA00082E93400F583E0F9122635021C35C08241
:101DB000C083851882851983E0F8A3E0F9C3EA9C03
:101DC000EB9D5012C3EC98ED994019C3EA98EB993A
:101DD000501279018010C3EA98EB9940F5C3EC9852
:101DE000ED9950EE7900D083D08222EAC39CFAEBC1
:101DF0009DFB22008521878522C622C0E0C0D0E855
:101E0000C0E0E9C0E0EAC0E0EBC0E0ECC0E0EDC05B
:101E1000E0C008C009C00AC00BC082C083C0F07512
:101E20009B00906182E0A2E64003021ED9E591A2E8
:101E3000E64003021ED97591BF900792E0640570D9
:101E4000081210EA1210F680031210F07521001229
:101E50001150E9900793F07900121144120F287A7B
:101E6000017B00900791E0F9120430907803E06460
:101E7000426003021F2290092FE014F06003021F4A
:101E800022C2AF121E8600782AD0E0F618D0E0F603
:101E9000E59F5407F970059083DC80039083E07818
:101EA000081215D5E9C4C0E07829E65508F50808F8
:101EB000E65509F509740B78081216E3D0E02508F9
:101EC000F8906270E0A2E740F8E8C333906272F0E5
:101ED000906270E0D2E0F08049E0A2E55024E59104
:101EE000A2E5501E7591DF900792E0640D7013908B
:101EF00007B4E004F064287002E4F07A00E0F9121C
:101F000011C2906181E0A2E35009E5E9A2E3500328
:101F100075E9F7A3E0A2E75009E591A2E750037540
:101F2000917FD0F0D083D082D00BD00AD009D008D6
:101F3000D0E0FDD0E0FCD0E0FBD0E0FAD0E0F9D07A
:101F4000E0F8D0D0D0E032C0E0C0D0C082C08390F2
:101F50006183E0A2E05009E5BFA2E0500375BFFE37
:101F6000E0A2E15009E5BFA2E1500375BFFDE0A288
:101F7000E25009E5BFA2E2500375BFFBE0A2E350C7
:101F800009E5BFA2E3500375BFF7E0A2E45009E5FD
:101F9000BFA2E4500375BFEFE0A2E55009E5BFA280
:101FA000E5500375BFDFE0A2E65009E5BFA2E650A9
:101FB0000375BFBFD083D0828088C0E0C0D0E8C0A6
:101FC000E0E9C0E0EAC0E0EBC0E0ECC0E0EDC0E07A
:101FD000C0F0E5A7A2E6500FE5A1A2E6500953A77D
:101FE000BF75A1BF12201FE5A7A2E5500CE5A1A275
:101FF000E5500653A7DF75A1DFE5A7A2E15009E58B
:10200000A1A2E1500375A1FDE5A7A2E2500CE5A154
:10201000A2E2500653A7FB75A1FBD0F0021F30745B
:10202000F81217C8752101900792E0640670151226
:10203000107E8A828B83A3A3A3A3A3A3E0FAA3E0C9
:10204000FB1210D8A2AFE433FED2AF900798E06441
:102050000170187A207B00900791E0F91204D87A79
:10206000207B00900791E0F9120436906182E0D263
:10207000E6F090092EE0602185C622801690079731
:10208000E064017008E5C654F84405F5C653BEFC8B
:10209000121DF47401652160E4EEA2E092AF7F01AD
:1020A000021874008E238F24858228858327851843
:1020B00082851983E0CEA3E0CF852882852783EB34
:1020C000C9EAC8EDCBECCA75F010C3E833C8E933F0
:1020D000C9EA33CAEB33CBC3EA9EF526EB9FF5255D
:1020E000B35004AB25AA26EC33CCED33CDD5F0DAD2
:1020F000AE23AF242274EB1217C874FA1217058AA4
:10210000088B098C148D15900792E024F7C3940571
:10211000500690843C02225712107E8A0A8B0BAE26
:102120000AAF0BEE4F7003022254AC08AD098518BC
:1021300082851983AA82AB831211088E828F83A3B2
:10214000A378081215D59083C878081215AF8518A2
:1021500082851983780C1215D59083C8780C1215D6
:10216000AF7808790C1213E7501F7808790C121514
:10217000879084287808121407404785081085093D
:1021800011850A12850B138041850C10850D118570
:102190000E12850F1378107908121587908428780D
:1021A00010121407501C751000751100751200757F
:1021B00013017810790C1215877810790812154ED2
:1021C000800890843C78101215D574097810121587
:1021D0002F90844878081215D5781079081214A623
:1021E0008E828F83A3A3A3A3A3A3E0F8A3E0F97A2D
:1021F000D07B0312167A88088909E4F50AF50B7872
:1022000010790812154E7404121750E0F8A3E0F983
:102210007AD07B0312167AE8FA8A08E4F509781076
:1022200079081213E750077810790812158790077C
:1022300092E06408600AE064066005E06405701CD2
:1022400090844C781012140750129083AC781012BE
:10225000156180089083F478101215D58514828555
:10226000158378101215E4740612171B7F0E0218DE
:102270007474F71217C812111A90092CE0640170D7
:1022800010906245E4F0A3F053F4F343FE0C539036
:10229000F31210C6E5C654804449F5C6E59E547F46
:1022A000644970F8906185740FF090092AE0F47029
:1022B00002A3E0604E90092BE0600814601B1460DC
:1022C0002E804075080175090090092AE0780812EF
:1022D00016F2E508F45280802A750801750900900D
:1022E000092AE078081216F2E508F4529080147575
:1022F000080175090090092AE078081216F2E5082D
:10230000F452A079007F0202187474F71217C8E91A
:10231000FEEAFF74016E700C7A807B00900791E0FA
:10232000F9120430902644E493F46008E493F9121F
:102330000F1C800953C680E59E547F70FA1210CCA2
:1023400090092CE064017003120F3490092AE0F424
:102350007002A3E0604B90092BE0600814601A142F
:10236000602C803D75080175090090092AE0780805
:102370001216F2E508428080287508017509009060
:10238000092AE078081216F2E508429080137508D1
:102390000175090090092AE078081216F2E5084252
:1023A000A012111A12107E8A088B09A808A909E840
:1023B000496015E5E170FCE82414F582E93400F584
:1023C00083E0F46003E0F5E174016F700A7A019034
:1023D0000791E0F91204A202230574F11217C88ACA
:1023E000088B098C0A8D0B740F121750780C12157C
:1023F000D59083C878081215AF9083C8780C121551
:10240000AF7808790C1213E750157808790C12157B
:102410008790842878081214074015790180137872
:102420000C7908121587908428780C12140740EB59
:1024300079007F0802187474ED1217C88A088B0996
:102440008C0A8D0B7413121750780C1215D59083CB
:10245000C878081215AF9083C8780C1215AF780CA5
:1024600079081213E740117808790C121587AA0829
:10247000AB09AC0AAD0B8022751000751100751206
:10248000007513017810790C1215877810790812ED
:10249000154EAA10AB11AC12AD137F0C021874903C
:1024A00083C878081215D58A828B8378081215C2E2
:1024B0007F0402187474F51217C88C828D83780813
:1024C0001215D58A828B83780812159BEA2404F8AA
:1024D000EB3400F98C828D83A3A3A3A3E0FCA3E0DB
:1024E000FD88828983C3E09CF0A3E09DF088828907
:1024F00083C3E09420A3E0944E40229083D47808D4
:102500001215D58A828B8378081215748A828B8380
:10251000A3A3A3A3E02420F0A3E0344EF0808074B2
:10252000F51217C8E9FE9008E4E0FAA3E0FBEEC359
:1025300033F8E433F9748F28F582748239F583E037
:102540002AF508A3E03BF509780812196F90841862
:102550001215F31220A4740212171B8A088B098C1F
:102560000A8D0B74107808121516AA08AB097F049F
:1025700002187474F11217C88A0C8B0D8C0E8D0F13
:10258000740F121750E0FAA3E0FB7411121750E019
:10259000F508A3E0F5097413121750E0FEA3E0FF5D
:1025A000780812196FEA2401F508EB3400F509E404
:1025B000F50AF50B780C79081214269083E4780854
:1025C0001215D5780C7908121426AA0CAB0DAC0E96
:1025D000AD0F1220A4740212171B8B09EA45096083
:1025E000047A0180027A00EC2AFCED3400FDECF85C
:1025F000EDF97A717B0212167A88088909E4F50AE6
:10260000F50B8E828F8378081215E4ECF8EDF97AD9
:10261000717B0212167A8A088B09740578081216E3
:10262000F28E828F83A3A3A3A3E508F0A3E509F0AC
:102630007F08021874C082C083E9906000F0D083E4
:03264000D0822223
:10264400FFFFFFFFFFFFFFFFC082C083E9900D6B18
:10265400F002286B74F712175CE99006B0F07CE87E
:102664007D067AFF7BFF120C589006B174FFF0A32D
:10267400F0A3E4F0A3F07905120BE69006B0E0F9BC
:10268400120B0E7A707B0C120E3202357974F4122E
:10269400175C8A088B09EB548060309006B0E0F92F
:1026A4001204188A0A8B0BAE0AAF0BEE4F60138E1E
:1026B400828F83E064B07003120BF8EEFAEFFB1222
:1026C4000406AA08E5096480FB80047A007B000202
:1026D400283A74F212175C74FC121705EAFEEBFF39
:1026E4007412121750123A60EE4F70030227797475
:1026F40002121750EEF0A3EF122A75ECF0A3ED12BC
:102704002A75AA82AB83120B08E9F50A706AE508F8
:10271400450960648E828F83123A46EE4F60567A82
:10272400067B0012048A8A0C8B0DA80CA90DE849BB
:102734007005750A13804188828983E4122786EE26
:10274400F0A3EF123A71E508F0A3E509F09006B69C
:1027540012280D9006B67005123523801B12351110
:102764008003EAFCEBFD8C828D8312280D70F38CC0
:10277400828D8380E3750A02A90A740412171B026E
:102784003C60F0A3123A17A32274F212175C890A70
:10279400E975F017A4FEAFF09006B5E4F09006B327
:1027A40012280D600A1204909006B3E4F0A3F0EE30
:1027B400FAEFFB12048A8A088B09EA4509602FEEB6
:1027C400FCEFFD79001203EE9006B3E508F0A3E5F3
:1027D40009F07B0080081227F7E4F0A3F00BEBC3A9
:1027E400950A40F2E50A9006B5F079008002791363
:1027F400023C60EB75F017A4F8A9F09006B3E0284A
:10280400FAA3E0398A82F583221231B5EA4B2274A5
:10281400F412175C7900EAA2E0501B75086F750981
:1028240083780812196F7C047D007A6D7B0D120B7E
:10283400E0740212171B7F0402182EC082C083901A
:1028440006B6122872601C88828983A3A3E06A708A
:1028540003A3E06B8882898370E8A3A3A3A3123146
:10286400B180047A007B00D083D082020135123D0E
:1028740046E8492274EE12175C74FC121705EAFE4E
:10288400EBFF851882851983E4F0A3F0EE2402128D
:102894003503EE2405123A1EEE2404F50EEF122E33
:1028A4002AE024FE603924FC604624FE605224FEA3
:1028B400605E24FE700302298B24FE70030229EF5C
:1028C40024FE70030229FE24FE7003022A0D24FC58
:1028D4007003022A1C24FE7003022A2B022A689029
:1028E40006CF7417F0A3E4122A7D120886022A6820
:1028F400851882851983AC82AD83120BFE022A38B7
:10290400851882851983AC82AD83120C04022A389F
:10291400850C08850D097402121750AC82AD8385AD
:1029240008828509831231B1120B2C8A0C8B0DACF1
:102934000CAD0DEC4D603BE4F50CF50D780C121963
:102944006F750CCF750D06780C12196F750CD07558
:102954000D06780C12196F7408121750121986128A
:102964003D6A12171BE9F50C700B1231A712089E71
:10297400800F750C01850882850983122A6B123534
:1029840023850C08022A3B7402121750AC82AD83D3
:10299400850C82850D83122F7C603C850C82850D0D
:1029A40083A3A31219867510CF7511067810121916
:1029B4006F7510D0751106781012196F74081217FC
:1029C40050121986123D6A12171BE9F509700B1291
:1029D40031A71208A4800F750901850C82850D8327
:1029E400122A6B123523850908804C8518828519B3
:1029F40083AC82AD83120C0A803A851882851983D0
:102A0400AC82AD83120C10802B851882851983AC9F
:102A140082AD83120C16801C851882851983AC82C2
:102A2400AD83120C1C800D851882851983AC82AD90
:102A340083120C22E9F508E50860298E828F83A3AE
:102A4400E06414601F850E82850F83E09006CF1228
:102A54002A75123D429006D0123523E508A3122AA6
:102A64007D120880023412123D468518828519832E
:102A740022F085188285198322F07CCF7D06850A91
:102A840082850B831231B52274EE12175C74FC122A
:102A940017058A0A8B0B8C0E8D0FEA2405F508EBBB
:102AA4003400F5097C157D0079007ACF7B0612038A
:102AB400EEE5082402F50CE509123A218518828511
:102AC4001983858210858311781012196F85088205
:102AD400850983A3A3A3A3122F7312196FE50824F6
:102AE40005F510E5093400F511781012196F850CFD
:102AF40082850D831232C8120B26740612171B8AA4
:102B0400108B11AE10AF11E50A2402F50AE50B1281
:102B14003506EE4F7003022C4A80177402121750C8
:102B24001231B188828983EAF0A3EBF09006CFE0FA
:102B340004F09006CFE0C394054003022C4AE4F568
:102B440010F511781012196F7510B87511067810F8
:102B540012196F7510B9751106781012196F740671
:102B64001217501219867910EEFCEFFD123D6C120B
:102B7400171BE9705E850882850983A3A3A3A3A319
:102B8400A3A3E0F89006B8E0687048122F731219F6
:102B94006F7CB97D06E5082408FAE5093400FB12C8
:102BA40003E8740212171BE960298E828F83A3A3A2
:102BB400A3A31231B19006CFE0F51074027810127D
:102BC40016F274D02510F58274063511F583EAF0F7
:102BD400A3EBF074021217508582108583117810CC
:102BE40012196F7402121750121986850C82850D02
:102BF400831231D712171B8A108B11AE10AF1190AC
:102C040006CFE0F510751100740278101216F274F4
:102C1400CF2510F874063511F988828983A3122808
:102C24000D7003022B16E82403080808E93400F9A0
:102C3400EE4F6003022B1F8882898374FFF0A3F098
:102C44009006CFE004F09006CFE0600A1231A7129C
:102C540008927900800B85088285098312351A79D8
:102C64000A02341274EA12175C74FE1217058C12ED
:102C74008D13EA2405F50CEB123D54123A4A7508FB
:102C840000750900EA2402F510EB3400F5118518EB
:102C94008285198385820A85830B780A12196F85C8
:102CA4000C82850D83A3A3A3A3122E4012196FE5F2
:102CB4000C2405F50AE50D123506780A12196F85FC
:102CC4000C82850D83122E44120B26740612171BD8
:102CD4008A0A8B0BEA450B7003022DE5EA2404F5FE
:102CE4000EEB122E2A123A4A8A828B83A3A3A3E004
:102CF400F98510828511831231BB6003022DE5E44E
:102D0400F514F515781412196F7514B8751506783D
:102D14001412196F7514B9751506781412196F7495
:102D2400061217501219867913AC0AAD0B8510825E
:102D3400851183123D7212171BE9F5096003022DF8
:102D4400E59006B8E0F8E5087009E024029006D0A2
:102D5400F080149006D0E0FCE82402FAE43400FB8E
:102D6400EA6C7001EB707E850882AA82122F6A9445
:102D740014122F62506B850E82850F83E0C0E074BD
:102D8400D12A122E21D0E0F00508850E82850F830A
:102D9400A3E0C0E085080A74D1250A122E21D0E0F0
:102DA400F005089006B8122E4012196F7CB97D0602
:102DB40085080A74D1250A122E3412171B9006B8FE
:102DC400E02508F50874FF6E700374FF6F6012EE5F
:102DD40024010EEF3400FFE508C394145003022CC1
:102DE40092E50860131231C5851082851183123172
:102DF400B112089879008014E509700375090A85F1
:102E04001282851383EEF0A3EFF0A909740212175E
:102E14001B7F0E02182E85080C74D1250CF58274C4
:102E2400063400F583223400F50F850E82F58322E3
:102E3400FA74063400FB1203D6740222123A80227A
:102E4400A3A3122E4A22123511FDEEFAEFFB2274CF
:102E5400EE12175C74FE1217058C0E8D0FEA240512
:102E6400F50CEB123A21750B009006CFE4F0F50A4D
:102E7400EA2402F508EB3400F50980449006CFE01B
:102E8400FA9006B8E0F8122F6A9417122F62400DD8
:102E94009006CFE0F87416C3989006B8F0122F731A
:102EA40012196F7CB97D0674D02AFA7406122E3773
:102EB40012171B9006B8E0F89006CFE028F0050A38
:102EC400E50C2416F582E50D122E25E0F8E50AC37B
:102ED4009850749006CFE0C39416506BE50AC33340
:102EE400F8E433F9E50C28FEE50D39FF85188285F1
:102EF4001983AC82AD838E828F83122F7C70087508
:102F04000B011235168050E4F510F51178101219E2
:102F14006F7510B8751106781012196F7510B975A0
:102F24001106781012196F74061217501219867947
:102F340016850882850983123D7212171BE9F50B69
:102F44007003022E8080BB7CCF7D068508828509B4
:102F5400831231B11208AAA90B7402023414E99441
:102F640000C365D03322EA28F8E43400F9E822E00B
:102F7400F5107511007810221234098A108B11ACE7
:102F840010AD11EC4D2274EA12175C74FC12170593
:102F94008A0C8B0D8C128D13EA2405F50AEB12357D
:102FA40006750800750900E50A2402F510E50B34DE
:102FB40000F511740212175085820E85830F780E66
:102FC40012196F850A82850B83A3A3A3A3123A2641
:102FD40012196FE50A2405F50EE50B3400F50F7898
:102FE4000E12196F85108285118312350C1231ABC4
:102FF400120B26740612171B8A0E8B0FAE0EAF0F20
:10300400E50C2402F50EE50D3400F50F80388882B6
:10301400898374FFF00508122E1A74FFF0050890D6
:1030240006B8E0F50C750D00780C12196F7CB97DAB
:103034000685080C74D1250C122E3412171B900629
:10304400B8E02508F508EE4F60278E828F83A3A38E
:10305400A3E0F9850E82850F831231BBEE2404129E
:103064003A1EE96027850C82850D8312319D123545
:1030740023E50870030231831231C5850E82850F62
:10308400831231B11208B07900023198E4F514F5D5
:1030940015781412196F7514B87515067814121969
:1030A4006F7514B9751506781412196F7408121710
:1030B400501219867911EEFCEFFD850E82850F837F
:1030C400123D7212171BE9F509709A850882AA82CB
:1030D400EA9006B87009E024049006D0F08025E058
:1030E400F89006D0E0F514E82404FCE43400FDEC88
:1030F40065147001ED7081122F6A9412122F6240D0
:103104000302307C850C82850D83E0C0E074D12AF3
:10311400122E21D0E0F00508850C82850D83A3E0F2
:10312400C0E0122E1AD0E01231E085820C85830DA6
:10313400780C12196F7404121750121986851082B4
:103144008511831231D712171B8A0C8B0DAE0CAF6D
:103154000D85080C74D1250CF874063400F9EE4F73
:103164007003023012851882851983E0888289836E
:103174001231E0A3E0C0E0122E1AD0E0023020E5C4
:1031840009700375090A850A82850B8312319D1221
:103194003523A9097404022E12123D468512828534
:1031A4001383227CCF7D06850A82850B831231B579
:1031B40022E0FAA3E0FB221231B5120B14E9F5095F
:1031C400229006D0E0F5F0E508849006CFF07CCF9D
:1031D4007D0622122E4A120B32740422F005088551
:1031E40018828519832274EC12175C74FE12170579
:1031F4008A088B098C0E8D0FEA2405FEEB3400FF40
:103204001233F3EE2418123A1EEA450B700302320D
:10321400961233DC50291232BB8A108B11EA451105
:10322400606B7912AC0AAD0B850882850983123173
:10323400B185108285118312175AE9F50A7058E492
:10324400F50AF50B780A12196F8E828F83A3A3E017
:10325400F50A780A12196FEE2403123503780A125C
:10326400196F8E828F831232C8120C46740612179D
:103274001BE9F50A7021850C82850D83E0701F859A
:1032840008828509831231B11208B68011750A0EBD
:103294008009750A018004E50A6003123516850C5D
:1032A40082850D83E0600479008002A90A74021209
:1032B400171B7F0C02182E8518828519831231B5CD
:1032C400120C3422123511FD8508828509831231CE
:1032D400B52274EE12175C74FE1217058A088B0966
:1032E4008C0C8D0DEA2405FEEB3400FF750E0012E4
:1032F40033F3EA450B70030233BA1233DC502C1259
:1033040032BB8A0E8B0FEA450F604A7912AC0AADC4
:103314000B8508828509831231B1850E82850F835E
:1033240012175AE9F50E60030233BD850882850938
:10333400831235F8AA0AFB1233CE70147AFF7BFF8E
:103344001233CE606C88828983E50AF0A3E50BF022
:10335400750A008007750E0E805F050A9006B5E0B9
:10336400FAE50AC39A504AE50A75F017A4FAABF0D5
:1033740088828983A3A3E02AFAA3E03BFB8A828B99
:103384008312350CEC4D70D2750A17750B00780A50
:1033940012196FEEFCEFFD1203D6740212171BEE26
:1033A400FCEFFD8508828509831231B11208BC80C7
:1033B40014750E098003750E01123D3E850C82853D
:1033C4000D83123523A90E022F5D120C288A108B4F
:1033D40011A810A911E84922E5082402F508E50915
:1033E4003400F5098A828B83A3A3A3E0A2E5228596
:1033F4001882851983AC82AD838E828F831234093F
:103404008A0A8B0B22E0FAA3E0FB120B2C22740431
:1034140012171B7F0A02182E74EC12175C8C108D85
:1034240011EA2405F50CEB123A21750F00EA240287
:10343400F50AEB123506850A82F5831231B1123D85
:10344400F870030234F8750E008071850C82850DC6
:1034540083E06401704F8E828F83A3A31219868E3A
:10346400828F83A3A3A3A3E0F5127513007812122D
:10347400196FEE2405F512EF3400F51378121219C2
:103484006F1231AB120C46740612171BE9F50F606C
:1034940014850C82850D83E4F0123D3E85108285EF
:1034A40011831235237C177D007900EEFAEFFB12AD
:1034B40003EE8E828F83E4F0A3F0050E9006B5E050
:1034C400F8E50EC398501EE50E75F017A4F8A9F0A0
:1034D400850882850983A3A3123D5E12350CEC4D49
:1034E400600302344F85088285098374FFF0A3F0DA
:1034F400E50F70061231AB1208C2A90F0232B6F5FD
:103504000AEF3400F50B22A3123511FD22E0FCA3CF
:10351400E0228E828F83123D46850E82850F83E8DA
:10352400F0A3E9F022C082C0839006B1E06A700380
:10353400A3E06B70067AB17B0680047A007B0002FC
:10354400286B74F712175C7F00EF75F003A4F8A9D9
:10355400F0EC28F8ED39F988828983E06A7003A3D6
:10356400E06B7006E8FAE9FB800B0FEFC3940240AE
:10357400D87A007B007F0102182E74F612175C12B1
:103584003B2F70067A007B008007A3A3A3A312310C
:10359400B1023BF074F212175CE9FE740E1217507C
:1035A4001235F87410121750123A608C828D83E031
:1035B4006402703BA3123D4288828983E0F50CA328
:1035C400E0F9A80C74026870037429697021750C01
:1035D40002750D00780C12196F780812196F780AA9
:1035E40012196FEEF9120C6A740612171B80027915
:1035F40001023C60E0F50AA3E0F50B2274E812171F
:103604005C74FB121705E9851882851983F08A1604
:103614008B178C0E8D0F741F121750123A60742181
:103624001217501235F87423121750123A4A7510B3
:10363400008C828D83A3A3A3E0A2E4502A741D12FC
:1036440017501232C18A828B83E58245837003024C
:10365400370C790AAC0EAD0FAA16AB1712175AE93C
:10366400F510600302370F850E82850F83E0640234
:1036740060030239C5A3123D42850882850983A3EC
:10368400858212858313E50E2406F50CE50F123AA4
:103694002188828983E0FAA3E0F9EA2400F514E49E
:1036A40039F51578141219F9010000280128D436C7
:1036B40007000228AB3703281B370029D538012916
:1036C400FD380229A4380329D53804296639C539B7
:1036D400EE4F703E850C82850D83123A3BFAE9FB6E
:1036E4008A828B83E0850A82850B83123A771219CA
:1036F4006F8A828B83A3123511FDAA08AB091203CA
:10370400D6740212171B800375100EA910740502DB
:103714003D4C75100B80F4EE4F70F7850A82850BD3
:10372400837401F0123A50850882850983F07C0085
:103734007D00850E82850F83A3A3A3A3E02401FA51
:10374400A3E03400FB120B2CEA4B60418A828B838A
:10375400E02402F8850A82850B83E028F0EA240439
:10376400F8EB3400F988828983E08512828513831B
:10377400123A89123A7712196F8A828B8312350BA7
:10378400E5082403FAE5093400FB023702850A82BE
:10379400850B83E02404F07C047D007900AA12AB3D
:1037A400131203EE02370FEE4F6003023716123A7C
:1037B40050FEA3E0FF850A82850B837404F0EE8536
:1037C4000882850983F0EF851282851383F07403E0
:1037D400121750AC82AD83EEFAEFFB123B1D70035F
:1037E4000238818A828B83A3A3123A46740112178A
:1037F4005085820E85830F780E12196F7405121787
:10380400501219867CFF7DFF120B32740412171BB1
:103814008B0FEA450F7033850C82850D83123A268F
:1038240012196F850C82850D83A31219867C027D83
:10383400007A817B8412095E740412171BE9700AF2
:10384400740112175074FFF0A3F08E828F83E0642A
:10385400027034750C02750D00780C12196F8E828B
:103864008F8312350BE5082404FAE509122E37126A
:10387400171B850A82850B83E024028009740112D8
:103884001750EEF0A3EFF07401121750123A37F00C
:103894007401121750A3123A2FA3A3A3F002370FF7
:1038A400EE4F6003023716850C82850D8312350CAA
:1038B400AA16AB17120C5E850A82850B837402F07C
:1038C400EA850882850983F0851282851383EB805B
:1038D400CBEE4F6003023716123A50F8A3E0F98595
:1038E4000A82850B837402F0E8850882850983F0D7
:1038F400E985128285138380A3850C82850D83124A
:1039040031B11203D0EAFC8C82A882C39EE49F40AA
:103914004BE86E7001EF70047C00801F851882856F
:103924001983E0FAEE2AFAEF3400FBC3EA98EB9429
:10393400005003E08004EECCC39CFCEC850A828535
:103944000B83F08C0A750B00780A12196F850C82B0
:10395400850D83E02EFCA3E03F0236FD75100702BF
:10396400370FEE4F6003023716850C82850D8312E4
:103974003D42850A82850B837407F088828983120D
:103984003A2F123A17E0851282851383F0E8240255
:10399400FAE93400FB8A828B83123A2F123A6812B6
:1039A4003A37A3123A71123A40F0E82405F8E934A0
:1039B40000F988828983123A40A3123A89A3023813
:1039C4009D741D121750123B28700302370C123DD0
:1039D40042880C890DE8450D700302370C8E108F58
:1039E40011781012196F780A12196F780812196F6A
:1039F4007406121750E0F9AC0EAD0FAA16AB17857A
:103A04000C82850D8312175A740612171BE9F510E0
:103A140002370FF088828983A322F50CEF3400F576
:103A24000D22E0F50E750F00780E22E085088285E0
:103A3400098322123A9022123D46E822123A90A3B8
:103A4400A322A3A3A3A3E0FEA3E0FF22850C828507
:103A54000D83E0F8A3E0F5838882E022E0F508A373
:103A6400E0F50922A3A3F08A828B83A3221227887C
:103A7400A3A322F08A828B83123A8022E0F50A758E
:103A84000B00780A22123A17123A9022E085088233
:103A9400850983A3A32274EE12175C74FE12170522
:103AA4008A0A8B0BECFAEDFB7414121750E0F51034
:103AB400A3E0F5117416121750E0FE741812175093
:103AC400E0F50EA3E0F50F851882851983AC82AD6D
:103AD40083123B1D603E851882851983123B286042
:103AE4002FA3A3123A60E50845096024780E121941
:103AF4006F781012196FEEF9AC0CAD0DAA0AAB0B6E
:103B040085088285098312175A740412171B8006CC
:103B1400790E80027901022F5D120B2C8A0C8B0D19
:103B2400EA450D221231B5123B2F22120BF28A8282
:103B34008B83E58245832274F612175C74FE121798
:103B440005740C121750123A3B851882851983F0BC
:103B54007401121750E9F0E4F508F5097808121910
:103B64006F750802780812196F7404121750858251
:103B740008858309780812196F120C467406121707
:103B84001B740212171B806474F712175CEAFEEBB5
:103B9400FF89087CE87D06120C5EEA5402600BA9DA
:103BA40008EEFAEFFB120B208002790102357974DA
:103BB400F612175C74FF6A700374FF6B701C7B0051
:103BC400EB75F003A4F8A9F0EC28F8ED39F9123BF1
:103BD400F50BEBC39402501480E6120C2E8A088B6A
:103BE40009A808A909E8496003123BF57F020218F5
:103BF4002E8882898374FF122786E4F02274F612D9
:103C0400175C120C2E8A828B83E58245836006A39F
:103C1400A3E0FA80027A007B0080D174F212175C70
:103C24008A088B09ECFEEDFF740E121750E0F50ABA
:103C3400123C65701CEEFCEFFD7AFF7BFF123C65C5
:103C440070047911801688828983E508F0A3E50958
:103C5400F088828983A3A3E50AF079007F0602181D
:103C64002E120C2E8A0C8B0DA80CA90DE849227477
:103C7400EE12175CEAFEEBFF8C088D09890C7412B6
:103C8400121750123D42741412175012350C741648
:103C94001217501231B1750D00EC4D6003023D3620
:103CA4007402650C6003023D3188828983123511E8
:103CB400F9EC2400F50EE439F50FEAF4F8EBF4F925
:103CC400EC58F8E50F59F9E849705DE5082406F861
:103CD400E5093400F9880A890B8882F583122E4697
:103CE400120C5E8A108B11E50E65107004E50F65E9
:103CF400116042780E12196F850A82850B83122E89
:103D040046120C64740212171BE9F50D7027780E25
:103D140012196F850882850983A3A3122E44120CFD
:103D240076740212171B800D750D808008750D0DB9
:103D34008003750D0BA90D0234178E828F83123DFB
:103D44004622E0F8A3E0F92212171B7F1002182E76
:103D54003400F50D850C82F58322E028FEA3E039BA
:103D6400FF8E828F83227916850A82850B83123116
:103D7400B5120C4074082274F212175CEAFEEBFFD1
:103D8400890B7401650B600E7402650B7063790115
:103D9400120E50E9705BEEFAEFFB123DF8604775C6
:103DA4000A00800B7C177D0079001203EE050A904F
:103DB40006B5E0F8E50AC3985021E50A75F017A4A2
:103DC400F8A9F0850882850983A3A3E028FAA3E073
:103DD40039FB8A828B8312287270C985088285090F
:103DE4008374FFF0A3F07CE87D06EEFAEFFB120C7F
:103DF40058023C60120C288A088B09EA450922748F
:103E0400F212175C8A088B09ECFEEDFF740E121790
:103E1400501235F8900D6BE0F4603D7A097B001286
:103E24000400EA4B60328A828B8374B1F0A3E412FB
:103E34003A6AA3123A68A3E508F0A3E509123E5FC3
:103E4400EEF0A3EF123E5FA3A3E50AF0A3E50BF0A7
:103E5400900D6BE0F912040C023C60F08A828B83B3
:103E6400A3A3A3A3A322C082C0839061907404F08F
:103E7400A37448F0A37402F09061807440F09061E0
:103E8400BC7403F09061877419F0906265741BF040
:103E940090619C740DF090619A7433F0A37455F0A2
:103EA4009061A0743AF090092CE064017009C29109
:103EB400900796746780059007967461F090264A7F
:103EC400E493906186F0902644E493F46027E493AD
:103ED400540FF8906185E0686012E5C65480444947
:103EE400F5C6E59E547F644970F8E8F053C680E552
:103EF4009E547F70FA79051211A40240ACC082C0AE
:103F040083E9540FF9906185E0696012E5C6548035
:103F14004449F5C6E59E547F644970F8E9F053C6F8
:103F240080E59E547F70FA0240ACC082C083E5A84D
:103F3400F853A87E906181E4F0A3F0A3F0C2BA53D1
:103F44009AFEC289759B00C2C275E900759100751D
:103F5400BF0075A91175B905906181F0A374C0F013
:103F6400A3E4F0D2BA439A0174805842A80240AC48
:103F7400C082C08374F8121705900794E0F8A3E098
:103F8400F9E84970030240A2900794E0544060238A
:103F94007908851882851983AA82AB8312100C854F
:103FA4001882851983AA82AB83120CE2900794E0ED
:103FB40054BFF0E054806010790C7A507B091210E1
:103FC4000C900794E0547FF0E0A2E0503190619AA5
:103FD4007433F0A37455F09061A0743AF090092CF6
:103FE400E064017009C29190079674678005900798
:103FF400967461F0120CE8900794E054FEF0E054DB
:1040040002603190619A743FF0A3745AF09061A0F9
:10401400747FF090092CE064017009D291900796A6
:1040240074718005900796746AF0120CE8900794F6
:10403400E054FDF0E054046013902648E49390614A
:1040440086F0120CEE900794E054FBF0E054086004
:1040540013902649E493906186F0120CEE90079435
:10406400E054F7F0E05410601390264AE493906112
:1040740086F0120CEE900794E054EFF0E0542060C8
:104084000A120CEE900794E054DFF0A3E0540160B0
:104094000D120F34120CF4900795E054FEF07408DE
:1040A40012171B8003F0A3F0D083D0820201357471
:1040B400EC12175C74F4121705851882851983AC09
:1040C40082AD837583837582C0740412161890269A
:1040D4004893F46003024240907808E0C39402508D
:1040E400030242207404121750AC82AD837583839B
:1040F40075824E7408121618851882851983858274
:10410400128583137404121750AC82AD83750EFFAD
:10411400750FFF7FFF7E00750C48750D7880157450
:10412400086E70030241B374096E70030241B374E4
:104134000A6E607B850C82850D8378081215D58CF8
:10414400828D83A909E50AC9F888107418780812C1
:104154001516E5104508F8C3E098A3E099850C828C
:10416400850D8378081215D540188C828D837418B8
:104174007808121516E5104508F8E0C398F8A3E08E
:10418400801C74187808121516E5104508FAE9FB26
:104194008C828D83E0F8A3E0F9EAC398F8EB99F9EF
:1041A400C3E8950EE9950F5006880E890FEEFF0EB1
:1041B400E50C2404F50CE50D3400F50DEEC3941361
:1041C400500302412374FF650E700474FF650F6091
:1041D400238F08740278081216F274482508F582B1
:1041E40074783509F58378081215D58512828513FC
:1041F40083E508F0EC24020C0CED3400FD851282FA
:10420400851383A3858212858313740C121750E5DA
:10421400826C7003E5836D600302411175080175BA
:104224000900780812196F7402121750AC82AD831A
:104234007A927B0912064C740212171B740C121723
:104244001B7F0C02182EC082C0839061AE7468F08C
:10425400A3746AF090624574FBF0A304F053F4FD78
:1042640043FE0290092C7401F09061A0E0643A903E
:10427400619A70237433F0A37455F09061A0743A7A
:10428400F0740164017009C29190079674678028E4
:1042940090079674618021743FF0A3745AF0906182
:1042A400A0747FF0740164017009D2919007967430
:1042B400718005900796746A0240AB7F0402182E41
:1042C400C082C0839008DEE06401700A9008E3E0D5
:1042D4006004790C800279000240ACC082C083750E
:1042E400E1F19008E1E0605514600814605914602D
:1042F400518059120F469008D7E0F97AD87B0812FA
:1043040011269083B81215F312115C9083EC1215E8
:10431400F31211329008E2E0F912113E7901121100
:10432400989008D5E02416F8A3E03400F98882892F
:1043340083745EF0A3740FF079000240AC120F4C4A
:1043440080B4120F5280AF120F5880AA791280EAFB
:1043540074F412175C75D90D9008C6E0A2E0E4333A
:104364001313F89008D7E0C4333354C0484401F51C
:10437400D978D5790888828983A3A3A3E0F5D9885D
:10438400828983A3A882A983E864DB7003E96408B3
:1043940070E378C6790888828983A3E0F5D9888296
:1043A4008983A3A882A983E864CC7003E9640870B4
:1043B400E575E1959008C6E0F97AC77B0812112CDF
:1043C400900D8D74F2F0A3740EF0A37454F0A374E2
:1043D40010F0A37454F0A37410F0A37454F0A374F5
:1043E40010F0A374F8F0A3740EF0A37454F0A37443
:1043F40010F0A37410F0A3740FF0900D9B7454F09C
:10440400A37410F0A37454F0A37410F0A37454F0C4
:10441400A37410F0A37454F0A37410F0A37454F0B4
:10442400A37410F0A37454F0A37410F09008D5E0B2
:10443400F8A3E0F5838882A3A378081215D59083A6
:10444400BC78081215619083C878081215AF9008DB
:10445400D5E0240EF8A3E03400F988828983780833
:104464001215E49008D5E02414F8A3E03400F98888
:104474008289837413F09007927402F00242BFC0E1
:1044840082C0839008E7E02407F5D99008D7E0C4F8
:10449400333354C0F5D978D5790888828983A3A3A6
:1044A400A3E0F5D988828983A3A882A983E864DB81
:1044B4007003E9640870E39008E7E0601F78D57939
:1044C40008FAE82413F582E93400F583E0F5D98885
:1044D400828983A3A882A9831AEA70E6900907E077
:1044E4002407F5D99008D7E0C4333354C04404F505
:1044F400D978D5790888828983A3A3A3E0F5D988DC
:10450400828983A3A882A983E864DB7003E9640831
:1045140070E3900907E0601F78D57908FAE824333E
:10452400F582E93400F583E0F5D988828983A3A86C
:1045340082A9831AEA70E675E195900D8D74FEF0F8
:10454400A3740EF0A37454F0A37410F0A37454F085
:10455400A37410F0A37454F0A37410F0A374F8F0CF
:10456400A3740EF0A37454F0A37410F0A37410F0A9
:10457400A3740FF0900D9B7454F0A37410F0A37403
:1045840054F0A37410F0A37454F0A37410F0A37443
:1045940054F0A37410F0A37454F0A37410F0A37433
:1045A40054F0A37410F09083D41215F39008D5E05E
:1045B400240EF8A3E03400F9888289831215FF9051
:1045C40008D5E02414F8A3E03400F98882898374C0
:1045D40012F090079274010240ABC082C08390082D
:1045E400E7E02407F5D99008D7E0C4333354C04436
:1045F40002F5D978D5790888828983A3A3A3E0F545
:10460400D988828983A3A882A983E864DB7003E93B
:10461400640870E39008E7E0601F78D57908FAE849
:104624002413F582E93400F583E0F5D9888289837F
:10463400A3A882A9831AEA70E675E195900D8D749A
:104644000AF0A3740FF0A3740AF0A3740FF0A37418
:104654000AF0A3740FF0A3740AF0A3740FF0A37408
:104664000AF0A3740FF0A3740AF0A3740FF0A374F8
:1046740010F0A3740FF0900D9B7454F0A37410F019
:10468400A37454F0A37410F0A37454F0A37410F042
:10469400A37454F0A37410F0A37454F0A37410F032
:1046A400A37454F0A37410F09083D41215F39008FB
:1046B400D5E0240EF8A3E03400F98882898312152A
:1046C400FF9008D5E02414F8A3E03400F988828927
:1046D400837414F090079274040240ABC082C083C8
:1046E4009008E7E02407F5D99008D7E0C4333354A1
:1046F400C04406F5D978D5790888828983A3A3A311
:10470400E0F5D988828983A3A882A983E864DB7051
:1047140003E9640870E39008E7E0601F78D579083E
:10472400FAE82413F582E93400F583E0F5D98882A8
:104734008983A3A882A9831AEA70E6900907E02472
:1047440007F5D99008D7E0C4333354C04404F5D9ED
:1047540078D5790888828983A3A3A3E0F5D98882D0
:104764008983A3A882A983E864DB7003E9640870E1
:10477400E3900907E0601F78D57908FAE82433F557
:1047840082E93400F583E0F5D988828983A3A8827D
:10479400A9831AEA70E675E195900D8D7404F0A36F
:1047A400740FF0A37454F0A37410F0A37454F0A322
:1047B4007410F0A37454F0A37410F0A37454F0A311
:1047C4007410F0A37454F0A37410F0A37410F0A345
:1047D400740FF0900D9B7454F0A37410F0A37454F0
:1047E400F0A37410F0A37454F0A37410F0A37454E1
:1047F400F0A37410F0A37454F0A37410F0A37454D1
:10480400F0A37410F09083D41215F39008D5E0242B
:104814000EF8A3E03400F9888289831215FF90080A
:10482400D5E02414F8A3E03400F988828983741550
:10483400F090079274030240ABC082C0839008D505
:10484400E0F8A3E0F5838882A3A3A3A3A3A3E402CF
:1048540040A974F712175C9007C0E0F875F004A43F
:10486400C8AAF02AF974C228F8740739F9E82405AB
:10487400FAE93400FB8A828B83E0FCA3E0FD8882A2
:104884008983A3A3A3A3A3A3A3A3A3ECF0A3EDF001
:1048940088828983A3A3A3A3A3A3A3E024FFF8A3EB
:1048A400E034FFF98A828B83E8F0A3E9024AFB74BF
:1048B400F712175CEAFEEBFF9061D0E06003024957
:1048C4009075D90E75D90375D904EE248CF582EF51
:1048D4003400F583E5822408F8E5833400F9E0F533
:1048E400D9A3E865827003E9658370F2EE2484F548
:1048F40082EF3400F583E5822404F8E5833400F97B
:10490400E0F5D9A3E865827003E9658370F275E187
:10491400957908EE248CFAEF3400FB121000790428
:10492400EE2484FAEF3400FB1210007C00EEF8EF62
:10493400F9ECFAC3E49AFA95E0FBEE2AFAEF3BFBB2
:10494400EA248BF582EB3400F583E0C0E0E824AB85
:10495400F582E93400F583D0E0F00C88828983A3E2
:10496400A882A983ECC3940840C7EE2470F582EFB3
:104974003400F583E0F8A3E0F9EE2472F582EF3415
:1049840000F583E8F0A3E9F0790180027900024A96
:10499400FCC082C08375D90275D90375D90575E148
:1049A40095EA2470F582EB3400F583E0F8A3E0F98E
:1049B400EA2472F582EB3400F583E8F0A3E9F07998
:1049C400010240AC74F612175CEAFEEBFF9009306A
:1049D4007406F0750830750909780812196F7C019E
:1049E4007903121048740212171B75D90675D9037E
:1049F400758230758309E0F5D9A3E58264357004C6
:104A0400E583640970F075E195900792E06408709D
:104A14001EEE2470F582EF3400F583E0F8A3E0F98C
:104A2400EE2472F582EF3400F583E8F0A3E9F0791F
:104A340001024BC874F612175CEAFEEBFF9061D0DA
:104A4400E070667801900930740BF0900792E0648E
:104A5400077019750830750909780812196F7C01F7
:104A64007903121048740212171B7805740128F593
:104A7400D975D903758230758309E8FAE0F5D9A3AD
:104A84001AEA70F875E195EE2470F582EF3400F5BA
:104A940083E0F8A3E0F9EE2472F582EF3400F583A5
:104AA400E8F0A3E9F0790180027900024BC874F7B9
:104AB40012175CEAFEEBFF75D90375D90375D90D9E
:104AC400EE24DEF582EF3400F583E0F5D975E19547
:104AD4007904121162EE2470F582EF3400F583E05C
:104AE400F8A3E0F9EE2472F582EF3400F583E8F0E0
:104AF400A3E9F079018001F07F0102182E74F61207
:104B0400175CEAFEEBFF9061D0E0F87480C398FA7A
:104B1400EE2483F582EF3400F583E06004780480AA
:104B2400027800E8240BF8EAC3985003024BC67DD0
:104B340009900930EDF0EE24E3F8EF3400F97A310E
:104B44007B097C0888828983E08A828B83F088824F
:104B54008983A3A882A9838A828B83A3AA82AB8335
:104B64001CEC70E0EE2483F582EF3400F583E06002
:104B74001D750830750909780812196F7C097903C5
:104B8400EEFAEFFB121048740212171B7D0D74012C
:104B94002DF5D975D9037582307583098D08E0F533
:104BA400D9A31508E50870F675E195790412116228
:104BB400EE241DF582EF3400F583E4F0A3F07901CF
:104BC400800279007F0202182E74F612175CEAFE46
:104BD400EBFF9061D0E0F87480C398FAEE2483F57B
:104BE40082EF3400F583E06004780480027800E802
:104BF4002408F8EAC3985003024CCD7D069009308E
:104C0400740CF09007AFE0900931F07AB07B07782C
:104C14003279097C028A828B83E088828983F08AD4
:104C2400828B83A3AA82AB8388828983A3A882A967
:104C3400831CEC70E07AB27B077C028A828B83E06F
:104C440088828983F08A828B83A3AA82AB83888239
:104C54008983A3A882A9831CEC70E0EE2483F582E7
:104C6400EF3400F583E0601D750830750909780894
:104C740012196F7C067903EEFAEFFB1210487402E6
:104C840012171B7D0A74012DF5D975D9037582306D
:104C94007583098D08E0F5D9A31508E50870F67544
:104CA400E1957904121162EE2470F582EF3400F577
:104CB40083E0F8A3E0F9EE2472F582EF3400F58383
:104CC400E8F0A3E9F0790180027900024BC874F698
:104CD40012175CEAFEEBFF9061D0E0F87480C39891
:104CE400FAEE2483F582EF3400F583E0600478045F
:104CF40080027800E82404F8EAC3985003024DAC1B
:104D04007802900930E8F0EE24F5F582EF3400F5EE
:104D140083E0900931F0EE2483F582EF3400F583CB
:104D2400E0601B750830750909780812196F7C0258
:104D34007903EEFA121048740212171B78067401F4
:104D440028F5D975D9037582307583098808E0F58B
:104D5400D9A31508E50870F675E195EE2474F5827B
:104D6400EF3400F583E4F0EE2480F582EF3400F5AF
:104D740083E4F0EE241DF582EF3400F583E4F0A320
:104D8400F07904121162EE240DF582EF3400F583FC
:104D9400E0F8A3E0F9EE2472F582EF3400F583E83D
:104DA400F0A3E9F0790180027900024BC874F6128D
:104DB400175C9061D0E0F87480C398FCEA2483F512
:104DC40082EB3400F583E06004780480027800E824
:104DD4002404F8ECC398405B79029009307407F01E
:104DE400EA24F6F582EB3400F583E0900931F0EA29
:104DF4002483F582EB3400F583E060187508307580
:104E04000909780812196F7C0209121048740212F9
:104E1400171B7906740129F5D975D9037582307584
:104E24008309E9F8E0F5D9A318E870F875E19579F4
:104E34000180027900024BC874F512175CE9FCA2E8
:104E4400AFE433F50AC2AF7D0080010DEA246FF5AB
:104E540082EB3400F583E0F8EDC398501A8D08EA2C
:104E64002508F8EB3400F9E8246BF582E93400F501
:104E740083E06C70D68024EA246FF8EB3400F9E008
:104E8400FEEA2EFAEB3400FBEA246BF582EB3400E5
:104E9400F583ECF088828983E004F0E50AA2E092CD
:104EA400AF7F0302182E74F612175CA2AFE433FD31
:104EB400C2AFEA246FF582EB3400F583E014F07C92
:104EC4000060368C08EA2508F8EB3400F9E8246C15
:104ED400F582E93400F583E0C0E0E8246BF582E96B
:104EE4003400F583D0E0F00CEA246FF582EB340053
:104EF400F583E0F8ECC39840CAEA246EF582EB34FB
:104F040000F58374FFF0EA246AF582EB3400F5833C
:104F1400E4F0EDA2E092AF024BC8C082C083E5A8E2
:104F2400F8C2AFEA246BF582EB3400F583E9F0EACA
:104F3400246AF582EB3400F583E4F0E8A2E792AF4B
:104F44000240AC74F312175CEAFEEBFFECFAEDFBE3
:104F54008A828B83A3A3A3A3E0541FF0EE2436F527
:104F640082EF3400F583E4F0F50AEEFCEFFD8A826B
:104F74008B83E0C0E0EC245DF582ED3400F583D052
:104F8400E0F0750B00E50A33333354F8F50C8A82EC
:104F94008B83E0F508750900E50B78081216D3E554
:104FA40008A2E0502FEE2436F8EF3400F988828905
:104FB40083E0F508EE2508F508EF3400F509E50867
:104FC4002438F582E5093400F583E50CF0888289FC
:104FD40083E004F0050B050CE50BC3940840AF0512
:104FE4000A8A828B83A3AA82AB838C828D83A3AC2F
:104FF40082AD83E50AC394055003024F727F050214
:10500400182E74F712175C9007BEE0640170077ADB
:10501400007B0002517D7E009007C4E070F17401B2
:10502400F0A3E4F0A3F090082404F0900827E4F03F
:10503400A3F090082A04F09007C7E4F0A3F0A3F0CB
:10504400A3F09007D104F09007F7E4F09083F412F2
:1050540015F39007DA1215FF9007DEE4F0A3F0A32E
:10506400F0900842F0900836F090082B7480F0A37A
:10507400E4F0900831F0900829F09008ADF0A3F026
:10508400A3F0A3F0A3F0A3F0A3F0A3F09008B6F06C
:10509400900845F0900895F0A3F09083F41215F36E
:1050A4009008971215FF9083F41215F390089B1241
:1050B40015FF9008A1E4F09008A3F090089FF090E9
:1050C40008B9F0A3F0A3F0A3F0A3F0A3F0A3F0A316
:1050D400F078BE7907E8246FF582E93400F583742B
:1050E400FFF00E88828983A3A882A983EEC3940467
:1050F40040E37ABE7B0778CD790888828983E0C053
:10510400E0EA2461F582EB3400F583D0E0F0888294
:105114008983A3A882A9838A828B83A3AA82AB836F
:10512400E864D27003E9640870D07ABE7B0778A57E
:10513400790788828983A3E0C0E0EA24E7F582EB5B
:105144003400F583D0E0F088828983A3A882A98300
:105154008A828B83A3AA82AB83E864AD7003E9647B
:105164000770CF9007BEE004F0640170089007C692
:10517400E09007C0F07AC27B07024AFCC082C08379
:105184009007C5E4F09007C4F09007BEF0A3F0A325
:1051940074FFF075E1F10240ACC082C083780079FD
:1051A400009007C5E0600478C2790788828983A3E8
:1051B400A3A3A3E0F90240AC74F612175CEAFEEB79
:1051C400FF8E828F83A3A3A3E0600F8E828F83A3BD
:1051D400A3A3E4F09007BFE014F09007BEE014F03E
:1051E40070069007C074FFF08E828F83A3A3E4F04F
:1051F4009008D2E0700D9007BFE06401700579005B
:10520400121144EE2465F582EF3400F583E0F8A32F
:10521400E0F9E8496029EE2465F8EF3400F98808DC
:1052240089098882F583E0FCA3E0FD9007C0E0FAD9
:105234007B00120D18850882850983E4F0A3F0EE43
:10524400FAEFFB121078024BC874F712175CEAFEEF
:10525400EBFF8E828F83A3A3A3A3E0FA7B00120D3E
:105264005AEEFAEFFB120FCA121060024AFCC08217
:10527400C08378A5790788828983A3E4F08882892A
:1052840083A3A882A983E864AD7003E9640770E688
:105294009007A60245D974F612175CEAFEEBFFEC00
:1052A4002403F8ED3400F988088909EC2407F8EDA3
:1052B4003400F9E8FCE9FD8C828D83E0F8A3E0F981
:1052C400850882850983E0FAA3E0FB12167AEE24AE
:1052D4000DF582EF3400F583E8F0A3E9F08C828DBC
:1052E40083E0F8A3E0F9850882850983E0FAA3E066
:1052F400FB12167A8B09EA45096013EE240DF58238
:10530400EF3400F583E02401F0A3E03400F0024B15
:10531400C874F612175CEAFEEBFFEE242EF582EF5A
:105324003400F583E0FCA3E0FD780079FAECFAEDB3
:10533400FB12167AEE2470F582EF3400F583E8F060
:10534400A3E9F0780079FAECFAEDFB12167A8B09EE
:10535400EA45096013EE2470F582EF3400F583E02A
:105364002401F0A3E03400F0024BC874F012175C7F
:10537400EAFEEBFF741012175078081215D51211BB
:10538400028A0C8B0D8C0E8D0F9083D0780C121525
:10539400619083C8780C1215AF780C12196B8E8249
:1053A4008F83E0F8A3E0F5838882A3A31215F31298
:1053B40023DA740412171BE960030254BC8E828F33
:1053C40083E02402F8A3E03400F9E8FAE9FB8A82D6
:1053D4008B8378081215749083C878081215D58ABF
:1053E400828B8378081215C2EE240BF582EF340009
:1053F400F583C082C0838E828F83A3A3A3A3A3E07B
:105404002401F8A3E03400F9D083D082E06870036B
:10541400A3E069700579010254BE8E828F83A3A331
:10542400A3A3A3A3A3E02401F0A3E03400F0EE249B
:1054340074F582EF3400F583E064017036EE247570
:10544400F582EF3400F583E0F8A3E0F98E828F83D0
:10545400A3A3A3A3A3A3A3E0687003A3E0697013A9
:10546400EE2475F582EF3400F583E02401F0A3E027
:105474003400F0EE2480F582EF3400F583E064011B
:105484007036EE2481F582EF3400F583E0F8A3E072
:10549400F98E828F83A3A3A3A3A3A3A3E0687003BD
:1054A400A3E0697013EE2481F582EF3400F583E004
:1054B4002401F0A3E03400F079007F0802182E7470
:1054C400F712175C9007C0E0F875F004A4C8AAF0BE
:1054D4002AF974C228FE740739FF8028EE2465F87F
:1054E400EF3400F988828983E0FCA3E0FD88828997
:1054F40083E4F0A3F08E828F83A3A3A3A3E0FA7BBB
:1055040000120D18EE2465F582EF3400F583E0F8FF
:10551400A3E0F9E849604FEE2464F582EF3400F526
:1055240083E0F5087808121973EE2463F582EF34EA
:1055340000F583E0F9EE2465F582EF3400F583E0AD
:10554400FCA3E0FDEEFAEFFB120FF4740112171B3B
:10555400E96089EE2465F582EF3400F583E0F8A371
:10556400E0F9E84970137C007D008E828F83A3A349
:10557400A3A3E0FA7B00120D18024AFC74F212177E
:105584005CEAFEEBFF890A740E121750E0FAEE246F
:1055940062F582EF3400F583E06401600302564C47
:1055A4009061D0E0F87480C398F50CEE2483F58202
:1055B400EF3400F583E06004780480027800890801
:1055C400E928F8E43400F9E824020808E93400F989
:1055D400E50C98E499A2D265D0334068EA70057569
:1055E4000B028003750B01E060397509007808121D
:1055F400196F7A307B0912102A740212171B75086E
:1056040030750909780812196FAC0AA90BEEFAEF84
:10561400FB121048740212171B7404250AF50A7C45
:10562400307D097401250AF5D9850BD9E50A600D89
:105634008C828D83F8E0F5D9A318E870F875E195AC
:10564400790080067907800279FF7F0602182EC050
:1056540082C083E960208C828D83E08A828B83F010
:105664008C828D83A3AC82AD838A828B83A3AA822E
:10567400AB8319E970E0ECFAEDFB0240AC74EA127A
:10568400175C907803E06442705E90092FE014F098
:105694007056C2AF12569B00782AD0E0F618D0E0BC
:1056A400F6E59F5407F970059083DC80039083E04E
:1056B40078081215D5E9C4C0E07829E65508F5083C
:1056C40008E65509F509740B78081216E3D0E025AD
:1056D40008F8906270E0A2E740F8E8C33390627281
:1056E400F0906270E0D2E0F09007C0E0F470030242
:1056F4005AA4E0F875F004A4C8AAF02AF974C228E0
:10570400FE740739FFEE2402F582EF3401F583E0DD
:10571400F8A3E0F9E849601EEE2402F582EF3401B3
:10572400F583E0FAA3E0FBEE2401F582EF3401F502
:1057340083E0F91204308E828F83A3A3A3A3A3A3CF
:10574400A3E0F8A3E0F98E828F83A3A3A3A3A3E825
:10575400F0A3E9F0906054E0900799F0906055E070
:1057640090079AF0906056E090079BF0906057E0A5
:1057740090079CF0906058E090079DF0906059E08D
:1057840090079EF090605AE090079FF090605BE075
:105794009007A0F090605CE0FC9007A1F090605D41
:1057A400E0FB9007A2F090605EE0FD9007A3F0900C
:1057B400605FE0FA9007A4F090079FE08C0825084A
:1057C400F8E43400F98D08E82508F8E93400F98B89
:1057D40008E82508F8E93400F98A08E82508FAE910
:1057E4003400FBEE24F7F582EF3400F583E02AF071
:1057F400A3E03BF08C08EE24F9F582EF3400F58346
:10580400E02508F0A3E03400F0EE24FBF582EF3449
:1058140000F583E02401F0A3E03400F0EE24FFF56A
:1058240082EF3400F583E0F8A3E0F9E849604290A0
:105834006000E0C333FCE433FDE82CF582E93DF578
:1058440083E02AF0A3E03BF0906000E0FA9007A127
:10585400E0FCEAC333FAE433FBE82AF8E93BF9E86D
:10586400244AF582E93400F583E02CF0A3E0340007
:10587400F090079FE070119007A2E0700BA3E07016
:1058840007A3E070030259848E828F83A3A3A3A38A
:10589400A3E0F8A3E0F9EE240DF582EF3400F583DC
:1058A400E028F8A3E039F9EE240BF582EF3400F593
:1058B40083E8F0A3E9F0EE240FF582EF3400F583DA
:1058C400E4F0EE241CF582EF3400F583E06401700B
:1058D4001EEE2420F582EF3400F583E0F8A3E0F90E
:1058E400EE241DF582EF3400F583E8F0A3E9F0908F
:1058F400079AE06052EE241CF582EF3400F58374BD
:1059040001F0EE246AF582EF3400F583E07038EE9E
:105914002474F582EF3400F583E0702BEE2480F5D7
:1059240082EF3400F583E0701EEE2420F582EF341C
:1059340000F583E0F8A3E0F9EE241DF582EF3400CE
:10594400F583E8F0A3E9F0906062E07003025A374F
:105954008E828F83E0F8A3E0F9E82406FCE93400A2
:10596400FDE82402FAE93400FB1210FC8E828F83D6
:10597400E02412F8A3E03400F988828983025A41B2
:105984009007A1E0603AEE240FF582EF3400F5832E
:10599400E4F0EE241CF582EF3400F583E06401703A
:1059A40040EE2420F582EF3400F583E0F8A3E0F91B
:1059B400EE241DF582EF3400F583E8F0A3E980209E
:1059C400EE24FDF582EF3400F583E02401F0A3E03A
:1059D4003400F0EE241DF582EF3400F583E4F0A3E7
:1059E400F0EE240BF582EF3400F583E0F8A3E0F940
:1059F4008E828F83A3A3A3A3A3E0687003A3E069AB
:105A040060030258F3EE240FF582EF3400F583E0CF
:105A140060128E828F83A3A3A3A3A3E06405700204
:105A2400A3E0600B7908EEFAEFFB120FD0807179D6
:105A34003E80F3EE241DF582EF3400F583E4F0A3F9
:105A4400F0906060E0C0E0EE2469F582EF3400F588
:105A540083D0E0F090079FE0F8EE2467F582EF34FE
:105A640000F583E028025BA490092DE06401703501
:105A74001211B0EE2467F582EF3400F583E070066E
:105A84009060607480F0EEFAEFFB1210BAE96401E2
:105A9400600E120FEE1210B4E9640160031210607C
:105AA4007F0E02182EEE2483F582EF3400F583E096
:105AB4006004780480027800E50CC398F9120D0C98
:105AC4008A0A8B0BEA450B60A7EE2483F582EF3438
:105AD40000F583E070048A088B09E50C60128508E0
:105AE40082850983F512E5D9F0A31512E51270F643
:105AF400EE2483F582EF3400F583E0603774FC25EF
:105B04000CF50C780812196FAC0CA90DEEFAEFFB2A
:105B140012104E740212171BE970197403650D708C
:105B240003025BE4E50A24FBFAE50B34FFFB1204F1
